:040000006F20804E9F
:1000040000000000000000009000002076020020A4
:10001400A9BDF9F5940000200000000000000000D4
:10002400960000209800002000000000000000005E
:100034009A000020000000009C0000200000000046
:100044009E0000200C08002010080020A4000020BE
:10005400A6000020A80000204A040020AC000020D4
:10006400AE000020B0000020B2000020B400002048
:1000740030040020F2020020BA000020BC0000205E
:10008400BE000020C0000020C2000020C4000020E8
:1000940001A001A001A001A001A001A001A001A054
:1000A40001A001A001A001A001A001A001A001A044
:1000B40001A001A001A001A001A001A001A001A034
:1000C40001A001A001A0B71700409306700523808A
:1000D400D704130780FA2380E7040100010003C654
:1000E400B7041376F60DA385C7042380070413769B
:1000F40005024DC203C6A700118A1DE22380D7045E
:100104002380E7040100010003C7A7001367470029
:100114002385E7009307004B01000100FD17EDFF65
:10012400B7170040930670052380D704130780FA9D
:100134002380E704010001007D892394A7000100C6
:10014400010001000100238007042380D7042380D9
:10015400E704010001000100010037270040930675
:100164001005A303D78023800704B71700401307A3
:1001740070052380E704130780FA2380E704010055
:10018400010003C7B70413670708A385E7042380A6
:10019400070482801376050441C603C6A700418A7A
:1001A4001DE22380D7042380E7040100010003C774
:1001B400A700136707012385E7009307007D01006B
:1001C4000100FD17EDFFB71700409306700523806B
:1001D400D704130780FA2380E70401000100137693
:1001E400F501136606042394C70001000100010011
:1001F4000100238007042380D704130660042380AE
:10020400E7046318C5000100010037270040894650
:1002140089BF01000100372700409306200591B7EC
:100224002380D7042380E7040100010003D787005B
:100234001367070C2394E7000DBF41118146014663
:100244008145114506C66925B71700401307700597
:100254002380E704130780FA2380E70401000100E8
:1002640003C76704136717002383E7042380070485
:10027400B240410182808146014681451145892D64
:10028400B7170040930670052380D704130780FA3C
:100294002380E704010001007D562396C7022380D2
:1002A400D7042380E7040100010003C76704136730
:1002B40017002383E7042380070401A0BD47330507
:1002C400F50201007D1575FD8280411122C426C20C
:1002D40006C6AA84014463179400B240224492449F
:1002E4004101828005041305803E4204C13F4180E0
:1002F400DDB7B717004003C72706218B05CB03C71B
:1003040017061377F707A380E706174700001307BC
:10031400672E2394E70603C7270613678700238104
:10032400E7068547174700002306F71273002030BD
:100334004111594506C6974000E0E78060F2454503
:10034400974000E0E780C0F14945974000E0E7802E
:1003540020F14145974000E0E78080F071459740E7
:1003640000E0E780E0EF0145973000E0E78060B00F
:100374008566014681450545A12B7DF981460146E7
:1003840081451145B123B717004013077005238039
:10039400E704130780FA2380E704010001007D5776
:1003A4002396E70203C76704136717002383E70450
:1003B4002380070401A04111594506C6974000E077
:1003C400E78000EA4545974000E0E78060E9494559
:1003D400974000E0E780C0E84145974000E0E780AF
:1003E40020E87145974000E0E78080E701459730B9
:1003F40000E0E78000A88146014681451145C929EE
:10040400B7170040130770052380E704130780FA29
:100414002380E704010001007D572396E70203C708
:100424006704136717002383E7042380070401A0EC
:10043400B7170040130700032388E70285471747CF
:1004440000002325F704730020300111A3070100E5
:1004540022CE26CC4ACA4EC8378400408347640063
:1004640093F7F70FA307F1008347F100898B638BA0
:100474000732834774001307000393F70703638865
:10048400E7088344740083477400BD8893F7070327
:1004940063800720130700026396E70617490000EC
:1004A4001309C97C639D04129757000083C74794BE
:1004B4009D83FDC78347240293C707042301F402E5
:1004C4008347240293F7C70F93E727002301F4021D
:1004D400832749019745000083C5857963F6F50AAA
:1004E4008D8F17470000232DF77883278901BE9548
:1004F4009747000023A8B77813050008977000E019
:10050400E780C0C3B787004009472383E7003784E7
:10051400004083477400E207E18763D9072C9307FF
:1005240020FC2301F402974400009384247483A5DF
:10053400840C2146175500001305858B97C002E0F3
:10054400E78060328387441863CA070023000402EB
:100554008347240293F7C70F2301F4023784004032
:1005640083472402175500001305858893F7370F36
:1005740093E787002301F402977000E0E78040AA24
:1005840089472303F4009DA483258901BE959747D9
:10059400000023A9B76E9747000023A3076EA9BFE5
:1005A400175700000347D7849547631BF700834719
:1005B40034000347090093F70708D98FA301F40017
:1005C4008347240293F7C70F93E727002301F4021C
:1005D4008347240293F7370F2301F40225B7914789
:1005E4006398F4008347240393C707042309F402A0
:1005F400154433D48402930700033304F40293971D
:1006040024003E94B7870040938727023E94834793
:10061400040093F7C70F93E727002300F400E14792
:10062400B387F402CA97D84B03C64700944F637943
:10063400E6048C4B118FB296B2958CCBD8CB94CF69
:1006440088476376E60297C002E0E780C021E1476D
:10065400B384F4028547CA9403C75400630BF700BC
:100664008347040093F7C70F2300F40061BD3A8663
:10067400D9BF8347040093F7C70F93E71700EDB77B
:10068400B305D7008CCF23AA070013E50408BDB532
:10069400A1EC834724028344840017490000130912
:1006A400E95C93C707082301F4028325890C032519
:1006B400090D268697C002E0E780E01A8325890D9C
:1006C4000145A6959747000023AEB7668327490DD9
:1006D400858F174700002325F766977000E0E780B1
:1006E400E0A7E39104E2EDB58347740093F70704B0
:1006F400E38A07E091476398F4008347240393C790
:1007040007082309F4026144B3878402B7890040CF
:10071400174400001304845503C989004A863E9493
:100724008325840C0325040D97C002E0E780A01301
:100734008327040D8325840D0347440CCA9723287B
:10074400F40C8327440DCA95232CB40CB38727419A
:10075400232AF40C6363E90099E72685977000E087
:10076400E780C09F45B39547B3D7F402130700034E
:100774008A0493892902B387E7020347540CBE9481
:100784008547CE946309F70083C7040093F7370FB6
:100794002380F40085BB83C7040093F7370F93E7E6
:1007A4004700FDB78347F100858B99CFA30104006F
:1007B400977000E0E78080838347240293F7370F24
:1007C4002301F402854775BB8347F100918B95C7DC
:1007D40083475400918B91C70145975000E0E7800F
:1007E400A072B787004011472383E7007244E244B4
:1007F4005249C2490561730020308347F10093F7E1
:10080400F70F41B3411106C6A52DFDBF730020307B
:10081400730020302303048015472303E480010080
:100824002302A480828083076480E3CE07FE23032F
:100834000480828083076480E3CE07FE03454480FE
:10084400828083076480E3CE07FE2302A480828033
:10085400411126C44AC24EC006C61377F50BAD47F4
:10086400AA892E8995446306F70019456537653FC3
:100874008D444E854537FD59FD1463983401B240CB
:10088400A24412498249410182801355090113751A
:10089400F50F453F2209CDB7011126CC06CEB7048A
:1008A400080051371545BD37713769372AC6A53F4A
:1008B40032459377150089EB136515001375F50F11
:1008C400F240E24405618280FD14E9FC0145CDBF9C
:1008D400397126DC4ADA4ED852D656D45AD25ED072
:1008E40006DE62CE66CCB7E700E07D5783AA070038
:1008F40022C603AA470023A0E71823A2E718B717C4
:100904000040130770052380E704130780FA23804F
:10091400E70483C74704930B75FFB684E20793FB90
:10092400FB0F8546AA892E8B328937240040E18744
:10093400015763FA76016308D5008946130700025C
:100944006313D5000157D98F93F7F70FB71C0040F5
:100954002382FC0411472303E4801305F00F5D3D5B
:10096400094CD135636D7C11B7050700DA953787DB
:100974000700795563F2E504B3879500636EF702C7
:10098400370B0800A94733EB65016399F90689E43D
:100994008144513D26850DA0DA850945553D05095B
:1009A4000345F9FFFD14050B693D81C49377FB0FE3
:1009B400FDF7DD3569FD7D55B71700401307700558
:1009C4002380E704130780FA2380E70403C747045E
:1009D400418B2382E704F250B7E700E023A05711CC
:1009E40023A24711E25432445259C259325AA25AEC
:1009F400125B825B724CE24C21618280A547639555
:100A0400F90685691309F00FB3069900B3742B0135
:100A1400B6941349F9FFB3749900856B337969016E
:100A2400416B9387F9FFB3F7270199E363FC340122
:100A340093D94900C147E3E637FF99BF0569C16906
:100A44007D19D9B71305800D638869011305000268
:100A54006384790113051008CA85DD3B353D21DD2A
:100A64004E99B3843441D9B7DA852D45D533CA9428
:100A7400E30099F205097D3BA30FA9FED5BF938737
:100A8400F9FF93F7F70F6361FC0C83C71C0413078A
:100A94003008631FF70437070800636BEB04B307E0
:100AA4009B00B706100063F5D704334BEB0089476E
:100AB4006393F9068980D549E38C04ECDA8509450A
:100AC400413B11090327C9FF91472320E480030711
:100AD4006480E34E07FE23033481FD17EDFBFD1410
:100AE400110B81C49377FB0FE9FF7D3371F5E1B5F9
:100AF400B717004003C75704B70708001377070266
:100B040019E3B78707007955E378FBEA33079B00BD
:100B1400E3FFE7F855B58547E382F9F2DA852D4519
:100B2400053B9389F4FFE38504E6293393F7390001
:100B340091EB832604800327090093074900E39A75
:100B4400E6E43E89CE84F1BFB5476396F900130508
:100B5400900BC93135BDB1471305B00AE38BF9FEDB
:100B640099476391F904B7050800B365BB002D45A7
:100B7400C53181448D4BA14975396396740183272E
:100B840004802320F9008504E39834FF832704803C
:100B940013172B01635507002312F900D5BB232239
:100BA400F900FDB39D476399F90281451305B0042B
:100BB4004531BD442320090023220900FD599D39F4
:100BC40093F77400CA9703C70700FD14398D238077
:100BD400A700E39634FF6DBBA1476392F9046D3916
:100BE4008144630D0B008D479304C0036308FB002D
:100BF4009304000563048B01930440041375C50733
:100C0400E30895D819453931393905452131268507
:100C14000D3909453D314931E31C05D669BB91477E
:100C24006399F90013056006F536F53E130590093E
:100C34000DB7E38F09D4F154A9BB19CD91CD09CED9
:100C440081473387F500834607003307F50085079E
:100C54002300D700E317F6FE828019C991C909CA97
:100C6400910583A7C5FF11057D16232EF5FEC5BF8B
:100C7400828001C919C62A960505A30FB5FEE31D96
:100C8400A6FE828081473307F5000307070019E3B6
:100C94003E8582808507C5BF01112E8626CAAA8497
:100CA400131506019305F004418122CC06CE32C609
:100CB400EF1040592A8401C53246A685BD3F2285DE
:100CC400F2406244D24405618280854715C18DC1DA
:100CD40005C28147B306F5003387F50083C60600D5
:100CE400034707006398E6008507E315F6FE85478A
:100CF4003E8582808147EDBF9307F6FFBE952A9615
:100D04006313C5008280FD1583C715000505A30F75
:100D1400F5FEFDB7AA87014581CF09CE3E9685072A
:100D240003C7F7FF6317B700E39BC7FE054582803F
:100D34008280014582807971976700009387879943
:100D440022D4804306D626D24AD04ECE52CC56CA9E
:100D54005AC85EC662C45DCC37C9C901814B176AE3
:100D64000000130AAA9B976400009384E496130975
:100D7400F937976A0000938AAA90B709C0A8370B7D
:100D840040578357240095E35C44639D0B00176729
:100D940000002321F794032CC4002285EF10A057F0
:100DA400628499A823A6FB00FDB783270A008297D3
:100DB400838664011C4463DB06063307F5406367DE
:100DC400E9089767000023A5078C83552400034591
:100DD4000400977000E0E78080705C405844A9CF1D
:100DE4001444B6978386640163C5060063E3370140
:100DF400DA971CC4A28B3A8449F49767000093875E
:100E040027889C4B09476378F706F9171767000092
:100E14002320F788B250225492540259F249624A6C
:100E2400D24A424BB24B224C45618280E377F5F8BB
:100E34003387F9402A9761B763970B0097670000DF
:100E440023AAE78889BF23A6EB00B1B7D85009CFFE
:100E540063DF06003385A74083A70A016376F500A4
:100E64009767000023A6A782A28B404471B7E3F3DF
:100E7400A7FECE97C5B79767000023AB078059BF7D
:100E8400411122C417640000130484821C4006C666
:100E940026C24AC091C782979767000023AA078099
:100EA4005C4091C382971C406391071C97670000C4
:100EB40083C7979E858B9DC797670000A38E079C69
:100EC400176700000347779D954763FDE700EF0030
:100ED40010379767000083C7579CF5178A07A297B6
:100EE4009C438297176900001309C99E8347C90070
:100EF400918B99C3EF1060281C4491C38297975437
:100F040000009384E47C984017560000034656770B
:100F14009757000083C7C77693961700BA9683D66F
:100F24000600D5CA9757000083C7877563EFC70AC1
:100F340097570000238607741C406398071297672D
:100F4400000083C7B79591CF9767000083C7F794D4
:100F540089EB97670000A383079497D001E0E780AB
:100F6400C04E975700009387677B9C43638F070E9F
:100F7400B707C0A817570000232CF7706D3B97578D
:100F8400000093876775DC53EDC317570000130700
:100F9400276F184B9757000083C757756367F70C83
:100FA400176700000347778F954763E0E70C834793
:100FB400C900918BDDEB90409756000083C6566CB8
:100FC40063CBD70A2244B2409244024941011773C9
:100FD40000E06700E32D850793F7F70F97560000AD
:100FE4002380F66AE3E6C7F235BF86073E9783554A
:100FF400070023100700975700002399076C9757A1
:1010040000009387A76A9C43175500000345456772
:1010140013172500BA979C4382979757000083D7EC
:10102400E76A175700000347A76593C7F7FF7D8D4D
:101034009317170098403E97835707005D8D231040
:10104400A7009757000083C7A76391C78507175761
:1010540000002307F762175700000347676297579A
:10106400000083C7F761E375F7ECB2402244924471
:1010740002494101828013971700329703570700F2
:101084006DF7850735BFAD6737C70040BD07232619
:10109400F7200F100000975700009387675EC84F32
:1010A40083278726BD66BD0693C7F7FF99836A0524
:1010B4002326D7205D8D82804111B7170040985FA9
:1010C4003AC6945F3247E39CE6FE32454101828092
:1010D40082800327851163000712411122C406C6CA
:1010E4008347C5008345C5042A8493F7C70F2306A5
:1010F400F500834697000356C70013958601618562
:1011040063F1C508635A05060345870093F6F6079D
:10111400A304D700054693E627006314C50093E6AD
:1011240017002306D4005C4389075CC3A30AB400F8
:10113400032504112E864C430905013683278411A7
:1011440003465401D44303D7C700B296118FD4C3C6
:101154002396E7008947A30DF400034744039757F8
:10116400000083C787586378F7048347C40093E774
:1011740007012306F40081A093E717002306F40077
:1011840075B79376F60F635D0502034587008545C1
:1011940013E627006314B50013E617002306C40002
:1011A400A30AD400A30407008547A30DF4008327F2
:1011B40084119C43DDF3B240224401454101828005
:1011C40093E717002306F400A30AD400A30407003E
:1011D400032504114C4309058D34832784110346E8
:1011E4005401D44303D7C700B296118FD4C32396B6
:1011F400E7008D475DBF05458280975700009387C0
:10120400E7679C43411122C406C6858B2A84C5EF37
:101214004165130525F5977001E0E780603645C503
:101224008347A5002315F50083270412BDE7232077
:10123400A4122322A41285472310F40423200500BA
:101244008347640154412316F5000347D400230463
:10125400E5000547A304E50017570000130787635B
:10126400184F1385170215811C437D151375F50F4F
:101274009CC25C43DCC21C479CC65C47DCC61C4B5E
:101284009CCA5C4BDCCA1C4F9CCE5C4FDCCE19CD97
:101294009386060213070702C1BF8327441288C33B
:1012A400835704042322A412850779B797570000B3
:1012B40083D7C76B8507175700002319F76AB24015
:1012C4002244410182808347C40023090400054568
:1012D40093C747002306F400DDB78347850193F7DE
:1012E400E70FD5EF83479501DDEB034625018346E0
:1012F400C50009CA83454503175700000347F73E55
:1013040063E7E50013F7060141CF014709C6C18A27
:101314000357651C81C68356A51C369751C3130712
:10132400C7121755000003552538B335A7023746B1
:101334000F00411113060624814622C426C206C6A4
:101344007D543305A702978002E0E780805A9757BF
:10135400000083C7F739B384A70097570000938729
:10136400676003A707098327070963F387003E849F
:10137400184375FB975700009387473A9C4382971D
:1013840081476364A400B307A440B2402244B3B7C6
:10139400970093C7170092443E854101828081479C
:1013A4003E858280797126D206D622D44AD04ECE8A
:1013B40052CC56CA5AC85EC68347350303447513D4
:1013C400AA843E941374F40F9307400263F68700D3
:1013D4001304B4FD1374F40F03AA841383AAC4136F
:1013E400A38B841222865285D685978002E0E780FB
:1013F400C04A058915E503CBD41201498149337BE1
:101404006403930B50024A865285D685978002E086
:10141400E780A048058915C5639169031374F90F22
:10142400238B8412B250225492540259F249624AD4
:10143400D24A424BB24B456182808509E20993D975
:1014440089410509E31179FDE1BF83278509035625
:10145400E503797193D60701BD8EC206C182358E2C
:101464001357764093575640898B058B5D8F93575E
:101474003640918B5D8F93571640A18B5D8F9317E8
:101484001600C18B5D8F9317360093F707025D8FAB
:10149400931756009355860093F707041E065D8F35
:1014A4001376F60F518F93D7554013D63540118AD2
:1014B400898BD18F13D67540D18F13D61540218ACD
:1014C400D18F13961500418AD18F13963500137668
:1014D4000602D18F13965500137606049E05D18F0C
:1014E40093F5F50FCD8FA20745465D8F3307C702ED
:1014F40022D42A8426D252CC56CA032A8413832A9D
:10150400C4135AC806D63697420741839357774087
:10151400135557400989858BC98F13553740118955
:10152400C98F135517402189C98F13151700418995
:10153400C98F1315370013750502C98F131557008A
:1015440093558700137505041E07C98F1377F70F8A
:10155400D98F13D5354013D755401189098B498F3D
:1015640013D57540498F13D515402189498F13959B
:1015740015004189498F1395350013750502498F6C
:1015840013955500137505049E05498F93F5F50FC2
:101594004D8F2207D98FB387C7024AD04ECE5EC67D
:1015A40062C4B697C207C18313D7774013D5574097
:1015B4000989058B498F13D537401189498F13D574
:1015C40017402189498F139517004189498F139535
:1015D400370013750502498F1395570093D587007B
:1015E400137505049E07498F93F7F70FD98F13D509
:1015F400354013D755401189098B498F13D5754050
:10160400498F13D515402189498F139515004189B8
:10161400498F1395350013750502498F13955500AD
:10162400137505049E05498F93F5F50F4D8F220719
:10163400D98FB387C702130650025285D685B69751
:10164400BD8E93940601C18033F6C402137BF60F5A
:10165400978002E0E780602405890DED8347D4126A
:1016640001498149B3849702130C5002C1804A8610
:101674005285D685978002E0E78020220589937BF6
:10168400F90F11C563863403850993F9F90F050928
:10169400E31F89FD230B6413B25022549254025960
:1016A400F249624AD24A424BB24B224C4561828093
:1016B4005E8BCDB70111975700009387A72A22CCE0
:1016C40003A4470B26CA06CE2AC42EC6854419E4B1
:1016D4000145F2406244D24405618280834791000F
:1016E40003471400858B6304F7000044CDB7194603
:1016F4009305A10013052400EFF02FDDE31795FEF9
:101704000545C1BF011122CC175400001304441A2B
:1017140018402AC62EC432C206CE3C4B93F7F7F7C4
:101724003CCB97D001E0E78000CF184097560000EB
:10173400938646153C4B93E707083CCB9C423245C5
:10174400A24523A0070003471500034825002207EC
:10175400420842970348050042970348350062084F
:10176400429798D70347550003486500220742086B
:101774004297034845004297034875006208429720
:10178400D8D7034795000348A5002207420842978B
:101794000348850042970348B5006208429798DBE6
:1017A4000347D5000348E50022074208429703484F
:1017B400C5000345F500429762052A97D8DB03C7A5
:1017C400150003C52500220742052A9703C5050015
:1017D4002A9703C5350062052A9798CF03C7550099
:1017E40003C56500220742052A9703C545002A97C9
:1017F40003C5750062052A97D8CF03C7950003C5B2
:10180400A500220742052A9703C585002A9703C528
:10181400B50062052A9798D303C7D50003C5E50030
:10182400220742052A9703C5C50083C5F5002A97F8
:10183400E2052E97D8D3D843759BD8C3D8431367F2
:101844001700D8C398431367170098C312469842E9
:101854005C43858BD1E71C4F01452300F6009C4275
:101864009C4FA183A300F6009C429C4FC18323019B
:10187400F6009C429C4FE183A301F6009C42D84FA2
:101884002302E600D84F2183A302E600D84F418308
:101894002303E600D84F6183A303E600985323048F
:1018A400E60098532183A304E6009853418323055B
:1018B400E60098536183A305E600D8532306E600A7
:1018C400D8532183A306E600D85341832307E600B7
:1018D400DC53E183A307F600F24062440561828091
:1018E4000100B5B717570000130707FA1443411155
:1018F40022C49C5E4AC006C6998326C2858B3A845C
:1019040017590000130909F8D1CB9C5E97540000C5
:10191400938444F893F7F7F99CDE175700000347C4
:10192400C7F793070008631BF700832709009C434C
:1019340093F70704175700002301F7F683C7040041
:1019440093F707049DC397570000938727DD9C43B3
:1019540082979757000023A7A7F483C7040093F73F
:10196400F70B175700002307F7F283C7440093F7D8
:1019740007048DE7854717570000A30FF7F0975723
:1019840000009387E7F29C43096798C7130700FC9C
:10199400975600002382E6F0D844F8D31C40985FA1
:1019A4001183058B09CB985F3D9B98DF05479756BC
:1019B40000002383E6EE985F1D83058B11CB985FAF
:1019C4001377F7F798DF8547175700002306F7ECDE
:1019D40083270900D8430583058B19C7D843759B12
:1019E400D8C3D843799BD8C3B24022449244024915
:1019F40041018280397106DE16DC1ADA1ED82AD635
:101A04002ED432D236D03ACE3ECC42CA46C872C662
:101A140076C47AC27EC0F935F250E2525253C253B0
:101A24003255A255125682567247E2475248C2486E
:101A3400324EA24E124F824F2161730020309757CD
:101A440000009387E7E6944397570000938787E461
:101A540003C70700058B11CB97570000238E07E2BD
:101A640097570000A38A07E2828003C71700058BFB
:101A740065F7F85271FF83C75700DDB717580000A8
:101A8400130888E0032708001C5F9583858BD1E742
:101A940009C61C5BBD832300F60085CA83270800A2
:101AA400985B4607935767016356070093E707C09F
:101AB400C207C18303970600C207C18709C7BA9743
:101AC4000947B3C7E7022390F60085CD8347150085
:101AD4008DCB9756000083C646DC93F60604138725
:101AE400970089478DCA3A9503470500854699476B
:101AF4001376F7066311D60262076187B947634C10
:101B04000700832708009C5FED838D8B1757000027
:101B1400A307F7D881473E8582808547EDBF4111F1
:101B240022C406C617540000130484D8184049E997
:101B3400AE877453FDFE3E85B28597570000238C13
:101B440007D497C001E0E7800063975700009387AC
:101B5400A7D39C43B70680009843558F98C3D857A2
:101B6400719BD8D797570000A38807D297570000D6
:101B7400A38207D21C40094798C3B7F700E003A724
:101B840007D16D9B23A8E7D003A707D15D9B23A8AA
:101B9400E7D073005010144017570000130787CF85
:101BA40083472700858B89EB83473700858BD9C70B
:101BB40097570000238207CEB2402244410182801D
:101BC4008D476310F502975700009387E7CB9C433A
:101BD400B70680009843558F98C3D857719BD8D7C0
:101BE4005DBF8547E319F5FAB567BD075CC70F10FC
:101BF40000001C400967094698C7130700F8975668
:101C04000000238BE6C8175700001307E7C71443E7
:101C1400984231830D8B6319C7001307E043F8D34F
:101C24003D673D07D8C785BF984231830D8B01E7D7
:101C340013076019EDB71307E01BD5B7FC52ADF3DA
:101C4400A5BF5D7152DC175A0000130AEAC30327CB
:101C54000A0086C6A2C4A6C2CAC04EDE1C43975957
:101C640000009389A9C917590000130969C493F79F
:101C7400F7E793E707081CC383A609003707CEFFDD
:101C84007D179C46130680022A84F98F9CC68327FD
:101C94000900130700082800B8CBAE849305100888
:101CA400EFE03FFD97C001E0E780E07697D001E0E8
:101CB400E780E08383270A009376F41F370FFCFF45
:101CC40023A40700984B4E88CA881367F70398CB60
:101CD400F84F130510F8D285137707E0558FF8CF26
:101CE4009843F576FD16758F98C39843B70633006D
:101CF400B70204001377F7E798C398439303401F90
:101D04007D1F1377F7E71367071098C303A709002C
:101D1400930F800285491C47D58F1CC78327090070
:101D24001307900D3400B8CB114901471353370002
:101D340026938347030013767700B3D7C740858B78
:101D4400DDCF9C41832E0800239C070423900706C3
:101D540003AECE02137EDEFF23A6CE0383AE0700BE
:101D6400137EF70793FE0EF833EECE0123A0C701CE
:101D740003AE4702336E5E0023A2C70383AE08009E
:101D8400014E23A27E0603DA070663074E0303AE61
:101D94000703038A0600135EFE00620E135E8E4183
:101DA4006358CA0103AE0703135EFE002380C60115
:101DB40003DE0706137EFE0F03AA4E0663060A001F
:101DC40003DA8705E37F49FB03AE4702337EEE0166
:101DD40023A2C70383870600635CF400034E030059
:101DE4003396C9001346F6FF3376C6012300C300B9
:101DF4003E8663D3A7002A861315860161850507ED
:101E04001377F70F8506E313F7F3B6402644964499
:101E14000649F259625A616182809756000093869E
:101E240026A99C42D8471316170163550602984702
:101E340013161701635006027D57B8D717570000D1
:101E440013070784584F0507175600002328E68414
:101E5400116798C798470D83058B1DC3175700005A
:101E6400034767A313671700175600002305E6A26C
:101E7400130700F8175600002300E6A2214798C76D
:101E84009847058B09CF175700000347B7A013677E
:101E9400170017560000A30FE69E054798C79847FA
:101EA4000983058B09E798470583058B31CF98474C
:101EB400175600001306069E175500001305C59C0F
:101EC4000983058B630307101841184331830D8B75
:101ED40075EBAC4B184E93F5050203471700CDCDB7
:101EE40079EF13077006D8CF03470600136717006E
:101EF400175600002300E69A114798C718415C570B
:101F0400F19B93E717005CD79C42984793163701DF
:101F140063D606029756000083C606ACC18A1757DB
:101F24000000130727A4C5CE03474707136707021A
:101F3400975600002382E6AA056798C79847931628
:101F4400270163D10602175700000347E79462078D
:101F5400618763570700054797560000238EE69272
:101F6400096798C798479316070163D606029756E0
:101F7400000083C676A6858A175700001307879E3C
:101F8400ADCE034757071367270097560000A38574
:101F9400E6A4216798C7828029D785456315B700D1
:101FA4001307B00689B789456315B7001307F00610
:101FB4001DBF8D456315B700130730072DB71307F1
:101FC400500715B71307600739BF03473600136777
:101FD400170017560000A300E68C094739BF834653
:101FE40047070946BD8A6388C600034747078D46ED
:101FF4003D8BE313D7F4114725BF83465707918AD6
:10200400C9DA034757071367870041B7397106DEFA
:1020140016DC1ADA1ED82AD62ED432D236D03ACECC
:102024003ECC42CA46C872C676C47AC27EC0F53374
:10203400F250E2525253C2533255A25512568256AE
:102044007247E2475248C248324EA24E124F824F64
:10205400216173002030175700001307A7858346BA
:10206400B7019757000083C7B7874C4BB697FD8BD2
:1020740033D7F50097560000A38EF68297560000DA
:10208400A380F686058B15EF175700000347978545
:10209400B3F7E702814601471305000233D6E50092
:1020A400058A1378F70F19CA6397D700975700006A
:1020B400A38207818280850693F6F60F0507E31F46
:1020C400A7FC828097470000938747659C430111D2
:1020D40022CC4EC606CE26CA4AC852C456C28297DD
:1020E400974700009387077F804781496305A406CB
:1020F400BE84974700009387275E038767013E8964
:1021040063550706018D135455009747000083C794
:10211400077C9379F501636DF402370AC0A8B70A06
:102124004057153F9C449746000083C6467A139750
:1021340056003E9783076901158C63C507006363E6
:10214400470156979747000023AAE778E37BD4FC1E
:102154001604B3693401F24062444E85D2444249C4
:10216400B249224A924A05618280E37D85F8B70725
:10217400C0A833848740229579B797470000938796
:10218400E7599C43411122C406C626C28297974749
:1021940000009387277480476309A406BE84974789
:1021A4000000938767538387670163D80704018D11
:1021B400135455009747000083C767716367F4049D
:1021C400593D98449747000083C76770939657001A
:1021D40036971D8C9746000023A2E670E372F4FE46
:1021E4002244B2409244174500000345B56C814532
:1021F400410117C301E06700A376E37A85FAB707C4
:10220400C0A833848740229565B7B24022449244E3
:1022140041018280974700009387476E9843B757E0
:1022240002009387079F8326070913965600635875
:102234000600832607091396660063440600FD170B
:10224400FDF3828071C5AA870145E9C58D07C207E0
:10225400C183F19BC207C18313074003636FF70275
:10226400174700001307876F084317470000130739
:10227400676E14436398A602174700001307C74507
:10228400185B014541CB4111C20706C60545DD8DEA
:102294000297B240014541018280174700001307AD
:1022A400A76BD9B70357650035E303574500636F40
:1022B400F704B306F7402146637CD60203280500E1
:1022C400938687001D8FAA96611717460000035650
:1022D400863B2392E60023A006012393060014C143
:1022E4002312F500130786FF97460000239DE63866
:1022F4002313B5009745000083D5E538B387F5402F
:10230400174700002311F7382105828008419DB743
:102314000145828082800DC197470000938707643E
:1023240003A30700974700009387C76283A80700A9
:1023340081469A8763E31701828003A807006361DB
:10234400F50C636FA80A13878700E367E5FE03D6DD
:10235400670021670507631BE60017270000034792
:10236400A71D0507172600002308E61C9745000053
:102374009385053103D6470003D7650023930700EF
:1023840032974207418317450000231EE52E638AD6
:102394006702174500001305255C08416303F50235
:1023A40003D5660019ED83D7460023A00601210753
:1023B4003E9621062392C600974700002395E72CFA
:1023C400B6879843E30A17F7974600009386C658E2
:1023D4009442E303D7F683566700B9FE83D64700D9
:1023E400035647001843A106B2962392D70098C318
:1023F40083D76500A107174700002316F7288280BA
:10240400BE86C28705BF0111974700009387875591
:1024140022CC03A4C70B26CA4AC84EC606CEAA8439
:1024240013092500854915C083C7140003473400E8
:10243400858B6304F700405CFDB71946930544009F
:102444004A85EFE09F88E31835FF2285F240624415
:10245400D2444249B2490561828041119747000044
:102464009387475022C403A4C70B26C24AC006C69A
:1024740093042500054901E82285B2402244924490
:10248400024941018280A6851305A402976002E0F7
:10249400E7804034E30225FF405CF1BF41119747D8
:1024A40000009387274C22C403A4C70B26C24AC04A
:1024B40006C693042500054901E82285B24022445A
:1024C4009244024941018280A6851305A4019760C4
:1024D40002E0E7802030E30225FF405CF1BF00000A
:1024E800972100209381814D176100201301C1B00D
:1024F8001305400097E5FF1F938545B01706002098
:102508001306C6FD63FAC5008322050023A0550003
:1025180011059105E3EAC5FE17D502001305C5F6B6
:1025280097150020938585AD17260020130686D5BC
:1025380063FAC5008322050023A055001105910503
:10254800E3EAC5FE172500201305C5EB97450020D3
:102558009385C5526377B500232005001105E36D07
:10256800B5FEFD42739002BC8D4273904280930287
:10257800800873A0023097E2FF1F938222A893E29B
:10258800320073905230975200009382E225739084
:102598001234730020303D432A876373C302937754
:1025A800F700BDEFADE5937606FF3D8ABA960CC3FA
:1025B8004CC30CC74CC74107E36BD7FE11E28280BE
:1025C800B306C3408A069702000096966780A60065
:1025D8002307B700A306B7002306B700A305B70073
:1025E8002305B700A304B7002304B700A303B7006B
:1025F8002303B700A302B7002302B700A301B70063
:102608002301B700A300B7002300B700828093F529
:10261800F50F93968500D58D93960501D58D61B7F5
:10262800939627009702000096968682E78086FA9E
:102638009680C1171D8F3E96E374C3F8A5B7B717E8
:102648000040854603C88705238CD70403C7970530
:102658001378F80F13678700A38CE704238DD7043A
:10266800371700408347A7059305A705858BFDFB12
:10267800056541473716004005439308F5FF238059
:10268800650083C60500858AEDFE8356C6057D175D
:10269800420793C6F6FFB3F616014183B69765F372
:1026A80003479605A1079183130505801377770FD4
:1026B8001D8DA30CE6044205230C06054185828086
:1026C800B717004003C777051A0592054D8D137794
:1026D800E70F13653500A38BE7041375F50FA38C7B
:1026E800A7048280B717004003C777051377E70F61
:1026F800A38BE704130700F8A38DE7043D47238C59
:10270800E70413075003A38CE70482800547B71733
:102718000040238DE704371700408347A705858BC2
:10272800EDFF0355C7055205518182804111B71746
:102738000040985F3AC6945F3247E39CE6FE324514
:10274800410182801D71D2C45EDE86CEA2CCA6CAAB
:10275800CAC8CEC6D6C2DAC062DC66DA6AD86ED615
:10276800AA8B6125B7170040930670052380D7040C
:10277800130780FA2A8A2380E7040100010003C6B0
:10278800F70213668600A387C70203C6F70213760B
:10279800760FA387C7022380D7042380E7040100AC
:1027A800010003C6E7021376C60F2387C70203C6D4
:1027B800E702136616002387C7022380D704238005
:1027C800E704010001001309803E33492503930AF9
:1027D800007D930480C103C7370593095002130B8A
:1027E800A0041377870FA389E70403C737053714B5
:1027F8000040116C13671700A389E704A167930DC4
:102808000404130D80FAE17C7D1CB30A5903B34418
:10281800950233C7FA02916AB38434033AC6B309FE
:10282800390333C7F40293047005B3C7F9023AC8F1
:102838008149330B69033ECABD67938707A6B3472F
:10284800FB02094B3ECC930770052380FD002380D3
:10285800AD01010001008347340593E70702A3098E
:10286800F40483570405B3E757012318F404835786
:102878000405B3E79701C207C1832318F40483470B
:10288800340593F70702E5C3034734059307340576
:10289800218B7DDB23809D002380AD010100010099
:1028A80003C707001377F70D2380E70003C7070066
:1028B800136707022380E70083570405B3E757012E
:1028C8002318F40483570405B3E79701C207C183AB
:1028D8002318F4048347340593F70702D5C38347C5
:1028E8003405A18BEDFF9935AA873ECE8135F24795
:1028F800E30DF5FE83570405B3E757012318F404E5
:1029080083473405A18BEDDF03570405834724056E
:102918003377EC00B307FC023E97B2471D8FC247DE
:1029280063D5E700D247634AF706636A3B07938695
:10293800190093F9F60FE24693171700B3C7D702A9
:102948006355E028850723809D002380AD01B3C728
:102958006703010001000357C402BA97C207C18385
:102968002316F402CDB523809D002380AD0101001C
:1029780001008347340593E70702A309F40401B76C
:1029880023809D002380AD010100010083473405A9
:1029980093E70702A309F40435BFE38A09F8B717D8
:1029A8000040130770052380E704130780FA23808B
:1029B800E7040100010003C7370513F6FB0F930571
:1029C80070051377870FA389E70403C73705130535
:1029D80080FA518FA389E70483C637051387370523
:1029E8009D8A6396761F930670052380D704930605
:1029F80080FA2380D70401000100834607001306EC
:102A080080FA93F6F60D2300D7008346070093E675
:102A180006022300D70003D707059166558F239830
:102A2800E70403D70705A166558F2398E7049306A3
:102A38007005B717004003C737051377070263040B
:102A4800071AB717004083C6370513873705A18AC9
:102A5800FDDA930670052380D704930680FA238055
:102A6800D7040100010083460700130680FA93F695
:102A7800F60D2300D7008346070093E606022300DD
:102A8800D70003D707059166558F2398E70403D726
:102A98000705A166558F2398E70493067005B717B5
:102AA800004003C7370513770702630B071437176E
:102AB800004083473705A18BEDFF8D392A84BD314E
:102AC800E30F85FE37170040835707059166D58FBA
:102AD8002318F704B717004003C73705938637054F
:102AE800218B7DDB130770052380E704130780FA29
:102AF8002380E7040100010003C706001377F70DE0
:102B08002380E60083D6070503C727059167FD17CD
:102B1800FD8EB387E70237470F0013070724334AB0
:102B2800EA02BE968567938707FAB397770113077A
:102B38000008B3874703130A0010B3C74703130AF3
:102B4800803EB3874703B3C7E7020547B31B770146
:102B580093DB3B403D67130707A633892B03930B91
:102B680060559D8E9307800C330979033349E90238
:102B7800B387F602B3C727036351D00A850709470D
:102B880093067005B3C7E702371700402300D70440
:102B9800930680FA2300D7049607010001008356A4
:102BA800C702F6406644B697C207C1832316F702E8
:102BB800D6444649B649264A964A064BF25B625CB9
:102BC800D25C425DB25D25618280FD17ADBB23807A
:102BD800B7042380A7040100010003C73705518FFC
:102BE800A389E704D5BB2380D7042380C704010049
:102BF800010003C7370513670702A389E70425BD4A
:102C08002380D7042380C7040100010003C73705C8
:102C180013670702A389E70469B5FD178DB79147C4
:102C280063EEB70217B70200130707508A05BA9573
:102C38009C41BA978287B717004003A7470B1345F3
:102C4800F5FF698F23AAE70A03A7070B698F23A853
:102C5800E70A03A7070A798D23A0A70A8280B71776
:102C6800004083A6470B1347F5FFF98E23AAD70A1E
:102C780083A6070B558D23A8A70A83A6070A758F75
:102C880023A0E70A8280B717004003A7470B498FA4
:102C980023AAE70A03A7070B1345F5FF45BFB71794
:102CA800004083A6470B1347F5FF758F23AAE70A51
:102CB80003A7070A598D4DB7B717004003A7470B5D
:102CC800498FEDB7914763EEB70217B702001307B4
:102CD800E7468A05BA959C41BA978287B71700409C
:102CE80003A7470D1345F5FF698F23AAE70C03A730
:102CF800070D698F23A8E70C03A7070C798D23A07C
:102D0800A70C8280B717004083A6470D1347F5FF2D
:102D1800F98E23AAD70C83A6070D558D23A8A70CD7
:102D280083A6070C758F23A0E70C8280B717004095
:102D380003A7470D498F23AAE70C03A7070D1345DF
:102D4800F5FF45BFB717004083A6470D1347F5FFAA
:102D5800758F23AAE70C03A7070C598D4DB7B71732
:102D6800004003A7470D498FEDB7B747004011470B
:102D7800A381E70009472380E700130700062380A3
:102D8800E70003C7170013670701A380E70003C71D
:102D980017001377E70FA380E7008280B74700404A
:102DA80003C707001377F70E2380E7002382A700E5
:102DB800374700408347670093F70704E5DF8280C1
:102DC800B747004003C707001377F70E2380E700D3
:102DD8007D572382E700374700408347670093F712
:102DE8000704E5DF034547008280B717004003D595
:102DF8008700420541819377050491EB9377F501AC
:102E08003755E801130505803345F502828093772D
:102E1800050C130700046397E7009377F50137451E
:102E28009C1CCDB72165130505D0828037E700E0EB
:102E38001C435443A183E206D58F1CC1FD572320B0
:102E4800F7182322F718828013178500B7E700E0E8
:102E580023A0E710618123A2A7108280B7F700E0C2
:102E68008847CC478280B717004083C7670493F729
:102E7800F70F13E7270019E113F7D70FB71700402B
:102E8800930670052380D704930680FA2380D7041D
:102E9800010001002383E70423800704828081471F
:102EA80037370040A14663C4C70032858280034596
:102EB800B740E38EA6FE3385F50003450500850778
:102EC8002304A740CDB712059A054D8D1365C5009B
:102ED8001375F50FB72700402380A7408280B727D6
:102EE800004001E5A38007408280239CB740239ED1
:102EF800C740154791E20547A380E740828041110A
:102F080022C406C62A84D5352947B307E502B2404C
:102F18008D83B3D7870222449507B3D7E7023737A3
:102F28000040C207C1832316F740410182807165C2
:102F380041111305052006C6D937B73700401307D6
:102F480070F82381E7400D47A381E7401307000489
:102F5800A380E74005472387E740B24041018280CC
:102F6800971700209387C74A9C43011106CE22CCAD
:102F780091C38297971700209387C74D804397176F
:102F88000020938727499C4313150401418181C779
:102F98002AC6829732459717002083D74722637D38
:102FA800F504171700200357A721637AA70497167B
:102FB80000209386A64503A3060063060300624427
:102FC800F240056102838507998F139507014181B6
:102FD800935725001315040141816544198D330564
:102FE80085021384F7FF22953345F5021375F50F13
:102FF800F24062440561828013054006D5BF014551
:10300800C5BF03A84500411126C206C622C483478E
:10301800180003480800A944A207B3E70701C2073C
:103028000D68C18713082890639807038547328481
:10303800EFB0C00BAA840DE1971700209387C73C17
:103048009C4399CB03451400034704002205598D7E
:103058001335150005058297B2402244268592440F
:10306800410182802D452DEFD841411122C426C24D
:1030780006C68347170003470700B684A207D98FFF
:103088000D67930697A13284639CD702D13D9717A9
:10309800002083C7A7126376F50097170020238FB7
:1030A800A71085472390F4009717002083C70711BE
:1030B8002300F4000145B240224492444101828039
:1030C800130787902945E398E7FECC458947239065
:1030D800F4000946228597E0FF1FE780C0B5D9BFF5
:1030E800828083474500858BADCB011122CC2A8491
:1030F80003552500971500209385C54A06CEEFA0F5
:10310800B079058939C5035524000147814605462C
:10311800ED45EFA0902E2AC60DCD97070020938786
:10312800E7ED83D7A70201462C002314F100854759
:103138002315F1009717002083C747082300F500DF
:1031480003552400EFB0F05409C5ED452800EFA061
:103158009042F2406244056182808280416541115B
:1031680097150020938505447D1506C6EFC0704B62
:10317800B24097060020938666ED414695451705AF
:1031880000201305A5E741016FC0903D9717002067
:1031980023ACA7268280411122C406C6854709446C
:1031A8006315F50283470600014417170020230B17
:1031B800F72417170020034767006378F7001705FF
:1031C8000000130545F2EFF0E0152285B2402244D5
:1031D8004101828085476303F50209C909476306EF
:1031E800E5020D47630AE50209458280971700202A
:1031F80083C7C7FC2380F50001458280971700200C
:103208009387472083C70700F5B79707002083D720
:1032180087DF2390F500CDB717170020130787FA2B
:10322800035707002392E50017070020130707DD5F
:103238008356A7020357A7032383F5002390D500DD
:103248002391E50055BF411106C6193B9717002089
:1032580083C7C7F6637CF500971700202380A7F67D
:1032680017050000130525E8EFF0C00BB240014533
:103278004101828041677917630EE502411122C43A
:1032880006C685472A84639CF50022852244B240FD
:10329800971500209385053141016FC09038894703
:1032A8006396F5008545EFF0600265D1B24022448F
:1032B800410182808280CC41411106C6328503C615
:1032C800150083C5050022064D8E42068D65418690
:1032D800138875A2630006116348C804138845A2C1
:1032E800630A060B634AC800938535A2630BB606CA
:1032F80023900600294659A8138855A2630C060B8B
:10330800938565A2E316B6FEC1451D4663E0E50850
:103318004546198E63F3C7003E862390C60097B5CD
:1033280002009385E5E3A9A8138895A26304060F14
:103338006342060D1388A5A2630E060F938505A5A3
:10334800E318B6FA99451D4663E2E504198E63F35E
:10335800C7003E862390C60097150020938505E791
:1033680005A09D451D4663E3E5022146198E63F3DA
:10337800C7003E862390C600971500209385C5098F
:10338800BA9597E0FF1FE780008B0146B24032856F
:1033980041018280AD451D46E3EAE5FE3146198EBE
:1033A80063F3C7003E862390C60097B50200938555
:1033B800E5DEF9B7B1451D46E3EAE5FC3546198E69
:1033C80063F3C7003E862390C60097B50200938535
:1033D800E5DD7DB7C1451D46E3EAE5FA4546198EA8
:1033E80063F3C7003E862390C60097B50200938515
:1033F80065D879B7C1451D46E3EAE5F84546198E13
:1034080063F3C7003E862390C60097B502009385F4
:10341800E5DABDB7C1451D46E3EAE5F64546198E2E
:1034280063F3C7003E862390C60097B502009385D4
:10343800A5D5B9B7B5451D46E3EAE5F43946198E71
:1034480063F3C7003E862390C60097B502009385B4
:1034580025D03DB797060020938606D34146CD4533
:1034680017050020130545BF6FC0900F828097177E
:103478000020938727FC9C43171700200347C7FAAF
:103488009716002083C676D501E781473E8582805E
:1034980003D607006316A60003C66700E308D6FE36
:1034A8007D171377F70FA107C5B7B2862E86AA85B1
:1034B80017B50200130545D56F9082450111930594
:1034C80000030D4506CEEF70E04993050005114550
:1034D800EF7040499305C0030545EF70A048854744
:1034E8001306F100854513055030A307F100EF10CE
:1034F8006211F240056182808547631CF500116600
:10350800130686A98945171500200345F5F16F5064
:10351800800E89476319F500894517150020034572
:10352800B5F06F50602E82808547639CF50009E6F0
:10353800971700202387B7EE97170020238EC7EE32
:1035480082800947639DE50019EA17170020230ABE
:10355800F7EC171500200355A5EC6F0030088280A2
:1035680097170020938787EC9C43011122CC06CE45
:103578002E8481CB9C4791C78297F24062440561B3
:1035880082806C0013057040EFF00141324681459E
:103598002285EFF0910DD5B701119397050126CA41
:1035A80006CE22CC4AC84EC652C4C187AE8463D95F
:1035B800070817150020034535E7EF40D0272A8470
:1035C80039C9034705009307000D6313F7048347C0
:1035D80025004547638BE7046547639BE70217B5FA
:1035E80002001305E5BEEF90A232130954009309B7
:1035F800B40017BA0200130AEABE834509005285CF
:103608000509EF90E230E39A29FF2945EF908234CB
:103618002285EF40301B2165258DF2406244D2445B
:103628004249B249224A05618280034665008345C2
:10363800750017B50200130565BBEF90622DC9BF71
:1036480093F7150095C317060020130666B597056E
:103658000020938525B4171500200345F5DCEF00FD
:10366800F24413C5140055BF93F725000145D5D77B
:10367800D93E1166130686A989451715002003450A
:10368800B5DAEF40507713C5240041BF797126D2CF
:103698004ECE06D622D44AD052CC9147AA84AE89BF
:1036A800631CF50483D7A5001306E10085451305BF
:1036B8005030171700202315F7D623070100971756
:1036C8000020238007D6EF00F27397170020938716
:1036D800E7D59C4391C7DC4781C7CE85268582976D
:1036E800B25022549717002023AE97D20259925411
:1036F800F249624A4561828017170020130787D272
:103708001843E314F7FC854517150020035545D1E8
:103718009536854517150020035585D00527C167BF
:10372800171A0020035ACACFF9176313FA0405447D
:103738009305E1001305504197170020238307CE16
:1037480097170020A38B87A823070100EFF0C12457
:103758008347E100B1EB171700200347E7CD9147F6
:10376800E315F7F6A13B97170020238707CCB1BFD5
:1037780097170020938707CC03A907001714002088
:10378800034484CA4DD40355290011C99305E100A7
:10379800EFA0307809C54C455285EFC080687D148C
:1037A8001374F40F2109F9BF97170020938747C8AE
:1037B8009C4383C74700898BD9DF9305000A0D45D1
:1037C800EF70401A9305000A1145EF70A019814562
:1037D8000545EF7020191306E100854513055030A3
:1037E80023078100EF001262BDB701111705000021
:1037F8001305C5DA06CE22CCEF50C02817140020D6
:10380800130494C285471306F10085452300A400DC
:1038180013054041A307F100EFF0B10F7D55EFA06C
:1038280040057D55EFC0005C35310D3A9D2B1705DD
:1038380000001305A5CC993A17050000130545C3E8
:10384800492B034504008545EF40B048F2406244E7
:10385800056182809717002023AAB7BC971700201C
:1038680023A8A7BC82809717002023A5B7BC971769
:103878000020238BA7BA828097170020938787BAE6
:103888009C43797106D622D426D24AD04ECE52CC49
:1038980011476393E7069717002083C787B8414409
:1038A80095C3971700209387E7B88043B284B689F9
:1038B8009717002083C747B7171700200347F791CA
:1038C80099EB55442285B250225492540259F24938
:1038D800624A4561828083464400639AA600834613
:1038E80054006396B600834664006380E606FD17BD
:1038F80093F7F70F2104E9B709474144E384E7FC4C
:103908002C001305504123040100EFF0E108834720
:1039180081008DCB930500020D45EF70A00493053F
:1039280000031145EF70000495450545EF708003CD
:10393800854730008545130550302304F100EF001A
:10394800724C49B7A53E4144B5BF035524009305C1
:103958006100EFA0105C35D54C45171500200355C4
:1039680025ACEFA06073058929DD1399040113596B
:103978000901014781464A86ED4517150020035580
:1039880025AA035A0400EFA040272AC64D441DD992
:103998002686CE85231441012315210197D0FF1FC8
:1039A800E780602901462C0017150020035545A71C
:1039B800EFB0204E2A84E30705F0ED452800EFA07C
:1039C800803B09B7C841011122CC06CE3284034698
:1039D8001500034505002206498E19CB0D6813080A
:1039E800B8A42D45630B0607F24062440561828046
:1039F8000D651308D5A463000603130825A2630CFC
:103A0800060175781308E85C3298420813580801D3
:103A1800854863E0080503D5A50036C632C4813C55
:103A2800B24605C597170020938747A09C432246B6
:103A38008345550003A30700A2876244F24003456B
:103A480045003687854605610283239006000145B7
:103A580061BF1308B5A463190603170600200356AF
:103A680026781D45E372C7F8198E63D3C7003E86D2
:103A7800CC452390C60042064182BA95228597D04C
:103A8800FF1FE780401BE1B79307A5A46318F60062
:103A980091472390F6001146CC45CDB79307859002
:103AA8006317F60089472390F6000946F5B7930790
:103AB800E5A4631AF600DC452390160183C70700C6
:103AC8002300F40069B713057590E312A6F8D9BF6F
:103AD800011122CC06CE26CA4AC82317D1002D448C
:103AE80039EBDC412E89B28403C4170083C7070071
:103AF80022045D8C8D679386D7A46306D4009386D1
:103B080027A36311D4040355A900953219E1014490
:103B18001DA097170020938767919C438345550004
:103B28000345450003A807002286A6871307E1007E
:103B3800814602982A842285F2406244D24442494E
:103B4800056182809386C7A46316D4028357E10077
:103B580005473544E391E7FE0345060013040008D2
:103B6800E3EBA7FC971700209387478C9C43DC4323
:103B7800829771BF93862790631ED4028356E10013
:103B88008547EFA0A0562A845DF5971700209387F4
:103B9800678A8356A9009C43171700200347C788E4
:103BA8003DD703D627006304D6047D171377F70F94
:103BB800A107FDB79387E7A4E31BF4F48357E1005B
:103BC80005473544E399E7F6034506001304000862
:103BD800E3E3A7F6DC452380A70097170020938727
:103BE800E7849C433335A0000905DC4351B7171718
:103BF80000201307A783184303C5470083C5570050
:103C080083C714000328070003C70400A2078946D6
:103C1800D98FC207C18705476383E7008D460D66C4
:103C2800A6871307E10013062690029829B7416575
:103C38004111971500209385E5977D1506C622C486
:103C480026C24AC097F4FF1F93844456EFC0601DF4
:103C580097F6FF1F938686674146C9452685EFC0BC
:103C68002010CC4C2A890945EFF0CFD697070020C1
:103C78009387875783D70700171400201304849469
:103C880017070020130707562312F40083D7A40C44
:103C980003570700971500209385C5932310F40058
:103CA80083D7A40D2316E40003D7A4102311F4002E
:103CB8000D4585472303F4002314E4002307F4008B
:103CC80023150400EFF00FD1A2850D45693EB240DF
:103CD80022444A8592440249410182808D67938734
:103CE800D7A401456311F6028D472945639DF50068
:103CF800854735456399F60083470700014517074F
:103D08000020230CF77282808D679387D7A46310F5
:103D1800F6028D47639DF5009707002083C7E7717A
:103D28002300F70085472390F60001458280239001
:103D38000600E5BF0145828035E303A84500AE884B
:103D48008347180003480800A207B3E707010D6876
:103D5800930EF8A4639CD703914735486391F60402
:103D680003A5C8004111B285114606C697D0FF1FAA
:103D7800E78060EC970700209387076D9C43054513
:103D88008297B24001484285410182809308289079
:103D980029486396170185476FA040352D4842850D
:103DA80082804165411197150020938525837D15F3
:103DB80006C6EFC00007B24097F6FF1F9386C657A6
:103DC8004146994517F5FF1F1305055141016FB08D
:103DD80030799707002023A9A766828001119705EB
:103DE80000209385A57F22CC06CE2A84EFA0C02A86
:103DF800058929C1014781460546ED452285EF9091
:103E0800D05F2AC605C997F7FF1F9387E74C83D76A
:103E1800A70501462C002314F10085472315F1005E
:103E2800230005002285EFB0C00609C5ED4528002E
:103E3800EF907074F240624405618280416779179F
:103E4800630EE502411122C406C685472A84639C95
:103E5800F50022852244B240970500209385057815
:103E680041016FB0107C89476396F5008545EFE006
:103E7800E04565D1B24022444101828082809707A3
:103E880000209387675D83950700170700201307B5
:103E9800E775170600201306A676814783560700A4
:103EA8000907AE96B697E31BE6FE2947B3D7E702A4
:103EB800170700201307C75918439386870C63EF29
:103EC800E600170700201307E75818439706002055
:103ED80023A0E65817070020232EF75682804111A9
:103EE8008945014522C426C206C6EFE06FFDB71713
:103EF8000040238C0704170400201304246F970440
:103F080000209384E46FEFE07F802310A40009046D
:103F1800E31B94FE2244B240924441018DB7411103
:103F280085451305002006C622C4EFE0BFD98545A4
:103F380013050010EFE01FD90564130504808D45B3
:103F4800EFE05FD8371700408327C70C13040480BD
:103F580081455D8C2326870C4145EFE05FCC894580
:103F68000145EFE0EFF5EFE08FED9707002023958F
:103F7800A74EB5372244B240170500200345C5288F
:103F88001306000A894541016F40E06682803D8939
:103F98007D15954763EEA70E17A70200130707299B
:103FA8000A053A951C41011106CEBA9782872C0062
:103FB80013054030EF0002512C000545EF80904278
:103FC80017A502001305052BEF80522911A803C776
:103FD80025008D4717A502001305C52AE306F7FE3D
:103FE800F2400561828003C725009547E31AF7FE72
:103FF80083D7A5000D6613060620914517050020F6
:104008000345E51F17070020231AF71EEF40A05E9F
:1040180017A502001305052845BF03C725008D47CE
:10402800E310F7FC17A502001305852771BF83C7A6
:104038002500114717A5020013050528638EE7021E
:1040480019476394E70283C5650017A502001305A5
:104058006528EF80F20B8547300085451305503001
:104068002304F100EF00025AA5BF1547E395E7FEC8
:1040780017A502001305C527EF80521EE9BF83C5A7
:10408800250017A5020013052528EF80720889BFAF
:1040980082803688BA863E876315080083C6060084
:1040A80035B985476313F80085B101458280411110
:1040B8009397050122C406C6C1872E8463D10702DF
:1040C800170500200345A513EF30F07619C1EF302E
:1040D800706F2165218DB24022444101828093F79F
:1040E800150013C51500E5FB93F745009DC3970719
:1040F800002083C7C7101307401F81462146A145EA
:10410800170500200355850FEF00A213134544003F
:10411800D9B793F785008DC7014789460946814578
:10412800170500200355850DEF00E27FAA8517A526
:10413800020013052511EF80A27D1345840061BF9D
:1041480093F725000145C1DB970600209386C64EEC
:1041580025468545EFF04FF213452400ADBF011108
:10416800170500001305E5F406CE22CC26CAEF4059
:104178007011970400209384840805442380A400C8
:10418800700085451305503023068100EF008247F3
:1041980017060020130686059D4513056030EF00BD
:1041A800624617F6FF1F1306E61AE145130570303D
:1041B800EF00424517A602001306460AD5450145F9
:1041C800EF90405C8D4770009145130570402305C2
:1041D800F10023048100A305810002C6A3040100A5
:1041E800EFE031733000854513050040EFE0717250
:1041F80013069100854513051040EFE091711306F1
:10420800A100854513052040EFE0B1701306B10009
:10421800854513055040EFE0D16F994770008545FB
:1042280005452306F100EFE01FF7113497F5FF1F4E
:1042380093854511170500201305C5FBEFF08FE1A5
:1042480003C504008545EF40C028F2406244D244CB
:104258000561828085473395A700B7E700E023A072
:10426800A71801000100828097A702009387071012
:104278008C43011106CE22CC26CA4AC84EC6AA844F
:104288003764375FEF70523A93D714401304F49DA4
:104298001D8CAA89AA852285EF701239A285EF7034
:1042A800B23817A902001309A90CAA850325090029
:1042B800EF70D260A285EF703237CE852A84EF7016
:1042C800B236A285EF705236AA8503250900EF7031
:1042D800F25EA285EF705235A685EF70F234F24097
:1042E8006244D2444249B24905618280011122CC1C
:1042F800371400400327C40A26CA856406CE2EC692
:10430800458F2326E40AEFE07FA9B2452E85EFE02A
:10431800FFA88327840AF240C58F2324F40A624445
:10432800D24405618280411122C43714004003271A
:10433800C40A26C2856406C6458F2326E40A136587
:104348000508EFE0BFA5EFE0BFA78327840AB240C6
:10435800C58F2324F40A22449244410182803717EE
:1043680000408327C70A4111856622C426C206C6B3
:10437800D58F2E84B2842326F70A13650508EFE04B
:10438800FFA1A294631F9400371700408327870A70
:10439800B24022448566D58F2324F70A924441010E
:1043A80082800504EFE0DFA1A30FA4FEE1BF0111A5
:1043B8002C0019461305B00306CE553783478100F4
:1043C800834691001707002013074724A207D58FBB
:1043D800231CF7008347A1008346B100F240A207DF
:1043E800D58F231DF7008347C1008346D100A2075C
:1043F800D58F231EF7000561828001112C00194614
:104408001305300406CEA13F8347810083469100FF
:10441800170700201307871FA207D58F231FF70050
:104428008347A1008346B100F240A207D58F23102D
:10443800F7028347C1008346D100A207D58F231115
:10444800F70205618280011122CC26CA4AC84EC6ED
:1044580052C406CE93094006014481440149170A13
:104468000020130AAA1A513F8317EA011545FD19BE
:104478003E9983170A02BE9483172A023E9497C076
:10448800FF1FE78040E4E39009FE930740063344AA
:10449800F402F240B249224A3349F902B3C4F402A1
:1044A80097070020239887186244170700202311D4
:1044B8002719424917070020231D9716D244056182
:1044C8008280011122CC1704002013042414031540
:1044D800840106CE26CA4AC84EC652C497A902000D
:1044E8009389C9E4EF80820183A5090017A9020016
:1044F800130909E497A402009384C4E3EF70D2126D
:1045080083250900EF7052128C402A8A0840EF7008
:10451800B211AA855285EF70821808C00315A4014C
:10452800EF70D27D83A50900EF7012108325090072
:10453800EF70920F8C402A8A4840EF70F20EAA85DD
:104548005285EF70C21548C00315C401EF70127B85
:1045580083A5090097A90200938949DEEF70D20C60
:1045680083250900EF70520C8C402A89084497A4CF
:1045780002009384A4DDEF70320BAA854A85EF70A0
:10458800021208C40315E4018317440217A90200A4
:10459800130949DB1D8DEF707276EF80820203A646
:1045A800090083A64900EF60A24603260900832676
:1045B8004900EF50D25F9040D440EF50525FEF80F7
:1045C800020B8317640248C4031504021D8DEF70A3
:1045D800F272EF70127F03A6090083A64900EF600C
:1045E80022430326090083264900EF50525C90407D
:1045F800D440EF50D25BEF8082078317840208C84B
:10460800031524021D8DEF70726FEF70927B03A665
:10461800090083A64900EF60A23F0326090083260C
:104628004900EF50D2589040D440EF505258EF8094
:10463800020448C8F2406244D2444249B249224A7C
:10464800056182805D715AD85ED6032B4500832BA5
:10465800050056DA832A8500A2C4DA852A845E8595
:1046680086C6A6C2CAC04EDE52DC62D466D26AD002
:104678006ECEEF70627BD685EF70027B93050000EB
:10468800EF70A2636303053CDE855E85EF70C27937
:10469800AA8CDA855A85EF702279AA856685EF702B
:1046A8000200AA8CD6855685EF700278AA856685A1
:1046B800EF60F27E553E97A702009387E7C5AA856B
:1046C800884397F4FF1F938464CA03A9C400EF705A
:1046D800A2332A8DAA855E85EF70027583A98400AE
:1046E80003AA440003AC0400AA8C08C0EA855A85D2
:1046F800EF708273AA8B48C0EA855685EF70C27244
:104708002A8B08C4CA855285EF700272AA8ACE85A0
:104718006285EF706271AA855685EF70321AAA8594
:10472800EF60F277AA8AD2856285EF70E26F2A8DF0
:10473800CA854E85EF70426FAA856A85EF6032762A
:10474800AA85EF60D2752A8DE2856285EF70C26D09
:10475800AA8DD2855285EF70226DAA856E85EF707D
:10476800F215AA8DCE854E85EF70026CAA856E85EE
:10477800EF70D214AA8DCA854A85EF70E26AAA85BD
:104788006E85EF60D271AA852AC25E85EF70C26914
:10479800AA8DEA855A85EF702269AA856E85EF7021
:1047A800F211AA8DD6855A85EF70026812472A8BB6
:1047B8006685BA85EF704267AA855A85EF70121030
:1047C8002A8BEA856685EF702266AA8CD6855E8577
:1047D800EF708265AA856685EF70520E97AA02006F
:1047E800938ACAB383A50A002A8D6E85EF70C263C7
:1047F800970B0020938B8BC683A50B00EF60326A62
:1048080083A50A0023A0AB002AC65A85EF70C261AF
:10481800970B0020938BCBC483A50B00EF60326805
:1048280083A50A0023A0AB002AC46A85EF70C25F83
:10483800970A0020938A0AC383A50A00EF603266AC
:10484800970500209385059C83AC050097050020FB
:104858009385059B83AB050023A0AA002AC2EE8599
:104868006685EF70625C4C44EF6072633246AA8AD8
:10487800DE853285EF70425BAA855685EF6032622D
:10488800AA8A48C4DA856685EF70025A0C48EF6038
:104898001261A2462A8BDE853685EF70E258AA851A
:1048A8005A85EF60D25F2A8B08C8EA856685EF7063
:1048B800A2574C48EF60B25E1247AA8CDE853A8553
:1048C800EF708256AA856685EF60725DAA8B48C82C
:1048D80037050080D68533454501EF70E2542A84B8
:1048E800CE855A85EF704254AA852285EF70027DE5
:1048F8002A84CA855E85EF702253AA852285EF70C7
:10490800E27B97AC0200938CACA183A50C00EF70FE
:10491800A251E285EF60B2582A84AA855685EF70C5
:10492800A2502A8CCE855E85EF700250AA856285DA
:10493800EF60F2562A8CCA855A85EF70E24EAA8536
:104948006285EF70A27783A50C00EF70E24DD285E7
:10495800EF60F2542A8AA2855A85EF70E24C2A8CBD
:10496800D2855E85EF70424CAA856285EF7002752C
:10497800CA852A8C5685EF70224BAA856285EF601E
:10498800125283A50C00EF70224ACE85EF60325197
:10499800AA89A2855E85EF702249AA8BD2855A859D
:1049A800EF708248AA855E85EF60724F2A8BCE85AC
:1049B8005685EF706247AA855A85EF70227083A5E5
:1049C8000C00EF706246CA85EF60724DAA8AA28514
:1049D8002285EF7062452A89D2855285EF70C244DC
:1049E800AA854A85EF60B24B2A89CE854E85EF703D
:1049F800A243AA854A85EF60924A2A89D6855685B8
:104A0800EF708242AA854A85EF607249EFF0DF8530
:104A180097A7020093874790AA858843EF60D27EC4
:104A28002A89AA852285EF70224088C0CA855285C6
:104A3800EF70823FC8C0CA854E85EF70E23E88C4D9
:104A4800CA855685EF70423EC8C4B640264496448F
:104A58000649F259625AD25A425BB25B225C925CB6
:104A6800025DF24D6161828097F7FF1F938707907F
:104A78008C4339714AD803A947002E8506DE22DC0B
:104A880026DA8047C4474ED652D456D25AD05ECE84
:104A980062CC66CA6AC8EF6092402A8BCA854A858A
:104AA800EF60F23FAA8BA2855A85EF70E237AA8998
:104AB800A6855E85EF704237AA854E85EF70026045
:104AC800EF70323097AA0200938ACA87EF40821AA1
:104AD80003A60A0083A64A0017AA0200130A0A8638
:104AE800970900209389C9B1EF50927203260A00F2
:104AF80083264A0017AD0200130D0D83EF50320BC9
:104B0800EF70F23623A0A900A2852285EF60323922
:104B180083250D00AA8C4A85EF700231CA85EF7093
:104B2800A2302A8CA2856685EF700230AA8562853C
:104B3800EF70C258179C0200130C0C7E83250C00E2
:104B4800EF60F235EF70F2272AC42EC66685A68577
:104B5800EF70822DAA8CCA855A85EF70E22CAA853F
:104B68006685EF60D233EF70D2252246B246EF4019
:104B7800821C03A60A0083A64A00EF507269032626
:104B88000A0083264A00EF509202EF70522E8325C6
:104B98000D0023A2A9002285EF700229A285EF70DB
:104BA800A2282A89A6852685EF60722FA685EF7030
:104BB800A227AA854A85EF70625083250C00EF6012
:104BC800122EEF7012202AC42EC65E85A285EF70C1
:104BD800A2252A84A6855A85EF700225AA852285F2
:104BE800EF60F22BEF70F21D2246B246EF40A2149E
:104BF80003A60A0083A64A00EF50926103260A0022
:104C080083264A00EF50A27AEF707226F25062545F
:104C180023A4A900D2544259B259225A925A025B8B
:104C2800F24B624CD24C424D21618280411106C642
:104C3800EFF0EFF7EFF06FFCEFF0BF8817050020FB
:104C48001305C59CEFF01FA0B240410131BD4111D1
:104C580022C4371400408327840A1D6706C6D98FEB
:104C680026C22324F40A8D451D65EFD05FFB8327F8
:104C7800840A21678545D98F2324F40A2165EFD05A
:104C88001FFA8144EFE06F8E4944639684089305C8
:104C980000081305B006EFF06FE51305400697B05E
:104CA800FF1FE780406281451305B006EFF00FE46F
:104CB80085451305B006EFF06FE385451305C0067B
:104CC800EFF0CFE285456945EFF04FE29D45654538
:104CD800EFF0CFE1E1456D45EFF04FE1C14571459A
:104CE800EFF0CFE08D457545EFF04FE097F7FF1FE8
:104CF8009387C730945F17F7FF1F1307E776B24013
:104D080014C3D85F224497F7FF1F9387277698C369
:104D1800924441018280094597B0FF1FE780A05A5D
:104D280013055007EFF02FE0AA8485B7411122C47C
:104D380026C206C6B284EF706238A6852A84EF6060
:104D4800927D6351A002979702009387A75D8C43D9
:104D58002285EF70A2362A842285B24022449244EA
:104D68004101828037050080A285258DEF60B27AE7
:104D7800E354A0FE979702009387C75A8C43228575
:104D8800EF60F211C9BF0111979702009387C75CC2
:104D98004EC652C4970900209389898603AA070042
:104DA80097F7FF1F9387476C8C4303A5090052862A
:104DB80006CE22CC26CA4AC85AC25EC0853F179979
:104DC80002001309295AEF70C27F032609008326BF
:104DD800490097F4FF1F93846422EF50425D2A8BA9
:104DE8008858AE8BEF70E27DAE862A86DE855A85BE
:104DF800EF501242EF70B20797F7FF1F93870767CC
:104E08008C432A8403A5490052860D37EF70627BD4
:104E18000326090083264900EF5062592A89C85899
:104E2800AE89EF70027A2A86AE864A85CE85EF5023
:104E3800323E179902001309294EEF705203832955
:104E48000900AA842285CE85EF60F26C634EA0002B
:104E5800979702009387075083A907002285CE857C
:104E6800EF60D273635305004E8403290900268539
:104E7800CA85EF60526A634EA00097970200938735
:104E8800674D03A907002685CA85EF603271635311
:104E98000500CA84179902001309494C83250900A3
:104EA8002285EF607278EF70E25983250900137448
:104EB800F50F2685EF605277EF70C25817F7FF1F7E
:104EC8000347171885471375F50F6316F700330462
:104ED80080401374F40F17F7FF1F03479716854791
:104EE8006316F7003305A0401375F50F17F7FF1F7A
:104EF8000347071501CB97F7FF1F9387E773BA9707
:104F0800A38F87FE17F7FF1F0347A71301CB97F758
:104F1800FF1F93876772BA97A38FA7FE93050002B6
:104F280017F5FF1F03458531EF30A05A6244F24060
:104F3800D2444249B249224A124B824B17F5FF1F0D
:104F48000345E52B894505616F30A058411122C4FE
:104F580006C693760530130700302A8497F7FF1F9B
:104F680083D78751639EE606850717F7FF1F23152A
:104F7800F75097F7FF1F83C7670CC5CB97F7FF1F3D
:104F88009387C70783D72704E18FC5C317F7FF1F88
:104F98000347074F9337170097F6FF1F2382F64EF4
:104FA80097F7FF1F83D7E70C25E317F7FF1F1307B2
:104FB8002765104397F6FF1F9386064B17150000C9
:104FC8001305453990C2544317F7FF1F1307074AC3
:104FD80014C30547638CE708B2402244410182802C
:104FE800C9DB1307703E637CF700EF201005EF2044
:104FF80030141715000013052563EF10E06B97F7C1
:10500800FF1F239B0746B5B70547E397E7FC97F7CC
:10501800FF1F83C787461715000013050524B9E746
:10502800171500001305E51391A097F7FF1F83D705
:10503800A701B3F6870017F7FF1F0347074485CE7C
:1050480093C7F7FFE18F85EB9337170097F6FF1F9C
:105058002385F64297F6FF1F83D6A6018547E39D71
:10506800F6F6171500001305451F5DFB2244B240F4
:1050780041016F10606497F5FF1F938545FE09E7AE
:1050880097F5FF1F938565FC97F6FF1F83C6365B70
:1050980017F6FF1F0346A65A17F3FF1F0343435A89
:1050A800138F450101488148014EA94F9D4E054582
:1050B80083C7050081CF1377140063EAFF0419C77B
:1050C800138797FF0A071373F70F054E89050580A5
:1050D800E390E5FF63060E0097F7FF1F23826756EC
:1050E8006386080097F7FF1F238BC75463060800E1
:1050F80097F7FF1FA385D7542244B24017F5FF1F27
:10510800034585100D46856541016F30C04ED517A2
:1051180093F7F70F15C363E9FE00B317F500D18FB6
:1051280013F6F70F85485DB7E117B317F500DD8E65
:1051380093F6F60F054859BF63E8FE00B317F5006C
:1051480093C7F7FF7D8EF9BF138787FF3317E500F5
:105158001347F7FFF98EF9BF97F7FF1F23ACA73066
:1051680013064006854517F5FF1F0345E5096F300F
:10517800804897F7FF1F239D072E97F7FF1F23AB44
:10518800072EB717004003A7070CC175FD156D8FD3
:1051980023A0E70C03A7070C01767D16718F23A0C7
:1051A800E70C03A7070CB706F0FFFD163D9B23A0ED
:1051B800E70C03A7070C1377F7FD23A0E70C03A759
:1051C800070A1377F7FD23A0E70A03A7070C799BC3
:1051D80023A0E70C03A7070A1377F7FB23A0E70A26
:1051E80003A7070C758F23A0E70C03A5070C370747
:1051F800C0FF7D17798D23A0A70C03A5070C75990F
:1052080023A0A70C03A5470DE98D23AAB70C83A5F6
:10521800070D4165C98D23A8B70C83A5470D170550
:1052280000001305E5D26D8E23AAC70C03A6070D4F
:10523800B70502004D8E23A8C70C03A6470D3D9A5B
:1052480023AAC70C03A6070D1366060123A8C70CDB
:1052580003A6470D1376F6FD23AAC70C03A6070D70
:105268001366060223A8C70C03A6470B1376F6FDA0
:1052780023AAC70A03A6070B1366060223A8C70AB0
:1052880003A6470D799A23AAC70C03A6070D136630
:10529800160023A8C70C03A6470B1376F6FB23AA10
:1052A800C70A03A6070B1366060423A8C70A03A6A2
:1052B800470DF18E23AAD70C83A6070D37061000D9
:1052C800D18E23A8D70C83A6470D758F23AAE70C88
:1052D80003A7070DB7064000558F23A8E70C03A7BF
:1052E800470D759B23AAE70C03A7070D1367270033
:1052F80023A8E70C95B5B717004003A5470C83A76B
:10530800470C4181134515001397E700058963444D
:10531800070013652500B717004083A7470CC18B0A
:1053280099E313654500B717004083A7470C93F727
:10533800070299E313658500B717004083A7470A5A
:1053480093F7070299E313650501B717004083A790
:10535800470C858B99E313650502B717004083A7AF
:10536800470A93F7070499E313650504B717004044
:1053780083A7470C1397B700634407001365050814
:10538800B717004083A7470C13979700634407009B
:1053980013650510B717004083A7470C898B99E35D
:1053A8001365052097F7FF1F83D7070D91C785075A
:1053B80017F7FF1F2312F70C97F7FF1F83D7470B29
:1053C800638FA70097F7FF1F2394A70A97F7FF1F7C
:1053D8009387470A03A307006303030002838280BD
:1053E80011456FD02FB6411193962500AA852D45FA
:1053F80006C697B0FF1FE780604DB24001454101E6
:105408008280411126C29394250022C44AC02A846E
:105418003289A686AA850146254506C697B0FF1F8C
:10542800E780C04AA6864A86A285294597B0FF1F0D
:10543800E780C049B24022449244024901454101F3
:105448008280011122CC06CE3714004026CA4AC8F1
:105458004EC652C483447405034AB405834984057F
:1054680003499405EFD00FA88347A40593F4F40FDC
:10547800137AFA0F93E71700230DF40493F9F90F41
:105488001379F90FB717004003C7A705058B6DFF00
:1054980003D5C705A38D4705238C3705A38C27059E
:1054A800A38B9704F2406244D2444249B249224A4B
:1054B8000561828001119397050122CC06CE26CA88
:1054C8004AC84EC652C4C1872E8463D10702EF2052
:1054D800903619C1EF20102F2165218DF2406244CA
:1054E800D2444249B249224A0561828093972501F4
:1054F80063D20702EF90E12AE53537F6020013067A
:1055080006E0896517F5FF1F034505D0EF30A00EAB
:105518000965E1B79397350163DE070417F7FF1FA5
:10552800130747128147814617F5FF1F1305C5105A
:10553800A5453306F5000346060003480700630542
:10554800C8002300C700854685070507E393B7FE13
:1055580085C29305000217F5FF1F034525CEEF20EE
:105568005077894517F5FF1F034565C9EF20707609
:105578000565A5B793F7150091CFEFF0DFD7214662
:10558800854517F5FF1F034525C8EF30C0061345AD
:105598001400A9B793F745009DC7EFF02FE917F757
:1055A800FF1F0347E7ED85476314F700EFF0AFFDF2
:1055B8004146914517F5FF1F034505C5EF30A00388
:1055C8001345440021BF93F705016381071497F43D
:1055D800FF1F83C4F4EA8DE41149268585048145BB
:1055E80093F4F40F6921E39A24FF2146C14517F586
:1055F800FF1F034565C1EF30000013450401F9BDE5
:1056080085476390F402492E894717F7FF1FA309BE
:10561800F7E6814505451D2597F7FF1F23A007E6F7
:10562800E9B78947639AF40297F4FF1F938404E566
:105638009C4085450545850717F7FF1F2320F7E49C
:10564800F52B98409307F07CE3F1E7FA8D4717F7BD
:10565800FF1FA307F7E251BF8D47639BF4009147F3
:105668008945054517F7FF1FA30CF7E0C12BB5BF08
:105678009147639AF400954717F7FF1FA302F7E0D5
:105688008145094549BF95476396F40297F4FF1F82
:105698009384C4DE9C4085450945850717F7FF1F9D
:1056A800232EF7DC612B98409307F07CE3FFE7F2A9
:1056B800994771BF9947E39AF4F28945094597F7E5
:1056C800FF1FA38F07DA97F4FF1F938464F9BD23A4
:1056D80001491D2E179A0200130A4ACEEF204025D1
:1056E800914983D7240003D7040083D6640003D6E6
:1056F8008400CA8552850509EF007000A904E312E9
:1057080039FF97B0FF1FE780C0CAC5B593F785007A
:1057180099CFEF00B07B13060006A14517F5FF1FD0
:10572800034585AEEF20306D1345840045BB93F7E4
:1057380025000145E38407DAEFE06FFA09661306EE
:1057480006F4894517F5FF1F034505ACEF20B06A3D
:105758001345240061B31D7149469795020093854E
:1057680065C1179502001305654F86CE97B0FF1FD8
:10577800E780605501E9179502001305E5C0EF7051
:10578800E22D01A0B7F600E0795798CAFD57DCCAA8
:105798000567B7E700E023A0E7101306F00290C200
:1057A80023A0E718010001001306C003814548083B
:1057B80097B0FF1FE780A04B97F7FF1F93874763BA
:1057C8003ECA896793870780231CF100ED4723129F
:1057D800F1029547A301F10285472303F102B5477A
:1057E8002304F102A167938707E03ECE97070000E4
:1057F8009387A7BFBEC4970700009387C7C0BEC6DC
:105808008567938727D02315F10297D7FFFF9387E2
:1058180027653EDAB7F50700970700009387A7C208
:105828003EDE8146970700009387C7BB7000E105FD
:105838001945BEC097B0FF1FE78040095808814747
:10584800994670003E960346060085070507A30C97
:10585800C700E398D7FED24791C7035781018567F0
:105868006373F70001A04808EF308025AA8501C9B5
:1058780017950200130585B2EF70820901A0F64062
:10588800256182804111170500001305E5C206C68F
:1058980022C4EF30201F97F7FF1F2387A7963714DE
:1058A80000406528EF204007EFF06FBAEFE0BFB97E
:1058B800EFE0EFE6592AEFF0DF8B492DEF00207A71
:1058C8008327440C898B99EF294597B0FF1FE78000
:1058D800809F8327440C898B91E7854717F7FF1F23
:1058E800A300F7BA17E7FF1F0357A7788547631187
:1058F800F70297F7FF1F83C747B81715000013056E
:10590800C59589E7171500001305A585EF00D05A3E
:1059180097F7FF1F83C7D7B69DE313060064914529
:1059280017F5FF1F0345458EEF20F04C1306006462
:10593800A14517F5FF1F0345258DEF20D04B2244C5
:10594800B24037F6020017F5FF1F0345E58B130633
:1059580006E0896541016F20104A411106C6B71754
:105968000040130770052380E704130780FA23809B
:10597800E70403C7F7021377A70FA387E70203C754
:10598800F70213672700A387E702EFF07FA5B2406D
:10599800014541016F30004697F7FF1F938747CCB9
:1059A80017F7FF1F130747CEFD56239007002391D3
:1059B8000700239307002394D70023920700A90721
:1059C800E395E7FE828097E7FF1F9387276317F722
:1059D800FF1F1307E7C897E6FF1F9386A66203D643
:1059E800870189072907231BC7FE03D6E700231C65
:1059F800C7FE03D6E7FF231EC7FE03D66700231F93
:105A0800C7FEE39ED7FC828097F7FF1F938747C5A1
:105A180017E7FF1F1307875E97F6FF1F9386C6C613
:105A280003D60700A9070907231BC70003D687FF6A
:105A38002317C70003D6C7FF231FC7FE03D6E7FFF8
:105A48002313C700E39ED7FC8280411106C6A53FF9
:105A580081453D45EFD0AF9CB24017E5FF1F034598
:105A6800A57A1306000AC14541016F20D0388D4739
:105A780063E5A71C97A702009387879C4111AA9703
:105A880022C426C24AC0AE8403C907002A848145BD
:105A9800014506C6EFC0DFC2B7170040238C2705B3
:105AA800EFC0DFC6639D0412A947B307F40217F7D6
:105AB800FF1F1307E7BA97F6FF1F9386269DBA972D
:105AC80003D60700636AC50883D7270063E6A708DB
:105AD800A296238006008D47631EF41297F7FF1FD6
