:040000006F20804E9F
:1000040000000000000000009000002076020020A4
:10001400A9BDF9F5940000200000000000000000D4
:10002400960000209800002000000000000000005E
:100034009A000020000000009C0000200000000046
:100044009E0000200C08002010080020A4000020BE
:10005400A6000020A80000204A040020AC000020D4
:10006400AE000020B0000020B2000020B400002048
:1000740030040020F2020020BA000020BC0000205E
:10008400BE000020C0000020C2000020C4000020E8
:1000940001A001A001A001A001A001A001A001A054
:1000A40001A001A001A001A001A001A001A001A044
:1000B40001A001A001A001A001A001A001A001A034
:1000C40001A001A001A0B71700409306700523808A
:1000D400D704130780FA2380E7040100010003C654
:1000E400B7041376F60DA385C7042380070413769B
:1000F40005024DC203C6A700118A1DE22380D7045E
:100104002380E7040100010003C7A7001367470029
:100114002385E7009307004B01000100FD17EDFF65
:10012400B7170040930670052380D704130780FA9D
:100134002380E704010001007D892394A7000100C6
:10014400010001000100238007042380D7042380D9
:10015400E704010001000100010037270040930675
:100164001005A303D78023800704B71700401307A3
:1001740070052380E704130780FA2380E704010055
:10018400010003C7B70413670708A385E7042380A6
:10019400070482801376050441C603C6A700418A7A
:1001A4001DE22380D7042380E7040100010003C774
:1001B400A700136707012385E7009307007D01006B
:1001C4000100FD17EDFFB71700409306700523806B
:1001D400D704130780FA2380E70401000100137693
:1001E400F501136606042394C70001000100010011
:1001F4000100238007042380D704130660042380AE
:10020400E7046318C5000100010037270040894650
:1002140089BF01000100372700409306200591B7EC
:100224002380D7042380E7040100010003D787005B
:100234001367070C2394E7000DBF41118146014663
:100244008145114506C66925B71700401307700597
:100254002380E704130780FA2380E70401000100E8
:1002640003C76704136717002383E7042380070485
:10027400B240410182808146014681451145892D64
:10028400B7170040930670052380D704130780FA3C
:100294002380E704010001007D562396C7022380D2
:1002A400D7042380E7040100010003C76704136730
:1002B40017002383E7042380070401A0BD47330507
:1002C400F50201007D1575FD8280411122C426C20C
:1002D40006C6AA84014463179400B240224492449F
:1002E4004101828005041305803E4204C13F4180E0
:1002F400DDB7B717004003C72706218B05CB03C71B
:1003040017061377F707A380E706174700001307BC
:10031400672E2394E70603C7270613678700238104
:10032400E7068547174700002306F71273002030BD
:100334004111594506C6974000E0E78000F1454564
:10034400974000E0E78060F04945974000E0E7808F
:10035400C0EF4145974000E0E78020EF71459740AA
:1003640000E0E78080EE0145973000E0E78060B070
:100374008566014681450545A12B7DF981460146E7
:1003840081451145B123B717004013077005238039
:10039400E704130780FA2380E704010001007D5776
:1003A4002396E70203C76704136717002383E70450
:1003B4002380070401A04111594506C6974000E077
:1003C400E780A0E84545974000E0E78000E849451C
:1003D400974000E0E78060E74145974000E0E78010
:1003E400C0E67145974000E0E78020E6014597307C
:1003F40000E0E78000A88146014681451145C929EE
:10040400B7170040130770052380E704130780FA29
:100414002380E704010001007D572396E70203C708
:100424006704136717002383E7042380070401A0EC
:10043400B7170040130700032388E70285471747CF
:1004440000002325F704730020300111A3070100E5
:1004540022CE26CC4ACA4EC8378400408347640063
:1004640093F7F70FA307F1008347F100898B638BA0
:100474000732834774001307000393F70703638865
:10048400E7088344740083477400BD8893F7070327
:1004940063800720130700026396E70617490000EC
:1004A4001309C97C639D04129757000083C74794BE
:1004B4009D83FDC78347240293C707042301F402E5
:1004C4008347240293F7C70F93E727002301F4021D
:1004D400832749019745000083C5857963F6F50AAA
:1004E4008D8F17470000232DF77883278901BE9548
:1004F4009747000023A8B77813050008976000E029
:10050400E780806DB787004009472383E70037847D
:10051400004083477400E207E18763D9072C9307FF
:1005240020FC2301F402974400009384247483A5DF
:10053400840C2146175500001305858B97C002E0F3
:10054400E780E0D58387441863CA070023000402C8
:100554008347240293F7C70F2301F4023784004032
:1005640083472402175500001305858893F7370F36
:1005740093E787002301F402976000E0E7800054CA
:1005840089472303F4009DA483258901BE959747D9
:10059400000023A9B76E9747000023A3076EA9BFE5
:1005A400175700000347D7849547631BF700834719
:1005B40034000347090093F70708D98FA301F40017
:1005C4008347240293F7C70F93E727002301F4021C
:1005D4008347240293F7370F2301F40225B7914789
:1005E4006398F4008347240393C707042309F402A0
:1005F400154433D48402930700033304F40293971D
:1006040024003E94B7870040938727023E94834793
:10061400040093F7C70F93E727002300F400E14792
:10062400B387F402CA97D84B03C64700944F637943
:10063400E6048C4B118FB296B2958CCBD8CB94CF69
:1006440088476376E60297C002E0E78040C5E14749
:10065400B384F4028547CA9403C75400630BF700BC
:100664008347040093F7C70F2300F40061BD3A8663
:10067400D9BF8347040093F7C70F93E71700EDB77B
:10068400B305D7008CCF23AA070013E50408BDB532
:10069400A1EC834724028344840017490000130912
:1006A400E95C93C707082301F4028325890C032519
:1006B400090D268697C002E0E78060BE8325890D78
:1006C4000145A6959747000023AEB7668327490DD9
:1006D400858F174700002325F766976000E0E780C1
:1006E400A051E39104E2EDB58347740093F7070446
:1006F400E38A07E091476398F4008347240393C790
:1007040007082309F4026144B3878402B7890040CF
:10071400174400001304845503C989004A863E9493
:100724008325840C0325040D97C002E0E78020B7DD
:100734008327040D8325840D0347440CCA9723287B
:10074400F40C8327440DCA95232CB40CB38727419A
:10075400232AF40C6363E90099E72685976000E097
:10076400E780804945B39547B3D7F40213070003E4
:100774008A0493892902B387E7020347540CBE9481
:100784008547CE946309F70083C7040093F7370FB6
:100794002380F40085BB83C7040093F7370F93E7E6
:1007A4004700FDB78347F100858B99CFA30104006F
:1007B400976000E0E780402D8347240293F7370FCA
:1007C4002301F402854775BB8347F100918B95C7DC
:1007D40083475400918B91C70145975000E0E7800F
:1007E400C068B787004011472383E7007244E2449E
:1007F4005249C2490561730020308347F10093F7E1
:10080400F70F41B3411106C6A52DFDBF730020307B
:10081400730020302303048015472303E480010080
:100824002302A480828083076480E3CE07FE23032F
:100834000480828083076480E3CE07FE03454480FE
:10084400828083076480E3CE07FE2302A480828033
:10085400411126C44AC24EC006C61377F50BAD47F4
:10086400AA892E8995446306F70019456537653FC3
:100874008D444E854537FD59FD1463983401B240CB
:10088400A24412498249410182801355090113751A
:10089400F50F453F2209CDB7011126CC06CEB7048A
:1008A400080051371545BD37713769372AC6A53F4A
:1008B40032459377150089EB136515001375F50F11
:1008C400F240E24405618280FD14E9FC0145CDBF9C
:1008D400397126DC4ADA4ED852D656D45AD25ED072
:1008E40006DE62CE66CCB7E700E07D5783AA070038
:1008F40022C603AA470023A0E71823A2E718B717C4
:100904000040130770052380E704130780FA23804F
:10091400E70483C74704930B75FFB684E20793FB90
:10092400FB0F8546AA892E8B328937240040E18744
:10093400015763FA76016308D5008946130700025C
:100944006313D5000157D98F93F7F70FB71C0040F5
:100954002382FC0411472303E4801305F00F5D3D5B
:10096400094CD135636D7C11B7050700DA953787DB
:100974000700795563F2E504B3879500636EF702C7
:10098400370B0800A94733EB65016399F90689E43D
:100994008144513D26850DA0DA850945553D05095B
:1009A4000345F9FFFD14050B693D81C49377FB0FE3
:1009B400FDF7DD3569FD7D55B71700401307700558
:1009C4002380E704130780FA2380E70403C747045E
:1009D400418B2382E704F250B7E700E023A05711CC
:1009E40023A24711E25432445259C259325AA25AEC
:1009F400125B825B724CE24C21618280A547639555
:100A0400F90685691309F00FB3069900B3742B0135
:100A1400B6941349F9FFB3749900856B337969016E
:100A2400416B9387F9FFB3F7270199E363FC340122
:100A340093D94900C147E3E637FF99BF0569C16906
:100A44007D19D9B71305800D638869011305000268
:100A54006384790113051008CA85DD3B353D21DD2A
:100A64004E99B3843441D9B7DA852D45D533CA9428
:100A7400E30099F205097D3BA30FA9FED5BF938737
:100A8400F9FF93F7F70F6361FC0C83C71C0413078A
:100A94003008631FF70437070800636BEB04B307E0
:100AA4009B00B706100063F5D704334BEB0089476E
:100AB4006393F9068980D549E38C04ECDA8509450A
:100AC400413B11090327C9FF91472320E480030711
:100AD4006480E34E07FE23033481FD17EDFBFD1410
:100AE400110B81C49377FB0FE9FF7D3371F5E1B5F9
:100AF400B717004003C75704B70708001377070266
:100B040019E3B78707007955E378FBEA33079B00BD
:100B1400E3FFE7F855B58547E382F9F2DA852D4519
:100B2400053B9389F4FFE38504E6293393F7390001
:100B340091EB832604800327090093074900E39A75
:100B4400E6E43E89CE84F1BFB5476396F900130508
:100B5400900BC93135BDB1471305B00AE38BF9FEDB
:100B640099476391F904B7050800B365BB002D45A7
:100B7400C53181448D4BA14975396396740183272E
:100B840004802320F9008504E39834FF832704803C
:100B940013172B01635507002312F900D5BB232239
:100BA400F900FDB39D476399F90281451305B0042B
:100BB4004531BD442320090023220900FD599D39F4
:100BC40093F77400CA9703C70700FD14398D238077
:100BD400A700E39634FF6DBBA1476392F9046D3916
:100BE4008144630D0B008D479304C0036308FB002D
:100BF4009304000563048B01930440041375C50733
:100C0400E30895D819453931393905452131268507
:100C14000D3909453D314931E31C05D669BB91477E
:100C24006399F90013056006F536F53E130590093E
:100C34000DB7E38F09D4F154A9BB19CD91CD09CED9
:100C440081473387F500834607003307F50085079E
:100C54002300D700E317F6FE828019C991C909CA97
:100C6400910583A7C5FF11057D16232EF5FEC5BF8B
:100C7400828001C919C62A960505A30FB5FEE31D96
:100C8400A6FE828081473307F5000307070019E3B6
:100C94003E8582808507C5BF01112E8626CAAA8497
:100CA400131506019305F004418122CC06CE32C609
:100CB400EF1040592A8401C53246A685BD3F2285DE
:100CC400F2406244D24405618280854715C18DC1DA
:100CD40005C28147B306F5003387F50083C60600D5
:100CE400034707006398E6008507E315F6FE85478A
:100CF4003E8582808147EDBF9307F6FFBE952A9615
:100D04006313C5008280FD1583C715000505A30F75
:100D1400F5FEFDB7AA87014581CF09CE3E9685072A
:100D240003C7F7FF6317B700E39BC7FE054582803F
:100D34008280014582807971976700009387879943
:100D440022D4804306D626D24AD04ECE52CC56CA9E
:100D54005AC85EC662C45DCC37C9C901814B176AE3
:100D64000000130AAA9B976400009384E496130975
:100D7400F937976A0000938AAA90B709C0A8370B7D
:100D840040578357240095E35C44639D0B00176729
:100D940000002321F794032CC4002285EF10A057F0
:100DA400628499A823A6FB00FDB783270A008297D3
:100DB400838664011C4463DB06063307F5406367DE
:100DC400E9089767000023A5078C83552400034591
:100DD4000400977000E0E78000145C405844A9CFF9
:100DE4001444B6978386640163C5060063E3370140
:100DF400DA971CC4A28B3A8449F49767000093875E
:100E040027889C4B09476378F706F9171767000092
:100E14002320F788B250225492540259F249624A6C
:100E2400D24A424BB24B224C45618280E377F5F8BB
:100E34003387F9402A9761B763970B0097670000DF
:100E440023AAE78889BF23A6EB00B1B7D85009CFFE
:100E540063DF06003385A74083A70A016376F500A4
:100E64009767000023A6A782A28B404471B7E3F3DF
:100E7400A7FECE97C5B79767000023AB078059BF7D
:100E8400411122C417640000130484821C4006C666
:100E940026C24AC091C782979767000023AA078099
:100EA4005C4091C382971C406391071C97670000C4
:100EB40083C7979E858B9DC797670000A38E079C69
:100EC400176700000347779D954763FDE700EF0030
:100ED40010379767000083C7579CF5178A07A297B6
:100EE4009C438297176900001309C99E8347C90070
:100EF400918B99C3EF1060281C4491C38297975437
:100F040000009384E47C984017560000034656770B
:100F14009757000083C7C77693961700BA9683D66F
:100F24000600D5CA9757000083C7877563EFC70AC1
:100F340097570000238607741C406398071297672D
:100F4400000083C7B79591CF9767000083C7F794D4
:100F540089EB97670000A383079497D001E0E780AB
:100F640040F2975700009387677B9C43638F070E7B
:100F7400B707C0A817570000232CF7706D3B97578D
:100F8400000093876775DC53EDC317570000130700
:100F9400276F184B9757000083C757756367F70C83
:100FA400176700000347778F954763E0E70C834793
:100FB400C900918BDDEB90409756000083C6566CB8
:100FC40063CBD70A2244B2409244024941011773C9
:100FD40000E0670063D1850793F7F70F9756000089
:100FE4002380F66AE3E6C7F235BF86073E9783554A
:100FF400070023100700975700002399076C9757A1
:1010040000009387A76A9C43175500000345456772
:1010140013172500BA979C4382979757000083D7EC
:10102400E76A175700000347A76593C7F7FF7D8D4D
:101034009317170098403E97835707005D8D231040
:10104400A7009757000083C7A76391C78507175761
:1010540000002307F762175700000347676297579A
:10106400000083C7F761E375F7ECB2402244924471
:1010740002494101828013971700329703570700F2
:101084006DF7850735BFAD6737C70040BD07232619
:10109400F7200F100000975700009387675EC84F32
:1010A40083278726BD66BD0693C7F7FF99836A0524
:1010B4002326D7205D8D82804111B7170040985FA9
:1010C4003AC6945F3247E39CE6FE32454101828092
:1010D40082800327851163000712411122C406C6CA
:1010E4008347C5008345C5042A8493F7C70F2306A5
:1010F400F500834697000356C70013958601618562
:1011040063F1C508635A05060345870093F6F6079D
:10111400A304D700054693E627006314C50093E6AD
:1011240017002306D4005C4389075CC3A30AB400F8
:10113400032504112E864C430905013683278411A7
:1011440003465401D44303D7C700B296118FD4C3C6
:101154002396E7008947A30DF400034744039757F8
:10116400000083C787586378F7048347C40093E774
:1011740007012306F40081A093E717002306F40077
:1011840075B79376F60F635D0502034587008545C1
:1011940013E627006314B50013E617002306C40002
:1011A400A30AD400A30407008547A30DF4008327F2
:1011B40084119C43DDF3B240224401454101828005
:1011C40093E717002306F400A30AD400A30407003E
:1011D400032504114C4309058D34832784110346E8
:1011E4005401D44303D7C700B296118FD4C32396B6
:1011F400E7008D475DBF05458280975700009387C0
:10120400E7679C43411122C406C6858B2A84C5EF37
:101214004165130525F5977001E0E780E0D945C5E0
:101224008347A5002315F50083270412BDE7232077
:10123400A4122322A41285472310F40423200500BA
:101244008347640154412316F5000347D400230463
:10125400E5000547A304E50017570000130787635B
:10126400184F1385170215811C437D151375F50F4F
:101274009CC25C43DCC21C479CC65C47DCC61C4B5E
:101284009CCA5C4BDCCA1C4F9CCE5C4FDCCE19CD97
:101294009386060213070702C1BF8327441288C33B
:1012A400835704042322A412850779B797570000B3
:1012B40083D7C76B8507175700002319F76AB24015
:1012C4002244410182808347C40023090400054568
:1012D40093C747002306F400DDB78347850193F7DE
:1012E400E70FD5EF83479501DDEB034625018346E0
:1012F400C50009CA83454503175700000347F73E55
:1013040063E7E50013F7060141CF014709C6C18A27
:101314000357651C81C68356A51C369751C3130712
:10132400C7121755000003552538B335A7023746B1
:101334000F00411113060624814622C426C206C6A4
:101344007D543305A702978002E0E78000FE97579B
:10135400000083C7F739B384A70097570000938729
:10136400676003A707098327070963F387003E849F
:10137400184375FB975700009387473A9C4382971D
:1013840081476364A400B307A440B2402244B3B7C6
:10139400970093C7170092443E854101828081479C
:1013A4003E858280797126D206D622D44AD04ECE8A
:1013B40052CC56CA5AC85EC68347350303447513D4
:1013C400AA843E941374F40F9307400263F68700D3
:1013D4001304B4FD1374F40F03AA841383AAC4136F
:1013E400A38B841222865285D685978002E0E780FB
:1013F40040EE058915E503CBD41201498149337BBD
:101404006403930B50024A865285D685978002E086
:10141400E78020EC058915C5639169031374F90FFE
:10142400238B8412B250225492540259F249624AD4
:10143400D24A424BB24B456182808509E20993D975
:1014440089410509E31179FDE1BF83278509035625
:10145400E503797193D60701BD8EC206C182358E2C
:101464001357764093575640898B058B5D8F93575E
:101474003640918B5D8F93571640A18B5D8F9317E8
:101484001600C18B5D8F9317360093F707025D8FAB
:10149400931756009355860093F707041E065D8F35
:1014A4001376F60F518F93D7554013D63540118AD2
:1014B400898BD18F13D67540D18F13D61540218ACD
:1014C400D18F13961500418AD18F13963500137668
:1014D4000602D18F13965500137606049E05D18F0C
:1014E40093F5F50FCD8FA20745465D8F3307C702ED
:1014F40022D42A8426D252CC56CA032A8413832A9D
:10150400C4135AC806D63697420741839357774087
:10151400135557400989858BC98F13553740118955
:10152400C98F135517402189C98F13151700418995
:10153400C98F1315370013750502C98F131557008A
:1015440093558700137505041E07C98F1377F70F8A
:10155400D98F13D5354013D755401189098B498F3D
:1015640013D57540498F13D515402189498F13959B
:1015740015004189498F1395350013750502498F6C
:1015840013955500137505049E05498F93F5F50FC2
:101594004D8F2207D98FB387C7024AD04ECE5EC67D
:1015A40062C4B697C207C18313D7774013D5574097
:1015B4000989058B498F13D537401189498F13D574
:1015C40017402189498F139517004189498F139535
:1015D400370013750502498F1395570093D587007B
:1015E400137505049E07498F93F7F70FD98F13D509
:1015F400354013D755401189098B498F13D5754050
:10160400498F13D515402189498F139515004189B8
:10161400498F1395350013750502498F13955500AD
:10162400137505049E05498F93F5F50F4D8F220719
:10163400D98FB387C702130650025285D685B69751
:10164400BD8E93940601C18033F6C402137BF60F5A
:10165400978002E0E780E0C705890DED8347D41247
:1016640001498149B3849702130C5002C1804A8610
:101674005285D685978002E0E780A0C50589937BD3
:10168400F90F11C563863403850993F9F90F050928
:10169400E31F89FD230B6413B25022549254025960
:1016A400F249624AD24A424BB24B224C4561828093
:1016B4005E8BCDB70111975700009387A72A22CCE0
:1016C40003A4470B26CA06CE2AC42EC6854419E4B1
:1016D4000145F2406244D24405618280834791000F
:1016E40003471400858B6304F7000044CDB7194603
:1016F4009305A10013052400EFF02FDDE31795FEF9
:101704000545C1BF011122CC175400001304441A2B
:1017140018402AC62EC432C206CE3C4B93F7F7F7C4
:101724003CCB97C001E0E7808072184097560000D8
:10173400938646153C4B93E707083CCB9C423245C5
:10174400A24523A0070003471500034825002207EC
:10175400420842970348050042970348350062084F
:10176400429798D70347550003486500220742086B
:101774004297034845004297034875006208429720
:10178400D8D7034795000348A5002207420842978B
:101794000348850042970348B5006208429798DBE6
:1017A4000347D5000348E50022074208429703484F
:1017B400C5000345F500429762052A97D8DB03C7A5
:1017C400150003C52500220742052A9703C5050015
:1017D4002A9703C5350062052A9798CF03C7550099
:1017E40003C56500220742052A9703C545002A97C9
:1017F40003C5750062052A97D8CF03C7950003C5B2
:10180400A500220742052A9703C585002A9703C528
:10181400B50062052A9798D303C7D50003C5E50030
:10182400220742052A9703C5C50083C5F5002A97F8
:10183400E2052E97D8D3D843759BD8C3D8431367F2
:101844001700D8C398431367170098C312469842E9
:101854005C43858BD1E71C4F01452300F6009C4275
:101864009C4FA183A300F6009C429C4FC18323019B
:10187400F6009C429C4FE183A301F6009C42D84FA2
:101884002302E600D84F2183A302E600D84F418308
:101894002303E600D84F6183A303E600985323048F
:1018A400E60098532183A304E6009853418323055B
:1018B400E60098536183A305E600D8532306E600A7
:1018C400D8532183A306E600D85341832307E600B7
:1018D400DC53E183A307F600F24062440561828091
:1018E4000100B5B717570000130707FA1443411155
:1018F40022C49C5E4AC006C6998326C2858B3A845C
:1019040017590000130909F8D1CB9C5E97540000C5
:10191400938444F893F7F7F99CDE175700000347C4
:10192400C7F793070008631BF700832709009C434C
:1019340093F70704175700002301F7F683C7040041
:1019440093F707049DC397570000938727DD9C43B3
:1019540082979757000023A7A7F483C7040093F73F
:10196400F70B175700002307F7F283C7440093F7D8
:1019740007048DE7854717570000A30FF7F0975723
:1019840000009387E7F29C43096798C7130700FC9C
:10199400975600002382E6F0D844F8D31C40985FA1
:1019A4001183058B09CB985F3D9B98DF05479756BC
:1019B40000002383E6EE985F1D83058B11CB985FAF
:1019C4001377F7F798DF8547175700002306F7ECDE
:1019D40083270900D8430583058B19C7D843759B12
:1019E400D8C3D843799BD8C3B24022449244024915
:1019F40041018280397106DE16DC1ADA1ED82AD635
:101A04002ED432D236D03ACE3ECC42CA46C872C662
:101A140076C47AC27EC0F935F250E2525253C253B0
:101A24003255A255125682567247E2475248C2486E
:101A3400324EA24E124F824F2161730020309757CD
:101A440000009387E7E6944397570000938787E461
:101A540003C70700058B11CB97570000238E07E2BD
:101A640097570000A38A07E2828003C71700058BFB
:101A740065F7F85271FF83C75700DDB717580000A8
:101A8400130888E0032708001C5F9583858BD1E742
:101A940009C61C5BBD832300F60085CA83270800A2
:101AA400985B4607935767016356070093E707C09F
:101AB400C207C18303970600C207C18709C7BA9743
:101AC4000947B3C7E7022390F60085CD8347150085
:101AD4008DCB9756000083C646DC93F60604138725
:101AE400970089478DCA3A9503470500854699476B
:101AF4001376F7066311D60262076187B947634C10
:101B04000700832708009C5FED838D8B1757000027
:101B1400A307F7D881473E8582808547EDBF4111F1
:101B240022C406C617540000130484D8184049E997
:101B3400AE877453FDFE3E85B28597570000238C13
:101B440007D497C001E0E780800697570000938789
:101B5400A7D39C43B70680009843558F98C3D857A2
:101B6400719BD8D797570000A38807D297570000D6
:101B7400A38207D21C40094798C3B7F700E003A724
:101B840007D16D9B23A8E7D003A707D15D9B23A8AA
:101B9400E7D073005010144017570000130787CF85
:101BA40083472700858B89EB83473700858BD9C70B
:101BB40097570000238207CEB2402244410182801D
:101BC4008D476310F502975700009387E7CB9C433A
:101BD400B70680009843558F98C3D857719BD8D7C0
:101BE4005DBF8547E319F5FAB567BD075CC70F10FC
:101BF40000001C400967094698C7130700F8975668
:101C04000000238BE6C8175700001307E7C71443E7
:101C1400984231830D8B6319C7001307E043F8D34F
:101C24003D673D07D8C785BF984231830D8B01E7D7
:101C340013076019EDB71307E01BD5B7FC52ADF3DA
:101C4400A5BF5D7152DC175A0000130AEAC30327CB
:101C54000A0086C6A2C4A6C2CAC04EDE1C43975957
:101C640000009389A9C917590000130969C493F79F
:101C7400F7E793E707081CC383A609003707CEFFDD
:101C84007D179C46130680022A84F98F9CC68327FD
:101C94000900130700082800B8CBAE849305100888
:101CA400EFE03FFD97C001E0E780601A97C001E0D4
:101CB400E780602783270A009376F41F370FFCFF21
:101CC40023A40700984B4E88CA881367F70398CB60
:101CD400F84F130510F8D285137707E0558FF8CF26
:101CE4009843F576FD16758F98C39843B70633006D
:101CF400B70204001377F7E798C398439303401F90
:101D04007D1F1377F7E71367071098C303A709002C
:101D1400930F800285491C47D58F1CC78327090070
:101D24001307900D3400B8CB114901471353370002
:101D340026938347030013767700B3D7C740858B78
:101D4400DDCF9C41832E0800239C070423900706C3
:101D540003AECE02137EDEFF23A6CE0383AE0700BE
:101D6400137EF70793FE0EF833EECE0123A0C701CE
:101D740003AE4702336E5E0023A2C70383AE08009E
:101D8400014E23A27E0603DA070663074E0303AE61
:101D94000703038A0600135EFE00620E135E8E4183
:101DA4006358CA0103AE0703135EFE002380C60115
:101DB40003DE0706137EFE0F03AA4E0663060A001F
:101DC40003DA8705E37F49FB03AE4702337EEE0166
:101DD40023A2C70383870600635CF400034E030059
:101DE4003396C9001346F6FF3376C6012300C300B9
:101DF4003E8663D3A7002A861315860161850507ED
:101E04001377F70F8506E313F7F3B6402644964499
:101E14000649F259625A616182809756000093869E
:101E240026A99C42D8471316170163550602984702
:101E340013161701635006027D57B8D717570000D1
:101E440013070784584F0507175600002328E68414
:101E5400116798C798470D83058B1DC3175700005A
:101E6400034767A313671700175600002305E6A26C
:101E7400130700F8175600002300E6A2214798C76D
:101E84009847058B09CF175700000347B7A013677E
:101E9400170017560000A30FE69E054798C79847FA
:101EA4000983058B09E798470583058B31CF98474C
:101EB400175600001306069E175500001305C59C0F
:101EC4000983058B630307101841184331830D8B75
:101ED40075EBAC4B184E93F5050203471700CDCDB7
:101EE40079EF13077006D8CF03470600136717006E
:101EF400175600002300E69A114798C718415C570B
:101F0400F19B93E717005CD79C42984793163701DF
:101F140063D606029756000083C606ACC18A1757DB
:101F24000000130727A4C5CE03474707136707021A
:101F3400975600002382E6AA056798C79847931628
:101F4400270163D10602175700000347E79462078D
:101F5400618763570700054797560000238EE69272
:101F6400096798C798479316070163D606029756E0
:101F7400000083C676A6858A175700001307879E3C
:101F8400ADCE034757071367270097560000A38574
:101F9400E6A4216798C7828029D785456315B700D1
:101FA4001307B00689B789456315B7001307F00610
:101FB4001DBF8D456315B700130730072DB71307F1
:101FC400500715B71307600739BF03473600136777
:101FD400170017560000A300E68C094739BF834653
:101FE40047070946BD8A6388C600034747078D46ED
:101FF4003D8BE313D7F4114725BF83465707918AD6
:10200400C9DA034757071367870041B7397106DEFA
:1020140016DC1ADA1ED82AD62ED432D236D03ACECC
:102024003ECC42CA46C872C676C47AC27EC0F53374
:10203400F250E2525253C2533255A25512568256AE
:102044007247E2475248C248324EA24E124F824F64
:10205400216173002030175700001307A7858346BA
:10206400B7019757000083C7B7874C4BB697FD8BD2
:1020740033D7F50097560000A38EF68297560000DA
:10208400A380F686058B15EF175700000347978545
:10209400B3F7E702814601471305000233D6E50092
:1020A400058A1378F70F19CA6397D700975700006A
:1020B400A38207818280850693F6F60F0507E31F46
:1020C400A7FC828097470000938747659C430111D2
:1020D40022CC4EC606CE26CA4AC852C456C28297DD
:1020E400974700009387077F804781496305A406CB
:1020F400BE84974700009387275E038767013E8964
:1021040063550706018D135455009747000083C794
:10211400077C9379F501636DF402370AC0A8B70A06
:102124004057153F9C449746000083C6467A139750
:1021340056003E9783076901158C63C507006363E6
:10214400470156979747000023AAE778E37BD4FC1E
:102154001604B3693401F24062444E85D2444249C4
:10216400B249224A924A05618280E37D85F8B70725
:10217400C0A833848740229579B797470000938796
:10218400E7599C43411122C406C626C28297974749
:1021940000009387277480476309A406BE84974789
:1021A4000000938767538387670163D80704018D11
:1021B400135455009747000083C767716367F4049D
:1021C400593D98449747000083C76770939657001A
:1021D40036971D8C9746000023A2E670E372F4FE46
:1021E4002244B2409244174500000345B56C814532
:1021F400410117C301E06700231AE37A85FAB707A0
:10220400C0A833848740229565B7B24022449244E3
:1022140041018280974700009387476E9843B757E0
:1022240002009387079F8326070913965600635875
:102234000600832607091396660063440600FD170B
:10224400FDF3828071C5AA870145E9C58D07C207E0
:10225400C183F19BC207C18313074003636FF70275
:10226400174700001307876F084317470000130739
:10227400676E14436398A602174700001307C74507
:10228400185B014541CB4111C20706C60545DD8DEA
:102294000297B240014541018280174700001307AD
:1022A400A76BD9B70357650035E303574500636F40
:1022B400F704B306F7402146637CD60203280500E1
:1022C400938687001D8FAA96611717460000035650
:1022D400863B2392E60023A006012393060014C143
:1022E4002312F500130786FF97460000239DE63866
:1022F4002313B5009745000083D5E538B387F5402F
:10230400174700002311F7382105828008419DB743
:102314000145828082800DC197470000938707643E
:1023240003A30700974700009387C76283A80700A9
:1023340081469A8763E31701828003A807006361DB
:10234400F50C636FA80A13878700E367E5FE03D6DD
:10235400670021670507631BE60017270000034792
:10236400A71D0507172600002308E61C9745000053
:102374009385053103D6470003D7650023930700EF
:1023840032974207418317450000231EE52E638AD6
:102394006702174500001305255C08416303F50235
:1023A40003D5660019ED83D7460023A00601210753
:1023B4003E9621062392C600974700002395E72CFA
:1023C400B6879843E30A17F7974600009386C658E2
:1023D4009442E303D7F683566700B9FE83D64700D9
:1023E400035647001843A106B2962392D70098C318
:1023F40083D76500A107174700002316F7288280BA
:10240400BE86C28705BF0111974700009387875591
:1024140022CC03A4C70B26CA4AC84EC606CEAA8439
:1024240013092500854915C083C7140003473400E8
:10243400858B6304F700405CFDB71946930544009F
:102444004A85EFE09F88E31835FF2285F240624415
:10245400D2444249B2490561828041119747000044
:102464009387475022C403A4C70B26C24AC006C69A
:1024740093042500054901E82285B2402244924490
:10248400024941018280A6851305A402976002E0F7
:10249400E780C0D7E30225FF405CF1BF41119747B5
:1024A40000009387274C22C403A4C70B26C24AC04A
:1024B40006C693042500054901E82285B24022445A
:1024C4009244024941018280A6851305A4019760C4
:1024D40002E0E780A0D3E30225FF405CF1BF0000E7
:1024E800972100209381814D176100201301C1B00D
:1024F8001305400097E5FF1F938545B01706002098
:102508001306C6FD63FAC5008322050023A0550003
:1025180011059105E3EAC5FE17D502001305459A92
:1025280097150020938585AD17260020130686D5BC
:1025380063FAC5008322050023A055001105910503
:10254800E3EAC5FE172500201305C5EB97450020D3
:102558009385C5526377B500232005001105E36D07
:10256800B5FEFD42739002BC8D4273904280930287
:10257800800873A0023097E2FF1F938222A893E29B
:10258800320073905230975200009382A2CF73901A
:102598001234730020303D432A876373C302937754
:1025A800F700BDEFADE5937606FF3D8ABA960CC3FA
:1025B8004CC30CC74CC74107E36BD7FE11E28280BE
:1025C800B306C3408A069702000096966780A60065
:1025D8002307B700A306B7002306B700A305B70073
:1025E8002305B700A304B7002304B700A303B7006B
:1025F8002303B700A302B7002302B700A301B70063
:102608002301B700A300B7002300B700828093F529
:10261800F50F93968500D58D93960501D58D61B7F5
:10262800939627009702000096968682E78086FA9E
:102638009680C1171D8F3E96E374C3F8A5B7B717E8
:102648000040854603C88705238CD70403C7970530
:102658001378F80F13678700A38CE704238DD7043A
:10266800371700408347A7059305A705858BFDFB12
:10267800056541473716004005439308F5FF238059
:10268800650083C60500858AEDFE8356C6057D175D
:10269800420793C6F6FFB3F616014183B69765F372
:1026A80003479605A1079183130505801377770FD4
:1026B8001D8DA30CE6044205230C06054185828086
:1026C800B717004003C777051A0592054D8D137794
:1026D800E70F13653500A38BE7041375F50FA38C7B
:1026E800A7048280B717004003C777051377E70F61
:1026F800A38BE704130700F8A38DE7043D47238C59
:10270800E70413075003A38CE70482800547B71733
:102718000040238DE704371700408347A705858BC2
:10272800EDFF0355C7055205518182804111B71746
:102738000040985F3AC6945F3247E39CE6FE324514
:10274800410182801D71D2C45EDE86CEA2CCA6CAAB
:10275800CAC8CEC6D6C2DAC062DC66DA6AD86ED615
:10276800AA8B6125B7170040930670052380D7040C
:10277800130780FA2A8A2380E7040100010003C6B0
:10278800F70213668600A387C70203C6F70213760B
:10279800760FA387C7022380D7042380E7040100AC
:1027A800010003C6E7021376C60F2387C70203C6D4
:1027B800E702136616002387C7022380D704238005
:1027C800E704010001001309803E33492503930AF9
:1027D800007D930480C103C7370593095002130B8A
:1027E800A0041377870FA389E70403C737053714B5
:1027F8000040116C13671700A389E704A167930DC4
:102808000404130D80FAE17C7D1CB30A5903B34418
:10281800950233C7FA02916AB38434033AC6B309FE
:10282800390333C7F40293047005B3C7F9023AC8F1
:102838008149330B69033ECABD67938707A6B3472F
:10284800FB02094B3ECC930770052380FD002380D3
:10285800AD01010001008347340593E70702A3098E
:10286800F40483570405B3E757012318F404835786
:102878000405B3E79701C207C1832318F40483470B
:10288800340593F70702E5C3034734059307340576
:10289800218B7DDB23809D002380AD010100010099
:1028A80003C707001377F70D2380E70003C7070066
:1028B800136707022380E70083570405B3E757012E
:1028C8002318F40483570405B3E79701C207C183AB
:1028D8002318F4048347340593F70702D5C38347C5
:1028E8003405A18BEDFF9935AA873ECE8135F24795
:1028F800E30DF5FE83570405B3E757012318F404E5
:1029080083473405A18BEDDF03570405834724056E
:102918003377EC00B307FC023E97B2471D8FC247DE
:1029280063D5E700D247634AF706636A3B07938695
:10293800190093F9F60FE24693171700B3C7D702A9
:102948006355E028850723809D002380AD01B3C728
:102958006703010001000357C402BA97C207C18385
:102968002316F402CDB523809D002380AD0101001C
:1029780001008347340593E70702A309F40401B76C
:1029880023809D002380AD010100010083473405A9
:1029980093E70702A309F40435BFE38A09F8B717D8
:1029A8000040130770052380E704130780FA23808B
:1029B800E7040100010003C7370513F6FB0F930571
:1029C80070051377870FA389E70403C73705130535
:1029D80080FA518FA389E70483C637051387370523
:1029E8009D8A6396761F930670052380D704930605
:1029F80080FA2380D70401000100834607001306EC
:102A080080FA93F6F60D2300D7008346070093E675
:102A180006022300D70003D707059166558F239830
:102A2800E70403D70705A166558F2398E7049306A3
:102A38007005B717004003C737051377070263040B
:102A4800071AB717004083C6370513873705A18AC9
:102A5800FDDA930670052380D704930680FA238055
:102A6800D7040100010083460700130680FA93F695
:102A7800F60D2300D7008346070093E606022300DD
:102A8800D70003D707059166558F2398E70403D726
:102A98000705A166558F2398E70493067005B717B5
:102AA800004003C7370513770702630B071437176E
:102AB800004083473705A18BEDFF8D392A84BD314E
:102AC800E30F85FE37170040835707059166D58FBA
:102AD8002318F704B717004003C73705938637054F
:102AE800218B7DDB130770052380E704130780FA29
:102AF8002380E7040100010003C706001377F70DE0
:102B08002380E60083D6070503C727059167FD17CD
:102B1800FD8EB387E70237470F0013070724334AB0
:102B2800EA02BE968567938707FAB397770113077A
:102B38000008B3874703130A0010B3C74703130AF3
:102B4800803EB3874703B3C7E7020547B31B770146
:102B580093DB3B403D67130707A633892B03930B91
:102B680060559D8E9307800C330979033349E90238
:102B7800B387F602B3C727036351D00A850709470D
:102B880093067005B3C7E702371700402300D70440
:102B9800930680FA2300D7049607010001008356A4
:102BA800C702F6406644B697C207C1832316F702E8
:102BB800D6444649B649264A964A064BF25B625CB9
:102BC800D25C425DB25D25618280FD17ADBB23807A
:102BD800B7042380A7040100010003C73705518FFC
:102BE800A389E704D5BB2380D7042380C704010049
:102BF800010003C7370513670702A389E70425BD4A
:102C08002380D7042380C7040100010003C73705C8
:102C180013670702A389E70469B5FD178DB79147C4
:102C280063EEB70217B70200130787F38A05BA9550
:102C38009C41BA978287B717004003A7470B1345F3
:102C4800F5FF698F23AAE70A03A7070B698F23A853
:102C5800E70A03A7070A798D23A0A70A8280B71776
:102C6800004083A6470B1347F5FFF98E23AAD70A1E
:102C780083A6070B558D23A8A70A83A6070A758F75
:102C880023A0E70A8280B717004003A7470B498FA4
:102C980023AAE70A03A7070B1345F5FF45BFB71794
:102CA800004083A6470B1347F5FF758F23AAE70A51
:102CB80003A7070A598D4DB7B717004003A7470B5D
:102CC800498FEDB7914763EEB70217B702001307B4
:102CD80067EA8A05BA959C41BA978287B717004078
:102CE80003A7470D1345F5FF698F23AAE70C03A730
:102CF800070D698F23A8E70C03A7070C798D23A07C
:102D0800A70C8280B717004083A6470D1347F5FF2D
:102D1800F98E23AAD70C83A6070D558D23A8A70CD7
:102D280083A6070C758F23A0E70C8280B717004095
:102D380003A7470D498F23AAE70C03A7070D1345DF
:102D4800F5FF45BFB717004083A6470D1347F5FFAA
:102D5800758F23AAE70C03A7070C598D4DB7B71732
:102D6800004003A7470D498FEDB7B747004011470B
:102D7800A381E70009472380E700130700062380A3
:102D8800E70003C7170013670701A380E70003C71D
:102D980017001377E70FA380E7008280B74700404A
:102DA80003C707001377F70E2380E7002382A700E5
:102DB800374700408347670093F70704E5DF8280C1
:102DC800B747004003C707001377F70E2380E700D3
:102DD8007D572382E700374700408347670093F712
:102DE8000704E5DF034547008280B717004003D595
:102DF8008700420541819377050491EB9377F501AC
:102E08003755E801130505803345F502828093772D
:102E1800050C130700046397E7009377F50137451E
:102E28009C1CCDB72165130505D0828037E700E0EB
:102E38001C435443A183E206D58F1CC1FD572320B0
:102E4800F7182322F718828013178500B7E700E0E8
:102E580023A0E710618123A2A7108280B7F700E0C2
:102E68008847CC478280B717004083C7670493F729
:102E7800F70F13E7270019E113F7D70FB71700402B
:102E8800930670052380D704930680FA2380D7041D
:102E9800010001002383E70423800704828081471F
:102EA80037370040A14663C4C70032858280034596
:102EB800B740E38EA6FE3385F50003450500850778
:102EC8002304A740CDB712059A054D8D1365C5009B
:102ED8001375F50FB72700402380A7408280B727D6
:102EE800004001E5A38007408280239CB740239ED1
:102EF800C740154791E20547A380E740828041110A
:102F080022C406C62A84D5352947B307E502B2404C
:102F18008D83B3D7870222449507B3D7E7023737A3
:102F28000040C207C1832316F740410182807165C2
:102F380041111305052006C6D937B73700401307D6
:102F480070F82381E7400D47A381E7401307000489
:102F5800A380E74005472387E740B24041018280CC
:102F6800971700209387C74A9C43411106C691C30F
:102F78008297971700209387E7499C4391C38297CC
:102F8800171700200357A7239307C01263FBE70412
:102F9800171500200355C5229306B01263E6A60450
:102FA800971600209386864603A30600630703004E
:102FB800B2401305C012410102830507098F33850A
:102FC800A740E5473305F502420741830983930784
:102FD800F7FF3E953345E5021375F50FB240410101
:102FE800828013054006DDBF0145CDBF03A845001B
:102FF800411126C206C622C48347180003480800A8
:10300800A944A207B3E70701C2070D68C1871308DF
:1030180028906398070385473284EFA0B030AA84CC
:103028000DE1971700209387273E9C4399CB0345D2
:103038001400034704002205598D133515000505B2
:103048008297B240224426859244410182802D45D0
:103058002DEFD841411122C426C206C68347170066
:1030680003470700B684A207D98F0D67930697A177
:103078003284639CD702ED359717002083C7071465
:103088006376F50097170020238AA71285472390B7
:10309800F4009717002083C767122300F400014546
:1030A800B240224492444101828013078790294507
:1030B800E398E7FECC4589472390F400094622852A
:1030C80097E0FF1FE78020B7D9BF8280834745007C
:1030D800858BADCB011122CC2A8403552500971589
:1030E80000209385254C06CEEFA0901E058939C592
:1030F80003552400014781460546ED45EFA060537E
:103108002AC60DCD97070020938747EF83D7A702DC
:1031180001462C002314F10085472315F100971769
:10312800002083C7A7092300F50003552400EFB04A
:10313800C07909C5ED452800EFA06067F2406244F8
:103148000561828082804165411197150020938531
:1031580065457D1506C6EFC04070B2409706002051
:103168009386C6EE4146954517050020130505E9E7
:1031780041016FC060629717002023A7A7288280AB
:10318800411122C406C6854709446315F5028347E1
:1031980006000144171700202306F72617170020FA
:1031A8000347C7016378F70017050000130545F2C8
:1031B800EFE0D03A2285B24022444101828085471F
:1031C8006303F50209C909476306E5020D47630A67
:1031D800E502094582809717002083C727FE2380D0
:1031E800F50001458280971700209387A72183C7A0
:1031F8000700F5B79707002083D7E7E02390F5008D
:10320800CDB7171700201307E7FB035707002392D2
:10321800E50017070020130767DE8356A702035748
:10322800A7032383F5002390D5002391E50055BF1C
:10323800411106C635339717002083C727F8637CEA
:10324800F50097170020238BA7F617050000130534
:1032580025E8EFE0B030B240014541018280416786
:103268007917630EE502411122C406C685472A84F0
:10327800639CF50022852244B2409715002093856F
:10328800653241016FC0605D89476396F5008545E9
:10329800EFE0502765D1B24022444101828082800C
:1032A800CC41411106C6328503C6150083C5050009
:1032B80022064D8E42068D654186138875A26300ED
:1032C80006116348C804138845A2630A060B634ABB
:1032D800C800938535A2630BB606239006002946DD
:1032E80059A8138855A2630C060B938565A2E316AB
:1032F800B6FEC1451D4663E0E5084546198E63F3F1
:10330800C7003E862390C60097B502009385C588FE
:10331800A9A8138895A26304060F6342060D1388B3
:10332800A5A2630E060F938505A5E318B6FA99457D
:103338001D4663E2E504198E63F3C7003E862390B9
:10334800C60097150020938565E805A09D451D4694
:1033580063E3E5022146198E63F3C7003E86239096
:10336800C600971500209385250BBA9597E0FF1F97
:10337800E780608C0146B240328541018280AD45CC
:103388001D46E3EAE5FE3146198E63F3C7003E8623
:103398002390C60097B502009385C583F9B7B14558
:1033A8001D46E3EAE5FC3546198E63F3C7003E8601
:1033B8002390C60097B502009385C5827DB7C145A5
:1033C8001D46E3EAE5FA4546198E63F3C7003E86D3
:1033D8002390C60097A502009385457D79B7C1451E
:1033E8001D46E3EAE5F84546198E63F3C7003E86B5
:1033F8002390C60097A502009385C57FBDB7C14538
:103408001D46E3EAE5F64546198E63F3C7003E8696
:103418002390C60097A502009385857AB9B7B5456C
:103428001D46E3EAE5F43946198E63F3C7003E8684
:103438002390C60097A50200938505753DB79706AA
:103448000020938666D44146CD4517050020130514
:10345800A5C06FC06034828097170020938787FDCE
:103468009C4317170020034727FC9716002083C6A4
:10347800D6D601E781473E85828003D607006316CA
:10348800A60003C66700E308D6FE7D171377F70F7B
:10349800A107C5B7B2862E86AA8517A5020013050F
:1034A800257A6F80726A0111930500030D4506CED7
:1034B800EF60D06E930500051145EF60306E9305FF
:1034C800C0030545EF60906D85471306F1008545FB
:1034D80013055030A307F100EF005236F2400561A2
:1034E80082808547631CF5001166130686A9894505
:1034F80017150020034555F36F407033894763194A
:10350800F500894517150020034515F26F40505303
:1035180082808547639CF50009E69717002023827F
:10352800B7F0971700202389C7F082800947639D69
:10353800E50019EA171700202305F7EE17150020F4
:10354800035505EE6F003008828097170020938797
:10355800E7ED9C43011122CC06CE2E8481CB9C47FB
:1035680091C78297F2406244056182806C0013051E
:103578007040EFE0F165324681452285EFF0613217
:10358800D5B701119397050126CA06CE22CC4AC8A1
:103598004EC652C4C187AE8463D9070817150020E8
:1035A800034595E8EF40A04C2A8439C90347050034
:1035B8009307000D6313F704834725004547638B82
:1035C800E7046547639BE70217A502001305C56377
:1035D800EF809257130954009309B40017AA020008
:1035E800130ACA638345090052850509EF80D2553D
:1035F800E39A29FF2945EF8072592285EF40004060
:103608002165258DF2406244D2444249B249224A9A
:1036180005618280034665008345750017A5020091
:1036280013054560EF805252C9BF93F7150095C343
:10363800170600201306C6B697050020938585B5A2
:1036480017150020034555DEEF00C26913C51400A5
:1036580055BF93F725000145D5D7D93E1166130606
:1036680086A9894517150020034515DCEF40301C55
:1036780013C5240041BF797126D24ECE06D622D476
:103688004AD052CC9147AA84AE89631CF50483D7EB
:10369800A5001306E10085451305503017170020D3
:1036A8002310F7D82307010097170020238B07D68C
:1036B800EF00D21897170020938747D79C4391C7EC
:1036C800DC4781C7CE8526858297B250225497174A
:1036D800002023A997D402599254F249624A4561BD
:1036E8008280171700201307E7D31843E314F7FC69
:1036F8008545171500200355A5D29536854517151C
:1037080000200355E5D10527C167171A0020035A81
:103718002AD1F9176313FA0405449305E100130548
:10372800504197170020238E07CE97170020A386B5
:1037380087AA23070100EFE0B1498347E100B1EB15
:1037480017170020034747CF9147E315F7F6A13B2A
:1037580097170020238207CEB1BF971700209387C1
:1037680067CD03A90700171400200344E4CB4DD408
:103778000355290011C99305E100EFA0101D09C5E3
:103788004C455285EFC0600D7D141374F40F210968
:10379800F9BF971700209387A7C99C4383C74700A1
:1037A800898BD9DF9305000A0D45EF60303F9305FB
:1037B800000A1145EF60903E81450545EF60103ED7
:1037C8001306E10085451305503023078100EF00FB
:1037D800F206BDB70111170500001305C5DA06CEBC
:1037E80022CCEF40B04D171400201304F4C38547D2
:1037F8001306F10085452300A40013054041A307E3
:10380800F100EFF081347D55EF90302A7D55EFC0FF
:10381800E00035310D3A9D2B170500001305A5CCA6
:10382800993A17050000130545C3492B03450400C1
:103838008545EF40806DF2406244056182809717AC
:10384800002023A5B7BE9717002023A3A7BE828018
:103858009717002023A0B7BE971700202386A7BC80
:103868008280971700209387E7BB9C43797106D61F
:1038780022D426D24AD04ECE52CC11476393E706C3
:103888009717002083C7E7B9414495C397170020CD
:10389800938747BA8043B284B6899717002083C7B5
:1038A800A7B8171700200347579399EB554422856B
:1038B800B250225492540259F249624A45618280B8
:1038C80083464400639AA600834654006396B60074
:1038D800834664006380E606FD1793F7F70F21041B
:1038E800E9B709474144E384E7FC2C00130550413C
:1038F80023040100EFE0D12D834781008DCB930590
:1039080000020D45EF609029930500031145EF6013
:10391800F02895450545EF607028854730008545B6
:10392800130550302304F100EF00427149B7A53E5A
:103938004144B5BF0355240093056100EFA0F00092
:1039480035D54C4517150020035585ADEFA0401817
:10395800058929DD13990401135909010147814695
:103968004A86ED4517150020035585AB035A040018
:10397800EF90304C2AC64D441DD92686CE85231497
:1039880041012315210197D0FF1FE780C02A014676
:103998002C00171500200355A5A8EFA010732A8442
:1039A800E30705F0ED452800EF90706009B7C841BE
:1039B800011122CC06CE32840346150003450500CA
:1039C8002206498E19CB0D681308B8A42D45630B40
:1039D8000607F2406244056182800D651308D5A48C
:1039E80063000603130825A2630C06017578130803
:1039F800E85C3298420813580801854863E00805D6
:103A080003D5A50036C632C4813CB24605C5971712
:103A180000209387A7A19C4322468345550003A312
:103A28000700A2876244F240034545003687854671
:103A38000561028323900600014561BF1308B5A400
:103A48006319060317060020035686791D45E3729D
:103A5800C7F8198E63D3C7003E86CC452390C600AD
:103A680042064182BA95228597D0FF1FE780A01CA5
:103A7800E1B79307A5A46318F60091472390F600D1
:103A88001146CC45CDB7930785906317F600894753
:103A98002390F6000946F5B79307E5A4631AF600E4
:103AA800DC452390160183C707002300F40069B79B
:103AB80013057590E312A6F8D9BF011122CC06CEE2
:103AC80026CA4AC82317D1002D4439EBDC412E8978
:103AD800B28403C4170083C7070022045D8C8D6776
:103AE8009386D7A46306D400938627A36311D404CE
:103AF8000355A900953219E101441DA0971700202C
:103B08009387C7929C43834555000345450003A806
:103B180007002286A6871307E100814602982A84B7
:103B28002285F2406244D2444249056182809386EC
:103B3800C7A46316D4028357E10005473544E391CF
:103B4800E7FE0345060013040008E3EBA7FC9717FC
:103B580000209387A78D9C43DC43829771BF93868F
:103B68002790631ED4028356E1008547EF90907B2F
:103B78002A845DF5971700209387C78B8356A90081
:103B88009C43171700200347278A3DD703D62700F1
:103B98006304D6047D171377F70FA107FDB7938742
:103BA800E7A4E31BF4F48357E10005473544E399A0
:103BB800E7F60345060013040008E3E3A7F6DC452F
:103BC8002380A70097170020938747869C433335A7
:103BD800A0000905DC4351B7171700201307078514
:103BE800184303C5470083C5570083C7140003283B
:103BF800070003C70400A2078946D98FC207C187F7
:103C080005476383E7008D460D66A6871307E10025
:103C180013062690029829B741654111971500208F
:103C2800938545997D1506C622C426C24AC097F4D5
:103C3800FF1F9384A457EFB0504297F6FF1F938657
:103C4800E6684146C9452685EFB01035CC4C2A892F
:103C58000945EFF0CFD6970700209387E75883D719
:103C68000700171400201304E49517070020130712
:103C780067572312F40083D7A40C0357070097153E
:103C88000020938525952310F40083D7A40D2316CF
:103C9800E40003D7A4102311F4000D45854723033E
:103CA800F4002314E4002307F40023150400EFF0C4
:103CB8000FD1A2850D45693EB24022444A859244FF
:103CC8000249410182808D679387D7A4014563111A
:103CD800F6028D472945639DF5008547354563996B
:103CE800F600834707000145170700202307F774EC
:103CF80082808D679387D7A46310F6028D47639DF2
:103D0800F5009707002083C747732300F70085470E
:103D18002390F6000145828023900600E5BF014507
:103D2800828035E303A84500AE888347180003481E
:103D38000800A207B3E707010D68930EF8A4639C77
:103D4800D703914735486391F60403A5C80041118C
:103D5800B285114606C697D0FF1FE780C0ED9707CA
:103D680000209387676E9C4305458297B2400148BF
:103D7800428541018280930828902948639617015B
:103D880085476F90305A2D484285828041654111A0
:103D980097150020938585847D1506C6EFB0F02B16
:103DA800B24097F6FF1F938626594146994517F565
:103DB800FF1F1305655241016FB0101E97070020C1
:103DC80023A4A76882800111971500209385058197
:103DD80022CC06CE2A84EF90B04F058929C101472D
:103DE80081460546ED452285EF90B0042AC605C9EF
:103DF80097F7FF1F9387474E83D7A70501462C00E7
:103E08002314F10085472315F100230005002285BE
:103E1800EFA0B02B09C5ED452800EF905019F240EE
:103E280062440561828041677917630EE50241119A
:103E380022C406C685472A84639CF500228522444D
:103E4800B240970500209385657941016FB0F02055
:103E580089476396F5008545EFD0D06A65D1B240B1
:103E68002244410182808280970700209387C75EA1
:103E780083950700170700201307477717060020C8
:103E8800130606788147835607000907AE96B6974A
:103E9800E31BE6FE2947B3D7E702170700201307FD
:103EA800275B18439386870C63EFE600170700200B
:103EB8001307475A18439706002023ABE6581707FD
:103EC80000202329F758828041118945014522C4E1
:103ED80026C206C6EFE0CFFEB7170040238C0704C2
:103EE80017040020130484709704002093844471FD
:103EF800EFE0DF812310A4000904E31B94FE2244B1
:103F0800B240924441018DB7411185451305002007
:103F180006C622C4EFE01FDB854513050010EFE05D
:103F28007FDA0564130504808D45EFE0BFD93717A4
:103F380000408327C70C1304048081455D8C232629
:103F4800870C4145EFE0BFCD89450145EFE04FF7CC
:103F5800EFE0EFEE970700202390A750B5372244F3
:103F6800B240170500200345252A1306000A894593
:103F780041016F40C00B82803D897D15954763EEF6
:103F8800A70E17A702001307E7CD0A053A951C41AB
:103F9800011106CEBA9782872C0013054030EFF046
:103FA800F1752C000545EF80606717A50200130521
:103FB800E5CFEF80224E11A803C725008D4717A52E
:103FC80002001305A5CFE306F7FEF24005618280E3
:103FD80003C725009547E31AF7FE83D7A5000D66AA
:103FE80013060620914517050020034545211707AC
:103FF80000202315F720EF40800317A502001305C2
:10400800E5CC45BF03C725008D47E310F7FC17A58E
:104018000200130565CC71BF83C72500114717A59A
:1040280002001305E5CC638EE70219476394E702A3
:1040380083C5650017A50200130545CDEF80C23082
:10404800854730008545130550302304F100EFF013
:10405800F17EA5BF1547E395E7FE17A502001305F6
:10406800A5CCEF802243E9BF83C5250017A5020030
:10407800130505CDEF80422D89BF82803688BA8628
:104088003E876315080083C6060035B98547631364
:10409800F80085B10145828041119397050122C43A
:1040A80006C6C1872E8463D1070217050020034581
:1040B8000515EF30D01B19C1EF3050142165218D43
:1040C800B24022444101828093F7150013C51500C0
:1040D800E5FB93F745009DC39707002083C7271288
:1040E8001307401F81462146A145170500200355A7
:1040F800E510EFF0913813454400D9B793F78500E0
:104108008DC7014789460946814517050020035593
:10411800E50EEF00C224AA8517A50200130505B60F
:10412800EF8082221345840061BF93F72500014583
:10413800C1DB970600209386265025468545EFF07B
:104148004FF213452400ADBF0111170500001305F8
:10415800E5F406CE22CC26CAEF404036970400206C
:104168009384E40905442380A40070008545130561
:10417800503023068100EFF0716C170600201306FB
:10418800E6069D4513056030EFF0516B17F6FF1FEB
:104198001306461CE14513057030EFF0316A17A687
:1041A8000200130626AFD5450145EF9020018D4743
:1041B80070009145130570402305F1002304810028
:1041C800A305810002C6A3040100EFE01118300026
:1041D800854513050040EFE051171306910085450A
:1041E80013051040EFE071161306A100854513056D
:1041F8002040EFE091151306B100854513055040A6
:10420800EFE0B11499477000854505452306F10094
:10421800EFE01FF7113497F5FF1F9385A5121705D7
:104228000020130525FDEFF08FE103C50400854547
:10423800EF30B04DF2406244D24405618280854738
:104248003395A700B7E700E023A0A71801000100F5
:10425800828097A702009387E7B48C43011106CEAA
:1042680022CC26CA4AC84EC6AA843764375FEF7084
:10427800225F93D714401304F49D1D8CAA89AA8544
:104288002285EF70E25DA285EF70825D17A90200BA
:10429800130989B1AA8503250900EF70B205A28523
:1042A800EF70025CCE852A84EF70825BA285EF7086
:1042B800225BAA8503250900EF70D203A285EF705F
:1042C800225AA685EF70C259F2406244D24442494C
:1042D800B24905618280011122CC371400400327BE
:1042E800C40A26CA856406CE2EC6458F2326E40A4C
:1042F800EFE0DFAAB2452E85EFE05FAA8327840AA4
:10430800F240C58F2324F40A6244D24405618280B6
:10431800411122C4371400400327C40A26C2856409
:1043280006C6458F2326E40A13650508EFE01FA794
:10433800EFE01FA98327840AB240C58F2324F40A1B
:104348002244924441018280371700408327C70ADC
:104358004111856622C426C206C6D58F2E84B28432
:104368002326F70A13650508EFE05FA3A294631FED
:104378009400371700408327870AB2402244856695
:10438800D58F2324F70A9244410182800504EFE087
:104398003FA3A30FA4FEE1BF01112C00194613058A
:1043A800B00306CE5537834781008346910017072F
:1043B80000201307A725A207D58F231CF7008347E2
:1043C800A1008346B100F240A207D58F231DF70054
:1043D8008347C1008346D100A207D58F231EF7006B
:1043E8000561828001112C0019461305300406CEA0
:1043F800A13F8347810083469100170700201307D8
:10440800E720A207D58F231FF7008347A100834623
:10441800B100F240A207D58F2310F7028347C100ED
:104428008346D100A207D58F2311F7020561828048
:10443800011122CC26CA4AC84EC652C406CE9309D8
:104448004006014481440149170A0020130A0A1C46
:10445800513F8317EA011545FD193E9983170A0252
:10446800BE9483172A023E9497C0FF1FE780A0E5F9
:10447800E39009FE930740063344F402F240B24940
:10448800224A3349F902B3C4F40297070020239360
:10449800871A624417070020231C27194249170767
:1044A800002023189718D24405618280011122CC7C
:1044B80017040020130484150315840106CE26CAA8
:1044C8004AC84EC652C497A902009389A989EF70B9
:1044D800722683A5090017A902001309E98897A481
:1044E80002009384A488EF70A23783250900EF7037
:1044F80022378C402A8A0840EF708236AA85528576
:10450800EF60723D08C00315A401EF70B22283A5C5
:104518000900EF70E23483250900EF7062348C40A3
:104528002A8A4840EF70C233AA855285EF60B23AB2
:1045380048C00315C401EF70F21F83A5090097A9AD
:10454800020093892983EF70A23183250900EF7057
:1045580022318C402A89084497A4020093848482DB
:10456800EF700230AA854A85EF60F23608C4031559
:10457800E4018317440217A90200130929801D8D3D
:10458800EF70521BEF70722703A6090083A649003B
:10459800EF50926B0326090083264900EF50B204BE
:1045A8009040D440EF503204EF70F22F831764022A
:1045B80048C4031504021D8DEF70D217EF70F22363
:1045C80003A6090083A64900EF50126803260900D4
:1045D80083264900EF5032019040D440EF50B2009A
:1045E800EF70722C8317840208C8031524021D8DEE
:1045F800EF705214EF70722003A6090083A64900D9
:10460800EF5092640326090083264900EF50A27DEB
:104618009040D440EF50227DEF70F22848C8F24015
:104628006244D2444249B249224A056182805D719E
:104638005AD85ED6032B4500832B050056DA832A09
:104648008500A2C4DA852A845E8586C6A6C2CAC049
:104658004EDE52DC62D466D26AD06ECEEF70422053
:10466800D685EF70E21F93050000EF7082086303A0
:10467800053CDE855E85EF70A21EAA8CDA855A8518
:10468800EF70021EAA856685EF60F224AA8CD68593
:104698005685EF70E21CAA856685EF60D223553EE9
:1046A800979702009387C76AAA85884397F4FF1FE4
:1046B8009384C4CB03A9C400EF6092582A8DAA85BD
:1046C8005E85EF70E21983A9840003AA440003AC55
:1046D8000400AA8C08C0EA855A85EF706218AA8B74
:1046E80048C0EA855685EF70A2172A8B08C4CA8588
:1046F8005285EF70E216AA8ACE856285EF7042165F
:10470800AA855685EF70023FAA85EF60D21CAA8A57
:10471800D2856285EF70C2142A8DCA854E85EF70E6
:104728002214AA856A85EF60121BAA85EF60B21A67
:104738002A8DE2856285EF70A212AA8DD2855285F4
:10474800EF700212AA856E85EF70C23AAA8DCE85E7
:104758004E85EF70E210AA856E85EF70A239AA8D9A
:10476800CA854A85EF70C20FAA856E85EF60B216BA
:10477800AA852AC25E85EF70A20EAA8DEA855A859F
:10478800EF70020EAA856E85EF70C236AA8DD685A7
:104798005A85EF70E20C12472A8B6685BA85EF704E
:1047A800220CAA855A85EF70E2342A8BEA85668541
:1047B800EF70020BAA8CD6855E85EF70620AAA8517
:1047C8006685EF702233979A0200938AAA5883A5C8
:1047D8000A002A8D6E85EF70A208970B0020938B34
:1047E800EBC783A50B00EF60120F83A50A0023A077
:1047F800AB002AC65A85EF70A206970B0020938B50
:104808002BC683A50B00EF60120D83A50A0023A019
:10481800AB002AC46A85EF70A204970A0020938A25
:104828006AC483A50A00EF60120B970500209385E0
:10483800659D83AC0500970500209385659C83AB37
:10484800050023A0AA002AC2EE856685EF70420102
:104858004C44EF6052083246AA8ADE853285EF70F2
:104868002200AA855685EF601207AA8A48C4DA850D
:104878006685EF60F27E0C48EF60F205A2462A8B4F
:10488800DE853685EF60D27DAA855A85EF60B20451
:104898002A8B08C8EA856685EF60927C4C48EF60F1
:1048A80092031247AA8CDE853A85EF60727BAA854F
:1048B8006685EF605202AA8B48C837050080D68506
:1048C80033454501EF60D2792A84CE855A85EF6059
:1048D8003279AA852285EF70E2212A84CA855E850D
:1048E800EF601278AA852285EF70C220979C02009B
:1048F800938C8C4683A50C00EF609276E285EF607E
:10490800827D2A84AA855685EF6092752A8CCE8589
:104918005E85EF60F274AA856285EF60C27B2A8C9F
:10492800CA855A85EF60D273AA856285EF70821CAA
:1049380083A50C00EF60D272D285EF60C2792A8A13
:10494800A2855A85EF60D2712A8CD2855E85EF6088
:104958003271AA856285EF70E219CA852A8C56855C
:10496800EF601270AA856285EF60E27683A50C007D
:10497800EF60126FCE85EF600276AA89A2855E8508
:10498800EF60126EAA8BD2855A85EF60726DAA8588
:104998005E85EF6042742A8BCE855685EF60526C37
:1049A800AA855A85EF70021583A50C00EF60526B3B
:1049B800CA85EF604272AA8AA2852285EF60526A90
:1049C8002A89D2855285EF60B269AA854A85EF6047
:1049D80082702A89CE854E85EF609268AA854A85BD
:1049E800EF60626F2A89D6855685EF607267AA855F
:1049F8004A85EF60426EEFF0DF8597970200938754
:104A08002735AA858843EF60B2232A89AA8522859B
:104A1800EF60126588C0CA855285EF607264C8C0AD
:104A2800CA854E85EF60D26388C4CA855685EF6013
:104A38003263C8C4B640264496440649F259625ABD
:104A4800D25A425BB25B225C925C025DF24D6161BC
:104A5800828097F7FF1F938767918C4339714AD8F3
:104A680003A947002E8506DE22DC26DA8047C447E4
:104A78004ED652D456D25AD05ECE62CC66CA6AC8D6
:104A8800EF6062652A8BCA854A85EF60C264AA8B8B
:104A9800A2855A85EF60D25CAA89A6855E85EF60FB
:104AA800325CAA854E85EF70E204EF700255979A42
:104AB8000200938AAA2CEF30723F03A60A0083A64D
:104AC8004A00179A0200130AEA2A970900209389D4
:104AD80029B3EF50721703260A0083264A00179D50
:104AE8000200130DED27EF500230EF70C25B23A0D8
:104AF800A900A2852285EF60025E83250D00AA8C9D
:104B08004A85EF60F255CA85EF6092552A8CA285D6
:104B18006685EF60F254AA856285EF60B27D179CC6
:104B28000200130CEC2283250C00EF60C25AEF70D0
:104B3800C24C2AC42EC66685A685EF607252AA8C1E
:104B4800CA855A85EF60D251AA856685EF60A2585A
:104B5800EF70A24A2246B246EF30724103A60A001D
:104B680083A64A00EF50520E03260A0083264A0005
:104B7800EF506227EF70225383250D0023A2A9006E
:104B88002285EF60F24DA285EF60924D2A89A685B5
:104B98002685EF604254A685EF60924CAA854A8527
:104BA800EF60527583250C00EF60E252EF70E2442B
:104BB8002AC42EC65E85A285EF60924A2A84A685FD
:104BC8005A85EF60F249AA852285EF60C250EF70DE
:104BD800C2422246B246EF30923903A60A0083A6A3
:104BE8004A00EF50720603260A0083264A00EF5057
:104BF800821FEF70424BF250625423A4A900D25492
:104C08004259B259225A925A025BF24B624CD24C28
:104C1800424D21618280411106C6EFF0EFF7EFF0B7
:104C28006FFCEFF0BF88170500201305259EEFF0F5
:104C38001FA0B240410131BD411122C437140040C8
:104C48008327840A1D6706C6D98F26C22324F40A3F
:104C58008D451D65EFD0BFFC8327840A21678545F4
:104C6800D98F2324F40A2165EFD07FFB8144EFE03C
:104C7800CF8F494463968408930500081305B0064E
:104C8800EFF06FE51305400697B0FF1FE780A063BC
:104C980081451305B006EFF00FE485451305B0060E
:104CA800EFF06FE385451305C006EFF0CFE28545C9
:104CB8006945EFF04FE29D456545EFF0CFE1E145ED
:104CC8006D45EFF04FE1C1457145EFF0CFE08D45FF
:104CD8007545EFF04FE097F7FF1F93872732945FF2
:104CE80017F7FF1F13074778B24014C3D85F224451
:104CF80097F7FF1F9387877798C392444101828073
:104D0800094597B0FF1FE780005C13055007EFF0D7
:104D18002FE0AA8485B7411122C426C206C6B284F0
:104D2800EF60525DA6852A84EF6072226351A0026B
:104D380097970200938787028C432285EF60925BE6
:104D48002A842285B2402244924441018280370558
:104D58000080A285258DEF60921FE354A0FE9797EF
:104D680002009387A7FF8C432285EF60C236C9BF34
:104D78000111979702009387A7014EC652C497095D
:104D880000209389E98703AA070097F7FF1F9387F5
:104D9800A76D8C4303A50900528606CE22CC26CAED
:104DA8004AC85AC25EC0853F17990200130909FF15
:104DB800EF70A224032609008326490097F4FF1FF9
:104DC8009384C423EF5022022A8B8858AE8BEF704D
:104DD800C222AE862A86DE855A85EF50E266EF70DB
:104DE800822C97F7FF1F938767688C432A8403A553
:104DF800490052860D37EF704220032609008326AA
:104E08004900EF40527E2A89C858AE89EF70E21EE9
:104E18002A86AE864A85CE85EF500263179902002E
:104E2800130909F3EF70222883290900AA8422852F
:104E3800CE85EF60D211634EA0009797020093874A
:104E4800E7F483A907002285CE85EF60B218635383
:104E580005004E84032909002685CA85EF60320FB4
:104E6800634EA00097970200938747F203A90700B3
:104E78002685CA85EF60121663530500CA84179900
:104E88000200130929F1832509002285EF60521DCC
:104E9800EF60D27E832509001374F50F2685EF6035
:104EA800321CEF60B27D17F7FF1F0347771985475C
:104EB8001375F50F6316F700330480401374F40F6D
:104EC80017F7FF1F0347F71785476316F7003305E2
:104ED800A0401375F50F17F7FF1F0347671601CB9F
:104EE80097F7FF1F93874775BA97A38F87FE17F722
:104EF800FF1F0347071501CB97F7FF1F9387C7735A
:104F0800BA97A38FA7FE9305000217F5FF1F034565
:104F1800E532EF20907F6244F240D2444249B249E0
:104F2800224A124B824B17F5FF1F0345452D894531
:104F380005616F20907D411122C406C69376053025
:104F4800130700302A8497F7FF1F83D7E75263932C
:104F5800E606850717F7FF1F2310F75297F7FF1F7D
:104F680083C7C70DA5CF97F7FF1F9387270983D757
:104F78002704E18FA5C797F7FF1F83C7675013B7AB
:104F8800170097F6FF1F238DE64E8DE397F7FF1F57
:104F980093870767944317F7FF1F1307E74C14C35A
:104FA800D84397F7FF1F9387674C98C3B2402244B2
:104FB80041018280C5D71307703E637CF700EF205C
:104FC8008031EF204040171500001305A50FEF10A2
:104FD800601897F7FF1F2391074A49B797F7FF1FF4
:104FE80083D78706B3F6870017F7FF1F0347E748FD
:104FF80081CE93C7F7FFE18F81EB1337170097F73F
:10500800FF1F238CE7465DB797F5FF1F938525059E
:1050180009E797F5FF1F9385450397F6FF1F83C69A
:10502800166217F6FF1F0346866117F3FF1F034337
:105038002361138F450101488148014EA94F9D4EB8
:10504800054583C7050081CF1377140063EAFF0481
:1050580019C7138797FF0A071373F70F054E8905BA
:105068000580E390E5FF63060E0097F7FF1F23898D
:10507800675C6386080097F7FF1F2382C75C630697
:10508800080097F7FF1FA38CD75A2244B24017F5A0
:10509800FF1F034565170D46856541016F2030796F
:1050A800D51793F7F70F15C363E9FE00B317F5009B
:1050B800D18F13F6F70F85485DB7E117B317F500E1
:1050C800DD8E93F6F60F054859BF63E8FE00B31767
:1050D800F50093C7F7FF7D8EF9BF138787FF331756
:1050E800E5001347F7FFF98EF9BF97F7FF1F23A3D2
:1050F800A73813064006854517F5FF1F0345C51059
:105108006F20F07297F7FF1F2394073697F7FF1F5A
:1051180023A20736B717004003A7070CC175FD1572
:105128006D8F23A0E70C03A7070C01767D16718FFE
:1051380023A0E70C03A7070CB706F0FFFD163D9B5D
:1051480023A0E70C03A7070C1377F7FD23A0E70CB0
:1051580003A7070A1377F7FD23A0E70A03A7070C9D
:10516800799B23A0E70C03A7070A1377F7FB23A073
:10517800E70A03A7070C758F23A0E70C03A5070C04
:105188003707C0FF7D17798D23A0A70C03A5070C4F
:10519800759923A0A70C03A5470DE98D23AAB70C81
:1051A80083A5070D4165C98D23A8B70C83A5470DB5
:1051B80017050000130565D86D8E23AAC70C03A632
:1051C800070DB70502004D8E23A8C70C03A6470D8F
:1051D8003D9A23AAC70C03A6070D1366060123A848
:1051E800C70C03A6470D1376F6FD23AAC70C03A622
:1051F800070D1366060223A8C70C03A6470B1376F0
:10520800F6FD23AAC70A03A6070B1366060223A8FE
:10521800C70A03A6470D799A23AAC70C03A6070D48
:105228001366160023A8C70C03A6470B1376F6FBD4
:1052380023AAC70A03A6070B1366060423A8C70AEE
:1052480003A6470DF18E23AAD70C83A6070D3706B0
:105258001000D18E23A8D70C83A6470D758F23AADB
:10526800E70C03A7070DB7064000558F23A8E70CE6
:1052780003A7470D759B23AAE70C03A7070D136720
:10528800270023A8E70C95B5B717004003A5470CDE
:1052980083A7470C4181134515001397E70005893B
:1052A8006344070013652500B717004083A7470C20
:1052B800C18B99E313654500B717004083A7470CD6
:1052C80093F7070299E313658500B717004083A792
:1052D800470A93F7070299E313650501B7170040DA
:1052E80083A7470C858B99E313650502B717004020
:1052F80083A7470A93F7070499E313650504B717CB
:10530800004083A7470C1397B70063440700136551
:105318000508B717004083A7470C13979700634405
:10532800070013650510B717004083A7470C898B42
:1053380099E31365052097F7FF1F83D7E71391C7F4
:10534800850717F7FF1F2319F71297F7FF1F83D752
:105358002712638FA70097F7FF1F239BA71097F7C4
:10536800FF1F9387271103A307006303030002832A
:10537800828011456FD00FBD411193962500AA85F3
:105388002D4506C697B0FF1FE7804054B24001453F
:1053980041018280411126C29394250022C44AC04B
:1053A8002A843289A686AA850146254506C697B06D
:1053B800FF1FE780A051A6864A86A285294597B097
:1053C800FF1FE780A050B2402244924402490145A1
:1053D80041018280011122CC06CE3714004026CA32
:1053E8004AC84EC652C483447405034AB405834967
:1053F800840503499405EFD0EFAE8347A40593F4E1
:10540800F40F137AFA0F93E71700230DF40493F9B6
:10541800F90F1379F90FB717004003C7A705058BD4
:105428006DFF03D5C705A38D4705238C3705A38CCE
:105438002705A38B9704F2406244D2444249B249FB
:10544800224A0561828001119397050122CC06CE7C
:1054580026CA4AC84EC652C4C1872E8463D10702E1
:10546800EF20E06019C1EF2060592165218DF240DD
:105478006244D2444249B249224A056182809397E4
:10548800250163D20702EF805155E53537F6020052
:10549800130606E0896517F5FF1F0345E5D6EF20DB
:1054A80010390965E1B79397350163DE070417F7EB
:1054B800FF1F130727198147814617F5FF1F13059B
:1054C800A517A5453306F50003460600034807005F
:1054D8006305C8002300C700854685070507E393D1
:1054E800B7FE85C29305000217F5FF1F034505D5D2
:1054F800EF20B021894517F5FF1F034545D0EF2060
:10550800D0200565A5B793F7150091CFEFF0DFD749
:105518002146854517F5FF1F034505CFEF2030319C
:1055280013451400A9B793F745009DC7EFF0AFEEF8
:1055380017F7FF1F0347C7F485476314F700EFF019
:105548003F834146914517F5FF1F0345E5CBEF2003
:10555800102E1345440021BF93F7050163810714FA
:1055680097F4FF1F83C4D4F18DE41149268585047F
:10557800814593F4F40F8521E39A24FF2146C14520
:1055880017F5FF1F034545C8EF20702A134504018E
:10559800F9BD85476390F402A526894717F7FF1FD1
:1055A800A300F7EE81450545F52B97F7FF1F23A7C5
:1055B80007ECE9B78947639AF40297F4FF1F9384CD
:1055C800E4EB9C4085450545850717F7FF1F232712
:1055D800F7EAC92B98409307F07CE3F1E7FA8D4787
:1055E80017F7FF1FA30EF7E851BF8D47639BF40021
:1055F80091478945054517F7FF1FA303F7E85D2382
:10560800B5BF9147639AF400954717F7FF1FA309A1
:10561800F7E68145094549BF95476396F40297F433
:10562800FF1F9384A4E59C4085450945850717F726
:10563800FF1F2325F7E4BD2398409307F07CE3FF81
:10564800E7F2994771BF9947E39AF4F2894509450A
:1056580097F7FF1FA38607E297F4FF1F9384440080
:10566800912301493126178A0200130AAA78EF10FC
:105678009055914983D7240003D7040083D664004A
:1056880003D68400CA8552850509EF00607DA90408
:10569800E31239FF97B0FF1FE780A0D1C5B593F794
:1056A800850099CFEF00502C13060006A14517F589
:1056B800FF1F034565B5EF2090171345840045BBD0
:1056C80093F725000145E38407DAEFE0EFFF096669
:1056D800130606F4894517F5FF1F0345E5B2EF20C9
:1056E80010151345240061B31D71494697850200C2
:1056F8009385C56B179502001305C5F986CE97B03B
:10570800FF1FE780405C01E9178502001305456B20
:10571800EF60525801A0B7F600E0795798CAFD57D4
:10572800DCCA0567B7E700E023A0E7101306F0021C
:1057380090C223A0E718010001001306C0038145A9
:10574800480897B0FF1FE780805297F7FF1F93879D
:10575800276A3ECA896793870780231CF100ED47B3
:105768002312F1029547A301F10285472303F102B1
:10577800B5472304F102A167938707E03ECE970758
:1057880000009387A7BFBEC4970700009387C7C0D0
:10579800BEC68567938727D02315F10297D7FFFFE9
:1057A8009387076C3EDAB7F50700970700009387E1
:1057B800A7C23EDE8146970700009387C7BB7000EB
:1057C800E1051945BEC097B0FF1FE78020105808B3
:1057D8008147994670003E960346060085070507EF
:1057E800A30CC700E398D7FED24791C7035781019E
:1057F80085676373F70001A04808EF20F04FAA857A
:1058080001C9178502001305E55CEF60F23301A0BA
:10581800F640256182804111170500001305E5C295
:1058280006C622C4EF20904997F7FF1F238EA79C36
:10583800371400407920EF109037EFF0EFBFEFE01A
:105848003FBFEFE06FECB522EFF0DF8B8D25EF0067
:1058580020778327440C898B8DEF294597B0FF1F4C
:10586800E78060A68327440C898B85E7854717F76F
:10587800FF1FA307F7C02244B24037F6020017F50E
:10588800FF1F03456598130606E0896541016F20EF
:10589800007A97F7FF1F83C7B7BEF1FF13060064AE
:1058A800914517F5FF1F03452596EF20407813060D
:1058B8000064A14517F5FF1F03450595EF202077E4
:1058C8005DBF411106C6B717004013077005238056
:1058D800E704130780FA2380E70403C7F702137766
:1058E800A70FA387E70203C7F70213672700A38759
:1058F800E702EFF01FA8B240014541016F20107385
:1059080097F7FF1F9387C7D517F7FF1F1307C7D749
:10591800FD56239007002391070023930700239443
:10592800D70023920700A907E395E7FE828097E74F
:10593800FF1F9387A76C17F7FF1F130767D297E618
:10594800FF1F9386266C03D6870189072907231B27
:10595800C7FE03D6E700231CC7FE03D6E7FF231EB6
:10596800C7FE03D66700231FC7FEE39ED7FC8280CD
:1059780097F7FF1F9387C7CE17E7FF1F130707681F
:1059880097F6FF1F938646D003D60700A907090795
:10599800231BC70003D687FF2317C70003D6C7FFFB
:1059A800231FC7FE03D6E7FF2313C700E39ED7FCD8
:1059B8008280411106C6A53F81453D45EFD02FA6FF
:1059C800B24017F5FF1F034525841306000AC14599
:1059D80041016F20C0658D4763E5A71C97970200BA
:1059E800938787494111AA9722C426C24AC0AE8428
:1059F80003C907002A848145014506C6EFC05FCC6C
:105A0800B7170040238C2705EFC05FD0639D0412B1
:105A1800A947B307F40217F7FF1F130767C497F6E0
:105A2800FF1F9386A6A6BA9703D60700636AC50820
:105A380083D7270063E6A708A296238006008D4730
:105A4800631EF41297F7FF1F83C727A317E6FF1FEC
:105A58001306465BCDC797E7FF1F9387275A17F7AB
:105A6800FF1F1307A7A2854517F5FF1F1305C5BC20
:105A780083C697026398B60083460700B306D040F2
:105A88002300D70083C6870291C603480700AA9659
:105A9800A38F06FF89070507E31CF6FC97F7FF1F8E
:105AA80083C7079EE1EF2244B2409244024917E5BA
:105AB800FF1F034565750D46856541016F20205719
:105AC800A947B307F4023E970356670003578700B8
:105AD800B2876368A600AA876373E500BA87C2071E
