:040000006F20804E9F
:1000040000000000000000009000002076020020A4
:10001400A9BDF9F5940000200000000000000000D4
:10002400960000209800002000000000000000005E
:100034009A000020000000009C0000200000000046
:100044009E0000200C08002010080020A4000020BE
:10005400A6000020A80000204A040020AC000020D4
:10006400AE000020B0000020B2000020B400002048
:1000740030040020F2020020BA000020BC0000205E
:10008400BE000020C0000020C2000020C4000020E8
:1000940001A001A001A001A001A001A001A001A054
:1000A40001A001A001A001A001A001A001A001A044
:1000B40001A001A001A001A001A001A001A001A034
:1000C40001A001A001A0B71700409306700523808A
:1000D400D704130780FA2380E7040100010003C654
:1000E400B7041376F60DA385C7042380070413769B
:1000F40005024DC203C6A700118A1DE22380D7045E
:100104002380E7040100010003C7A7001367470029
:100114002385E7009307004B01000100FD17EDFF65
:10012400B7170040930670052380D704130780FA9D
:100134002380E704010001007D892394A7000100C6
:10014400010001000100238007042380D7042380D9
:10015400E704010001000100010037270040930675
:100164001005A303D78023800704B71700401307A3
:1001740070052380E704130780FA2380E704010055
:10018400010003C7B70413670708A385E7042380A6
:10019400070482801376050441C603C6A700418A7A
:1001A4001DE22380D7042380E7040100010003C774
:1001B400A700136707012385E7009307007D01006B
:1001C4000100FD17EDFFB71700409306700523806B
:1001D400D704130780FA2380E70401000100137693
:1001E400F501136606042394C70001000100010011
:1001F4000100238007042380D704130660042380AE
:10020400E7046318C5000100010037270040894650
:1002140089BF01000100372700409306200591B7EC
:100224002380D7042380E7040100010003D787005B
:100234001367070C2394E7000DBF41118146014663
:100244008145114506C66925B71700401307700597
:100254002380E704130780FA2380E70401000100E8
:1002640003C76704136717002383E7042380070485
:10027400B240410182808146014681451145892D64
:10028400B7170040930670052380D704130780FA3C
:100294002380E704010001007D562396C7022380D2
:1002A400D7042380E7040100010003C76704136730
:1002B40017002383E7042380070401A0BD47330507
:1002C400F50201007D1575FD8280411122C426C20C
:1002D40006C6AA84014463179400B240224492449F
:1002E4004101828005041305803E4204C13F4180E0
:1002F400DDB7B717004003C72706218B05CB03C71B
:1003040017061377F707A380E706174700001307BC
:10031400272B2394E70603C7270613678700238147
:10032400E706854717470000230AF70E73002030BD
:100334004111594506C6974000E0E780C0F44545A1
:10034400974000E0E78020F44945974000E0E780CB
:1003540080F34145974000E0E780E0F27145974023
:1003640000E0E78040F20145973000E0E78060B0AC
:100374008566014681450545A12B7DF981460146E7
:1003840081451145B123B717004013077005238039
:10039400E704130780FA2380E704010001007D5776
:1003A4002396E70203C76704136717002383E70450
:1003B4002380070401A04111594506C6974000E077
:1003C400E78060EC4545974000E0E780C0EB494595
:1003D400974000E0E78020EB4145974000E0E7804C
:1003E40080EA7145974000E0E780E0E901459730F5
:1003F40000E0E78000A88146014681451145C929EE
:10040400B7170040130770052380E704130780FA29
:100414002380E704010001007D572396E70203C708
:100424006704136717002383E7042380070401A0EC
:10043400B7170040130700032388E70285471747CF
:100444000000232DF700730020300111A3070100E1
:1004540022CE26CC4ACA4EC8378400408347640063
:1004640093F7F70FA307F1008347F100898B638BA0
:100474000732834774001307000393F70703638865
:10048400E7088344740083477400BD8893F7070327
:1004940063800720130700026396E70617490000EC
:1004A40013090978639D04129757000083C7878F47
:1004B4009D83FDC78347240293C707042301F402E5
:1004C4008347240293F7C70F93E727002301F4021D
:1004D400832749019745000083C5C57463F6F50A6F
:1004E4008D8F174700002327F77483278901BE9552
:1004F4009747000023A2B77413050008976000E033
:10050400E7808064B787004009472383E700378486
:10051400004083477400E207E18763D9072C9307FF
:1005240020FC2301F402974400009384646F83A5A4
:10053400840C2146175500001305C58697C002E0B8
:10054400E78020B18387441863CA070023000402AC
:100554008347240293F7C70F2301F4023784004032
:1005640083472402175500001305C58393F7370FFB
:1005740093E787002301F402976000E0E780004BD3
:1005840089472303F4009DA483258901BE959747D9
:10059400000023A3B76A9747000023AD0768A9BFEB
:1005A40017570000034717809547631BF7008347DD
:1005B40034000347090093F70708D98FA301F40017
:1005C4008347240293F7C70F93E727002301F4021C
:1005D4008347240293F7370F2301F40225B7914789
:1005E4006398F4008347240393C707042309F402A0
:1005F400154433D48402930700033304F40293971D
:1006040024003E94B7870040938727023E94834793
:10061400040093F7C70F93E727002300F400E14792
:10062400B387F402CA97D84B03C64700944F637943
:10063400E6048C4B118FB296B2958CCBD8CB94CF69
:1006440088476376E60297C002E0E78080A0E1472E
:10065400B384F4028547CA9403C75400630BF700BC
:100664008347040093F7C70F2300F40061BD3A8663
:10067400D9BF8347040093F7C70F93E71700EDB77B
:10068400B305D7008CCF23AA070013E50408BDB532
:10069400A1EC834724028344840017490000130912
:1006A400295893C707082301F4028325890C0325DD
:1006B400090D268697C002E0E780A0998325890D5D
:1006C4000145A6959747000023A8B7628327490DE3
:1006D400858F17470000232FF760976000E0E780BD
:1006E400A048E39104E2EDB58347740093F707044F
:1006F400E38A07E091476398F4008347240393C790
:1007040007082309F4026144B3878402B7890040CF
:10071400174400001304C45003C989004A863E9458
:100724008325840C0325040D97C002E0E7806092C2
:100734008327040D8325840D0347440CCA9723287B
:10074400F40C8327440DCA95232CB40CB38727419A
:10075400232AF40C6363E90099E72685976000E097
:10076400E780804045B39547B3D7F40213070003ED
:100774008A0493892902B387E7020347540CBE9481
:100784008547CE946309F70083C7040093F7370FB6
:100794002380F40085BB83C7040093F7370F93E7E6
:1007A4004700FDB78347F100858B99CFA30104006F
:1007B400976000E0E78040248347240293F7370FD3
:1007C4002301F402854775BB8347F100918B95C7DC
:1007D40083475400918B91C70145975000E0E7800F
:1007E400C05FB787004011472383E7007244E244A7
:1007F4005249C2490561730020308347F10093F7E1
:10080400F70F41B3411106C6A52DFDBF730020307B
:10081400730020302303048015472303E480010080
:100824002302A480828083076480E3CE07FE23032F
:100834000480828083076480E3CE07FE03454480FE
:10084400828083076480E3CE07FE2302A480828033
:10085400411126C44AC24EC006C61377F50BAD47F4
:10086400AA892E8995446306F70019456537653FC3
:100874008D444E854537FD59FD1463983401B240CB
:10088400A24412498249410182801355090113751A
:10089400F50F453F2209CDB7011126CC06CEB7048A
:1008A400080051371545BD37713769372AC6A53F4A
:1008B40032459377150089EB136515001375F50F11
:1008C400F240E24405618280FD14E9FC0145CDBF9C
:1008D400397126DC4ADA4ED852D656D45AD25ED072
:1008E40006DE62CE66CCB7E700E07D5783AA070038
:1008F40022C603AA470023A0E71823A2E718B717C4
:100904000040130770052380E704130780FA23804F
:10091400E70483C74704930B75FFB684E20793FB90
:10092400FB0F8546AA892E8B328937240040E18744
:10093400015763FA76016308D5008946130700025C
:100944006313D5000157D98F93F7F70FB71C0040F5
:100954002382FC0411472303E4801305F00F5D3D5B
:10096400094CD135636D7C11B7050700DA953787DB
:100974000700795563F2E504B3879500636EF702C7
:10098400370B0800A94733EB65016399F90689E43D
:100994008144513D26850DA0DA850945553D05095B
:1009A4000345F9FFFD14050B693D81C49377FB0FE3
:1009B400FDF7DD3569FD7D55B71700401307700558
:1009C4002380E704130780FA2380E70403C747045E
:1009D400418B2382E704F250B7E700E023A05711CC
:1009E40023A24711E25432445259C259325AA25AEC
:1009F400125B825B724CE24C21618280A547639555
:100A0400F90685691309F00FB3069900B3742B0135
:100A1400B6941349F9FFB3749900856B337969016E
:100A2400416B9387F9FFB3F7270199E363FC340122
:100A340093D94900C147E3E637FF99BF0569C16906
:100A44007D19D9B71305800D638869011305000268
:100A54006384790113051008CA85DD3B353D21DD2A
:100A64004E99B3843441D9B7DA852D45D533CA9428
:100A7400E30099F205097D3BA30FA9FED5BF938737
:100A8400F9FF93F7F70F6361FC0C83C71C0413078A
:100A94003008631FF70437070800636BEB04B307E0
:100AA4009B00B706100063F5D704334BEB0089476E
:100AB4006393F9068980D549E38C04ECDA8509450A
:100AC400413B11090327C9FF91472320E480030711
:100AD4006480E34E07FE23033481FD17EDFBFD1410
:100AE400110B81C49377FB0FE9FF7D3371F5E1B5F9
:100AF400B717004003C75704B70708001377070266
:100B040019E3B78707007955E378FBEA33079B00BD
:100B1400E3FFE7F855B58547E382F9F2DA852D4519
:100B2400053B9389F4FFE38504E6293393F7390001
:100B340091EB832604800327090093074900E39A75
:100B4400E6E43E89CE84F1BFB5476396F900130508
:100B5400900BC93135BDB1471305B00AE38BF9FEDB
:100B640099476391F904B7050800B365BB002D45A7
:100B7400C53181448D4BA14975396396740183272E
:100B840004802320F9008504E39834FF832704803C
:100B940013172B01635507002312F900D5BB232239
:100BA400F900FDB39D476399F90281451305B0042B
:100BB4004531BD442320090023220900FD599D39F4
:100BC40093F77400CA9703C70700FD14398D238077
:100BD400A700E39634FF6DBBA1476392F9046D3916
:100BE4008144630D0B008D479304C0036308FB002D
:100BF4009304000563048B01930440041375C50733
:100C0400E30895D819453931393905452131268507
:100C14000D3909453D314931E31C05D669BB91477E
:100C24006399F90013056006F536F53E130590093E
:100C34000DB7E38F09D4F154A9BB19CD91CD09CED9
:100C440081473387F500834607003307F50085079E
:100C54002300D700E317F6FE828019C991C909CA97
:100C6400910583A7C5FF11057D16232EF5FEC5BF8B
:100C7400828001C919C62A960505A30FB5FEE31D96
:100C8400A6FE828081473307F5000307070019E3B6
:100C94003E8582808507C5BF01112E8626CAAA8497
:100CA400131506019305F004418122CC06CE32C609
:100CB400EF1040592A8401C53246A685BD3F2285DE
:100CC400F2406244D24405618280854715C18DC1DA
:100CD40005C28147B306F5003387F50083C60600D5
:100CE400034707006398E6008507E315F6FE85478A
:100CF4003E8582808147EDBF9307F6FFBE952A9615
:100D04006313C5008280FD1583C715000505A30F75
:100D1400F5FEFDB7AA87014581CF09CE3E9685072A
:100D240003C7F7FF6317B700E39BC7FE054582803F
:100D34008280014582807971976700009387C79408
:100D440022D4804306D626D24AD04ECE52CC56CA9E
:100D54005AC85EC662C45DCC37C9C901814B176AE3
:100D64000000130AEA9697640000938424921309FE
:100D7400F937976A0000938AEA8BB709C0A8370B42
:100D840040578357240095E35C44639D0B00176729
:100D94000000232BF78E032CC4002285EF10A057EC
:100DA400628499A823A6FB00FDB783270A008297D3
:100DB400838664011C4463DB06063307F5406367DE
:100DC400E9089767000023AF07868355240003458D
:100DD4000400977000E0E78040EF5C405844A9CFDE
:100DE4001444B6978386640163C5060063E3370140
:100DF400DA971CC4A28B3A8449F49767000093875E
:100E040067839C4B09476378F706F9171767000057
:100E1400232AF782B250225492540259F249624A68
:100E2400D24A424BB24B224C45618280E377F5F8BB
:100E34003387F9402A9761B763970B0097670000DF
:100E440023A4E78489BF23A6EB00B1B7D85009CF08
:100E540063DF06003385A74083A70A016376F500A4
:100E64009757000023A0A77EA28B404471B7E3F3F9
:100E7400A7FECE97C5B79757000023A5077C59BF97
:100E8400411122C4175400001304C47D1C4006C63B
:100E940026C24AC091C782979757000023A4077CB3
:100EA4005C4091C382971C406391071C97670000C4
:100EB40083C7D799858B9DC797670000A388079838
:100EC400176700000347B798954763FDE700EF00F5
:100ED40010379767000083C79797F5178A07A2977B
:100EE4009C438297176900001309099A8347C90034
:100EF400918B99C3EF1060281C4491C38297975437
:100F04000000938424789840175600000346967294
:100F14009757000083C7077293961700BA9683D633
:100F24000600D5CA9757000083C7C77063EFC70A86
:100F340097570000238007701C4063980712976737
:100F4400000083C7F79091CF9767000083C737905D
:100F540089EB97670000A38D078E97D001E0E780A7
:100F640080CD975700009387A7769C43638F070E25
:100F7400B707C0A8175700002326F76C6D3B975797
:100F840000009387A770DC53EDC3175700001307C5
:100F9400676A184B9757000083C797706367F70C0D
:100FA400176700000347B78A954763E0E70C834758
:100FB400C900918BDDEB90409756000083C696677D
:100FC40063CBD70A2244B2409244024941011773C9
:100FD40000E06700A3AC850793F7F70F975600006E
:100FE400238AF664E3E6C7F235BF86073E97835546
:100FF40007002310070097570000239307689757AB
:1010040000009387E7659C431755000003458562FC
:1010140013172500BA979C4382979757000083D7EC
:101024002766175700000347E76093C7F7FF7D8DD6
:101034009317170098403E97835707005D8D231040
:10104400A7009757000083C7E75E91C78507175726
:1010540000002301F75E175700000347A75D975769
:10106400000083C7375DE375F7ECB2402244924435
:1010740002494101828013971700329703570700F2
:101084006DF7850735BFAD6737C70040BD07232619
:10109400F7200F100000975700009387A759C84FF7
:1010A40083278726BD66BD0693C7F7FF99836A0524
:1010B4002326D7205D8D82804111B7170040985FA9
:1010C4003AC6945F3247E39CE6FE32454101828092
:1010D40082800327851163000712411122C406C6CA
:1010E4008347C5008345C5042A8493F7C70F2306A5
:1010F400F500834697000356C70013958601618562
:1011040063F1C508635A05060345870093F6F6079D
:10111400A304D700054693E627006314C50093E6AD
:1011240017002306D4005C4389075CC3A30AB400F8
:10113400032504112E864C430905013683278411A7
:1011440003465401D44303D7C700B296118FD4C3C6
:101154002396E7008947A30DF400034744039757F8
:10116400000083C7C7536378F7048347C40093E739
:1011740007012306F40081A093E717002306F40077
:1011840075B79376F60F635D0502034587008545C1
:1011940013E627006314B50013E617002306C40002
:1011A400A30AD400A30407008547A30DF4008327F2
:1011B40084119C43DDF3B240224401454101828005
:1011C40093E717002306F400A30AD400A30407003E
:1011D400032504114C4309058D34832784110346E8
:1011E4005401D44303D7C700B296118FD4C32396B6
:1011F400E7008D475DBF05458280975700009387C0
:1012040027639C43411122C406C6858B2A84C5EFFB
:101214004165130525F5977001E0E78020B545C5C4
:101224008347A5002315F50083270412BDE7232077
:10123400A4122322A41285472310F40423200500BA
:101244008347640154412316F5000347D400230463
:10125400E5000547A304E500175700001307C75E20
:10126400184F1385170215811C437D151375F50F4F
:101274009CC25C43DCC21C479CC65C47DCC61C4B5E
:101284009CCA5C4BDCCA1C4F9CCE5C4FDCCE19CD97
:101294009386060213070702C1BF8327441288C33B
:1012A400835704042322A412850779B797570000B3
:1012B40083D7C7668507175700002311F766B24026
:1012C4002244410182808347C40023090400054568
:1012D40093C747002306F400DDB78347850193F7DE
:1012E400E70FD5EF83479501DDEB034625018346E0
:1012F400C50009CA83454503175700000347373A19
:1013040063E7E50013F7060141CF014709C6C18A27
:101314000357651C81C68356A51C369751C3130712
:10132400C7121755000003556533B335A702374676
:101334000F00411113060624814622C426C206C6A4
:101344007D543305A702978002E0E78040D9975780
:10135400000083C73735B384A700975700009387ED
:10136400675B03A707098327070963F387003E84A4
:10137400184375FB97570000938787359C438297E2
:1013840081476364A400B307A440B2402244B3B7C6
:10139400970093C7170092443E854101828081479C
:1013A4003E858280797126D206D622D44AD04ECE8A
:1013B40052CC56CA5AC85EC68347350303447513D4
:1013C400AA843E941374F40F9307400263F68700D3
:1013D4001304B4FD1374F40F03AA841383AAC4136F
:1013E400A38B841222865285D685978002E0E780FB
:1013F40080C9058915E503CBD41201498149337BA2
:101404006403930B50024A865285D685978002E086
:10141400E78060C7058915C5639169031374F90FE3
:10142400238B8412B250225492540259F249624AD4
:10143400D24A424BB24B456182808509E20993D975
:1014440089410509E31179FDE1BF83278509035625
:10145400E503797193D60701BD8EC206C182358E2C
:101464001357764093575640898B058B5D8F93575E
:101474003640918B5D8F93571640A18B5D8F9317E8
:101484001600C18B5D8F9317360093F707025D8FAB
:10149400931756009355860093F707041E065D8F35
:1014A4001376F60F518F93D7554013D63540118AD2
:1014B400898BD18F13D67540D18F13D61540218ACD
:1014C400D18F13961500418AD18F13963500137668
:1014D4000602D18F13965500137606049E05D18F0C
:1014E40093F5F50FCD8FA20745465D8F3307C702ED
:1014F40022D42A8426D252CC56CA032A8413832A9D
:10150400C4135AC806D63697420741839357774087
:10151400135557400989858BC98F13553740118955
:10152400C98F135517402189C98F13151700418995
:10153400C98F1315370013750502C98F131557008A
:1015440093558700137505041E07C98F1377F70F8A
:10155400D98F13D5354013D755401189098B498F3D
:1015640013D57540498F13D515402189498F13959B
:1015740015004189498F1395350013750502498F6C
:1015840013955500137505049E05498F93F5F50FC2
:101594004D8F2207D98FB387C7024AD04ECE5EC67D
:1015A40062C4B697C207C18313D7774013D5574097
:1015B4000989058B498F13D537401189498F13D574
:1015C40017402189498F139517004189498F139535
:1015D400370013750502498F1395570093D587007B
:1015E400137505049E07498F93F7F70FD98F13D509
:1015F400354013D755401189098B498F13D5754050
:10160400498F13D515402189498F139515004189B8
:10161400498F1395350013750502498F13955500AD
:10162400137505049E05498F93F5F50F4D8F220719
:10163400D98FB387C702130650025285D685B69751
:10164400BD8E93940601C18033F6C402137BF60F5A
:10165400978002E0E78020A305890DED8347D4122B
:1016640001498149B3849702130C5002C1804A8610
:101674005285D685978002E0E780E0A00589937BB8
:10168400F90F11C563863403850993F9F90F050928
:10169400E31F89FD230B6413B25022549254025960
:1016A400F249624AD24A424BB24B224C4561828093
:1016B4005E8BCDB70111975700009387A72522CCE5
:1016C40003A4470B26CA06CE2AC42EC6854419E4B1
:1016D4000145F2406244D24405618280834791000F
:1016E40003471400858B6304F7000044CDB7194603
:1016F4009305A10013052400EFF02FDDE31795FEF9
:101704000545C1BF011122CC1754000013048415F0
:1017140018402AC62EC432C206CE3C4B93F7F7F7C4
:101724003CCB97C001E0E780C04D184097560000BD
:10173400938686103C4B93E707083CCB9C4232458A
:10174400A24523A0070003471500034825002207EC
:10175400420842970348050042970348350062084F
:10176400429798D70347550003486500220742086B
:101774004297034845004297034875006208429720
:10178400D8D7034795000348A5002207420842978B
:101794000348850042970348B5006208429798DBE6
:1017A4000347D5000348E50022074208429703484F
:1017B400C5000345F500429762052A97D8DB03C7A5
:1017C400150003C52500220742052A9703C5050015
:1017D4002A9703C5350062052A9798CF03C7550099
:1017E40003C56500220742052A9703C545002A97C9
:1017F40003C5750062052A97D8CF03C7950003C5B2
:10180400A500220742052A9703C585002A9703C528
:10181400B50062052A9798D303C7D50003C5E50030
:10182400220742052A9703C5C50083C5F5002A97F8
:10183400E2052E97D8D3D843759BD8C3D8431367F2
:101844001700D8C398431367170098C312469842E9
:101854005C43858BD1E71C4F01452300F6009C4275
:101864009C4FA183A300F6009C429C4FC18323019B
:10187400F6009C429C4FE183A301F6009C42D84FA2
:101884002302E600D84F2183A302E600D84F418308
:101894002303E600D84F6183A303E600985323048F
:1018A400E60098532183A304E6009853418323055B
:1018B400E60098536183A305E600D8532306E600A7
:1018C400D8532183A306E600D85341832307E600B7
:1018D400DC53E183A307F600F24062440561828091
:1018E4000100B5B717570000130747F5144341111A
:1018F40022C49C5E4AC006C6998326C2858B3A845C
:1019040017590000130949F3D1CB9C5E975400008A
:10191400938484F393F7F7F99CDE17570000034789
:1019240007F393070008631BF700832709009C4310
:1019340093F7070417570000230BF7F083C704003D
:1019440093F707049DC397570000938767D89C4378
:1019540082979757000023A1A7F083C7040093F749
:10196400F70B175700002301F7EE83C7440093F7E2
:1019740007048DE7854717570000A309F7EC97572D
:101984000000938727EE9C43096798C7130700FC60
:1019940097560000238CE6EAD844F8D31C40985F9D
:1019A4001183058B09CB985F3D9B98DF05479756BC
:1019B4000000238DE6E8985F1D83058B11CB985FAB
:1019C4001377F7F798DF8547175700002300F7E8E8
:1019D40083270900D8430583058B19C7D843759B12
:1019E400D8C3D843799BD8C3B24022449244024915
:1019F40041018280397106DE16DC1ADA1ED82AD635
:101A04002ED432D236D03ACE3ECC42CA46C872C662
:101A140076C47AC27EC0F935F250E2525253C253B0
:101A24003255A255125682567247E2475248C2486E
:101A3400324EA24E124F824F2161730020309757CD
:101A44000000938727E29443975700009387C7DFEA
:101A540003C70700058B11CB97570000238807DEC7
:101A640097570000A38407DE828003C71700058B05
:101A740065F7F85271FF83C75700DDB717580000A8
:101A84001308C8DB032708001C5F9583858BD1E707
:101A940009C61C5BBD832300F60085CA83270800A2
:101AA400985B4607935767016356070093E707C09F
:101AB400C207C18303970600C207C18709C7BA9743
:101AC4000947B3C7E7022390F60085CD8347150085
:101AD4008DCB9756000083C686D793F606041387EA
:101AE400970089478DCA3A9503470500854699476B
:101AF4001376F7066311D60262076187B947634C10
:101B04000700832708009C5FED838D8B1757000027
:101B1400A301F7D481473E8582808547EDBF4111FB
:101B240022C406C6175400001304C4D3184049E95C
:101B3400AE877453FDFE3E85B28597570000238619
:101B440007D097C001E0E780C0E197570000938772
:101B5400E7CE9C43B70680009843558F98C3D85767
:101B6400719BD8D797570000A38207CE97570000E0
:101B7400A38C07CC1C40094798C3B7F700E003A720
:101B840007D16D9B23A8E7D003A707D15D9B23A8AA
:101B9400E7D0730050101440175700001307C7CA4A
:101BA40083472700858B89EB83473700858BD9C70B
:101BB40097570000238C07C8B24022444101828019
:101BC4008D476310F50297570000938727C79C43FE
:101BD400B70680009843558F98C3D857719BD8D7C0
:101BE4005DBF8547E319F5FAB567BD075CC70F10FC
:101BF40000001C400967094698C7130700F8975668
:101C040000002385E6C417570000130727C31443B5
:101C1400984231830D8B6319C7001307E043F8D34F
:101C24003D673D07D8C785BF984231830D8B01E7D7
:101C340013076019EDB71307E01BD5B7FC52ADF3DA
:101C4400A5BF5D7152DC175A0000130A2ABF03278F
:101C54000A0086C6A2C4A6C2CAC04EDE1C43975957
:101C640000009389E9C4175900001309A9BF93F729
:101C7400F7E793E707081CC383A609003707CEFFDD
:101C84007D179C46130680022A84F98F9CC68327FD
:101C94000900130700082800B8CBAE849305100888
:101CA400EFE03FFD97C001E0E780A0F597C001E0B9
:101CB400E780A00283270A009376F41F370FFCFF06
:101CC40023A40700984B4E88CA881367F70398CB60
:101CD400F84F130510F8D285137707E0558FF8CF26
:101CE4009843F576FD16758F98C39843B70633006D
:101CF400B70204001377F7E798C398439303401F90
:101D04007D1F1377F7E71367071098C303A709002C
:101D1400930F800285491C47D58F1CC78327090070
:101D24001307900D3400B8CB114901471353370002
:101D340026938347030013767700B3D7C740858B78
:101D4400DDCF9C41832E0800239C070423900706C3
:101D540003AECE02137EDEFF23A6CE0383AE0700BE
:101D6400137EF70793FE0EF833EECE0123A0C701CE
:101D740003AE4702336E5E0023A2C70383AE08009E
:101D8400014E23A27E0603DA070663074E0303AE61
:101D94000703038A0600135EFE00620E135E8E4183
:101DA4006358CA0103AE0703135EFE002380C60115
:101DB40003DE0706137EFE0F03AA4E0663060A001F
:101DC40003DA8705E37F49FB03AE4702337EEE0166
:101DD40023A2C70383870600635CF400034E030059
:101DE4003396C9001346F6FF3376C6012300C300B9
:101DF4003E8663D3A7002A861315860161850507ED
:101E04001377F70F8506E313F7F3B6402644964499
:101E14000649F259625A616182809756000093869E
:101E240066A49C42D84713161701635506029847C7
:101E340013161701635006027D57B8D717470000E1
:101E44001307477F584F0507175600002322E680E3
:101E5400116798C798470D83058B1DC3175700005A
:101E64000347A79E1367170017560000230FE69C2D
:101E7400130700F817560000230AE69C214798C769
:101E84009847058B09CF175700000347F79B136743
:101E9400170017560000A309E69A054798C7984704
:101EA4000983058B09E798470583058B31CF98474C
:101EB4001756000013064699175500001305059898
:101EC4000983058B630307101841184331830D8B75
:101ED40075EBAC4B184E93F5050203471700CDCDB7
:101EE40079EF13077006D8CF03470600136717006E
:101EF40017560000230AE694114798C718415C5707
:101F0400F19B93E717005CD79C42984793163701DF
:101F140063D606029756000083C606A7C18A1757E0
:101F240000001307279FC5CE03474707136707021F
:101F340097560000238AE6A4056798C79847931626
:101F4400270163D106021757000003472790620751
:101F54006187635707000547975600002388E68E7C
:101F6400096798C798479316070163D606029756E0
:101F7400000083C676A1858A175700001307879946
:101F8400ADCE034757071367270097560000A38D6C
:101F9400E69E216798C7828029D785456315B700D7
:101FA4001307B00689B789456315B7001307F00610
:101FB4001DBF8D456315B700130730072DB71307F1
:101FC400500715B71307600739BF03473600136777
:101FD400170017560000A30AE686094739BF83464F
:101FE40047070946BD8A6388C600034747078D46ED
:101FF4003D8BE313D7F4114725BF83465707918AD6
:10200400C9DA034757071367870041B7397106DEFA
:1020140016DC1ADA1ED82AD62ED432D236D03ACECC
:102024003ECC42CA46C872C676C47AC27EC0F53374
:10203400F250E2525253C2533255A25512568256AE
:102044007247E2475248C248324EA24E124F824F64
:10205400216173002030175700001307E78083467F
:10206400B7019757000083C7F7824C4BB697FD8B97
:1020740033D7F50097460000A388F67E97560000F4
:10208400A38AF680058B15EF175700000347D78006
:10209400B3F7E702814601471305000233D6E50092
:1020A400058A1378F70F19CA6397D700974700007A
:1020B400A38C077B8280850693F6F60F0507E31F42
:1020C400A7FC828097470000938787609C43011197
:1020D40022CC4EC606CE26CA4AC852C456C28297DD
:1020E400974700009387477A804781496305A40690
:1020F400BE849747000093876759038767013E8929
:1021040063550706018D135455009747000083C794
:1021140047779379F501636DF402370AC0A8B70ACB
:102124004057153F9C449746000083C68675139715
:1021340056003E9783076901158C63C507006363E6
:10214400470156979747000023A4E774E37BD4FC28
:102154001604B3693401F24062444E85D2444249C4
:10216400B249224A924A05618280E37D85F8B70725
:10217400C0A833848740229579B797470000938796
:1021840027559C43411122C406C626C2829797470D
:1021940000009387676F80476309A406BE8497474E
:1021A40000009387A74E8387670163D80704018DD6
:1021B400135455009747000083C7A76C6367F40462
:1021C400593D98449747000083C7A76B93965700DF
:1021D40036971D8C9746000023ACE66AE372F4FE42
:1021E4002244B2409244174500000345F5678145F7
:1021F400410117C301E0670063F5E37A85FAB70785
:10220400C0A833848740229565B7B24022449244E3
:102214004101828097470000938787699843B757A5
:1022240002009387079F8326070913965600635875
:102234000600832607091396660063440600FD170B
:10224400FDF3828071C5AA870145E9C58D07C207E0
:10225400C183F19BC207C18313074003636FF70275
:10226400174700001307C76A0843174700001307FE
:10227400A76914436398A602174700001307074190
:10228400185B014541CB4111C20706C60545DD8DEA
:102294000297B240014541018280174700001307AD
:1022A400E766D9B70357650035E303574500636F05
:1022B400F704B306F7402146637CD60203280500E1
:1022C400938687001D8FAA96611717460000035650
:1022D400C6362392E60023A006012393060014C108
:1022E4002312F500130786FF974600002397E63470
:1022F4002313B5009745000083D52534B387F540F3
:1023040017470000231BF7322105828008419DB73F
:102314000145828082800DC1974700009387475F03
:1023240003A30700974700009387075E83A807006D
:1023340081469A8763E31701828003A807006361DB
:10234400F50C636FA80A13878700E367E5FE03D6DD
:10235400670021670507631BE60017270000034792
:10236400671A050717260000230EE6189745000094
:102374009385452C03D6470003D7650023930700B4
:10238400329742074183174500002318E52A638AE0
:102394006702174500001305655708416303F502FA
:1023A40003D5660019ED83D7460023A00601210753
:1023B4003E9621062392C60097470000239FE726F6
:1023C400B6879843E30A17F79746000093860654A6
:1023D4009442E303D7F683566700B9FE83D64700D9
:1023E400035647001843A106B2962392D70098C318
:1023F40083D76500A107174700002310F7248280C4
:10240400BE86C28705BF0111974700009387875096
:1024140022CC03A4C70B26CA4AC84EC606CEAA8439
:1024240013092500854915C083C7140003473400E8
:10243400858B6304F700405CFDB71946930544009F
:102444004A85EFE09F88E31835FF2285F240624415
:10245400D2444249B2490561828041119747000044
:102464009387474B22C403A4C70B26C24AC006C69F
:1024740093042500054901E82285B2402244924490
:10248400024941018280A6851305A402976002E0F7
:10249400E78000B3E30225FF405CF1BF4111974799
:1024A40000009387274722C403A4C70B26C24AC04F
:1024B40006C693042500054901E82285B24022445A
:1024C4009244024941018280A6851305A4019760C4
:1024D40002E0E780E0AEE30225FF405CF1BF0000CC
:1024E800972100209381014A176100201301C1B090
:1024F8001305400097E5FF1F938545B01706002098
:102508001306C6FD63FAC5008322050023A0550003
:1025180011059105E3EAC5FE17C502001305456FCD
:1025280097150020938585AD17260020130606D23F
:1025380063FAC5008322050023A055001105910503
:10254800E3EAC5FE17250020130545E89745002056
:102558009385C54D6377B500232005001105E36D0C
:10256800B5FEFD42739002BC8D4273904280930287
:10257800800873A0023097E2FF1F938222A893E29B
:10258800320073905230975200009382A2C6739023
:102598001234730020303D432A876373C302937754
:1025A800F700BDEFADE5937606FF3D8ABA960CC3FA
:1025B8004CC30CC74CC74107E36BD7FE11E28280BE
:1025C800B306C3408A069702000096966780A60065
:1025D8002307B700A306B7002306B700A305B70073
:1025E8002305B700A304B7002304B700A303B7006B
:1025F8002303B700A302B7002302B700A301B70063
:102608002301B700A300B7002300B700828093F529
:10261800F50F93968500D58D93960501D58D61B7F5
:10262800939627009702000096968682E78086FA9E
:102638009680C1171D8F3E96E374C3F8A5B7B717E8
:102648000040854603C88705238CD70403C7970530
:102658001378F80F13678700A38CE704238DD7043A
:10266800371700408347A7059305A705858BFDFB12
:10267800056541473716004005439308F5FF238059
:10268800650083C60500858AEDFE8356C6057D175D
:10269800420793C6F6FFB3F616014183B69765F372
:1026A80003479605A1079183130505801377770FD4
:1026B8001D8DA30CE6044205230C06054185828086
:1026C800B717004003C777051A0592054D8D137794
:1026D800E70F13653500A38BE7041375F50FA38C7B
:1026E800A7048280B717004003C777051377E70F61
:1026F800A38BE704130700F8A38DE7043D47238C59
:10270800E70413075003A38CE70482800547B71733
:102718000040238DE704371700408347A705858BC2
:10272800EDFF0355C7055205518182804111B71746
:102738000040985F3AC6945F3247E39CE6FE324514
:10274800410182801D71D2C45EDE86CEA2CCA6CAAB
:10275800CAC8CEC6D6C2DAC062DC66DA6AD86ED615
:10276800AA8B6125B7170040930670052380D7040C
:10277800130780FA2A8A2380E7040100010003C6B0
:10278800F70213668600A387C70203C6F70213760B
:10279800760FA387C7022380D7042380E7040100AC
:1027A800010003C6E7021376C60F2387C70203C6D4
:1027B800E702136616002387C7022380D704238005
:1027C800E704010001001309803E33492503930AF9
:1027D800007D930480C103C7370593095002130B8A
:1027E800A0041377870FA389E70403C737053714B5
:1027F8000040116C13671700A389E704A167930DC4
:102808000404130D80FAE17C7D1CB30A5903B34418
:10281800950233C7FA02916AB38434033AC6B309FE
:10282800390333C7F40293047005B3C7F9023AC8F1
:102838008149330B69033ECABD67938707A6B3472F
:10284800FB02094B3ECC930770052380FD002380D3
:10285800AD01010001008347340593E70702A3098E
:10286800F40483570405B3E757012318F404835786
:102878000405B3E79701C207C1832318F40483470B
:10288800340593F70702E5C3034734059307340576
:10289800218B7DDB23809D002380AD010100010099
:1028A80003C707001377F70D2380E70003C7070066
:1028B800136707022380E70083570405B3E757012E
:1028C8002318F40483570405B3E79701C207C183AB
:1028D8002318F4048347340593F70702D5C38347C5
:1028E8003405A18BEDFF9935AA873ECE8135F24795
:1028F800E30DF5FE83570405B3E757012318F404E5
:1029080083473405A18BEDDF03570405834724056E
:102918003377EC00B307FC023E97B2471D8FC247DE
:1029280063D5E700D247634AF706636A3B07938695
:10293800190093F9F60FE24693171700B3C7D702A9
:102948006355E028850723809D002380AD01B3C728
:102958006703010001000357C402BA97C207C18385
:102968002316F402CDB523809D002380AD0101001C
:1029780001008347340593E70702A309F40401B76C
:1029880023809D002380AD010100010083473405A9
:1029980093E70702A309F40435BFE38A09F8B717D8
:1029A8000040130770052380E704130780FA23808B
:1029B800E7040100010003C7370513F6FB0F930571
:1029C80070051377870FA389E70403C73705130535
:1029D80080FA518FA389E70483C637051387370523
:1029E8009D8A6396761F930670052380D704930605
:1029F80080FA2380D70401000100834607001306EC
:102A080080FA93F6F60D2300D7008346070093E675
:102A180006022300D70003D707059166558F239830
:102A2800E70403D70705A166558F2398E7049306A3
:102A38007005B717004003C737051377070263040B
:102A4800071AB717004083C6370513873705A18AC9
:102A5800FDDA930670052380D704930680FA238055
:102A6800D7040100010083460700130680FA93F695
:102A7800F60D2300D7008346070093E606022300DD
:102A8800D70003D707059166558F2398E70403D726
:102A98000705A166558F2398E70493067005B717B5
:102AA800004003C7370513770702630B071437176E
:102AB800004083473705A18BEDFF8D392A84BD314E
:102AC800E30F85FE37170040835707059166D58FBA
:102AD8002318F704B717004003C73705938637054F
:102AE800218B7DDB130770052380E704130780FA29
:102AF8002380E7040100010003C706001377F70DE0
:102B08002380E60083D6070503C727059167FD17CD
:102B1800FD8EB387E70237470F0013070724334AB0
:102B2800EA02BE968567938707FAB397770113077A
:102B38000008B3874703130A0010B3C74703130AF3
:102B4800803EB3874703B3C7E7020547B31B770146
:102B580093DB3B403D67130707A633892B03930B91
:102B680060559D8E9307800C330979033349E90238
:102B7800B387F602B3C727036351D00A850709470D
:102B880093067005B3C7E702371700402300D70440
:102B9800930680FA2300D7049607010001008356A4
:102BA800C702F6406644B697C207C1832316F702E8
:102BB800D6444649B649264A964A064BF25B625CB9
:102BC800D25C425DB25D25618280FD17ADBB23807A
:102BD800B7042380A7040100010003C73705518FFC
:102BE800A389E704D5BB2380D7042380C704010049
:102BF800010003C7370513670702A389E70425BD4A
:102C08002380D7042380C7040100010003C73705C8
:102C180013670702A389E70469B5FD178DB79147C4
:102C280063EEB70217B702001307C7CE8A05BA9535
:102C38009C41BA978287B717004003A7470B1345F3
:102C4800F5FF698F23AAE70A03A7070B698F23A853
:102C5800E70A03A7070A798D23A0A70A8280B71776
:102C6800004083A6470B1347F5FFF98E23AAD70A1E
:102C780083A6070B558D23A8A70A83A6070A758F75
:102C880023A0E70A8280B717004003A7470B498FA4
:102C980023AAE70A03A7070B1345F5FF45BFB71794
:102CA800004083A6470B1347F5FF758F23AAE70A51
:102CB80003A7070A598D4DB7B717004003A7470B5D
:102CC800498FEDB7914763EEB70217B702001307B4
:102CD800A7C58A05BA959C41BA978287B71700405D
:102CE80003A7470D1345F5FF698F23AAE70C03A730
:102CF800070D698F23A8E70C03A7070C798D23A07C
:102D0800A70C8280B717004083A6470D1347F5FF2D
:102D1800F98E23AAD70C83A6070D558D23A8A70CD7
:102D280083A6070C758F23A0E70C8280B717004095
:102D380003A7470D498F23AAE70C03A7070D1345DF
:102D4800F5FF45BFB717004083A6470D1347F5FFAA
:102D5800758F23AAE70C03A7070C598D4DB7B71732
:102D6800004003A7470D498FEDB7B747004011470B
:102D7800A381E70009472380E700130700062380A3
:102D8800E70003C7170013670701A380E70003C71D
:102D980017001377E70FA380E7008280B74700404A
:102DA80003C707001377F70E2380E7002382A700E5
:102DB800374700408347670093F70704E5DF8280C1
:102DC800B747004003C707001377F70E2380E700D3
:102DD8007D572382E700374700408347670093F712
:102DE8000704E5DF034547008280B717004003D595
:102DF8008700420541819377050491EB9377F501AC
:102E08003755E801130505803345F502828093772D
:102E1800050C130700046397E7009377F50137451E
:102E28009C1CCDB72165130505D0828037E700E0EB
:102E38001C435443A183E206D58F1CC1FD572320B0
:102E4800F7182322F718828013178500B7E700E0E8
:102E580023A0E710618123A2A7108280B7F700E0C2
:102E68008847CC478280B717004083C7670493F729
:102E7800F70F13E7270019E113F7D70FB71700402B
:102E8800930670052380D704930680FA2380D7041D
:102E9800010001002383E70423800704828081471F
:102EA80037370040A14663C4C70032858280034596
:102EB800B740E38EA6FE3385F50003450500850778
:102EC8002304A740CDB712059A054D8D1365C5009B
:102ED8001375F50FB72700402380A7408280B727D6
:102EE800004001E5A38007408280239CB740239ED1
:102EF800C740154791E20547A380E740828041110A
:102F080022C406C62A84D5352947B307E502B2404C
:102F18008D83B3D7870222449507B3D7E7023737A3
:102F28000040C207C1832316F740410182807165C2
:102F380041111305052006C6D937B73700401307D6
:102F480070F82381E7400D47A381E7401307000489
:102F5800A380E74005472387E740B24041018280CC
:102F680097170020938747479C43411106C691C392
:102F7800829797170020938767469C4391C382974F
:102F880017170020035727209307C01263FBE70495
:102F9800171500200355451F9306B01263E6A604D3
:102FA800971600209386064303A3060063070300D1
:102FB800B2401305C012410102830507098F33850A
:102FC800A740E5473305F502420741830983930784
:102FD800F7FF3E953345E5021375F50FB240410101
:102FE800828013054006DDBF0145CDBF03A845001B
:102FF800411126C206C622C48347180003480800A8
:10300800A944A207B3E70701C2070D68C1871308DF
:1030180028906398070385473284EFA0F00BAA84B1
:103028000DE1971700209387A73A9C4399CB034556
:103038001400034704002205598D133515000505B2
:103048008297B240224426859244410182802D45D0
:103058002DEFD841411122C426C206C68347170066
:1030680003470700B684A207D98F0D67930697A177
:103078003284639CD702ED359717002083C78710E9
:103088006376F50097170020238EA70E85472390B7
:10309800F4009717002083C7E70E2300F4000145CA
:1030A800B240224492444101828013078790294507
:1030B800E398E7FECC4589472390F400094622852A
:1030C80097E0FF1FE78020B7D9BF8280834745007C
:1030D800858BADCB011122CC2A8403552500971589
:1030E80000209385E54806CEEFA0C079058939C54B
:1030F80003552400014781460546ED45EFA0A02E63
:103108002AC60DCD97070020938747EF83D7A702DC
:1031180001462C002314F10085472315F100971769
:10312800002083C727062300F50003552400EFB0CD
:10313800005509C5ED452800EFA0A042F2406244C1
:103148000561828082804165411197150020938531
:1031580025427D1506C6EFC0804BB2409706002079
:103168009386C6EE4146954517050020130505E9E7
:1031780041016FC0A03D9717002023ABA724828090
:10318800411122C406C6854709446315F5028347E1
:103198000600014417170020230AF72217170020FA
:1031A800034747FE6378F70017050000130545F24B
:1031B800EFE010162285B240224441018280854703
:1031C8006303F50209C909476306E5020D47630A67
:1031D800E502094582809717002083C7A7FA238054
:1031E800F50001458280971700209387271E83C723
:1031F8000700F5B79707002083D7E7E02390F5008D
:10320800CDB717170020130767F803570700239255
:10321800E50017070020130767DE8356A702035748
:10322800A7032383F5002390D5002391E50055BF1C
:10323800411106C635339717002083C7A7F4637C6E
:10324800F50097170020238FA7F217050000130534
:1032580025E8EFE0F00BB24001454101828041676B
:103268007917630EE502411122C406C685472A84F0
:10327800639CF50022852244B2409715002093856F
:10328800252F41016FC0A03889476396F500854511
:10329800EFE0900265D1B2402244410182808280F1
:1032A800CC41411106C6328503C6150083C5050009
:1032B80022064D8E42068D654186138875A26300ED
:1032C80006116348C804138845A2630A060B634ABB
:1032D800C800938535A2630BB606239006002946DD
:1032E80059A8138855A2630C060B938565A2E316AB
:1032F800B6FEC1451D4663E0E5084546198E63F3F1
:10330800C7003E862390C60097A5020093850564F2
:10331800A9A8138895A26304060F6342060D1388B3
:10332800A5A2630E060F938505A5E318B6FA99457D
:103338001D4663E2E504198E63F3C7003E862390B9
:10334800C600971500209385E5E405A09D451D4618
:1033580063E3E5022146198E63F3C7003E86239096
:10336800C600971500209385A507BA9597E0FF1F1B
:10337800E780608C0146B240328541018280AD45CC
:103388001D46E3EAE5FE3146198E63F3C7003E8623
:103398002390C60097A502009385055FF9B7B1454C
:1033A8001D46E3EAE5FC3546198E63F3C7003E8601
:1033B8002390C60097A502009385055E7DB7C14599
:1033C8001D46E3EAE5FA4546198E63F3C7003E86D3
:1033D8002390C60097A502009385855879B7C14503
:1033E8001D46E3EAE5F84546198E63F3C7003E86B5
:1033F8002390C60097A502009385055BBDB7C1451C
:103408001D46E3EAE5F64546198E63F3C7003E8696
:103418002390C60097A502009385C555B9B7B54551
:103428001D46E3EAE5F43946198E63F3C7003E8684
:103438002390C60097A50200938545503DB797068F
:103448000020938666D44146CD4517050020130514
:10345800A5C06FC0A00F828097170020938707FA36
:103468009C43171700200347A7F89716002083C628
:1034780056D301E781473E85828003D6070063164D
:10348800A60003C66700E308D6FE7D171377F70F7B
:10349800A107C5B7B2862E86AA8517A5020013050F
:1034A80065556F80B2450111930500030D4506CEA1
:1034B800EF60104A930500051145EF6070499305C8
:1034C800C0030545EF60D04885471306F1008545E0
:1034D80013055030A307F100EF009211F240056187
:1034E80082808547631CF5001166130686A9894505
:1034F800171500200345D5EF6F40B00E89476319B3
:10350800F500894517150020034595EE6F40902E6C
:1035180082808547639CF50009E69717002023867B
:10352800B7EC97170020238DC7EC82800947639D6D
:10353800E50019EA171700202309F7EA17150020F4
:10354800035585EA6F00300882809717002093871B
:1035580067EA9C43011122CC06CE2E8481CB9C477E
:1035680091C78297F2406244056182806C0013051E
:103578007040EFE03141324681452285EFF0A10DE0
:10358800D5B701119397050126CA06CE22CC4AC8A1
:103598004EC652C4C187AE8463D9070817150020E8
:1035A800034515E5EF40E0272A8439C9034705009C
:1035B8009307000D6313F704834725004547638B82
:1035C800E7046547639BE70217A502001305053F5B
:1035D800EF80D232130954009309B40017AA0200ED
:1035E800130A0A3F8345090052850509EF80123105
:1035F800E39A29FF2945EF80B2342285EF40401B2A
:103608002165258DF2406244D2444249B249224A9A
:1036180005618280034665008345750017A5020091
:103628001305853BEF80922DC9BF93F7150095C30D
:10363800170600201306C6B697050020938585B5A2
:10364800171500200345D5DAEF00024513C514000D
:1036580055BF93F725000145D5D7D93E1166130606
:1036680086A9894517150020034595D8EF4060774E
:1036780013C5240041BF797126D24ECE06D622D476
:103688004AD052CC9147AA84AE89631CF50483D7EB
:10369800A5001306E10085451305503017170020D3
:1036A8002314F7D42307010097170020238F07D28C
:1036B800EF000274971700209387C7D39C4391C7E4
:1036C800DC4781C7CE8526858297B250225497174A
:1036D800002023AD97D002599254F249624A4561BD
:1036E800828017170020130767D01843E314F7FCEC
:1036F800854517150020035525CF9536854517159F
:103708000020035565CE0527C167171A0020035A04
:10371800AACDF9176313FA0405449305E1001305CC
:10372800504197170020238207CC97170020A38ABF
:1037380087A623070100EFE0F1248347E100B1EBFE
:10374800171700200347C7CB9147E315F7F6A13BAE
:1037580097170020238607CAB1BF971700209387C1
:10376800E7C903A9070017140020034464C84DD40F
:103778000355290011C99305E100EFA0407809C558
:103788004C455285EFB0B0687D141374F40F2109CD
:10379800F9BF97170020938727C69C4383C7470024
:1037A800898BD9DF9305000A0D45EF60701A9305E0
:1037B800000A1145EF60D01981450545EF605019A1
:1037C8001306E10085451305503023078100EF00FB
:1037D8002262BDB70111170500001305C5DA06CE30
:1037E80022CCEF40F02817140020130474C085473A
:1037F8001306F10085452300A40013054041A307E3
:10380800F100EFF0C10F7D55EF9070057D55EFB0D9
:10381800305C35310D3A9D2B170500001305A5CCFA
:10382800993A17050000130545C3492B03450400C1
:103838008545EF40C048F240624405618280971791
:10384800002023A9B7BA9717002023A7A7BA828018
:103858009717002023A4B7BA97170020238AA7B880
:10386800828097170020938767B89C43797106D6A2
:1038780022D426D24AD04ECE52CC11476393E706C3
:103888009717002083C767B6414495C39717002050
:103898009387C7B68043B284B6899717002083C739
:1038A80027B5171700200347D78F99EB5544228572
:1038B800B250225492540259F249624A45618280B8
:1038C80083464400639AA600834654006396B60074
:1038D800834664006380E606FD1793F7F70F21041B
:1038E800E9B709474144E384E7FC2C00130550413C
:1038F80023040100EFE01109834781008DCB930574
:1039080000020D45EF60D004930500031145EF60F8
:10391800300495450545EF60B0038547300085457F
:10392800130550302304F100EF00824C49B7A53E3F
:103938004144B5BF0355240093056100EFA0205C06
:1039480035D54C4517150020035505AAEF909073FF
:10395800058929DD13990401135909010147814695
:103968004A86ED4517150020035505A8035A04009B
:10397800EF9070272AC64D441DD92686CE8523147C
:1039880041012315210197D0FF1FE780C02A014676
:103998002C0017150020035525A5EFA0504E2A84AA
:1039A800E30705F0ED452800EF90B03B09B7C841A3
:1039B800011122CC06CE32840346150003450500CA
:1039C8002206498E19CB0D681308B8A42D45630B40
:1039D8000607F2406244056182800D651308D5A48C
:1039E80063000603130825A2630C06017578130803
:1039F800E85C3298420813580801854863E00805D6
:103A080003D5A50036C632C4813CB24605C5971712
:103A180000209387279E9C4322468345550003A395
:103A28000700A2876244F240034545003687854671
:103A38000561028323900600014561BF1308B5A400
:103A48006319060317060020035606761D45E37220
:103A5800C7F8198E63D3C7003E86CC452390C600AD
:103A680042064182BA95228597D0FF1FE780A01CA5
:103A7800E1B79307A5A46318F60091472390F600D1
:103A88001146CC45CDB7930785906317F600894753
:103A98002390F6000946F5B79307E5A4631AF600E4
:103AA800DC452390160183C707002300F40069B79B
:103AB80013057590E312A6F8D9BF011122CC06CEE2
:103AC80026CA4AC82317D1002D4439EBDC412E8978
:103AD800B28403C4170083C7070022045D8C8D6776
:103AE8009386D7A46306D400938627A36311D404CE
:103AF8000355A900953219E101441DA0971700202C
:103B08009387478F9C43834555000345450003A889
:103B180007002286A6871307E100814602982A84B7
:103B28002285F2406244D2444249056182809386EC
:103B3800C7A46316D4028357E10005473544E391CF
:103B4800E7FE0345060013040008E3EBA7FC9717FC
:103B580000209387278A9C43DC43829771BF938612
:103B68002790631ED4028356E1008547EF90D05614
:103B78002A845DF597170020938747888356A90004
:103B88009C43171700200347A7863DD703D6270075
:103B98006304D6047D171377F70FA107FDB7938742
:103BA800E7A4E31BF4F48357E10005473544E399A0
:103BB800E7F60345060013040008E3E3A7F6DC452F
:103BC8002380A700971700209387C7829C4333352B
:103BD800A0000905DC4351B7171700201307878198
:103BE800184303C5470083C5570083C7140003283B
:103BF800070003C70400A2078946D98FC207C187F7
:103C080005476383E7008D460D66A6871307E10025
:103C180013062690029829B741654111971500208F
:103C2800938505967D1506C622C426C24AC097F418
:103C3800FF1F9384A457EFB0901D97F6FF1F93863C
:103C4800E6684146C9452685EFB05010CC4C2A8914
:103C58000945EFF0CFD6970700209387675583D79C
:103C68000700171400201304A49217070020130755
:103C7800E7532312F40083D7A40C035707009715C2
:103C880000209385E5912310F40083D7A40D231613
:103C9800E40003D7A4102311F4000D45854723033E
:103CA800F4002314E4002307F40023150400EFF0C4
:103CB8000FD1A2850D45693EB24022444A859244FF
:103CC8000249410182808D679387D7A4014563111A
:103CD800F6028D472945639DF5008547354563996B
:103CE800F60083470700014517070020230BF770EC
:103CF80082808D679387D7A46310F6028D47639DF2
:103D0800F5009707002083C7C76F2300F700854792
:103D18002390F6000145828023900600E5BF014507
:103D2800828035E303A84500AE888347180003481E
:103D38000800A207B3E707010D68930EF8A4639C77
:103D4800D703914735486391F60403A5C80041118C
:103D5800B285114606C697D0FF1FE780C0ED9707CA
:103D680000209387E76A9C4305458297B240014843
:103D7800428541018280930828902948639617015B
:103D880085476F9070352D48428582804165411185
:103D980097150020938545817D1506C6EFB030073D
:103DA800B24097F6FF1F938626594146994517F565
:103DB800FF1F1305655241016FB040799707002036
:103DC80023A8A76482800111970500209385C57DEB
:103DD80022CC06CE2A84EF90F02A058929C1014712
:103DE80081460546ED452285EF90E05F2AC605C964
:103DF80097F7FF1F9387474E83D7A70501462C00E7
:103E08002314F10085472315F100230005002285BE
:103E1800EFA0F00609C5ED452800EF908074F24048
:103E280062440561828041677917630EE50241119A
:103E380022C406C685472A84639CF500228522444D
:103E4800B240970500209385257641016FB0207C0C
:103E580089476396F5008545EFD0104665D1B24095
:103E68002244410182808280970700209387475B24
:103E7800839507001707002013070774170600200B
:103E88001306C6748147835607000907AE96B6978E
:103E9800E31BE6FE2947B3D7E702170700201307FD
:103EA800A75718439386870C63EFE600170700208F
:103EB8001307C75618439706002023AFE654170781
:103EC8000020232DF754828041118945014522C4E1
:103ED80026C206C6EFE0CFFEB7170040238C0704C2
:103EE800170400201304446D970400209384046E83
:103EF800EFE0DF812310A4000904E31B94FE2244B1
:103F0800B240924441018DB7411185451305002007
:103F180006C622C4EFE01FDB854513050010EFE05D
:103F28007FDA0564130504808D45EFE0BFD93717A4
:103F380000408327C70C1304048081455D8C232629
:103F4800870C4145EFE0BFCD89450145EFE04FF7CC
:103F5800EFE0EFEE970700202394A74CB5372244F3
:103F6800B240170500200345A5261306000A894517
:103F780041016F30106782803D897D15954763EE5A
:103F8800A70E17A70200130727A90A053A951C418F
:103F9800011106CEBA9782872C0013054030EFF046
:103FA80031512C000545EF80A04217A502001305EA
:103FB80025ABEF80622911A803C725008D4717A5F7
:103FC80002001305E5AAE306F7FEF24005618280C8
:103FD80003C725009547E31AF7FE83D7A5000D66AA
:103FE800130606209145170500200345C51D170730
:103FF80000202319F71CEF30D05E17A50200130527
:1040080025A845BF03C725008D47E310F7FC17A572
:1040180002001305A5A771BF83C72500114717A57F
:104028000200130525A8638EE70219476394E70287
:1040380083C5650017A50200130585A8EF80020C4B
:10404800854730008545130550302304F100EFF013
:10405800315AA5BF1547E395E7FE17A502001305DA
:10406800E5A7EF80621EE9BF83C5250017A50200FA
:10407800130545A8EF80820889BF82803688BA86F2
:104088003E876315080083C6060035B98547631364
:10409800F80085B10145828001119397050122CC72
:1040A80006CEC1872E8463D1070217050020034579
:1040B8008511EF30007719C1EF30806F2165218DB0
:1040C800F24062440561828093F7150013C515001C
:1040D800E5FB93F745009DC39707002083C7A70E0C
:1040E8001307401F81462146A145170500200355A7
:1040F800650DEFF0D11313454400D9B793F7850048
:104108008DC7014789460946814517050020035593
:10411800650BEF000200AA8517A50200130545915B
:10412800EF70D27D1345840061BF93F725000145E8
:10413800C1DB9707002083C797319706002083C605
:104148000631A207D58F970600209386263083C6AE
:104158000600C207C1872307F100A18317070020C3
:104168000347D72E2306D1008D8B74001146854551
:10417800A306E100A307F100EFF0AFEE134524001A
:1041880081B7011117050000130545F106CE22CCB1
:1041980026CAEF40E00D970400209384C40205442A
:1041A8002380A40070008545130550302306810044
:1041B800EFF01144170600201306C6FF9D451305AE
:1041C8006030EFF0F14217F6FF1F1306A618E1451D
:1041D80013057030EFF0D14117A602001306C6860A
:1041E800D5450145EF80D0588D477000914513059E
:1041F80070402305F10023048100A305810002C655
:10420800A3040100EFE0A16F3000854513050040CD
:10421800EFE0E16E13069100854513051040EFE0CD
:10422800016E1306A100854513052040EFE0216DBE
:104238001306B100854513055040EFE0416C9947DE
:104248007000854505452306F100EFE07FF3EFF0A8
:10425800BF9C97F5FF1F9385E50E170500201305F2
:10426800E5F5EFF0CFDD03C504008545EF303025D7
:10427800F2406244D2440561828085473395A700A5
:10428800B7E700E023A0A71801000100828097A7E4
:1042980002009387278C8C43011106CE22CC26CAB4
:1042A8004AC84EC6AA843764375FEF70A23693D7E0
:1042B80014401304F49D1D8CAA89AA852285EF70E9
:1042C8006235A285EF70023517A902001309C98863
:1042D800AA8503250900EF70225DA285EF7082335D
:1042E800CE852A84EF700233A285EF70A232AA85A8
:1042F80003250900EF70425BA285EF70A231A68505
:10430800EF704231F2406244D2444249B2490561F9
:104318008280011122CC371400400327C40A26CA20
:10432800856406CE2EC6458F2326E40AEFE01FA734
:10433800B2452E85EFE09FA68327840AF240C58FF9
:104348002324F40A6244D24405618280411122C4C4
:10435800371400400327C40A26C2856406C6458F61
:104368002326E40A13650508EFE05FA3EFE05FA5E5
:104378008327840AB240C58F2324F40A2244924436
:1043880041018280371700408327C70A411185669B
:1043980022C426C206C6D58F2E84B2842326F70AE5
:1043A80013650508EFE09F9FA294631F94003717D9
:1043B80000408327870AB24022448566D58F23248C
:1043C800F70A9244410182800504EFE07F9FA30F22
:1043D800A4FEE1BF01112C0019461305B00306CE57
:1043E800553783478100834691001707002013073C
:1043F800A71EA207D58F231CF7008347A100834679
:10440800B100F240A207D58F231DF7008347C100F2
:104418008346D100A207D58F231EF700056182804D
:1044280001112C0019461305300406CEA13F83471D
:10443800810083469100170700201307E719A20798
:10444800D58F231FF7008347A1008346B100F240B0
:10445800A207D58F2310F7028347C1008346D100F6
:10446800A207D58F2311F70205618280011122CCA2
:1044780026CA4AC84EC652C406CE9309400601440D
:1044880081440149170A0020130A0A15513F83176E
:10449800EA011545FD193E9983170A02BE94831750
:1044A8002A023E9497C0FF1FE780E0E1E39009FEEF
:1044B800930740063344F402F240B249224A334992
:1044C800F902B3C4F40297070020239B87126244C1
:1044D8001707002023142713424917070020231029
:1044E8009712D24405618280011122CC1704002062
:1044F8001304840E0315840106CE26CA4AC84EC684
:1045080052C49799020093892961EF70E27D83A5CF
:1045180009001799020013096960979402009384AF
:104528002460EF70220F83250900EF70A20E8C40E3
:104538002A8A0840EF70020EAA855285EF60F214AD
:1045480008C00315A401EF70227A83A50900EF7053
:10455800620C83250900EF70E20B8C402A8A4840E0
:10456800EF70420BAA855285EF60321248C00315DE
:10457800C401EF70627783A50900979902009389B7
:10458800695AEF70220983250900EF70A2088C4050
:104598002A890844979402009384C459EF708207CB
:1045A800AA854A85EF60720E08C40315E4018317D3
:1045B800440217990200130969571D8DEF70C272E2
:1045C800EF70E27E03A6090083A64900EF5012436C
:1045D8000326090083264900EF50225C9040D4400E
:1045E800EF50A25BEF7072078317640248C403158B
:1045F80004021D8DEF70426FEF70627B03A6090005
:1046080083A64900EF50923F0326090083264900FC
:10461800EF50A2589040D440EF502258EF70F20368
:104628008317840208C8031524021D8DEF70C26B1E
:10463800EF70E27703A6090083A64900EF50123C09
:104648000326090083264900EF5022559040D440A4
:10465800EF50A254EF70720048C8F2406244D2444E
:104668004249B249224A056182805D715AD85ED6B4
:10467800032B4500832B050056DA832A8500A2C444
:10468800DA852A845E8586C6A6C2CAC04EDE52DC9A
:1046980062D466D26AD06ECEEF60D277D685EF60EC
:1046A800727793050000EF6012606303053CDE85B6
:1046B8005E85EF603276AA8CDA855A85EF6092754E
:1046C800AA856685EF60627CAA8CD6855685EF60E0
:1046D8007274AA856685EF60427B553E9797020003
:1046E80093874742AA85884397F4FF1F938404C899
:1046F80003A9C400EF6012302A8DAA855E85EF6099
:10470800727183A9840003AA440003AC0400AA8C34
:1047180008C0EA855A85EF60F26FAA8B48C0EA851F
:104728005685EF60326F2A8B08C4CA855285EF60C0
:10473800726EAA8ACE856285EF60D26DAA8556858B
:10474800EF708216AA85EF604274AA8AD2856285C4
:10475800EF60526C2A8DCA854E85EF60B26BAA85D0
:104768006A85EF608272AA85EF6022722A8DE285DF
:104778006285EF60326AAA8DD2855285EF609269B0
:10478800AA856E85EF704212AA8DCE854E85EF60A0
:104798007268AA856E85EF702211AA8DCA854A852E
:1047A800EF605267AA856E85EF60226EAA852AC2DD
:1047B8005E85EF603266AA8DEA855A85EF6092655C
:1047C800AA856E85EF70420EAA8DD6855A85EF6050
:1047D800726412472A8B6685BA85EF60B263AA8530
:1047E8005A85EF70620C2A8BEA856685EF609262C3
:1047F800AA8CD6855E85EF60F261AA856685EF7022
:10480800A20A979A0200938A2A3083A50A002A8D61
:104818006E85EF603260970B0020938BABC083A549
:104828000B00EF60826683A50A0023A0AB002AC6AE
:104838005A85EF60325E970B0020938BEBBE83A501
:104848000B00EF60826483A50A0023A0AB002AC492
:104858006A85EF60325C970A0020938A2ABD83A597
:104868000A00EF608262970500209385259683AC45
:104878000500970500209385259583AB050023A0A7
:10488800AA002AC2EE856685EF60D2584C44EF60D4
:10489800C25F3246AA8ADE853285EF60B257AA85A2
:1048A8005685EF60825EAA8A48C4DA856685EF601D
:1048B80072560C48EF60625DA2462A8BDE8536850B
:1048C800EF605255AA855A85EF60225C2A8B08C88A
:1048D800EA856685EF6012544C48EF60025B124728
:1048E800AA8CDE853A85EF60F252AA856685EF606C
:1048F800C259AA8B48C837050080D685334545017B
:10490800EF6052512A84CE855A85EF60B250AA854D
:104918002285EF6072792A84CA855E85EF60924F9E
:10492800AA852285EF605278979C0200938C0C1E12
:1049380083A50C00EF60124EE285EF6002552A84D1
:10494800AA855685EF60124D2A8CCE855E85EF606C
:10495800724CAA856285EF6042532A8CCA855A85B3
:10496800EF60524BAA856285EF60127483A50C0034
:10497800EF60524AD285EF6042512A8AA2855A8551
:10498800EF6052492A8CD2855E85EF60B248AA85CD
:104998006285EF607271CA852A8C5685EF609247EE
:1049A800AA856285EF60624E83A50C00EF6092468F
:1049B800CE85EF60824DAA89A2855E85EF6092451B
:1049C800AA8BD2855A85EF60F244AA855E85EF608E
:1049D800C24B2A8BCE855685EF60D243AA855A856D
:1049E800EF60926C83A50C00EF60D242CA85EF603D
:1049F800C249AA8AA2852285EF60D2412A89D28536
:104A08005285EF603241AA854A85EF6002482A89BB
:104A1800CE854E85EF601240AA854A85EF60E24652
:104A28002A89D6855685EF60F23EAA854A85EF60C9
:104A3800C245EFF0DF85979702009387A70CAA85F8
:104A48008843EF60227B2A89AA852285EF60923C01
:104A580088C0CA855285EF60F23BC8C0CA854E85BA
:104A6800EF60523B88C4CA855685EF60B23AC8C425
:104A7800B640264496440649F259625AD25A425BD5
:104A8800B25B225C925C025DF24D6161828097F7B5
:104A9800FF1F9387A78D8C4339714AD803A9470014
:104AA8002E8506DE22DC26DA8047C4474ED652D44D
:104AB80056D25AD05ECE62CC66CA6AC8EF60E23C73
:104AC8002A8BCA854A85EF60423CAA8BA2855A8503
:104AD800EF605234AA89A6855E85EF60B233AA8555
:104AE8004E85EF60725CEF70822C979A0200938A71
:104AF800EA03EF30F21603A60A0083A64A00179AC3
:104B08000200130A2A0297090020938929ACEF5062
:104B1800E26E03260A0083264A00179D0200130D41
:104B28006DFFEF508207EF70423323A0A900A285E2
:104B38002285EF60823583250D00AA8C4A85EF60B7
:104B4800722DCA85EF60122D2A8CA2856685EF60CA
:104B5800722CAA856285EF603255179C0200130CEF
:104B68006CFA83250C00EF604232EF7042242AC4AD
:104B78002EC66685A685EF60F229AA8CCA855A8555
:104B8800EF605229AA856685EF602230EF702222F5
:104B98002246B246EF30F21803A60A0083A64A005E
:104BA800EF50C26503260A0083264A00EF40F27ED2
:104BB800EF70A22A83250D0023A2A9002285EF60A9
:104BC8007225A285EF6012252A89A6852685EF60C1
:104BD800C22BA685EF601224AA854A85EF60D24CC5
:104BE80083250C00EF60622AEF70621C2AC42EC66F
:104BF8005E85A285EF6012222A84A6855A85EF6019
:104C08007221AA852285EF604228EF70421A224657
:104C1800B246EF30121103A60A0083A64A00EF50ED
:104C2800E25D03260A0083264A00EF401277EF7000
:104C3800C222F250625423A4A900D2544259B25954
:104C4800225A925A025BF24B624CD24C424D21617D
:104C58008280411106C6EFF0EFF7EFF06FFCEFF03E
:104C6800BF881705002013052597EFF01FA0B24055
:104C7800410131BD411122C4371400408327840A01
:104C88001D6706C6D98F26C22324F40A8D451D65E3
:104C9800EFD0FFF88327840A21678545D98F23241D
:104CA800F40A2165EFD0BFF78144EFE00F8C494447
:104CB80063968408930500081305B006EFF06FE5C6
:104CC8001305400697B0FF1FE780E05F8145130595
:104CD800B006EFF00FE485451305B006EFF06FE37B
:104CE80085451305C006EFF0CFE285456945EFF02D
:104CF8004FE29D456545EFF0CFE1E1456D45EFF0A9
:104D08004FE1C1457145EFF0CFE08D457545EFF0B6
:104D18004FE097F7FF1F9387672ED45717F7FF1FAA
:104D280013070771B24014C3985B224497F7FF1F1B
:104D38009387477098C3924441018280094597B090
:104D4800FF1FE780405813055007EFF02FE0AA84B3
:104D580085B7411122C426C206C6B284EF60D23498
:104D6800A6852A84EF60E2796351A0029797020032
:104D7800938707DA8C432285EF6012332A842285D1
:104D8800B240224492444101828037050080A285C6
:104D9800258DEF600277E354A0FE97970200938772
:104DA80027D78C432285EF60420EC9BF797106D69A
:104DB80022D426D24AD04ECE52CC56CA5AC862C63F
:104DC80066C497F7FF1F83C7D726639E071817F98E
:104DD800FF1F1309A96797F9FF1F938939679797E9
:104DE80002009387E7D503AB070097FAFF1F938A62
:104DF800EA7D97F7FF1F9387A7638C4303A50A00F3
:104E08005A86179A0200130A6AD4A137EF60327AD9
:104E180003260A0083264A0017F4FF1F1304041E02
:104E2800EF40B2572A8C4850AE8CEF605278AE866D
:104E38002A86E6856285EF50623CEF70020297F79A
:104E4800FF1F9387275F8C43AA8403A54A005A86CD
:104E58000937EF60D27503260A0083264A00EF401F
:104E6800D2532A8A0854AE8AEF6072742A86AE86B4
:104E78005285D685EF508238179A0200130A8AC8DD
:104E8800EF60B27D832A0A002A842685D685EF60E2
:104E98004267634EA00097970200938727CA83AAA8
:104EA80007002685D685EF60226E63530500D684F9
:104EB800032A0A002285D285EF60A264634EA0000F
:104EC80097970200938787C703AA07002285D28590
:104ED800EF60826B635305005284179A0200130A2D
:104EE8006AC683250A002685EF60C272EF605254B5
:104EF80083250A002380A9002285EF60A271EF6054
:104F080032532300A90097F7FF1F83C7771299C769
:104F180083C70900B307F0402380F90097F7FF1F04
:104F280083C7271199C783470900B307F0402300B7
:104F3800F9009305000217F5FF1F0345A52CEF2084
:104F480010582254B25092540259F249624AD24A35
:104F5800424B324CA24C17F5FF1F0345C526894525
:104F680045616F20D05517F9FF1F1309394E97F97E
:104F7800FF1F9389A94DA5B5411122C406C6937692
:104F88000530130700302A8497F7FF1F83D7474B54
:104F98006393E606850717F7FF1F2313F74A97F76A
:104FA800FF1F83C7E708A5CF97F7FF1F938707055C
:104FB80083D78703E18FA5C797F7FF1F83C7C74824
:104FC80013B7170097F6FF1F2380E6488DE397F77E
:104FD800FF1F9387A75F944317F7FF1F13074745E2
:104FE80014C3D84397F7FF1F9387C74498C3B240A9
:104FF800224441018280C5D71307900F637CF700D4
:10500800EF206024EF20002A171500001305850201
:10501800EF10400B97F7FF1F2394074249B797F704
:10502800FF1F2387874221800D8897F7FF1FA381E1
:1050380087422244B24017F5FF1F034565190D4604
:10504800856541016F20F05997F7FF1F23A8A73EF8
:1050580013064006854517F5FF1F034565176F20A2
:10506800505897F7FF1F2399073C97F7FF1F23A76F
:10507800073CB717004003A7070CC175FD156D8FD6
:1050880023A0E70C03A7070C01767D16718F23A0D8
:10509800E70C03A7070CB706F0FFFD163D9B23A0FE
:1050A800E70C03A7070C1377F7FD23A0E70C03A76A
:1050B800070A1377F7FD23A0E70A03A7070C799BD4
:1050C80023A0E70C03A7070A1377F7FB23A0E70A37
:1050D80003A7070C758F23A0E70C03A5070C370758
:1050E800C0FF7D17798D23A0A70C03A5070C759920
:1050F80023A0A70C03A5470DE98D23AAB70C83A508
:10510800070D4165C98D23A8B70C83A5470D170561
:1051180000001305A5E66D8E23AAC70C03A6070D8C
:10512800B70502004D8E23A8C70C03A6470D3D9A6C
:1051380023AAC70C03A6070D1366060123A8C70CEC
:1051480003A6470D1376F6FD23AAC70C03A6070D81
:105158001366060223A8C70C03A6470B1376F6FDB1
:1051680023AAC70A03A6070B1366060223A8C70AC1
:1051780003A6470D799A23AAC70C03A6070D136641
:10518800160023A8C70C03A6470B1376F6FB23AA21
:10519800C70A03A6070B1366060423A8C70A03A6B3
:1051A800470DF18E23AAD70C83A6070D37061000EA
:1051B800D18E23A8D70C83A6470D758F23AAE70C99
:1051C80003A7070DB7064000558F23A8E70C03A7D0
:1051D800470D759B23AAE70C03A7070D1367270044
:1051E80023A8E70C95B5B717004003A5470C83A77C
:1051F800470C4181134515001397E700058963445F
:10520800070013652500B717004083A7470CC18B1B
:1052180099E313654500B717004083A7470C93F738
:10522800070299E313658500B717004083A7470A6B
:1052380093F7070299E313650501B717004083A7A1
:10524800470C858B99E313650502B717004083A7C0
:10525800470A93F7070499E313650504B717004055
:1052680083A7470C1397B700634407001365050825
:10527800B717004083A7470C1397970063440700AC
:1052880013650510B717004083A7470C898B99E36E
:105298001365052097F7FF1F83D7871A91C78507DE
:1052A80017F7FF1F231EF71897F7FF1F83D7C71895
:1052B800638FA70097F7FF1F2390A71897F7FF1F83
:1052C8009387C71703A30700630303000283828041
:1052D80011456FD02FC7411193962500AA852D45FA
:1052E80006C697B0FF1FE780605EB24001454101E6
:1052F8008280411126C29394250022C44AC02A8480
:105308003289A686AA850146254506C697B0FF1F9D
:10531800E780C05BA6864A86A285294597B0FF1F0D
:10532800E780C05AB24022449244024901454101F3
:105338008280011122CC06CE3714004026CA4AC802
:105348004EC652C483447405034AB4058349840590
:1053580003499405EFD00FB98347A40593F4F40FDC
:10536800137AFA0F93E71700230DF40493F9F90F52
:105378001379F90FB717004003C7A705058B6DFF11
:1053880003D5C705A38D4705238C3705A38C2705AF
:10539800A38B9704F2406244D2444249B249224A5C
:1053A8000561828001119397050122CC06CE26CA99
:1053B8004AC84EC652C4C1872E8463D10702EF2063
:1053C800404619C1EF20C03E2165218DF24062445C
:1053D800D2444249B249224A056182809397250105
:1053E80063D20702EF80B13AE53537F602001306BB
:1053F80006E0896517F5FF1F034585DDEF20701E60
:105408000965E1B79397350163D307029305000255
:1054180017F5FF1F034505DFEF20700A894517F5CB
:10542800FF1F034545DAEF209009056579BF93F71B
:10543800150099CFEFF03FDB13060002854517F5FD
:10544800FF1F0345E5D8EF20D01913451400BDBF51
:1054580093F745009DC7EFF0CFFF17F7FF1F0347EE
:10546800A7FE85476314F700EFF05F944146914526
:1054780017F5FF1F0345C5D5EF20B01613454400A7
:10548800B1B793F705016381071497F4FF1F83C42D
:1054980044FC8DE4114926858504814593F4F40F75
:1054A8008521E39A24FF4146C14517F5FF1F0345AF
:1054B80025D2EF2010131345040109BF85476390D7
:1054C800F402A526894717F7FF1F2304F7F881453B
:1054D8000545492B97F7FF1F23A607F6E9B7894724
:1054E800639AF40297F4FF1F9384C4F59C408545A2
:1054F8000545850717F7FF1F2326F7F4A5239840CE
:105508009307703EE3F1E7FA8D4717F7FF1F230271
:10551800F7F451BF8D47639BF400914789450545D2
:1055280017F7FF1F2307F7F2352BB5BF9147639A8B
:10553800F400954717F7FF1F230DF7F0814509453C
:1055480049BF95476396F40297F4FF1F938484EF4D
:105558009C4085450945850717F7FF1F2324F7EE6B
:10556800112398409307703EE3FFE7F2994771BF14
:105578009947E39AF4F28945094597F7FF1F238A6B
:1055880007EC97F4FF1F9384E408E92901493126C1
:10559800178A0200130A0A61EF10D050914983D785
:1055A800240003D7040083D6640003D68400CA8588
:1055B80052850509EF00D001A904E31239FF97B01D
:1055C800FF1FE78000DFC5B593F7850099CFEF008F
:1055D800B03013060006A14517F5FF1F034545BF68
:1055E800EF20300013458400D5B393F7250001451B
:1055F800E38E07DCEFE05F8D0966130606F4894544
:1056080017F5FF1F0345C5BCEF20A07D13452400F7
:1056180075BB1D71494697850200938525541795DA
:105628000200130525DC86CE97B0FF1FE780A0692E
:1056380001E9178502001305A553EF60F24001A0A8
:10564800B7F600E0795798CAFD57DCCA0567B7E78F
:1056580000E023A0E7101306F00290C223A0E71889
:10566800010001001306C0038145480897B0FF1FD9
:10567800E780E05F97F7FF1F9387C7723ECA896785
:1056880093870780231CF100ED472312F102954709
:10569800A301F10285472303F102B5472304F10270
:1056A800A167938707E03ECE970700009387E7C27C
:1056B800BEC497070000938707C4BEC68567938753
:1056C80027D02315F10297D7FFFF938767793EDA32
:1056D800B7F50700970700009387E7C53EDE8146C8
:1056E80097070000938707BF7000E1051945BEC002
:1056F80097B0FF1FE780801D5808814799467000C2
:105708003E960346060085070507A30CC700E398E5
:10571800D7FED24791C70357810185676373F700A6
:1057280001A04808EF209038AA8501C91785020012
:1057380013054545EF60921C01A0F6402561828063
:10574800411117050000130525C606C622C4EF201F
:10575800303297F7FF1F238DA7A637140040792012
:10576800EF10D032EFF00FD1EFE05FD0EFE0CFF9DC
:10577800B522EFF01F8F6525EF00807B8327440C4F
:10578800898B8DEF294597B0FF1FE780C0B383272A
:10579800440C898B85E7854717F7FF1F230BF7CA4A
:1057A8002244B24037F6020017F5FF1F034545A211
:1057B800130606E0896541016F20A06297F7FF1F75
:1057C80083C727C9F1FF13060064914517F5FF1F2A
:1057D800034505A0EF20E06013060064A14517F516
:1057E800FF1F0345E59EEF20C05F5DBF411106C660
:1057F800B7170040130770052380E704130780FAE2
:105808002380E70403C7F7021377A70FA387E702EC
:1058180003C7F70213672700A387E702EFF05FAB20
:10582800B240014541016F20B05B97F7FF1F938796
:1058380067DE17F7FF1F130767E0FD562390070081
:1058480023910700239307002394D700239207008E
:10585800A907E395E7FE828097E7FF1F9387077AFA
:1058680017F7FF1F130707DB97E6FF1F9386867955
:1058780003D6870189072907231BC7FE03D6E7003C
:10588800231CC7FE03D6E7FF231EC7FE03D6670007
:10589800231FC7FEE39ED7FC828097F7FF1F9387DD
:1058A80067D717E7FF1F1307677597F6FF1F9386DC
:1058B800E6D803D60700A9070907231BC70003D6A4
:1058C80087FF2317C70003D6C7FF231FC7FE03D6CA
:1058D800E7FF2313C700E39ED7FC8280411106C669
:1058E800A53F81453D45EFD08FB3B24017F5FF1F67
:1058F8000345058E1306000AC14541016F20604E1D
:105908008D4763E0A716979702009387E72B41110D
:10591800AA9722C426C24AC02E8403C90700AA84B3
:105928008145014506C6EFC0BFD9B7170040238C93
:105938002705EFC0BFDD61E829473387E40297F701
:10594800FF1F938727CD3E97835607006366D500D0
:10595800035727006377A70229473387E402BA97DA
:1059680003D787003304E5401305E00F3304A4028E
:1059780003D56700198D3344A402130414F8137473
:10598800F40F97F7FF1F938767AC338797002300BF
:1059980087000D476394E40A17E7FF1F034727684A
:1059A80019C703C7070097F6FF1FA381E6AA17E7E1
:1059B800FF1F0347A76609CB03C707003307E0406B
:1059C80097F6FF1F2384E6A817E7FF1F034717650D
:1059D80009CB83C71700B307F04017F7FF1FA307CA
:1059E800F7A697F7FF1F83C727A6A9EB2244B24063
:1059F8009244024917E5FF1F0345857D0D468565DD
:105A080041016F20003E85476310F404294733871E
:105A1800E40297F7FF1F9387E7BF3E978356670017
:105A280063F4A6002313A7002947B384E402BE94B5
:105A380083D784006374F5002394A400B240224401
:105A480092440249410182808947E319F4FE8A049D
:105A580097F7FF1F938707BBBE9480402A9480C0A6
:105A6800F1BF8280411106C622C426C28547631150
:105A7800F5089DE9BD4717E7FF1F2309F77897E762
:105A8800FF1FA385077897E7FF1F238207789707EB
:105A980000009387674D17E7FF1F2327F7762244F7
:105AA800B240924441010DAD6392A5020144914474
:105AB8002285050485451374F40FEFF07FE4E3199C
:105AC80094FEB2402244924441018280BD4717E7C8
:105AD800FF1F230DF77217E7FF1FA309F77217E7D8
