:040000006F20003637
:1000040000000000000000009000002076020020A4
:10001400A9BDF9F5940000200000000000000000D4
:10002400960000209800002000000000000000005E
:100034009A000020000000009C0000200000000046
:100044009E0000208E06002092060020A4000020BE
:10005400A6000020A800002008030020AC00002017
:10006400AE000020B0000020B2000020B400002048
:10007400F2020020B8000020BA000020BC000020DA
:10008400BE000020C0000020C2000020C4000020E8
:1000940001A001A001A001A001A001A001A001A054
:1000A40001A001A001A001A001A001A001A001A044
:1000B40001A001A001A001A001A001A001A001A034
:1000C40001A001A001A0B71700409306700523808A
:1000D400D704130780FA2380E7040100010003C654
:1000E400B7041376F60DA385C7042380070413769B
:1000F40005024DC203C6A700118A1DE22380D7045E
:100104002380E7040100010003C7A7001367470029
:100114002385E7009307004B01000100FD17EDFF65
:10012400B7170040930670052380D704130780FA9D
:100134002380E704010001007D892394A7000100C6
:10014400010001000100238007042380D7042380D9
:10015400E704010001000100010037270040930675
:100164001005A303D78023800704B71700401307A3
:1001740070052380E704130780FA2380E704010055
:10018400010003C7B70413670708A385E7042380A6
:10019400070482801376050441C603C6A700418A7A
:1001A4001DE22380D7042380E7040100010003C774
:1001B400A700136707012385E7009307007D01006B
:1001C4000100FD17EDFFB71700409306700523806B
:1001D400D704130780FA2380E70401000100137693
:1001E400F501136606042394C70001000100010011
:1001F4000100238007042380D704130660042380AE
:10020400E7046318C5000100010037270040894650
:1002140089BF01000100372700409306200591B7EC
:100224002380D7042380E7040100010003D787005B
:100234001367070C2394E7000DBF41118146014663
:100244008145114506C63123B717004013077005D1
:100254002380E704130780FA2380E70401000100E8
:1002640003C76704136717002383E7042380070485
:10027400B240410182808146014681451145D12920
:10028400B7170040930670052380D704130780FA3C
:100294002380E704010001007D562396C7022380D2
:1002A400D7042380E7040100010003C76704136730
:1002B40017002383E7042380070401A0BD47330507
:1002C400F50201007D1575FD8280411122C426C20C
:1002D40006C6AA84014463179400B240224492449F
:1002E4004101828005041305803E4204C13F4180E0
:1002F400DDB7B7170040130700032388E7028547DB
:1003040023A6F1AA730020300111A307010022CE15
:1003140026CC4ACA4EC8378400408347640093F70A
:10032400F70FA307F1008347F100898B638D072E34
:10033400834774001307000393F70703638EE706EC
:100344008344740083477400BD8893F70703638A6A
:10035400071C13070002639CE70413894131639966
:10036400041083C781499D83F9C78347240293C737
:1003740007042301F4028347240293F7C70F93E78A
:1003840027002301F4028327490183C5813163FCDB
:10039400F5088D8F23A4F13283278901BE9523A606
:1003A400B13213050008975000E0E780605AB78720
:1003B400004009472383E7003784004083477400E3
:1003C400E207E18763D5072A930720FC2301F4029F
:1003D4009384413183A5840C21461385814997A0D8
:1003E40002E0E78080978387441863CA07002300EC
:1003F40004028347240293F7C70F2301F4023784CE
:100404000040834724021385814993F7370F93E70C
:1004140087002301F402975000E0E7806044894795
:100424002303F400A9A483258901BE9523A6B13230
:1004340023A40132BDB703C791499547631BF70055
:10044400834734000347090093F70708D98FA301B2
:10045400F4008347240293F7C70F93E7270023018F
:10046400F4028347240293F7370F2301F40281B780
:1004740091476398F4008347240393C7070423092F
:10048400F402154433D48402930700033304F402C2
:10049400939724003E94B7870040938727023E94A5
:1004A4008347040093F7C70F93E727002300F40062
:1004B400E147B387F402CA97D84B03C64700944F69
:1004C4006379E6048C4B118FB296B2958CCBD8CB62
:1004D40094CF88476376E60297A002E0E780E0873E
:1004E400E147B384F4028547CA9403C75400630BFD
:1004F400F7008347040093F7C70F2300F40045BDBA
:100504003A86D9BF8347040093F7C70F93E71700D0
:10051400EDB7B305D7008CCF23AA070013E5040871
:1005240059B5B1E4834724028344840013894131DB
:1005340093C707082301F4028325890C0325090DB9
:10054400268697A002E0E78040818325890D014536
:10055400A69523A6B13E8327490D858F23A4F13E9A
:10056400975000E0E7808040E39304E4DDBD8347D7
:10057400740093F70704E38C07E291476398F4004F
:100584008347240393C707082309F4026144B3870C
:100594008402B78900401384413103C989004A8623
:1005A4003E948325840C0325040D979002E0E78094
:1005B400C07A8327040D8325840D0347440CCA970E
:1005C4002328F40C8327440DCA95232CB40CB38739
:1005D4002741232AF40C6363E90099E726859750A1
:1005E40000E0E780A038E1B39547B3D7F4021307DE
:1005F40000038A0493892902B387E7020347540C52
:10060400BE948547CE946309F70083C7040093F72B
:10061400370F2380F40061BB83C7040093F7370FBF
:1006240093E74700FDB78347F100858B99CFA3017A
:100634000400975000E0E780A01F8347240293F74B
:10064400370F2301F4028547E1BB8347F100918B07
:1006540095C783475400918B91C70145975000E09B
:10066400E780A08FB787004011472383E7007244D7
:10067400E2445249C2490561730020308347F100C6
:1006840093F7F70F71BB411106C6A52DFDBF73008B
:100694002030730020302303048015472303E480B3
:1006A40001002302A480828083076480E3CE07FED6
:1006B40023030480828083076480E3CE07FE03451E
:1006C4004480828083076480E3CE07FE2302A480F3
:1006D4008280411126C44AC24EC006C61377F50B68
:1006E400AD47AA892E8995446306F70019456537F5
:1006F400653F8D444E854537FD59FD14639834019B
:10070400B240A24412498249410182801355090131
:100714001375F50F453F2209CDB7011126CC06CE3E
:10072400B704080051371545BD37713769372AC6F4
:10073400A53F32459377150089EB136515001375B2
:10074400F50FF240E24405618280FD14E9FC0145A5
:10075400CDBF397126DC4ADA4ED852D656D45AD295
:100764005ED006DE62CE66CCB7E700E07D5783AA92
:10077400070022C603AA470023A0E71823A2E7180C
:10078400B7170040130770052380E704130780FAA6
:100794002380E70483C74704930B75FFB684E207FD
:1007A40093FBFB0F8546AA892E8B328937240040A0
:1007B400E187015763FA76016308D5008946130778
:1007C40000026313D5000157D98F93F7F70FB71CB5
:1007D40000402382FC0411472303E4801305F00F37
:1007E4005D3D094CD135636D7C11B7050700DA9581
:1007F40037870700795563F2E504B3879500636E84
:10080400F702370B0800A94733EB65016399F90632
:1008140089E48144513D26850DA0DA850945553D7D
:1008240005090345F9FFFD14050B693D81C4937760
:10083400FB0FFDF7DD3569FD7D55B7170040130744
:1008440070052380E704130780FA2380E70403C7B5
:100854004704418B2382E704F250B7E700E023A06A
:10086400571123A24711E25432445259C259325A01
:10087400A25A125B825B724CE24C21618280A547D2
:100884006395F90685691309F00FB3069900B374EB
:100894002B01B6941349F9FFB3749900856B33792E
:1008A4006901416B9387F9FFB3F7270199E363FC6F
:1008B400340193D94900C147E3E637FF99BF05697D
:1008C400C1697D19D9B71305800D638869011305C2
:1008D40000026384790113051008CA85DD3B353DA8
:1008E40021DD4E99B3843441D9B7DA852D45D5330A
:1008F400CA94E30099F205097D3BA30FA9FED5BF75
:100904009387F9FF93F7F70F6361FC0C83C71C040B
:1009140013073008631FF70437070800636BEB0401
:10092400B3079B00B706100063F5D704334BEB0005
:1009340089476393F9068980D549E38C04ECDA8509
:100944000945413B11090327C9FF91472320E4804E
:1009540003076480E34E07FE23033481FD17EDFB98
:10096400FD14110B81C49377FB0FE9FF7D3371F5FF
:10097400E1B5B717004003C75704B707080013775A
:10098400070219E3B78707007955E378FBEA3307D1
:100994009B00E3FFE7F855B58547E382F9F2DA8572
:1009A4002D45053B9389F4FFE38504E6293393F74A
:1009B400390091EB8326048003270900930749003B
:1009C400E39AE6E43E89CE84F1BFB5476396F90025
:1009D4001305900BC93135BDB1471305B00AE38B3C
:1009E400F9FE99476391F904B7050800B365BB00A4
:1009F4002D45C53181448D4BA149753963967401E8
:100A0400832704802320F9008504E39834FF832797
:100A1400048013172B01635507002312F900D5BB7B
:100A24002322F900FDB39D476399F902814513051B
:100A3400B0044531BD442320090023220900FD5997
:100A44009D3993F77400CA9703C70700FD14398DC5
:100A54002380A700E39634FF6DBBA1476392F9049A
:100A64006D398144630D0B008D479304C003630803
:100A7400FB009304000563048B0193044004137585
:100A8400C507E30895D81945393139390545213168
:100A940026850D3909453D314931E31C05D669BB2D
:100AA40091476399F90013056006F536F53E130581
:100AB40090090DB7E38F09D4F154A9BB19CD91CD99
:100AC40009CE81473387F500834607003307F500D5
:100AD40085072300D700E317F6FE828019C991C960
:100AE40009CA910583A7C5FF11057D16232EF5FEBE
:100AF400C5BF828001C919C62A960505A30FB5FE94
:100B0400E31DA6FE828081473307F5000307070033
:100B140019E33E8582808507C5BF01112E8626CA4A
:100B2400AA84131506019305F004418122CC06CE54
:100B340032C6EF1040592A8401C53246A685BD3F0E
:100B44002285F2406244D24405618280854715C102
:100B54008DC105C28147B306F5003387F50083C60E
:100B64000600034707006398E6008507E315F6FED1
:100B740085473E8582808147EDBF9307F6FFBE958A
:100B84002A966313C5008280FD1583C715000505E9
:100B9400A30FF5FEFDB7AA87014581CF09CE3E9686
:100BA400850703C7F7FF6317B700E39BC7FE054537
:100BB4008280828001458280797197470000938703
:100BC400271E22D4804306D626D24AD04ECE52CCFB
:100BD40056CA5AC85EC662C45DCC37C9C901814BC6
:100BE400174A0000130A4A20974400009384841B88
:100BF4001309F937974A0000938A4A15B709C0A820
:100C0400370B40578357240095E35C44639D0B00E6
:100C1400174700002326F718032CC4002285EF1081
:100C2400A057628499A823A6FB00FDB783270A0076
:100C34008297838664011C4463DB06063307F54010
:100C44006367E9089747000023AA07108355240027
:100C540003450400976000E0E78040965C405844F8
:100C6400A9CF1444B6978386640163C5060063E381
:100C74003701DA971CC4A28B3A8449F497470000E1
:100C84009387C70C9C4B09476378F706F9171747F6
:100C940000002325F70CB250225492540259F24911
:100CA400624AD24A424BB24B224C45618280E3777E
:100CB400F5F83387F9402A9761B763970B00974794
:100CC400000023AFE70C89BF23A6EB00B1B7D850CF
:100CD40009CF63DF06003385A74083A70A01637643
:100CE400F5009747000023ABA706A28B404471B7D9
:100CF400E3F3A7FECE97C5B79747000023A00706E6
:100D040059BF411122C417440000130424071C4096
:100D140006C626C24AC091C782979747000023AFF0
:100D240007045C4091C382971C406391071C97475A
:100D3400000083C73723858B9DC797470000A38393
:100D440007221747000003471722954763FDE70072
:100D5400EF0010379747000083C7F720F5178A077D
:100D6400A2979C438297174900001309692383477C
:100D7400C900918B99C3EF1060281C4491C38297DA
:100D8400974400009384840198401746000003466A
:100D9400F6FB9747000083C767FB93961700BA9644
:100DA40083D60600D5CA9747000083C727FA63EFA6
:100DB400C70A97470000238B07F81C406398071263
:100DC4009747000083C7571A91CF9747000083C7FE
:100DD400971989EB97470000A388071897B001E09B
:100DE400E780401D97470000938707009C43638F6B
:100DF400070EB707C0A8174700002321F7F66D3B7D
:100E040097470000938707FADC53EDC317470000A8
:100E14001307C7F3184B9747000083C7F7F96367B5
:100E2400F70C1747000003471714954763E0E70CD6
:100E34008347C900918BDDEB90409746000083C641
:100E4400F6F063CBD70A2244B240924402494101EE
:100E5400175300E06700A353850793F7F70F9746EE
:100E640000002385F6EEE3E6C7F235BF86073E971A
:100E7400835507002310070097470000239E07F0BF
:100E840097470000938747EF9C43174500000345AD
:100E9400E5EB13172500BA979C4382979747000008
:100EA40083D787EF17470000034747EA93C7F7FF45
:100EB4007D8D9317170098403E97835707005D8DEB
:100EC4002310A7009747000083C747E891C7850709
:100ED40017470000230CF7E617470000034707E70E
:100EE4009747000083C797E6E375F7ECB2402244C6
:100EF40092440249410182801397170032970357A5
:100F040007006DF7850735BFAD6737C70040BD07DC
:100F14002326F7200F10000097470000938707E36C
:100F2400C84F83278726BD66BD0693C7F7FF9983FD
:100F34006A052326D7205D8D82804111B7170040B2
:100F4400985F3AC6945F3247E39CE6FE324541011E
:100F5400828082800327851163000712411122C415
:100F640006C68347C5008345C5042A8493F7C70F83
:100F74002306F500834697000356C70013958601A0
:100F8400618563F1C508635A05060345870093F636
:100F9400F607A304D700054693E627006314C500AB
:100FA40093E617002306D4005C4389075CC3A30AB5
:100FB400B400032504112E864C430905013683270A
:100FC400841103465401D44303D7C700B296118F4A
:100FD400D4C32396E7008947A30DF40003474403D1
:100FE4009747000083C727DD6378F7048347C4006D
:100FF40093E707012306F40081A093E71700230673
:10100400F40075B79376F60F635D05020345870018
:10101400854513E627006314B50013E6170023067D
:10102400C400A30AD400A30407008547A30DF40059
:10103400832784119C43DDF3B240224401454101DE
:10104400828093E717002306F400A30AD400A304C4
:101054000700032504114C4309058D3483278411AB
:1010640003465401D44303D7C700B296118FD4C3A7
:101074002396E7008D475DBF0545828097470000B2
:10108400938787EC9C43411122C406C6858B2A842E
:10109400C5EF4165130525F5975001E0E780E004AD
:1010A40045C58347A5002315F50083270412BDE732
:1010B4002320A4122322A41285472310F4042320FE
:1010C40005008347640154412316F5000347D40007
:1010D4002304E5000547A304E500174700001307B0
:1010E40027E8184F1385170215811C437D151375C6
:1010F400F50F9CC25C43DCC21C479CC65C47DCC643
:101104001C4B9CCA5C4BDCCA1C4F9CCE5C4FDCCE97
:1011140019CD9386060213070702C1BF8327441221
:1011240088C3835704042322A412850779B79747F9
:10113400000083D727F0850717470000231CF7EE2C
:10114400B2402244410182808347C4002309040041
:10115400054593C747002306F400DDB7834785019F
:1011640093F7E70FD5EF83479501DDEB03462501A0
:101174008346C50009CA8345450317470000034752
:1011840097C363E7E50013F7060141CF014709C69A
:10119400C18A0357651C81C68356A51C369751C363
:1011A4001307C712174500000355C5BCB335A70282
:1011B40037460F00411113060624814622C426C275
:1011C40006C67D543305A702976002E0E78080E4F9
:1011D4009747000083C797BEB384A70097470000D2
:1011E4009387C7E403A707098327070963F38700E5
:1011F4003E84184375FB974700009387E7BE9C43E2
:10120400829781476364A400B307A440B240224498
:10121400B3B7970093C7170092443E85410182807B
:1012240081473E858280797126D206D622D44AD05F
:101234004ECE52CC56CA5AC85EC6834735030344C1
:101244007513AA843E941374F40F9307400263F653
:1012540087001304B4FD1374F40F03AA841383AA40
:10126400C413A38B841222865285D685976002E02C
:10127400E780C0D4058915E503CBD412014981491F
:10128400337B6403930B50024A865285D68597605C
:1012940002E0E780A0D2058915C563916903137440
:1012A400F90F238B8412B250225492540259F249FA
:1012B400624AD24A424BB24B456182808509E209B7
:1012C40093D989410509E31179FDE1BF8327850994
:1012D4000356E503797193D60701BD8EC206C18218
:1012E400358E1357764093575640898B058B5D8F07
:1012F40093573640918B5D8F93571640A18B5D8F2A
:1013040093171600C18B5D8F9317360093F707026E
:101314005D8F931756009355860093F707041E06B6
:101324005D8F1376F60F518F93D7554013D6354002
:10133400118A898BD18F13D67540D18F13D615405E
:10134400218AD18F13961500418AD18F13963500C7
:1013540013760602D18F13965500137606049E0564
:10136400D18F93F5F50FCD8FA20745465D8F3307D7
:10137400C70222D42A8426D252CC56CA032A841302
:10138400832AC4135AC806D6369742074183935713
:101394007740135557400989858BC98F13553740BA
:1013A4001189C98F135517402189C98F1315170047
:1013B4004189C98F1315370013750502C98F131599
:1013C400570093558700137505041E07C98F1377BB
:1013D400F70FD98F13D5354013D755401189098B91
:1013E400498F13D57540498F13D515402189498FED
:1013F400139515004189498F13953500137505021E
:10140400498F13955500137505049E05498F93F56F
:10141400F50F4D8F2207D98FB387C7024AD04ECE1E
:101424005EC662C4B697C207C18313D7774013D58B
:1014340057400989058B498F13D537401189498F46
:1014440013D517402189498F139517004189498F76
:101454001395370013750502498F1395570093D5DB
:101464008700137505049E07498F93F7F70FD98FEB
:1014740013D5354013D755401189098B498F13D59E
:101484007540498F13D515402189498F139515004F
:101494004189498F1395350013750502498F1395BA
:1014A4005500137505049E05498F93F5F50F4D8F6F
:1014B4002207D98FB387C702130650025285D685F7
:1014C400B697BD8E93940601C18033F6C402137B94
:1014D400F60F976002E0E78060AE05890DED834763
:1014E400D41201498149B3849702130C5002C1807C
:1014F4004A865285D685976002E0E78020AC05894C
:10150400937BF90F11C563863403850993F9F90FA9
:101514000509E31F89FD230B6413B250225492542E
:101524000259F249624AD24A424BB24B224C4561BB
:1015340082805E8BCDB7011197470000938707AF78
:1015440022CC03A4470B26CA06CE2AC42EC6854441
:1015540019E40145F2406244D24405618280834724
:10156400910003471400858B6304F7000044CDB752
:1015740019469305A10013052400EFF02FDDE317AE
:1015840095FE0545C1BF011122CC17440000130488
:10159400E49E18402AC62EC432C206CE3C4B93F7B2
:1015A400F7F73CCB97B001E0E780809D1840974661
:1015B40000009386E6993C4B93E707083CCB9C429A
:1015C4003245A24523A00700034715000348250020
:1015D4002207420842970348050042970348350012
:1015E4006208429798D703475500034865002207CD
:1015F4004208429703484500429703487500620831
:101604004297D8D7034795000348A500220742080C
:1016140042970348850042970348B5006208429701
:1016240098DB0347D5000348E500220742084297A8
:101634000348C5000345F500429762052A97D8DBA5
:1016440003C7150003C52500220742052A9703C5D1
:1016540005002A9703C5350062052A9798CF03C76A
:10166400550003C56500220742052A9703C54500B6
:101674002A9703C5750062052A97D8CF03C795003A
:1016840003C5A500220742052A9703C585002A97AA
:1016940003C5B50062052A9798D303C7D50003C5CF
:1016A400E500220742052A9703C5C50083C5F50056
:1016B4002A97E2052E97D8D3D843759BD8C3D8432D
:1016C40013671700D8C398431367170098C31246CB
:1016D40098425C43858BD1E71C4F01452300F600FB
:1016E4009C429C4FA183A300F6009C429C4FC18363
:1016F4002301F6009C429C4FE183A301F6009C4227
:10170400D84F2302E600D84F2183A302E600D84F26
:1017140041832303E600D84F6183A303E600985373
:101724002304E60098532183A304E60098534183DD
:101734002305E60098536183A305E600D8532306E6
:10174400E600D8532183A306E600D8534183230738
:10175400E600DC53E183A307F600F240624405612E
:1017640082800100B5B7173700001307A77E144322
:10177400411122C49C5E4AC006C6998326C2858B49
:101784003A84173900001309A97CD1CB9C5E9734A5
:1017940000009384E47C93F7F7F99CDE173700008C
:1017A4000347677C93070008631BF700832709003E
:1017B4009C4393F70704173700002306F77A83C77F
:1017C400040093F707049DC3973700009387C7610C
:1017D4009C4382979737000023ACA77883C7040003
:1017E40093F7F70B17370000230CF77683C74400F1
:1017F40093F707048DE7854717370000A304F776AE
:1018040097370000938787779C43096798C7130726
:1018140000FC973600002387E674D844F8D31C40B4
:10182400985F1183058B09CB985F3D9B98DF054733
:10183400973600002388E672985F1D83058B11CBD1
:10184400985F1377F7F798DF854717370000230B66
:10185400F77083270900D8430583058B19C7D8433C
:10186400759BD8C3D843799BD8C3B24022449244D1
:10187400024941018280397106DE16DC1ADA1ED86B
:101884002AD62ED432D236D03ACE3ECC42CA46C81C
:1018940072C676C47AC27EC0F935F250E25252530F
:1018A400C2533255A255125682567247E2475248E5
:1018B400C248324EA24E124F824F21617300203033
:1018C400973700009387876B94439737000093877B
:1018D400276903C70700058B11CB973700002383C3
:1018E400076897370000A38F0766828003C7170035
:1018F400058B65F7F85271FF83C75700DDB71738BA
:10190400000013082865032708001C5F9583858B56
:10191400D1E709C61C5BBD832300F60085CA832773
:101924000800985B4607935767016356070093E7DF
:1019340007C0C207C18303970600C207C18709C74E
:10194400BA970947B3C7E7022390F60085CD8347CA
:1019540015008DCB9736000083C6E66093F6060427
:101964001387970089478DCA3A9503470500854632
:1019740099471376F7066311D60262076187B94760
:10198400634C0700832708009C5FED838D8B17371A
:101994000000A30CF75C81473E8582808547EDBF3C
:1019A400411122C406C6173400001304245D1840F4
:1019B40049E9AE877453FDFE3E85B2859737000032
:1019C4002381075A97A001E0E78080319737000010
:1019D400938747589C43B70680009843558F98C314
:1019E400D857719BD8D797370000A38D07569737E0
:1019F4000000A38707561C40094798C3B7F700E0C7
:101A040003A707D16D9B23A8E7D003A707D15D9B4C
:101A140023A8E7D0730050101440173700001307B1
:101A2400275483472700858B89EB83473700858BB1
:101A3400D9C79737000023870752B2402244410197
:101A440082808D476310F502973700009387875093
:101A54009C43B70680009843558F98C3D857719B11
:101A6400D8D75DBF8547E319F5FAB567BD075CC7ED
:101A74000F1000001C400967094698C7130700F8B7
:101A8400973600002380E64E173700001307874C73
:101A94001443984231830D8B6319C7001307E04345
:101AA400F8D33D673D07D8C785BF984231830D8B76
:101AB40001E713076019EDB71307E01BD5B7FC5214
:101AC400ADF3A5BF5D7152DC173A0000130A8A48D2
:101AD40003270A0086C6A2C4A6C2CAC04EDE1C439F
:101AE400973900009389494E1739000013090949B1
:101AF40093F7F7E793E707081CC383A609003707A2
:101B0400CEFF7D179C46130680022A84F98F9CC65B
:101B140083270900130700082800B8CBAE84930577
:101B24001008EFE03FFD97A001E0E780604597A033
:101B340001E0E780605283270A009376F41F370F91
:101B4400FCFF23A40700984B4E88CA881367F70349
:101B540098CBF84F130510F8D285137707E0558F0B
:101B6400F8CF9843F576FD16758F98C39843B7065A
:101B74003300B70204001377F7E798C3984393033D
:101B8400401F7D1F1377F7E71367071098C303A758
:101B94000900930F800285491C47D58F1CC78327F2
:101BA40009001307900D3400B8CB114901471353B2
:101BB400370026938347030013767700B3D7C740D3
:101BC400858BDDCF9C41832E0800239C0704239042
:101BD400070603AECE02137EDEFF23A6CE0383AE3A
:101BE4000700137EF70793FE0EF833EECE0123A011
:101BF400C70103AE4702336E5E0023A2C70383AE60
:101C04000800014E23A27E0603DA070663074E038B
:101C140003AE0703038A0600135EFE00620E135E22
:101C24008E416358CA0103AE0703135EFE0023808E
:101C3400C60103DE0706137EFE0F03AA4E066306E3
:101C44000A0003DA8705E37F49FB03AE4702337ECC
:101C5400EE0123A2C70383870600635CF400034EEE
:101C640003003396C9001346F6FF3376C6012300FA
:101C7400C3003E8663D3A7002A86131586016185B7
:101C840005071377F70F8506E313F7F3B6402644E9
:101C940096440649F259625A61618280973600007F
:101CA4009386C62D9C42D847131617016355060226
:101CB400984713161701635006027D57B8D7173794
:101CC40000001307A708584F050717360000232DF7
:101CD400E608116798C798470D83058B1DC317370E
:101CE4000000034707281367170017360000230A6C
:101CF400E626130700F8173600002305E6262147D9
:101D040098C79847058B09CF173700000347572515
:101D14001367170017360000A304E624054798C785
:101D240098470983058B09E798470583058B31CFCD
:101D34009847173600001306A6221735000013052E
:101D440065210983058B6303071018411843318308
:101D54000D8B75EBAC4B184E93F50502034717003A
:101D6400CDCD79EF13077006D8CF0347060013676C
:101D74001700173600002305E61E114798C71841BF
:101D84005C57F19B93E717005CD79C4298479316E6
:101D9400370163D606029736000083C66630C18ACF
:101DA4001737000013078728C5CE03474707136773
:101DB4000702973600002385E62E056798C79847E3
:101DC4009316270163D106021737000003478719CA
:101DD400620761876357070005479736000023832E
:101DE400E618096798C798479316070163D6060251
:101DF4009736000083C6D62A858A17370000130752
:101E0400E722ADCE03475707136727009736000034
:101E1400A388E628216798C7828029D7854563155A
:101E2400B7001307B00689B789456315B7001307D0
:101E3400F0061DBF8D456315B700130730072DB796
:101E44001307500715B71307600739BF0347360058
:101E54001367170017360000A305E610094739BFBA
:101E6400834647070946BD8A6388C6000347470778
:101E74008D463D8BE313D7F4114725BF834657079F
:101E8400918AC9DA034757071367870041B7397145
:101E940006DE16DC1ADA1ED82AD62ED432D236D072
:101EA4003ACE3ECC42CA46C872C676C47AC27EC016
:101EB400F533F250E2525253C2533255A2551256E0
:101EC40082567247E2475248C248324EA24E124FDF
:101ED400824F216173002030173700001307470A2F
:101EE4008346B7019737000083C7570C4C4BB6970E
:101EF400FD8B33D7F50097360000A383F608973699
:101F04000000A385F60A058B15EF17370000034779
:101F1400370AB3F7E702814601471305000233D6B7
:101F2400E500058A1378F70F19CA6397D700973726
:101F34000000A38707058280850693F6F60F050740
:101F4400E31FA7FC8280973700009387E7E99C434F
:101F5400011122CC4EC606CE26CA4AC852C456C265
:101F64008297973700009387A703804781496305C9
:101F7400A406BE84973700009387C7E203876701EE
:101F84003E8963550706018D1354550097370000A9
:101F940083C7A7009379F501636DF402370AC0A8DB
:101FA400B70A4057153F9C449736000083C6E6FEA7
:101FB400139756003E9783076901158C63C5070084
:101FC4006363470156979737000023AFE7FCE37B31
:101FD400D4FC1604B3693401F24062444E85D24401
:101FE4004249B249224A924A05618280E37D85F8DA
:101FF400B707C0A833848740229579B79737000084
:10200400938787DE9C43411122C406C626C2829769
:10201400973700009387C7F880476309A406BE84F6
:1020240097370000938707D88387670163D807042D
:10203400018D135455009737000083C707F6636773
:10204400F404593D98449737000083C707F59396E5
:10205400570036971D8C9736000023A7E6F4E372E9
:10206400F4FE2244B240924417350000034555F172
:102074008145410117A301E067002345E37A85FA0E
:10208400B707C0A833848740229565B7B24022447D
:10209400924441018280973700009387E7F2984386
:1020A400B75702009387079F8326070913965600A4
:1020B40063580600832607091396660063440600E6
:1020C400FD17FDF3828071C5AA870145E9C58D0717
:1020D400C207C183F19BC207C18313074003636F27
:1020E400F70217370000130727F4084317370000D7
:1020F400130707F314436398A60217370000130766
:1021040067CA185B014541CB4111C20706C60545A4
:10211400DD8D0297B24001454101828017370000EE
:10212400130747F0D9B70357650035E30357450054
:10213400636FF704B306F7402146637CD602032895
:102144000500938687001D8FAA9661171736000035
:10215400035626C02392E60023A00601239306001B
:1021640014C12312F500130786FF9736000023924B
:10217400E6BE2313B5009735000083D585BDB3872C
:10218400F540173700002316F7BC2105828008416B
:102194009DB70145828082800DC1973700009387E7
:1021A400A7E803A3070097370000938767E783A88E
:1021B400070081469A8763E31701828003A807001A
:1021C400636DF50A636BA80A13878700E367E5FE6E
:1021D40003D66700216705076317E60003C781B5C7
:1021E4000507238CE1B497350000938525B603D603
:1021F400470003D7650023930700329742074183C2
:10220400173500002317E5B4638A67021735000009
:10221400130545E108416303F50203D5660019ED92
:1022240083D7460023A0060121073E962106239268
:10223400C60097370000239EE7B0B6879843E30EA5
:1022440017F7973600009386E6DD9442E307D7F646
:1022540083566700BDF283D64700035647001843F0
:10226400A106B2962392D70098C383D76500A1072D
:1022740017370000231FF7AC8280BE86C28725BFB4
:10228400011197370000938767DA22CC03A4C70BA8
:1022940026CA4AC84EC606CEAA8413092500854913
:1022A40015C083C7140003473400858B6304F7000B
:1022B400405CFDB71946930544004A85EFE01F8949
:1022C400E31835FF2285F2406244D2444249B249C0
:1022D40005618280411197370000938727D522C476
:1022E40003A4C70B26C24AC006C6930425000549A9
:1022F40001E82285B240224492440249410182808D
:10230400A6851305A402974002E0E78000BFE3021C
:1023140025FF405CF1BF411197370000938707D137
:1023240022C403A4C70B26C24AC006C693042500D0
:10233400054901E82285B240224492440249410100
:102344008280A6851305A401974002E0E780E0BAE5
:08235400E30225FF405CF1BF2C
:1023600097110020938101CC17610020130141C90E
:102370001305400097E5FF1F9385C5C81706002089
:102380001306C6FD63FAC5008322050023A055008D
:1023900011059105E3EAC5FE17A5020013054504E2
:1023A00097050020938585FB1386018C63FAC50091
:1023B0008322050023A0550011059105E3EAC5FE1F
:1023C000138581A497350020938545D86377B500A0
:1023D000232005001105E36DB5FEFD42739002BC9C
:1023E0008D42739042809302800873A0023097E27E
:1023F000FF1F938222C193E23200739052309742C2
:1024000000009382A2B973901234730020303D43D0
:102410002A876373C3029377F700BDEFADE5937628
:1024200006FF3D8ABA960CC34CC30CC74CC7410784
:10243000E36BD7FE11E28280B306C3408A0697029F
:10244000000096966780A6002307B700A306B70092
:102450002306B700A305B7002305B700A304B70000
:102460002304B700A303B7002303B700A302B700F8
:102470002302B700A301B7002301B700A300B700F0
:102480002300B700828093F5F50F93968500D58DD4
:1024900093960501D58D61B79396270097020000AA
:1024A00096968682E78086FA9680C1171D8F3E96A3
:1024B000E374C3F8A5B7B717004003C777051A053B
:1024C00092054D8D1377E70F13653500A38BE70455
:1024D0001375F50FA38CA7048280B717004003C7BC
:1024E00077051377E70FA38BE704130700F8A38D95
:1024F000E7043D47238CE70413075003A38CE7044C
:1025000082804111B7170040985F3AC6945F324706
:10251000E39CE6FE3245410182801D71D2C45EDE3D
:1025200086CEA2CCA6CACAC8CEC6D6C2DAC062DCE3
:1025300066DA6AD86ED6AA8B6125B7170040930673
:1025400070052380D704130780FA2A8A2380E704C2
:102550000100010003C6F70213668600A387C702C5
:1025600003C6F7021376760FA387C7022380D7042A
:102570002380E7040100010003C6E7021376C60FBB
:102580002387C70203C6E702136616002387C70224
:102590002380D7042380E704010001001309803E53
:1025A00033492503930A007D930480C103C737058F
:1025B00093095002130BA0041377870FA389E70434
:1025C00003C7370537140040116C13671700A38940
:1025D000E704A167930D0404130D80FAE17C7D1CD0
:1025E000B30A5903B344950233C7FA02916AB3841C
:1025F00034033AC6B309390333C7F40293047005B0
:10260000B3C7F9023AC88149330B69033ECABD67B3
:10261000938707A6B347FB02094B3ECC930770058F
:102620002380FD002380AD010100010083473405B4
:1026300093E70702A309F40483570405B3E757019E
:102640002318F40483570405B3E79701C207C18335
:102650002318F4048347340593F70702E5C30347BF
:10266000340593073405218B7DDB23809D00238077
:10267000AD010100010003C707001377F70D2380A8
:10268000E70003C70700136707022380E7008357AB
:102690000405B3E757012318F40483570405B3E78F
:1026A0009701C207C1832318F4048347340593F7C5
:1026B0000702D5C383473405A18BEDFF9935AA875F
:1026C0003ECE8135F247E30DF5FE83570405B3E7AF
:1026D00057012318F40483473405A18BEDDF03571A
:1026E0000405834724053377EC00B307FC023E97CB
:1026F000B2471D8FC24763D5E700D247634AF7064A
:10270000636A3B079386190093F9F60FE246931725
:102710001700B3C7D7026355E028850723809D00C3
:102720002380AD01B3C76703010001000357C40252
:10273000BA97C207C1832316F402CDB523809D004A
:102740002380AD01010001008347340593E70702B0
:10275000A309F40401B723809D002380AD0101008B
:1027600001008347340593E70702A309F40435BF4A
:10277000E38A09F8B7170040130770052380E704C0
:10278000130780FA2380E7040100010003C737051F
:1027900013F6FB0F930570051377870FA389E704E2
:1027A00003C73705130580FA518FA389E70483C651
:1027B0003705138737059D8A6396761F9306700544
:1027C0002380D704930680FA2380D70401000100F8
:1027D00083460700130680FA93F6F60D2300D70010
:1027E0008346070093E606022300D70003D70705B8
:1027F0009166558F2398E70403D70705A166558F87
:102800002398E70493067005B717004003C7370500
:10281000137707026304071AB717004083C637050A
:1028200013873705A18AFDDA930670052380D70444
:10283000930680FA2380D704010001008346070035
:10284000130680FA93F6F60D2300D700834607009F
:1028500093E606022300D70003D707059166558F3C
:102860002398E70403D70705A166558F2398E7044B
:1028700093067005B717004003C7370513770702A3
:10288000630B07143717004083473705A18BEDFF13
:102890008D392A84BD31E30F85FE371700408357F9
:1028A00007059166D58F2318F704B717004003C7B3
:1028B000370593863705218B7DDB13077005238051
:1028C000E704130780FA2380E7040100010003C72F
:1028D00006001377F70D2380E60083D6070503C7AC
:1028E00027059167FD17FD8EB387E70237470F0075
:1028F00013070724334AEA02BE968567938707FACF
:10290000B397770113070008B3874703130A001032
:10291000B3C74703130A803EB3874703B3C7E70231
:102920000547B31B770193DB3B403D67130707A6C1
:1029300033892B03930B60559D8E9307800C3309CD
:1029400079033349E902B387F602B3C7270363511A
:10295000D00A8507094793067005B3C7E702371702
:1029600000402300D704930680FA2300D70496077B
:10297000010001008356C702F6406644B697C207BD
:10298000C1832316F702D6444649B649264A964AD9
:10299000064BF25B625CD25C425DB25D2561828077
:1029A000FD17ADBB2380B7042380A70401000100FD
:1029B00003C73705518FA389E704D5BB2380D7040C
:1029C0002380C7040100010003C73705136707020E
:1029D000A389E70425BD2380D7042380C704010011
:1029E000010003C7370513670702A389E70469B528
:1029F000FD178DB7914763EEB702178702001307E3
:102A0000A7788A05BA959C41BA978287B717004084
:102A100003A7470B1345F5FF698F23AAE70A03A70E
:102A2000070B698F23A8E70A03A7070A798D23A05C
:102A3000A70A8280B717004083A6470B1347F5FF0C
:102A4000F98E23AAD70A83A6070B558D23A8A70AB8
:102A500083A6070A758F23A0E70A8280B717004074
:102A600003A7470B498F23AAE70A03A7070B1345C0
:102A7000F5FF45BFB717004083A6470B1347F5FF87
:102A8000758F23AAE70A03A7070A598D4DB7B71711
:102A9000004003A7470B498FEDB7914763EEB7029C
:102AA000178702001307876F8A05BA959C41BA976A
:102AB0008287B717004003A7470D1345F5FF698FBD
:102AC00023AAE70C03A7070D698F23A8E70C03A728
:102AD000070C798D23A0A70C8280B717004083A62E
:102AE000470D1347F5FFF98E23AAD70C83A6070DD0
:102AF000558D23A8A70C83A6070C758F23A0E70C80
:102B00008280B717004003A7470D498F23AAE70C1F
:102B100003A7070D1345F5FF45BFB717004083A670
:102B2000470D1347F5FF758F23AAE70C03A7070C82
:102B3000598D4DB7B717004003A7470D498FEDB723
:102B4000B74700401147A381E70009472380E7000A
:102B5000130700062380E70003C717001367070168
:102B6000A380E70003C717001377E70FA380E700F0
:102B70008280B747004003C707001377F70E238012
:102B8000E7002382A700374700408347670093F799
:102B90000704E5DF8280B747004003C707001377CB
:102BA000F70E2380E7007D572382E7003747004078
:102BB0008347670093F70704E5DF034547008280FA
:102BC000B717004003D5870042054181937705047C
:102BD00091EB9377F5013755E801130505803345EF
:102BE000F50282809377050C130700046397E700D2
:102BF0009377F50137459C1CCDB72165130505D0AA
:102C00008280B7F700E08847CC478280814737371A
:102C10000040A14663C4C700328582800345B740A7
:102C2000E38EA6FE3385F5000345050085072304E2
:102C3000A740CDB712059A054D8D1365C5001375D4
:102C4000F50FB72700402380A7408280B7270040B8
:102C500001E5A38007408280239CB740239EC740A4
:102C6000154791E20547A380E7408280411122C4C5
:102C700006C62A84B1372947B307E502B2408D83DF
:102C8000B3D7870222449507B3D7E702373700400E
:102C9000C207C1832316F74041018280716541114B
:102CA0001305052006C6D937B7370040130770F85B
:102CB0002381E7400D47A381E74013070004A38069
:102CC000E74005472387E740B24041018280938770
:102CD00041A59C43411106C691C38297938781A564
:102CE0009C4391C38297170700200357C7B39307EC
:102CF000C01263F7E70403D541809306B01263E482
:102D0000A604938601A503A3060063070300B2404F
:102D10001305C012410102830507098F3385A740BF
:102D2000E5473305F5024207418309839307F7FF1F
:102D30003E953345E5021375F50FB240410182809F
:102D400013054006DDBF0145CDBF03A84500411175
:102D500026C206C622C48347180003480800A944B7
:102D6000A207B3E70701C2070D68C18713082890BF
:102D70006396070385473284EF906012AA8419EDA9
:102D80009387C1A49C4399CB0345140003470400D7
:102D90002205598D1335150005058297B24022444E
:102DA00026859244410182802D452DEFD841411165
:102DB00022C426C206C68347170003470700B6840D
:102DC000A207D98F0D67930697A13284639CD7021F
:102DD000FD3D9707002083C7E7A46376F5009707BA
:102DE00000202381A7A485472390F40097070020A3
:102DF00083C747A32300F4000145B2402244924414
:102E000041018280130787902945E398E7FECC456E
:102E100089472390F4000946228597E0FF1FE78049
:102E200020CAD9BF828083474500858BBDC7011169
:102E300022CC2A84035525009385C1BC06CEEF9091
:102E4000C000058939C50355240001478146054660
:102E5000ED45EF80F0392AC60DCD97F7FF1F938718
:102E6000E74F83D7A70201462C002314F1008547C2
:102E70002315F1009707002083C7C79A2300F500A8
:102E800003552400EF90505909C5ED452800EF8007
:102E9000F04DF240624405618280828041654111BB
:102EA0009385C1BC7D1506C6EFA05048B24097F689
:102EB000FF1F9386A64F4146954517F5FF1F130543
:102EC000E54941016FA0B03B23A6A1A48280411136
:102ED00022C406C6854709446313F50283470600EA
:102EE00001442384F1A4170700200347A7936378C4
:102EF000F70017050000130545F3EFD00000228509
:102F0000B24022444101828085476303F50209C92A
:102F100009476304E5020D476308E502094582801D
:102F20009707002083C707902380F5000145828022
:102F3000938781A483C70700C5BF97F7FF1F83D777
:102F400087422390F500DDB7138781800357070080
:102F50002392E50017F7FF1F130747408356A70288
:102F60000357A7032383F5002390D5002391E500A1
:102F700075BF411106C6A13B9707002083C7878A0A
:102F8000637CF50097070020238EA78817050000B3
:102F90001305A5E9EFC07076B2400145410182807A
:102FA00041677917630CE502411122C406C68547C3
:102FB0002A84639AF50022852244B2409385C1BCDD
:102FC00041016FA0B03689476396F5008545EFC093
:102FD000506D75D1B2402244410182808280CC4143
:102FE000411106C6328503C6150083C505002206B9
:102FF0004D8E42068D654186138875A2630C060FBF
:103000006348C804138845A26306060B634AC800D8
:10301000938535A26309B60623900600294679A058
:10302000138855A26308060B938565A2E316B6FEC6
:10303000C1451D4663ECE5064546198E63F3C7009E
:103040003E862390C600978502009385651789A860
:10305000138895A26300060F634E060B1388A5A282
:10306000630A060F938505A5E318B6FA99451D4630
:1030700063EEE502198E63F3C7003E862390C60017
:103080009385018131A89D451D4663E1E5022146F6
:10309000198E63F3C7003E862390C6009385C1A5B1
:1030A000BA9597E0FF1FE780A0A10146B2403285A4
:1030B00041018280AD451D46E3EAE5FE3146198EA9
:1030C00063F3C7003E862390C60097850200938570
:1030D000E512F9B7B1451D46E3EAE5FC3546198E20
:1030E00063F3C7003E862390C60097850200938550
:1030F000E5117DB7C1451D46E3EAE5FA4546198E5F
:1031000063F3C7003E862390C6009785020093852F
:10311000650C79B7C1451D46E3EAE5F84546198EC9
:1031200063F3C7003E862390C6009785020093850F
:10313000E50EBDB7C1451D46E3EAE5F64546198EE5
:1031400063F3C7003E862390C600978502009385EF
:10315000A509B9B7B5451D46E3EAE5F43946198E28
:1031600063F3C7003E862390C600978502009385CF
:1031700025043DB797F6FF1F938606374146CD4598
:1031800017F5FF1F130545236FA0700F82809387EB
:1031900081A79C4303C7C1A683C6F18101E781478C
:1031A0003E85828003D607006316A60003C667002B
:1031B000E308D6FE7D171377F70FA107C5B7B286D0
:1031C0002E86AA85178502001305050A6F60124432
:1031D0000111930500030D4506CEEF50007F9305C6
:1031E00000051145EF50607E9305C0030545EF5083
:1031F000C07D85471306F100854513055030A307B0
:10320000F100EFE09135F240056182808547631A55
:10321000F5001166130686A9894503C5D1A66F304E
:10322000E04B89476317F500894503C5D1A66F3088
:10323000006C828085476398F50019E22383B1A66C
:10324000238EC1A6828009476399E50019E623838E
:10325000F1A603D541A66F00A07B8280938701A7CA
:103260009C43011122CC06CE2E8481CB9C4791C772
:103270008297F2406244056182806C0013057040C1
:10328000EFD0A10F324681452285EFD06151D5B7ED
:1032900001119397050126CA06CE22CC4AC84EC614
:1032A00052C4C187AE8463D7070803C5D1A6EF20F7
:1032B000B0672A8439C9034705009307000D6313DB
:1032C000F704834725004547638BE7046547639B05
:1032D000E702178502001305A5F5EF6032331309E5
:1032E00054009309B400178A0200130AAAF5834513
:1032F000090052850509EF607231E39A29FF2945DB
:10330000EF60D2342285EF20105B2165258DF240DD
:103310006244D2444249B249224A0561828003464E
:1033200065008345750017850200130525F2EF60DF
:10333000F22DC9BF93F7150085C317F6FF1F1306BB
:10334000261C97F5FF1F9385E51A03C5D1A6EFE06C
:10335000416F13C5140065BF93F725000145C5DB18
:1033600009391166130686A9894503C5D1A6EF3030
:10337000E03613C5240061BF797126D24ECE06D641
:1033800022D44AD052CC9147AA84AE896314F50462
:1033900083D7A5001306E10085451305503023921D
:1033A000F1A623070100238301A6EFE0111B9387F9
:1033B00001A79C4391C7DC4781C7CE8526858297AC
:1033C000B250225423A491A602599254F249624A5F
:1033D00045618280138781A61843E31AF7FC85456F
:1033E00003D541A6753E854503D541A64125C16754
:1033F00003DA41A6F917631BFA0205449305E100BD
:1034000013055041238301A6A38F81802307010068
:10341000EFC0B1768347E100B1E303C7C1A791478D
:10342000E317F7F87533238E01A651B7938781A769
:1034300003A9070003C4C1A669D00355290011C917
:103440009305E100EF90C00509C54C455285EFA0FA
:10345000E06D7D141374F40F2109F9BF938741A720
:103460009C4383C74700898BCDDB9305000A0D453C
:10347000EF50A0559305000A1145EF5000558145C6
:103480000545EF5080541306E10085451305503083
:1034900023078100EFE0710C49B701111705000007
:1034A000130545DF06CE22CCEF30206C1384D1A665
:1034B00085471306F10085452300A400130540410C
:1034C000A307F100EFD041557D55EF80A01A7D553F
:1034D000EFA0A0624531D93219231705000013056A
:1034E00025D3DD3217050000130585CA392B0345A6
:1034F00004008545EF30400CF24062440561828053
:1035000023A8B1A623AAA1A6828023ACB1A62386B4
:10351000A1A68280938781A69C43797106D622D486
:1035200026D24AD04ECE52CC1147639BE70483C7C4
:1035300061A6414481CF938781A78043B284B68935
:1035400083C7C1A603C7F18199EB55442285B250C8
:10355000225492540259F249624A4561828083465C
:103560004400639AA600834654006396B6008346DF
:1035700064006380E606FD1793F7F70F2104E9B7AF
:1035800009474144E384E7FC2C0013055041230420
:103590000100EFC0915E834781008DCB930500024F
:1035A0000D45EF508042930500031145EF50E04177
:1035B00095450545EF506041854730008545130529
:1035C00050302304F100EFE0417949B71131414413
:1035D000B5BF0355240093056100EF80706C35D5AD
:1035E0004C4503D541A6EF805006058939DD139976
:1035F000040113590901014781464A86ED4503D567
:1036000041A6035A0400EF80A03E2AC64D441DDDAA
:103610002686CE85231441012315210197D0FF1F53
:10362000E780004A01462C0003D541A6EF90C05E1A
:103630002A84E30D05F0ED452800EF80205339B7CB
:10364000C841011122CC06CE328403461500034541
:1036500005002206498E19CB0D681308B8A42D4524
:1036600063090607F2406244056182800D65130814
:10367000D5A463000603130825A2630C0601757820
:103680001308E85C3298420813580801854863EE35
:10369000080303D5A50036C632C4D53CB24615C1D1
:1036A000938701A79C4322468345550003A3070047
:1036B000A2876244F240034545003687854605618E
:1036C000028323900600014571BF1308B5A4631758
:1036D000060303D641821D45E376C7F8198E63D3EE
:1036E000C7003E86CC452390C60042064182BA956B
:1036F000228597D0FF1FE780A03CF1B79307A5A4D0
:103700006318F60091472390F6001146CC45CDB7DB
:10371000930785906317F60089472390F6000946C2
:10372000F5B79307E5A4631AF600DC45239016016C
:1037300083C707002300F40079B713057590E314DD
:10374000A6F8D9BF011122CC06CE26CA4AC8231733
:10375000D1002D4429EBDC412E89B28403C417002B
:1037600083C7070022045D8C8D679386D7A4630608
:10377000D400938627A3631FD4020355A900013CFC
:1037800019E101440DA0938701A79C43834555008F
:103790000345450003A807002286A6871307E1001A
:1037A000814602982A842285F2406244D2444249EA
:1037B000056182809386C7A46314D4028357E10015
:1037C00005473544E391E7FE03450600130400086E
:1037D000E3EBA7FC938701A79C43DC43829755B793
:1037E00093862790631AD4028356E1008547EF80C1
:1037F000006B2A844DF9938781A78356A9009C43C7
:1038000003C7C1A63DDF03D627006302D6047D1798
:103810001377F70FA107FDB79387E7A4E313F4F637
:103820008357E10005473544E39FE7F6034506006B
:1038300013040008E3E9A7F6DC452380A70093877B
:1038400001A79C433335A0000905DC4341BF138722
:1038500001A7184303C5470083C5570083C7140059
:103860000328070003C70400A2078946D98FC207AF
:10387000C18705476383E7008D460D66A68713075A
:10388000E10013062690029839BF416541119385E6
:10389000C1BD7D1506C622C426C24AC097F4FF1FCB
:1038A0009384C4C6EFA0802897F6FF1F938606D89E
:1038B0004146C9452685EFA0801CCC4C2A89094584
:1038C000EFF08FE49387C18283D707001384C1BED2
:1038D000138781822312F40083D7A40C03570700B7
:1038E0009385C1BF2310F40083D7A40D2316E400F1
:1038F00003D7A4102311F4000D4585472303F400DA
:103900002314E4002307F40023150400EFF0CFDFB5
:10391000A2850D45DD3EB24022444A8592440249CB
:10392000410182808D679387D7A40145631FF6000C
:103930008D472945639BF500854735456397F6001C
:10394000834707000145238FF1A682808D67938707
:10395000D7A4631EF6008D47639BF50083C7E1A7DC
:103960002300F70085472390F600014582802390CD
:103970000600E5BF0145828025E303A84500AE8827
:103980008347180003480800A207B3E707010D6842
:10399000930EF8A4639AD70391473548639FF602C4
:1039A00003A5C8004111B285114606C697D0FF1F76
:1039B000E78000119387C1A89C4305458297B240D8
:1039C00001484285410182809308289029486396E6
:1039D000170185476F80A04C2D4842858280416544
:1039E0004111938541C07D1506C6EFA02014B24059
:1039F00097F6FF1F938646CA4146994517F5FF1F64
:103A0000130585C341016FA0800723A6A1A882806A
:103A10000111938541C022CC06CE2A84EF80E0427A
:103A2000058929C1014781460546ED452285EF708C
:103A3000307C2AC605C997F7FF1F9387E7BF83D756
:103A4000A70501462C002314F10085472315F1003A
:103A5000230005002285EF90201C09C5ED452800B4
:103A6000EF80C010F240624405618280416779179F
:103A7000630CE502411122C406C685472A84639A75
:103A8000F50022852244B240938541C041016FA0D8
:103A9000E00989476396F5008545EFC0804075D100
:103AA000B2402244410182808280B717004003A7C0
:103AB000870C856693860680558F23A4E70C03C781
:103AC000170613671700A380E706238C0704054732
:103AD000238DE70403C72706218B6DDF03C7270665
:103AE0001377770F2381E70603C717061377E70FCE
:103AF000A380E7068280411185451305002006C694
:103B000022C426C2EFE07FF9854513050010EFE0DF
:103B1000DFF88564138504808D45EFE01FF83714C6
:103B200000408327C40C938404808145DD8C2326C8
:103B3000940C4145EFE01FEC89450145EFE0BF974C
:103B4000938741C1A30104062314F4069387C1C3DC
:103B50002316F406930700FCA300F406B9372244A9
:103B6000B240924403C5C1841306000A894541014D
:103B70006F20D036138741C19386C1C38147035656
:103B800007000907B297E31CD7FE5147B3D7E702F6
:103B9000138701A918439386870C63E9E60013870E
:103BA00041A9184323A8E1A823AAF1A88280828012
:103BB0003D897D15954763EAA70E17770200130725
:103BC000E76F0A053A951C41011106CEBA97828724
:103BD0002C0013054030EFE001052C000545EF6097
:103BE000D06B177502001305E571EF60623611A8FE
:103BF00003C725008D47177502001305A571E3065D
:103C0000F7FEF2400561828003C725009547E31A5D
:103C1000F7FE83D7A5000D6613060620914503C560
:103C200021842390F184EF20702B17750200130577
:103C3000656F65BF03C725008D47E314F7FC177553
:103C400002001305E56E55B783C7250011471775A8
:103C500002001305656F638EE70219476394E7025C
:103C600083C56500177502001305C56FEF60021A62
:103C7000854730008545130550302304F100EFE0FF
:103C8000C10D41B71547E395E7FE1775020013050F
:103C9000256FEF60E22BE9BF83C525001775020091
:103CA0001305856FEF608216A9BF82803A883E8730
:103CB00081E683460800BDB185476394F600C2865D
:103CC00071B18947639FF60041111306401F894572
:103CD00003C5218406C6EF207020B2400145410192
:103CE00082800145828001119397050122CC06CE86
:103CF000C1872E8463DF070003C52184EF20C04203
:103D000019C1EF20403B2165218DF24062440561DD
:103D1000828093F7150013C51500E5FB93F7450066
:103D200099CF83C721841307401F81462146A145AF
:103D300003D50184EFD0514A13454400F9B793F7F6
:103D400085009DC3014789460946814503D5018405
:103D5000EFE08131AA85177502001305A557EF60C2
:103D6000E20A1345840055B793F725000145D1DFDA
:103D700083C731847400194685452308F10002C6C3
:103D8000A3080100EFF00FF983C73184860793F78A
:103D9000F70F13F7070109EF1306803E894503C5A6
:103DA0002184A381F184EF20701313452400B1BF57
:103DB0008547DDB7011117050000130505F306CE91
:103DC00022CC26CAEF20705A938421840544238094
:103DD000A400700085451305503023068100EFD004
:103DE000D177138601839D4513056030EFD0F176BE
:103DF00017F6FF1F1306068CE14513057030EFD050
:103E0000D175177602001306664ED5450145EF7051
:103E100040788D4770009145130570402305F100EF
:103E200023048100A305810002C6A3040100EFC0A2
:103E3000B13E3000854513050040EFC0F13D13064B
:103E40009100854513051040EFC0113D1306A100F8
:103E5000854513052040EFC0313C1306B100854570
:103E600013055040EFC0513B99477000854505450B
:103E70002306F100EFF0AF85EFF03FA197F5FF1FAC
:103E80009385458213858183EFF08FE703C5040096
:103E90008545EF206072F2406244D2440561828021
:103EA00097770200938787538C43011106CE22CC6B
:103EB00026CA4AC84EC6AA843764375FEF5082527A
:103EC00093D714401304F49D1D8CAA89AA852285DA
:103ED000EF504251A285EF50E250177902001309CA
:103EE0002950AA8503250900EF50C278A285EF501A
:103EF000624FCE852A84EF50E24EA285EF50824E6B
:103F0000AA8503250900EF50E276A285EF50824D85
:103F1000A685EF50224DF2406244D2444249B24954
:103F200005618280011122CC371400400327C40AA6
:103F300026CA856406CE2EC6458F2326E40AEFE006
:103F40005FC3B2452E85EFE0DFC28327840AF240CB
:103F5000C58F2324F40A6244D24405618280411152
:103F600022C4371400400327C40A26C2856406C64B
:103F7000458F2326E40A13650508EFE09FBFEFE0B5
:103F80009FC18327840AB240C58F2324F40A2244A8
:103F9000924441018280371700408327C70A4111AC
:103FA000856622C426C206C6D58F2E84B2842326F7
:103FB000F70A13650508EFE0DFBBA294631F9400C6
:103FC000371700408327870AB24022448566D58F81
:103FD0002324F70A9244410182800504EFE0BFBB2D
:103FE000A30FA4FEE1BF01112C0019461305B00375
:103FF00006CE55378347810083469100138781C4DD
:10400000A207D58F231CF7008347A1008346B10088
:10401000F240A207D58F231DF7008347C1008346D6
:10402000D100A207D58F231EF70005618280011100
:104030002C0019461305300406CEB13F834781009A
:1040400083469100138781C4A207D58F231FF700F1
:104050008347A1008346B100F240A207D58F231009
:10406000F7028347C1008346D100A207D58F2311F1
:10407000F70205618280011122CC26CA4AC84EC6C9
:1040800052C406CE93094006014481440149138A73
:1040900081C4713F8317EA011545FD193E998317C5
:1040A0000A02BE9483172A023E9497C0FF1FE7803E
:1040B0000022E39009FE930740063344F402F240E5
:1040C000B249224A3349F902B3C4F402239881C6A3
:1040D0006244239621C74249239791C6D244056181
:1040E0008280011122CC138481C40315840106CE81
:1040F00026CA4AC84EC652C4977902009389892BB2
:10410000EF50D20F83A50900177902001309C92ABD
:10411000977402009384842AEF50C22C83250900EF
:10412000EF50422C8C402A8A0840EF50A22BAA85DF
:104130005285EF40B24308C00315A401EF50120CA2
:1041400083A50900EF50022A83250900EF50822938
:104150008C402A8A4840EF50E228AA855285EF40D9
:10416000F24048C00315C401EF50520983A509006D
:104170009779020093890925EF50C226832509000B
:10418000EF5042268C402A89084497740200938499
:104190006424EF502225AA854A85EF40323D08C4A9
:1041A0000315E40183174402177902001309092259
:1041B0001D8DEF50B204EF50D21003A6090083A664
:1041C0004900EF3092770326090083264900EF303B
:1041D000B2109040D440EF303210EF505219831794
:1041E000640248C4031504021D8DEF503201EF50E4
:1041F000520D03A6090083A64900EF30127403266E
:10420000090083264900EF30320D9040D440EF3052
:10421000B20CEF50D2158317840208C8031524028C
:104220001D8DEF50A27DEF50D20903A6090083A691
:104230004900EF3092700326090083264900EF30D1
:10424000B2099040D440EF303209EF50521248C8C2
:10425000F2406244D2444249B249224A0561828016
:104260005D715AD85ED6032B4500832B05004EDEC8
:1042700083298500A2C4DA852A845E8586C6A6C203
:10428000CAC052DC56DA62D466D26AD06ECEEF5023
:104290006215CE85EF50021593050000EF50C20E57
:1042A0006305053ADE855E85EF50C2132A8CDA85F8
:1042B0005A85EF502213AA856285EF40322B2A8C53
:1042C000CE854E85EF500212AA856285EF40122AF4
:1042D000C13E977702009387270DAA85884397E40C
:1042E000FF1F9384A43E03A9C400EF40D25EAA8DB1
:1042F000AA855E85EF50020F03AA840083AA4400BA
:1043000083AC04002A8D08C0EE855A85EF50820DDB
:104310002A8C48C0EE854E85EF50C20CAA8B08C48B
:10432000CA855685EF50020CAA89D2856685EF5062
:10433000620BAA854E85EF50E233AA85EF40122327
:10434000AA89D6856685EF50E2092A8BCA855285EF
:10435000EF504209AA855A85EF405221AA85EF40C5
:10436000F220AA8DE6856685EF50C2072A8BD68596
:104370005685EF502207AA855A85EF50A22F2A8B27
:10438000D2855285EF500206AA855A85EF50822EBB
:104390002A8BCA854A85EF50E204AA855A85EF40E8
:1043A000F21CAA852AC26285EF50C2032A8BEE85D1
:1043B0005E85EF502203AA855A85EF50A22B2A8BE7
:1043C000CE855E85EF5002021247AA8B6A85BA85B8
:1043D000EF504201AA855E85EF50C229AA8BEE8577
:1043E0006A85EF5022002A8DCE856285EF40927F4C
:1043F000AA856A85EF50022897790200938909FB04
:1044000083A50900AA8D5A85EF40D27D138C81A91E
:1044100083250C00EF40921583A509002320AC00F2
:104420002AC65E85EF40127C138CC1A983250C003F
:10443000EF40D21383A509002320AC002AC46E8567
:10444000EF40527A138C01AA83250C00EF40121220
:104450009385818403AD0500938541842320AC00BE
:104460002AC203AC05006A85DA85EF40B2774C4476
:10447000EF40D20F32462A8BE2853285EF409276AA
:10448000AA855A85EF40920E2A8B48C4DE856A853C
:10449000EF4052750C48EF40720DA246AA8BE285A0
:1044A0003685EF403274AA855E85EF40320CAA8BC8
:1044B00008C8EE856A85EF40F2724C48EF40120B57
:1044C0001247E2852A8D3A85EF40D271AA856A8526
:1044D000EF40D2092A8C48C837050080DA85334579
:1044E0005501EF4032702A84D2855E85EF40926F8D
:1044F000AA852285EF5002182A84CA856285EF407A
:10450000726EAA852285EF50E21683A50900EF405E
:10451000726DE685EF4092052A84AA855A85EF40A0
:10452000726CAA8CD2856285EF40D26BAA856685B3
:10453000EF40D203AA8CCA855E85EF40B26AAA8595
:104540006685EF50221383A50900EF40B269D68536
:10455000EF40D201AA8AA2855E85EF40B268AA8C9C
:10456000D6856285EF401268AA856685EF50821075
:10457000CA85AA8C5A85EF40F266AA856685EF4007
:10458000E27E83A50900EF40F265D285EF40027E0E
:104590002A8AA2856285EF40F2642A8CD6855E85E0
:1045A000EF405264AA856285EF40427CAA8BD28597
:1045B0005A85EF403263AA855E85EF50A20B83A532
:1045C0000900EF403262CA85EF40427AAA89A2858B
:1045D0002285EF4032612A89D6855685EF40926068
:1045E000AA854A85EF4082782A89D2855285EF4094
:1045F000725FAA854A85EF4062772A89CE854E850B
:10460000EF40525EAA854A85EF404276EFF05F891F
:1046100097770200938747D9AA858843EF40B22B4A
:104620002A89AA852285EF40F25B88C0CA85568513
:10463000EF40525BC8C0CA855285EF40B25A88C469
:10464000CA854E85EF40125AC8C4B64026449644E7
:104650000649F259625AD25A425BB25B225C925CC2
:10466000025DF24D6161828097E7FF1F9387070625
:104670008C4339714AD803A947002E8506DE22DC17
:1046800026DA8047C4474ED652D456D25AD05ECE90
:1046900062CC66CA6AC8EF40626D2A8BCA854A85B9
:1046A000EF40C26CAA8BA2855A85EF40B253AA890B
:1046B000A6855E85EF401253AA854E85EF40927B1A
:1046C000EF502240977A0200938A4AD0EF10724D41
:1046D00003A60A0083A64A00177A0200130A8ACEAC
:1046E0009389C1C3EF30722503260A0083264A004E
:1046F000177D0200130DCDCBEF30023EEF50224765
:1047000023A0A900A2852285EF40426683250D00E3
:10471000AA8C4A85EF40124DCA85EF40B24C2A8CD4
:10472000A2856685EF40124CAA856285EF4092749F
:10473000177C0200130C4CC783250C00EF4002636A
:10474000EF5022382AC42EC66685A685EF409249CE
:10475000AA8CCA855A85EF40F248AA856685EF4043
:10476000E260EF5002362246B246EF10724F03A6C7
:104770000A0083A64A00EF30521C03260A00832653
:104780004A00EF306235EF50823E83250D0023A2B0
:10479000A9002285EF401245A285EF40B2442A8944
:1047A000A6852685EF40825CA685EF40B243AA85A8
:1047B0004A85EF40326C83250C00EF40225BEF50BE
:1047C00042302AC42EC65E85A285EF40B2412A84BB
:1047D000A6855A85EF401241AA852285EF400259ED
:1047E000EF50222E2246B246EF10924703A60A004F
:1047F00083A64A00EF30721403260A0083264A007B
:10480000EF30822DEF50A236F250625423A4A9005B
:10481000D2544259B259225A925A025BF24B624C1C
:10482000D24C424D21618280411106C6EFF0AFFBB0
:10483000EFF0EFFFEFF0FF8A138581C4EFF05FA286
:10484000B240410115B5411122C4371400408327FD
:10485000840A1D6706C6D98F26C22324F40A8D4513
:104860001D65EFE02F998327840A21678545D98F3D
:104870002324F40A2165EFE0EF978144EFE04FAC89
:10488000494463958406930500081305B006EFF0CC
:104890006FE91305400697C0FF1FE78040A38145DD
:1048A0001305B006EFF00FE885451305B006EFF0ED
:1048B0006FE785451305C006EFF0CFE685456945EE
:1048C000EFF04FE69D456545EFF0CFE5E1456D45DD
:1048D000EFF04FE5C1457145EFF0CFE42244B2401F
:1048E00092448D45754541016FF0CFE3094597C06E
:1048F000FF1FE780C09D13055007EFF04FE6AA8425
:1049000049B7B717004003A5470C83A7470C41815F
:104910001397E70005896354070013652500B7174F
:10492000004083A7470CC18B99C313654500B71797
:10493000004083A7470C93F7070299C313658500CE
:10494000B717004083A7470A93F7070299C3136577
:104950000501B717004083A7470A858B99C31365E4
:104960000502B717004083A7470A93F7070499C3C6
:1049700013650504B717004083A7470A1397B700CC
:104980006354070013650508B717004083A7470C59
:10499000139797006354070013650510B71700407D
:1049A00083A7470C898B99C31365052083D741AA38
:1049B000638CA7002392A1AA01C9938781AA03A3AC
:1049C0000700630303000283828011456FD0FFB4A8
:1049D000411193962500AA852D4506C697C0FF1F55
:1049E000E78060D7B240014541018280411126C273
:1049F0009394250022C44AC02A843289A686AA85B7
:104A00000146254506C697C0FF1FE780C0D4A6868D
:104A10004A86A285294597C0FF1FE780C0D3B240D0
:104A2000224492440249014541018280011122CC75
:104A300006CE3714004026CA4AC84EC652C4834424
:104A40007405034AB4058349840503499405EFD0EE
:104A5000DFA88347A40593F4F40F137AFA0F93E7C2
:104A60001700230DF40493F9F90F1379F90FB71711
:104A7000004003C7A705058B6DFF03D5C705A38DB0
:104A80004705238C3705A38C2705A38B9704F24099
:104A90006244D2444249B249224A056182804111AE
:104AA0009397050122C406C6C1872E8463DD0700E3
:104AB000EF10806719C1EF1000602165218DB240B1
:104AC0002244410182809397250163D00702EF7051
:104AD0007104E53D37F60200130606E0896503C55B
:104AE000C184EF10B03F0965D1BF93F7150081CFA6
:104AF000093D13060002854503C5C184EF10103E31
:104B0000134514006DBF93F7450081CFEFF0DFD15F
:104B10004146914503C5C184EF10503C1345440004
:104B200079BF93F7050195C30145B12C0545A12C2B
:104B30000945912C0D45812C4146C14503C5C184D1
:104B4000EF10D039134504019DBF93F7850081CF45
:104B5000DD2113060006A14503C5C184EF101038FE
:104B600013458400A9BF93F725000145E38907F4A5
:104B7000EFE0BFF3EFF00F800966130606F48945F6
:104B800003C5C184EF109035134524000DBF1D717E
:104B90004946977502009385E58417750200130551
:104BA000A50186CE97C0FF1FE78080FA01E917753F
:104BB000020013056584EF50A23901A0B7F600E0AA
:104BC000795798CAFD57DCCA0567B7E700E023A00C
:104BD000E7101306F00290C223A0E71801000100BD
:104BE0001306C0038145480897C0FF1FE780C0F047
:104BF00097F7FF1F9387078D3ECA896793870780C2
:104C0000231CF100ED472312F1029547A301F102A5
:104C100085472303F102B5472304F102A167938777
:104C200007E03ECE970700009387C7DABEC4970718
:104C300000009387E7DBBEC68567938727D02315DF
:104C4000F10297E7FFFF938707FC3EDAB7F507000D
:104C5000970700009387C7DD3EDE81469707000077
:104C60009387E7D67000E1051945BEC097C0FF1FC6
:104C7000E78060AE58088147994670003E9603462B
:104C8000060085070507A30CC700E398D7FED247A7
:104C900091C70357810185676373F70001A0480836
:104CA000EF107070AA8501C917650200130505761B
:104CB000EF50C21501A0F640256182804111170511
:104CC0000000130505DE06C622C4EF10106A138427
:104CD000C1842300A4009128EFF0FFB6EFF0AFB934
:104CE0006120EFE05FE18D2C0345040013060064B2
:104CF0009145EF10B01E0345040013060064A14562
:104D0000EF10D01D03450400130600648545EF1025
:104D1000F01C034504002244B24037F6020013069B
:104D200006E0896541016F10701B411106C6B71777
:104D30000040130770052380E704130780FA2380DF
:104D4000E70403C7F7021377A70FA387E70203C798
:104D5000F70213672700A387E702EFF01FC7B240EF
:104D6000014541016F206017411181453D4506C64F
:104D7000EFD05FC8B24003C5C1841306000AC14525
:104D800041016F10B0158D4763E0A70497770200CB
:104D900093878760AA9703C70700B7170040238C43
:104DA000E7040547238DE704371700408347E705ED
:104DB000E207E187E3DC07FE0357C7050605938793
:104DC00001AB3E952310E500828082808280011134
:104DD00006CE02C42316010083C7018C9306100679
:104DE0006395D70683C7218C9306C0061387018C71
:104DF000639DD702834747000D47938707FD93F7CD
:104E0000F70F636AF7002304F10019462C0013051D
:104E10001008EF003070130600049385018C1145D3
:104E2000EF00F07AF2400561828093062007E39458
:104E3000D7FE834747000D47938707FD93F7F70F8A
:104E4000E36BF7FCA304F100C9B713072006E39452
:104E5000E7FC03C7218C930607FD13F6F60FA54761
:104E6000E3EBC7FA8547130787FCB396D700B397E0
:104E7000E7002306D100A306F10041BF411122C47F
:104E80001384019022859305000206C6EF102016B8
:104E9000A2851306000213052008EF00B067A28563
:104EA0002244B24013060002094541016F003072EE
:104EB00093F7F50381EB99C5014681451305400839
:104EC0006F005065238C01AA828093F7150091CB67
:104ED000B7E700E03707400023A0E71013C515002F
:104EE0008280411122C406C693F705022E8491CF19
:104EF00019469385019213051008EF00B061134520
:104F00000402B24022444101828093973501014559
:104F1000E3D907FE85651306003203C50188EF104B
:104F2000E07B85653345B400E9BF828041111306FB
:104F3000000293850190094506C6EF005069B24012
:104F4000130600049385018C114541016F00306800
:104F500082808280828082804111170500001305C3
:104F600005F706C6EF1070402380A1881765020080
:104F70001305C54BEF0010211306E00297650200F0
:104F80009385C557138541C7EF00F028EF00D02265
:104F900013850186EF00702413858186EF00F023CE
:104FA000130620029765020093854558138541C971
:104FB000EF007026EF00502013850187EF00F021ED
:104FC00013858187EF007021138541CBEF003036C8
:104FD000EF00901E138541CDEF007035EF00D01D1E
:104FE00013850185EF00701F13858185EF00F01E8A
:104FF000EF005022EF00B02175DDB2404101828008
:10500000B7E700E03707400023A0E710594723889F
:10501000E70417B7FF1F1307672F13671700B8D3ED
:1050200082809387C1D01387C100E14694C3910762
:10503000E39EE7FE8280411106C603C791AB854718
:10504000631EF704A38C01AA938741CF1387C1D0B5
:1050500023810700A3800700238007008D07E399C1
:10506000E7FE23AE01AA238001AC653F81450145DF
:10507000EFD05FBCB240B72700401307B0041386DF
:1050800041019385C1D023A6E7404206C20581466F
:105090004182C181054541016FD05FBB9387418843
:1050A0009C438297E1B74111938701AD22C48043AD
:1050B00026C24AC006C6AA842E8919E4B2402244F8
:1050C00092440249410182801C4881C7CA852685D5
:1050D00082970040DDB7011106CE834725002304E7
:1050E000F1008347550003474500A207D98F93F786
:1050F000F77F2315F100834735001765020013057C
:10510000654F8D8BA304F100EF4052508356A100F0
:105110000346910083458100176502001305854E03
:10512000EF40D24E1765020013050550EF40124EB6
:105130002800EF00D032F24013351500056182805F
:10514000138781921C475047AE970D8E23A8F1928A
:1051500023AAC192BE8501EA83C7C19389CB238E5E
:10516000019201468145130500086F00B03A83D7CC
:10517000E19291CB8307070063D707000146814581
:1051800001456F00D044828041111765020013056C
:10519000654606C6EF4092479385819283D76500A6
:1051A00003D7450083D6250003C6150083C5050037
:1051B000176502001305053EEF405245B2401765E2
:1051C00002001305654641016F4052445D7103C7FB
:1051D000819286C6A2C4A6C2CAC04EDE52DC56DA8E
:1051E0005AD85ED662D466D26AD06ECE937707065E
:1051F00013060002938681926384C740130600045D
:105200006381C7480144639B071A0D8B054683C71A
:1052100091926305C72029C389456305B73203C747
:10522000919299476319F73A930700601765020056
:105230001305854B2395F192EF40523D176502000F
:105240001305854BEF40D250176502001305C53D8D
:10525000EF40D23B01449DA2254703D5A192E360D4
:10526000F7FC176702001307A72E8A07BA979C431B
:105270003688BA9782879C46238007009C46A38085
:105280000700894785A01375F50FEF00B01B23AC0D
:105290000192B1A3935585008D4793F6F50F1374D2
:1052A000F50F6394F5049307E00E6311F408176596
:1052B000020013052534EF4072351765020013050F
:1052C0002537EF40F248176502001305E535EF403A
:1052D000F233938781AC9C43B9D3984323A8E192DE
:1052E00083C7470023ACF192DDA93D47639EE502E9
:1052F0001765020013050530EF40523117650200B3
:1053000013054535EF40D244176502001305C5313A
:10531000EF40D22F938741AC9C43E38207F0984340
:10532000DC4323A8E1927DBFE3EBB7EE832788013E
:10533000014703C607001DE6176502001305053780
:105340002EC6EF40B22CB245228617650200130527
:10535000A547EF40B22B176502001305E52CEF407F
:10536000F22A75BD03C517006315D5006309E4442F
:105370000507B2977DBF938751A423A8F192854773
:1053800095B703A986019374F50F01449309F00FB3
:10539000130AF00F914A154B894B834709009DEF83
:1053A0003DC8A38291A4854781451D452382F1A470
:1053B000EFF07FCFEFF09FB723AC01922285B6408C
:1053C000264496440649F259625AD25A425BB25B6D
:1053D000225C925C025DF24D61618280834719001C
:1053E000638F57016380670363977701834959008F
:1053F000639334010544834709003E9979BF034A0A
:105400003900D5BFE39934FFE3170AFE4A85EFF070
:105410009FCC2A84CDB723AC019211B503C651A409
:10542000E30F06DE194683D4A19203C94600638FB9
:10543000C7046369F600E39407DE9C4623800700F7
:105440009C4635BD29466388C7082D47E399E7DCAC
:10545000804E93F4F40F9309F00F130AF00F814A72
:10546000914B154C976C0200938CCC18176D020071
:10547000130DCD21976D0200938D0D1B8347040002
:10548000ADE3D6852145EFF01FC211B5A18093078A
:105490002002E396F4D8176502001305A515EF4026
:1054A000F216176502001305A51CEF40722A176556
:1054B000020013056517EF407215938701AD9C43F9
:1054C000E38F07D403C7C701E31B27FFD84B9C4FCB
:1054D00023A8E19201BD9C462380070023ACE19202
:1054E000FDAC83471400638877016380870383479B
:1054F00004003E9461B783492400034A3400E31852
:1055000039FFE39644FFA28ADDB7E31239FF6387D0
:105510004403034634006685034B24000D8A32C6DB
:10552000EF40D20E3246DA856A85EF40320E6E8544
:10553000EF40D20D5A85EF00807B55BF2285EFF0FA
:105540009FB975B783C551A4E38B05CC03C446004E
:105550006388C7049DCF0D47E393E7CC83D7A1921F
:10556000E39B07EA1765020013054514EF40120A92
:10557000A285176502001305E515EF40320917658E
:1055800002001305650AEF4072082285EF00B00B98
:10559000FDB99C46238007009C46A38007003DBFC1
:1055A00083D7A192E39907E617650200130505105A
:1055B000EF40D205A2851765020013052510EF40C4
:1055C000F2041765020013052506EF403204228518
:1055D000EF00500B29A4176502001305250DEF40BD
:1055E000F202176502001305A513EF407216176546
:1055F000020013056503EF407201EFF0FFB899B99F
:105600000D8B85476315F704938701AD9C4383C6D3
:10561000460081EF1765020013054509EF40027F40
:105620001765020013054511C9B7D84319CF03C642
:10563000C701631CD600138681939385019313855C
:1056400081920297635D0518F1B79C43D9B78947EA
:10565000E312F7FC938701AD9C4303D7C1922183EA
:10566000D5DB944789CE03C6C701631AE6001386CB
:10567000819393850193138581928296E1B79C4330
:10568000C5B7138481AC1C40D5CF83C7570003C76F
:1056900091926311F71083D7C19211476382E70497
:1056A00015476388E7061765020013052500EF40DC
:1056B000E275176502001305650CEF407209176566
:1056C0000200130565F6EF406274176502001305CA
:1056D000E5FDEF40A273176502001305650D31B7B4
:1056E00017650200130505F1EF40427217650200CD
:1056F00013050506EF40D205176502001305C5F234
:10570000EF40C2701C40984783D7C70023A8E1929E
:10571000D1BE176502001305E5EDEF40226F176556
:1057200002001305E503EF40B202176502001305FE
:10573000A5EFEF40A26D1C40984B83D7470123A8EB
:10574000E1924DB61384C1AC1C40A9C783C7670062
:1057500003C791926310F70403D7C1929D47E314E6
:10576000F7F4176502001305E5E8EF40226A1765B4
:10577000020013052502EF40A27D17650200130504
:10578000A5EAEF40A2681C40984383D7470023A8AE
:10579000E19289BE938701AD8043938481931389FD
:1057A000019393898192E30204F25C4499E30040FF
:1057B000DDBF2686CA854E85829775F90DA00947FB
:1057C0006398E60003C6370003C727002206598EF8
:1057D00003258800BE8523ACC192EF40C257054423
:1057E000F1BEA1C5138781921C475047AE970D8E1D
:1057F00023A8F19223AAC19215E6411193874194FF
:1058000006C623A8F192EFF07F9C11E5B240130584
:10581000000841010DADB240014681451305000865
:105820004101CDA9BE8501455DA3828001110145DD
:1058300006CE0929239201A4B707400093870708E1
:1058400028003EC429292800230401000929814594
:105850000545EFF05F85F240056182809387819274
:1058600041112146AA853E8522C406C6EF40A24EBC
:1058700003D6E192130700102A84637EC7028307D0
:10588000050063CA070217650200130525E2EF4011
:10589000E25717650200130525CEEF40626B1765CE
:1058A0000200130565D8EF4062562244B24013054A
:1058B0000008410149AB9385419423A8B19223AAE2
:1058C000C19223ACC192238E019211CA83070400B6
:1058D00063C707002244B24001454101CDA9EFF062
:1058E000FF8E61D51C4803D6E19263F3C7003E8664
:1058F00023AAC1929307001063F7C702176502003D
:105900001305C5DAEF408250176502001305C5C6BE
:10591000EF4002642244B240176502001305C5D06F
:1059200041016F40A24E0C4413050008E5261C48B7
:1059300003D7E19263F8E70093F7F70381E7854720
:10594000238EF192B2402244410182809377F50781
:1059500031473387E70293874107BA9703A387004C
:1059600063030300028382809377F507314733870F
:10597000E70293874101BA9703A3870063030300FB
:105980000283828093878192130700F888CFA38FC8
:105990000710938741072380E70017F7FFFF1307DE
:1059A000677A98C793874101170700001307A7E399
:1059B0002380070098C7828083C771A4230EF50057
:1059C000138701AD144381EA08C32320050085072E
:1059D000A383F1A482803687F5B783470500504141
:1059E000139787016187635E070013F7F707B146D6
:1059F000B306D7021387410736972300F70010C775
:105A000082803147B386E70213874101F5B703C5AA
:105A100041A482804DA9170700001307870258C1CF
:105A20002324050023260500232805004CC910CD9A
:105A3000828001458280014582800145828041113A
:105A400022C406C626C24AC02A84834714002947B6
:105A500003454500FD1793F7F70F6363F70A1767D0
:105A60000200130727D98A07BA979C43B284BA97D2
:105A7000828783473400034724008041A207D98FDF
:105A800013D6870093F5F70FEFF0BFFA2300A400B9
:105A900009A803A9050083452400EFF0DFF92300DE
:105AA000A90085479CC00145B24022449244024966
:105AB000410182808041EFF05FF8C9BF8347340025
:105AC000034724009441A207D98F0347060093F5AA
:105AD000F70F13D68700EFF0EFC7F1B78345340017
