:040000006F20003B32
:1000040000000000000000009000002076020020A4
:10001400A9BDF9F5940000200000000000000000D4
:10002400960000209800002000000000000000005E
:100034009A000020000000009C0000200000000046
:1000440008030020E2060020E6060020A4000020A9
:10005400A6000020A80000205C030020AC000020C3
:10006400AE000020B0000020B2000020B400002048
:10007400F2020020B8000020BA000020BC000020DA
:10008400BE000020C0000020C2000020C4000020E8
:1000940001A001A001A001A001A001A001A001A054
:1000A40001A001A001A001A001A001A001A001A044
:1000B40001A001A001A001A001A001A001A001A034
:1000C40001A001A001A0B71700409306700523808A
:1000D400D704130780FA2380E7040100010003C654
:1000E400B7041376F60DA385C7042380070413769B
:1000F40005024DC203C6A700118A1DE22380D7045E
:100104002380E7040100010003C7A7001367470029
:100114002385E7009307004B01000100FD17EDFF65
:10012400B7170040930670052380D704130780FA9D
:100134002380E704010001007D892394A7000100C6
:10014400010001000100238007042380D7042380D9
:10015400E704010001000100010037270040930675
:100164001005A303D78023800704B71700401307A3
:1001740070052380E704130780FA2380E704010055
:10018400010003C7B70413670708A385E7042380A6
:10019400070482801376050441C603C6A700418A7A
:1001A4001DE22380D7042380E7040100010003C774
:1001B400A700136707012385E7009307007D01006B
:1001C4000100FD17EDFFB71700409306700523806B
:1001D400D704130780FA2380E70401000100137693
:1001E400F501136606042394C70001000100010011
:1001F4000100238007042380D704130660042380AE
:10020400E7046318C5000100010037270040894650
:1002140089BF01000100372700409306200591B7EC
:100224002380D7042380E7040100010003D787005B
:100234001367070C2394E7000DBF41118146014663
:100244008145114506C68523B7170040130770057D
:100254002380E704130780FA2380E70401000100E8
:1002640003C76704136717002383E7042380070485
:10027400B2404101828081460146814511452523D2
:10028400B7170040930670052380D704130780FA3C
:100294002380E704010001007D562396C7022380D2
:1002A400D7042380E7040100010003C76704136730
:1002B40017002383E7042380070401A0BD47330507
:1002C400F50201007D1575FD8280411122C426C20C
:1002D40006C6AA84014463179400B240224492449F
:1002E4004101828005041305803E4204C13F4180E0
:1002F400DDB7B7170040130700032388E7028547DB
:1003040023ACF1A673002030411122C637240040EB
:1003140083476400858B9DCF85472303F40093872F
:1003240001A89C43850723A0F1A8972000E0E7805B
:10033400C0799307803E3355F502894748C42300AA
:10034400F40091472300F4008347240093E7170047
:100354002301F40032444101730020300111A3074A
:10036400010022CE26CC4ACA4EC8378400408347B7
:10037400640093F7F70FA307F1008347F100898B1B
:10038400638D072E834774001307000393F7070355
:10039400638EE7068344740083477400BD8893F733
:1003A4000703638A071C13070002639CE70413898D
:1003B40041F56399041083C7810D9D83F9C7834771
:1003C400240293C707042301F4028347240293F70A
:1003D400C70F93E727002301F4028327490183C54C
:1003E40081F563FCF5088D8F23A4F1F68327890139
:1003F400BE9523A6B1F613050008974000E0E780F8
:10040400A05CB787004009472383E7003784004096
:1004140083477400E207E18763D5072A930720FC2A
:100424002301F402938441F583A5840C21461385AA
:10043400810D975002E0E780003B8387441863CA2C
:100444000700230004028347240293F7C70F230104
:10045400F40237840040834724021385810D93F707
:10046400370F93E787002301F402974000E0E78009
:10047400A04689472303F400A9A483258901BE95D6
:1004840023A6B1F623A401F6BDB703C7910D954782
:10049400631BF700834734000347090093F70708F9
:1004A400D98FA301F4008347240293F7C70F93E77E
:1004B40027002301F4028347240293F7370F230113
:1004C400F40281B791476398F4008347240393C7E8
:1004D40007042309F402154433D484029307000368
:1004E4003304F402939724003E94B7870040938723
:1004F40027023E948347040093F7C70F93E727002E
:100504002300F400E147B387F402CA97D84B03C62B
:100514004700944F6379E6048C4B118FB296B295E1
:100524008CCBD8CB94CF88476376E602975002E011
:10053400E780602BE147B384F4028547CA9403C77C
:100544005400630BF7008347040093F7C70F23009D
:10055400F40045BD3A86D9BF8347040093F7C70F1B
:1005640093E71700EDB7B305D7008CCF23AA070094
:1005740013E5040859B5B1E4834724028344840095
:10058400138941F593C707082301F4028325890CD5
:100594000325090D2686975002E0E780C0248325B1
:1005A400890D0145A69523A6B1028327490D858FA0
:1005B40023A4F102974000E0E780C042E39304E4FF
:1005C400DDBD8347740093F70704E38C07E291478A
:1005D4006398F4008347240393C707082309F402AC
:1005E4006144B3878402B7890040138441F503C989
:1005F40089004A863E948325840C0325040D975074
:1006040002E0E780401E8327040D8325840D034701
:10061400440CCA972328F40C8327440DCA95232C31
:10062400B40CB3872741232AF40C6363E90099E7E8
:100634002685974000E0E780E03AE1B39547B3D7D9
:10064400F402130700038A0493892902B387E7029B
:100654000347540CBE948547CE946309F70083C7BF
:10066400040093F7370F2380F40061BB83C70400B1
:1006740093F7370F93E74700FDB78347F100858B66
:1006840099CFA3010400974000E0E780E02183476D
:10069400240293F7370F2301F4028547E1BB834714
:1006A400F100918B95C783475400918B91C7014505
:1006B400973000E0E780806AB787004011472383C2
:1006C400E7007244E2445249C24905617300203094
:1006D4008347F10093F7F70F71BB411106C6A52DAF
:1006E400FDBF7300203073002030230304801547BE
:1006F4002303E48001002302A480828083076480B2
:10070400E3CE07FE23030480828083076480E3CE64
:1007140007FE03454480828083076480E3CE07FE9E
:100724002302A4808280411126C44AC24EC006C658
:100734001377F50BAD47AA892E8995446306F70014
:1007440019456537653F8D444E854537FD59FD1480
:1007540063983401B240A244124982494101828023
:10076400135509011375F50F453F2209CDB7011142
:1007740026CC06CEB704080051371545BD3771376E
:1007840069372AC6A53F32459377150089EB13656F
:1007940015001375F50FF240E24405618280FD14E3
:1007A400E9FC0145CDBF397126DC4ADA4ED852D670
:1007B40056D45AD25ED006DE62CE66CCB7E700E0ED
:1007C4007D5783AA070022C603AA470023A0E7187F
:1007D40023A2E718B7170040130770052380E70426
:1007E400130780FA2380E70483C74704930B75FF3C
:1007F400B684E20793FBFB0F8546AA892E8B3289C8
:1008040037240040E187015763FA76016308D50075
:100814008946130700026313D5000157D98F93F754
:10082400F70FB71C00402382FC0411472303E48024
:100834001305F00F5D3D094CD135636D7C11B7058F
:100844000700DA9537870700795563F2E504B38723
:100854009500636EF702370B0800A94733EB650177
:100864006399F90689E48144513D26850DA0DA8512
:100874000945553D05090345F9FFFD14050B693D7F
:1008840081C49377FB0FFDF7DD3569FD7D55B717FF
:100894000040130770052380E704130780FA2380C0
:1008A400E70403C74704418B2382E704F250B7E708
:1008B40000E023A0571123A24711E25432445259B5
:1008C400C259325AA25A125B825B724CE24C2161C9
:1008D4008280A5476395F90685691309F00FB3066D
:1008E4009900B3742B01B6941349F9FFB3749900BA
:1008F400856B33796901416B9387F9FFB3F727015E
:1009040099E363FC340193D94900C147E3E637FF17
:1009140099BF0569C1697D19D9B71305800D63882D
:100924006901130500026384790113051008CA855F
:10093400DD3B353D21DD4E99B3843441D9B7DA85A9
:100944002D45D533CA94E30099F205097D3BA30FE5
:10095400A9FED5BF9387F9FF93F7F70F6361FC0CEA
:1009640083C71C0413073008631FF7043707080004
:10097400636BEB04B3079B00B706100063F5D70461
:10098400334BEB0089476393F9068980D549E38C9F
:1009940004ECDA850945413B11090327C9FF914756
:1009A4002320E48003076480E34E07FE230334819D
:1009B400FD17EDFBFD14110B81C49377FB0FE9FFC9
:1009C4007D3371F5E1B5B717004003C75704B70786
:1009D40008001377070219E3B78707007955E3780E
:1009E400FBEA33079B00E3FFE7F855B58547E3824D
:1009F400F9F2DA852D45053B9389F4FFE38504E696
:100A0400293393F7390091EB8326048003270900E7
:100A140093074900E39AE6E43E89CE84F1BFB547E3
:100A24006396F9001305900BC93135BDB147130521
:100A3400B00AE38BF9FE99476391F904B7050800FE
:100A4400B365BB002D45C53181448D4BA149753932
:100A540063967401832704802320F9008504E398B6
:100A640034FF8327048013172B01635507002312D7
:100A7400F900D5BB2322F900FDB39D476399F90220
:100A840081451305B0044531BD44232009002322C8
:100A94000900FD599D3993F77400CA9703C70700ED
:100AA400FD14398D2380A700E39634FF6DBBA14765
:100AB4006392F9046D398144630D0B008D479304EF
:100AC400C0036308FB009304000563048B019304D3
:100AD40040041375C507E30895D8194539313939E8
:100AE4000545213126850D3909453D314931E31C40
:100AF40005D669BB91476399F90013056006F5367D
:100B0400F53E130590090DB7E38F09D4F154A9BB41
:100B140019CD91CD09CE81473387F500834607006F
:100B24003307F50085072300D700E317F6FE82801C
:100B340019C991C909CA910583A7C5FF11057D1675
:100B4400232EF5FEC5BF828001C919C62A96050564
:100B5400A30FB5FEE31DA6FE828081473307F5008F
:100B64000307070019E33E8582808507C5BF01118D
:100B74002E8626CAAA84131506019305F004418122
:100B840022CC06CE32C6EF1040592A8401C5324623
:100B9400A685BD3F2285F2406244D244056182802D
:100BA400854715C18DC105C28147B306F50033875A
:100BB400F50083C60600034707006398E60085072F
:100BC400E315F6FE85473E8582808147EDBF930796
:100BD400F6FFBE952A966313C5008280FD1583C770
:100BE40015000505A30FF5FEFDB7AA87014581CFC2
:100BF40009CE3E96850703C7F7FF6317B700E39B4B
:100C0400C7FE0545828082800145828079719747BD
:100C14000000938767E122D4804306D626D24AD0C7
:100C24004ECE52CC56CA5AC85EC662C45DCC37C9D1
:100C3400C901814B174A0000130A8AE39744000054
:100C44009384C4DE1309F937974A0000938A8AD83B
:100C5400B709C0A8370B40578357240095E35C4479
:100C6400639D0B00174700002320F7DC032CC4000E
:100C74002285EF10A057628499A823A6FB00FDB734
:100C840083270A008297838664011C4463DB06067B
:100C94003307F5406367E9089747000023A407D4A6
:100CA4008355240003450400975000E0E780009733
:100CB4005C405844A9CF1444B6978386640163C545
:100CC400060063E33701DA971CC4A28B3A8449F423
:100CD40097470000938707D09C4B09476378F70632
:100CE400F91717470000232FF7CEB250225492541D
:100CF4000259F249624AD24A424BB24B224C4561F4
:100D04008280E377F5F83387F9402A9761B76397D0
:100D14000B009747000023A9E7D089BF23A6EB0067
:100D2400B1B7D85009CF63DF06003385A74083A746
:100D34000A016376F5009747000023A5A7CAA28B92
:100D4400404471B7E3F3A7FECE97C5B797470000B9
:100D540023AA07C859BF411122C417440000130431
:100D640064CA1C4006C626C24AC091C782979747E8
:100D7400000023A907C85C4091C382971C4063917B
:100D8400071C9747000083C777E6858B9DC7974765
:100D94000000A38D07E417470000034757E5954774
:100DA40063FDE700EF0010379747000083C737E47F
:100DB400F5178A07A2979C438297174900001309E5
:100DC400A9E68347C900918B99C3EF1060281C449E
:100DD40091C38297974400009384C4C498401746F3
:100DE4000000034636BF9747000083C7A7BE93960B
:100DF4001700BA9683D60600D5CA9747000083C762
:100E040067BD63EFC70A97470000238507BC1C40F2
:100E1400639807129747000083C797DD91CF9747E0
:100E2400000083C7D7DC89EB97470000A38207DC67
:100E340097A001E0E780001D97470000938747C310
:100E44009C43638F070EB707C0A817470000232BE6
:100E5400F7B86D3B97470000938747BDDC53EDC35C
:100E640017470000130707B7184B9747000083C7BD
:100E740037BD6367F70C17470000034757D79547FB
:100E840063E0E70C8347C900918BDDEB9040974604
:100E9400000083C636B463CBD70A2244B2409244DE
:100EA40002494101174300E067006354850793F743
:100EB400F70F97460000238FF6B0E3E6C7F235BF7D
:100EC40086073E97835507002310070097470000C5
:100ED400239807B497470000938787B29C4317452C
:100EE4000000034525AF13172500BA979C4382974A
:100EF4009747000083D7C7B217470000034787AD61
:100F040093C7F7FF7D8D9317170098403E9783573B
:100F140007005D8D2310A7009747000083C787ABA8
:100F240091C78507174700002306F7AA1747000053
:100F3400034747AA9747000083C7D7A9E375F7EC8F
:100F4400B24022449244024941018280139717001F
:100F54003297035707006DF7850735BFAD6737C76D
:100F64000040BD072326F7200F100000974700001C
:100F7400938747A6C84F83278726BD66BD0693C7B8
:100F8400F7FF99836A052326D7205D8D828041115E
:100F9400B7170040985F3AC6945F3247E39CE6FE79
:100FA4003245410182808280032785116300071244
:100FB400411122C406C68347C5008345C5042A845B
:100FC40093F7C70F2306F500834697000356C7001F
:100FD40013958601618563F1C508635A05060345C7
:100FE400870093F6F607A304D700054693E6270087
:100FF4006314C50093E617002306D4005C438907F5
:101004005CC3A30AB400032504112E864C430905CE
:1010140001368327841103465401D44303D7C70000
:10102400B296118FD4C32396E7008947A30DF40029
:10103400034744039747000083C767A06378F70416
:101044008347C40093E707012306F40081A093E7D4
:1010540017002306F40075B79376F60F635D050257
:1010640003458700854513E627006314B50013E69E
:1010740017002306C400A30AD400A304070085476D
:10108400A30DF400832784119C43DDF3B240224472
:1010940001454101828093E717002306F400A30A67
:1010A400D400A3040700032504114C4309058D341F
:1010B4008327841103465401D44303D7C700B2964F
:1010C400118FD4C32396E7008D475DBF0545828009
:1010D400974700009387C7AF9C43411122C406C6BB
:1010E400858B2A84C5EF4165130525F5974001E0FA
:1010F400E780A00445C58347A5002315F500832791
:101104000412BDE72320A4122322A412854723102E
:10111400F404232005008347640154412316F50099
:101124000347D4002304E5000547A304E50017475B
:101134000000130767AB184F1385170215811C4372
:101144007D151375F50F9CC25C43DCC21C479CC61D
:101154005C47DCC61C4B9CCA5C4BDCCA1C4F9CCE57
:101164005C4FDCCE19CD9386060213070702C1BF7C
:101174008327441288C3835704042322A4128507B7
:1011840079B79747000083D767B3850717470000EF
:101194002316F7B2B2402244410182808347C4003F
:1011A40023090400054593C747002306F400DDB76F
:1011B4008347850193F7E70FD5EF83479501DDEB6F
:1011C400034625018346C50009CA834545031747DD
:1011D40000000347D78663E7E50013F7060141CF14
:1011E400014709C6C18A0357651C81C68356A51CDD
:1011F400369751C31307C7121745000003550580DE
:10120400B335A70237460F00411113060624814661
:1012140022C426C206C67D543305A702974002E0C5
:10122400E780E0229747000083C7D781B384A700F3
:1012340097470000938707A803A70709832707098F
:1012440063F387003E84184375FB97470000938738
:1012540027829C43829781476364A400B307A44018
:10126400B2402244B3B7970093C7170092443E8517
:101274004101828081473E858280797126D206D6DB
:1012840022D44AD04ECE52CC56CA5AC85EC68347E0
:10129400350303447513AA843E941374F40F93071F
:1012A400400263F687001304B4FD1374F40F03AA19
:1012B400841383AAC413A38B841222865285D685F1
:1012C400974002E0E7802013058915E503CBD4128B
:1012D40001498149337B6403930B50024A8652854A
:1012E400D685974002E0E7800011058915C5639112
:1012F40069031374F90F238B8412B250225492544D
:101304000259F249624AD24A424BB24B4561828049
:101314008509E20993D989410509E31179FDE1BF02
:10132400832785090356E503797193D60701BD8E9A
:10133400C206C182358E1357764093575640898B27
:10134400058B5D8F93573640918B5D8F9357164075
:10135400A18B5D8F93171600C18B5D8F9317360099
:1013640093F707025D8F931756009355860093F702
:1013740007041E065D8F1376F60F518F93D75540E1
:1013840013D63540118A898BD18F13D67540D18FEE
:1013940013D61540218AD18F13961500418AD18F17
:1013A4001396350013760602D18F139655001376E3
:1013B40006049E05D18F93F5F50FCD8FA207454600
:1013C4005D8F3307C70222D42A8426D252CC56CA50
:1013D400032A8413832AC4135AC806D636974207AD
:1013E400418393577740135557400989858BC98F9B
:1013F400135537401189C98F135517402189C98F57
:10140400131517004189C98F131537001375050289
:10141400C98F1315570093558700137505041E07CC
:10142400C98F1377F70FD98F13D5354013D755408C
:101434001189098B498F13D57540498F13D51540F0
:101444002189498F139515004189498F13953500DA
:1014540013750502498F13955500137505049E05F0
:10146400498F93F5F50F4D8F2207D98FB387C702A4
:101474004AD04ECE5EC662C4B697C207C18313D7A4
:10148400774013D557400989058B498F13D53740C9
:101494001189498F13D517402189498F1395170056
:1014A4004189498F1395370013750502498F1395A8
:1014B400570093D58700137505049E07498F93F74A
:1014C400F70FD98F13D5354013D755401189098BA0
:1014D400498F13D57540498F13D515402189498FFC
:1014E400139515004189498F13953500137505022D
:1014F400498F13955500137505049E05498F93F57F
:10150400F50F4D8F2207D98FB387C70213065002F8
:101514005285D685B697BD8E93940601C18033F665
:10152400C402137BF60F974002E0E780C0EC058904
:101534000DED8347D41201498149B3849702130CFA
:101544005002C1804A865285D685974002E0E780E2
:1015540080EA0589937BF90F11C5638634038509F5
:1015640093F9F90F0509E31F89FD230B6413B250A6
:10157400225492540259F249624AD24A424BB24B23
:10158400224C456182805E8BCDB7011197370000F4
:101594009387477222CC03A4470B26CA06CE2AC4DB
:1015A4002EC6854419E40145F2406244D2440561E3
:1015B40082808347910003471400858B6304F700FE
:1015C4000044CDB719469305A10013052400EFF09C
:1015D4002FDDE31795FE0545C1BF011122CC173459
:1015E40000001304246218402AC62EC432C206CE58
:1015F4003C4B93F7F7F73CCB97A001E0E780409D85
:101604001840973600009386265D3C4B93E7070805
:101614003CCB9C423245A24523A00700034715005A
:1016240003482500220742084297034805004297D1
:10163400034835006208429798D70347550003488A
:101644006500220742084297034845004297034831
:10165400750062084297D8D7034795000348A50050
:101664002207420842970348850042970348B50081
:101674006208429798DB0347D5000348E500220738
:10168400420842970348C5000345F50042976205A6
:101694002A97D8DB03C7150003C525002207420596
:1016A4002A9703C505002A9703C5350062052A97C2
:1016B40098CF03C7550003C56500220742052A9742
:1016C40003C545002A9703C5750062052A97D8CF3C
:1016D40003C7950003C5A500220742052A9703C541
:1016E40085002A9703C5B50062052A9798D303C7D6
:1016F400D50003C5E500220742052A9703C5C500A6
:1017040083C5F5002A97E2052E97D8D3D843759B55
:10171400D8C3D84313671700D8C398431367170077
:1017240098C3124698425C43858BD1E71C4F014510
:101734002300F6009C429C4FA183A300F6009C4228
:101744009C4FC1832301F6009C429C4FE183A3017B
:10175400F6009C42D84F2302E600D84F2183A3020F
:10176400E600D84F41832303E600D84F6183A303E7
:10177400E60098532304E60098532183A304E6006B
:10178400985341832305E60098536183A305E6003B
:10179400D8532306E600D8532183A306E600D85382
:1017A40041832307E600DC53E183A307F600F240FC
:1017B4006244056182800100B5B717370000130742
:1017C400E7411443411122C49C5E4AC006C6998372
:1017D40026C2858B3A84173900001309E93FD1CB1F
:1017E4009C5E973400009384244093F7F7F99CDEC1
:1017F400173700000347A73F93070008631BF70050
:10180400832709009C4393F707041737000023003C
:10181400F73E83C7040093F707049DC3973700007E
:10182400938707259C4382979737000023A6A73CFC
:1018340083C7040093F7F70B173700002306F73A22
:1018440083C7440093F707048DE7854717370000E3
:10185400A30EF738973700009387C73A9C4309676C
:1018640098C7130700FC973600002381E638D84454
:10187400F8D31C40985F1183058B09CB985F3D9B7F
:1018840098DF0547973600002382E636985F1D836C
:10189400058B11CB985F1377F7F798DF85471737D8
:1018A40000002305F73483270900D8430583058BFB
:1018B40019C7D843759BD8C3D843799BD8C3B240C2
:1018C40022449244024941018280397106DE16DCC9
:1018D4001ADA1ED82AD62ED432D236D03ACE3ECCFC
:1018E40042CA46C872C676C47AC27EC0F935F2507E
:1018F400E2525253C2533255A2551256825672477F
:10190400E2475248C248324EA24E124F824F2161E2
:1019140073002030973700009387C72E944397377E
:1019240000009387672C03C70700058B11CB9737FB
:101934000000238D072A97370000A389072A828095
:1019440003C71700058B65F7F85271FF83C757006B
:10195400DDB71738000013086828032708001C5F48
:101964009583858BD1E709C61C5BBD832300F600F4
:1019740085CA83270800985B460793576701635617
:10198400070093E707C0C207C18303970600C20795
:10199400C18709C7BA970947B3C7E7022390F6007E
:1019A40085CD834715008DCB9736000083C626244A
:1019B40093F606041387970089478DCA3A9503471F
:1019C4000500854699471376F7066311D602620728
:1019D4006187B947634C0700832708009C5FED8348
:1019E4008D8B17370000A306F72081473E85828040
:1019F4008547EDBF411122C406C617340000130405
:101A04006420184049E9AE877453FDFE3E85B285D3
:101A140097370000238B071C979001E0E780403143
:101A2400973700009387871B9C43B7068000984331
:101A3400558F98C3D857719BD8D797370000A38781
:101A4400071A97370000A381071A1C40094798C357
:101A5400B7F700E003A707D16D9B23A8E7D003A73E
:101A640007D15D9B23A8E7D07300501014401737AB
:101A740000001307671783472700858B89EB83478B
:101A84003700858BD9C79737000023810716B240EA
:101A94002244410182808D476310F502973700008C
:101AA4009387C7139C43B70680009843558F98C308
:101AB400D857719BD8D75DBF8547E319F5FAB56749
:101AC400BD075CC70F1000001C400967094698C792
:101AD400130700F897360000238AE6101737000032
:101AE4001307C70F1443984231830D8B6319C70042
:101AF4001307E043F8D33D673D07D8C785BF984235
:101B040031830D8B01E713076019EDB71307E01B51
:101B1400D5B7FC52ADF3A5BF5D7152DC173A000096
:101B2400130ACA0B03270A0086C6A2C4A6C2CAC0E7
:101B34004EDE1C4397390000938989111739000040
:101B44001309490C93F7F7E793E707081CC383A627
:101B540009003707CEFF7D179C46130680022A84AE
:101B6400F98F9CC683270900130700082800B8CB07
:101B7400AE8493051008EFE03FFD979001E0E78005
:101B84002045979001E0E780205283270A0093764E
:101B9400F41F370FFCFF23A40700984B4E88CA8814
:101BA4001367F70398CBF84F130510F8D285137712
:101BB40007E0558FF8CF9843F576FD16758F98C3D7
:101BC4009843B7063300B70204001377F7E798C3C6
:101BD40098439303401F7D1F1377F7E7136707109C
:101BE40098C303A70900930F800285491C47D58F2A
:101BF4001CC7832709001307900D3400B8CB114983
:101C04000147135337002693834703001376770065
:101C1400B3D7C740858BDDCF9C41832E0800239C1E
:101C240007042390070603AECE02137EDEFF23A62D
:101C3400CE0383AE0700137EF70793FE0EF833EE50
:101C4400CE0123A0C70103AE4702336E5E0023A278
:101C5400C70383AE0800014E23A27E0603DA0706FB
:101C640063074E0303AE0703038A0600135EFE00F8
:101C7400620E135E8E416358CA0103AE0703135EFE
:101C8400FE002380C60103DE0706137EFE0F03AAAF
:101C94004E0663060A0003DA8705E37F49FB03AEB9
:101CA4004702337EEE0123A2C70383870600635CE9
:101CB400F400034E03003396C9001346F6FF33764F
:101CC400C6012300C3003E8663D3A7002A861315EA
:101CD4008601618505071377F70F8506E313F7F38C
:101CE400B640264496440649F259625A616182809C
:101CF40097360000938606F19C42D84713161701C5
:101D040063550602984713161701635006027D5760
:101D1400B8D7173700001307E7CB584F0507173616
:101D240000002327E6CC116798C798470D83058BDD
:101D34001DC317370000034747EB13671700173617
:101D440000002304E6EA130700F817360000230F07
:101D5400E6E8214798C79847058B09CF1737000055
:101D6400034797E81367170017360000A30EE6E64B
:101D7400054798C798470983058B09E79847058362
:101D8400058B31CF9847173600001306E6E5173563
:101D940000001305A5E40983058B630307101841AC
:101DA400184331830D8B75EBAC4B184E93F505023C
:101DB40003471700CDCD79EF13077006D8CF03473B
:101DC40006001367170017360000230FE6E01147DB
:101DD40098C718415C57F19B93E717005CD79C4266
:101DE40098479316370163D606029736000083C6D8
:101DF400A6F3C18A173700001307C7EBC5CE034704
:101E040047071367070297360000238FE6F005673C
:101E140098C798479316270163D106021737000025
:101E24000347C7DC62076187635707000547973696
:101E34000000238DE6DA096798C7984793160701CF
:101E440063D606029736000083C616EE858A1737D6
:101E54000000130727E6ADCE034757071367270093
:101E640097360000A382E6EC216798C7828029D7C1
:101E740085456315B7001307B00689B7894563150F
:101E8400B7001307F0061DBF8D456315B700130790
:101E940030072DB71307500715B71307600739BF6D
:101EA400034736001367170017360000A30FE6D266
:101EB400094739BF834647070946BD8A6388C60078
:101EC400034747078D463D8BE313D7F4114725BFDE
:101ED40083465707918AC9DA034757071367870070
:101EE40041B7397106DE16DC1ADA1ED82AD62ED48A
:101EF40032D236D03ACE3ECC42CA46C872C676C436
:101F04007AC27EC0F533F250E2525253C253325574
:101F1400A255125682567247E2475248C248324E80
:101F2400A24E124F824F21617300203017370000F8
:101F3400130787CD8346B7019737000083C797CF30
:101F44004C4BB697FD8B33D7F50097360000A38D25
:101F5400F6CA97360000A38FF6CC058B15EF17371A
:101F64000000034777CDB3F7E70281460147130525
:101F7400000233D6E500058A1378F70F19CA639770
:101F8400D70097370000A38107C98280850693F69E
:101F9400F60F0507E31FA7FC82809737000093879D
:101FA40027AD9C43011122CC4EC606CE26CA4AC890
:101FB40052C456C28297973700009387E7C680477A
:101FC40081496305A406BE8497370000938707A65A
:101FD400038767013E8963550706018D1354550035
:101FE4009737000083C7E7C39379F501636DF40263
:101FF400370AC0A8B70A4057153F9C4497360000DB
:1020040083C626C2139756003E9783076901158C31
:1020140063C507006363470156979737000023A9F8
:10202400E7C0E37BD4FC1604B3693401F240624494
:102034004E85D2444249B249224A924A056182807D
:10204400E37D85F8B707C0A833848740229579B724
:10205400973700009387C7A19C43411122C406C649
:1020640026C2829797370000938707BC804763098D
:10207400A406BE84973700009387479B8387670134
:1020840063D80704018D135455009737000083C7A4
:1020940047B96367F404593D98449737000083C7F0
:1020A40047B89396570036971D8C9736000023A1A6
:1020B400E6B8E372F4FE2244B240924417350000BD
:1020C400034595B481454101179301E06700E3445A
:1020D400E37A85FAB707C0A833848740229565B7A9
:1020E400B240224492444101828097370000938792
:1020F40027B69843B75702009387079F832607099B
:102104001396560063580600832607091396660043
:1021140063440600FD17FDF3828071C5AA8701455B
:10212400E9C58D07C207C183F19BC207C1831307A9
:102134004003636FF70217370000130767B70843BC
:1021440017370000130747B614436398A6021737DE
:1021540000001307A78D185B014541CB4111C2074D
:1021640006C60545DD8D0297B240014541018280D6
:1021740017370000130787B3D9B70357650035E352
:1021840003574500636FF704B306F7402146637CA9
:10219400D60203280500938687001D8FAA9661172F
:1021A40017360000035666832392E60023A0060137
:1021B4002393060014C12312F500130786FF9736F4
:1021C4000000239CE6802313B5009735000083D5D7
:1021D400C580B387F540173700002310F780210529
:1021E400828008419DB70145828082800DC1973766
:1021F40000009387E7AB03A307009737000093879A
:10220400A7AA83A8070081469A8763E317018280FF
:1022140003A80700636DF50A636BA80A1387870098
:10222400E367E5FE03D66700216705076317E60049
:1022340003C781B10507238CE1B09725000093857E
:10224400657903D6470003D76500239307003297C7
:1022540042074183172500002311E578638A67024A
:1022640017350000130585A408416303F50203D55F
:10227400660019ED83D7460023A0060121073E9688
:1022840021062392C600972700002398E774B68797
:102294009843E30E17F797360000938626A19442DD
:1022A400E307D7F683566700BDF283D6470003568B
:1022B40047001843A106B2962392D70098C383D748
:1022C4006500A107172700002319F7708280BE86D6
:1022D400C28725BF0111973700009387A79D22CCA1
:1022E40003A4C70B26CA4AC84EC606CEAA8413093D
:1022F4002500854915C083C7140003473400858B26
:102304006304F700405CFDB71946930544004A8511
:10231400EFE01F89E31835FF2285F2406244D2447E
:102324004249B24905618280411197370000938781
:10233400679822C403A4C70B26C24AC006C69304E6
:102344002500054901E82285B2402244924402490D
:1023540041018280A6851305A402973002E0E7803C
:10236400C0BEE30225FF405CF1BF41119737000076
:102374009387479422C403A4C70B26C24AC006C647
:1023840093042500054901E82285B2402244924481
:10239400024941018280A6851305A401973002E019
:0C23A400E780A0BAE30225FF405CF1BF17
:1023B00097110020938181CB17610020130181C404
:1023C0001305400097E5FF1F9385C5C3170600203E
:1023D000130606FE63FAC5008322050023A05500FC
:1023E00011059105E3EAC5FE175502001305C576F0
:1023F000970500209385C5FB1386018B63FAC50002
:102400008322050023A0550011059105E3EAC5FECE
:10241000138501A3973500209385C59B6377B5008D
:10242000232005001105E36DB5FEFD42739002BC4B
:102430008D42739042809302800873A0023097E22D
:10244000FF1F938222BC93E2320073905230973286
:102450000000938242BB73901234730020303D43DE
:102460002A876373C3029377F700BDEFADE59376D8
:1024700006FF3D8ABA960CC34CC30CC74CC7410734
:10248000E36BD7FE11E28280B306C3408A0697024F
:10249000000096966780A6002307B700A306B70042
:1024A0002306B700A305B7002305B700A304B700B0
:1024B0002304B700A303B7002303B700A302B700A8
:1024C0002302B700A301B7002301B700A300B700A0
:1024D0002300B700828093F5F50F93968500D58D84
:1024E00093960501D58D61B793962700970200005A
:1024F00096968682E78086FA9680C1171D8F3E9653
:10250000E374C3F8A5B7B717004003C7770513777F
:10251000E70FA38BE704130700F8A38DE7043D47FB
:10252000238CE70413075003A38CE7048280411136
:10253000B7170040985F3AC6945F3247E39CE6FEC7
:102540003245410182801D71D2C45EDE86CEA2CCAE
:10255000A6CACAC8CEC6D6C2DAC062DC66DA6AD8F3
:102560006ED6AA8B8D23B717004093067005238083
:10257000D704130780FA2A8A2380E70401000100A8
:1025800003C6F70213668600A387C70203C6F702D5
:102590001376760FA387C7022380D7042380E7042E
:1025A0000100010003C6E7021376C60F2387C702A6
:1025B00003C6E702136616002387C7022380D704E9
:1025C0002380E704010001001309803E33492503FD
:1025D000930A007D930480C103C737059309500215
:1025E000130BA0041377870FA389E70403C73705EC
:1025F00037140040116C13671700A389E704A16723
:10260000930D0404130D80FAE17C7D1CB30A590379
:10261000B344950233C7FA02916AB38434033AC6CD
:10262000B309390333C7F40293047005B3C7F90241
:102630003AC88149330B69033ECABD67938707A631
:10264000B347FB02094B3ECC930770052380FD0086
:102650002380AD01010001008347340593E70702A1
:10266000A309F40483570405B3E757012318F404BE
:1026700083570405B3E79701C207C1832318F40405
:102680008347340593F70702E5C3034734059307EF
:102690003405218B7DDB23809D002380AD0101006B
:1026A000010003C707001377F70D2380E70003C776
:1026B0000700136707022380E70083570405B3E789
:1026C00057012318F40483570405B3E79701C207A1
:1026D000C1832318F4048347340593F70702D5C355
:1026E00083473405A18BEDFF9935AA873ECE81350E
:1026F000F247E30DF5FE83570405B3E757012318AE
:10270000F40483473405A18BEDDF035704058347A9
:1027100024053377EC00B307FC023E97B2471D8FC8
:10272000C24763D5E700D247634AF706636A3B07AF
:102730009386190093F9F60FE24693171700B3C773
:10274000D7026355E028850723809D002380AD01D3
:10275000B3C76703010001000357C402BA97C20759
:10276000C1832316F402CDB523809D002380AD01E3
:10277000010001008347340593E70702A309F4042D
:1027800001B723809D002380AD0101000100834734
:10279000340593E70702A309F40435BFE38A09F877
:1027A000B7170040130770052380E704130780FA6A
:1027B0002380E7040100010003C7370513F6FB0F70
:1027C000930570051377870FA389E70403C73705BF
:1027D000130580FA518FA389E70483C63705138751
:1027E00037059D8A6396761F930670052380D7046C
:1027F000930680FA2380D704010001008346070076
:10280000130680FA93F6F60D2300D70083460700DF
:1028100093E606022300D70003D707059166558F7C
:102820002398E70403D70705A166558F2398E7048B
:1028300093067005B717004003C7370513770702E3
:102840006304071AB717004083C637051387370597
:10285000A18AFDDA930670052380D704930680FAD7
:102860002380D7040100010083460700130680FA85
:1028700093F6F60D2300D7008346070093E6060281
:102880002300D70003D707059166558F2398E704E7
:1028900003D70705A166558F2398E70493067005B3
:1028A000B717004003C7370513770702630B0714F8
:1028B0003717004083473705A18BEDFF8D392A84F8
:1028C000BD31E30F85FE371700408357070591663A
:1028D000D58F2318F704B717004003C73705938631
:1028E0003705218B7DDB130770052380E704130771
:1028F00080FA2380E7040100010003C70600137774
:10290000F70D2380E60083D6070503C727059167E7
:10291000FD17FD8EB387E70237470F001307072423
:10292000334AEA02BE968567938707FAB397770121
:1029300013070008B3874703130A0010B3C7470300
:10294000130A803EB3874703B3C7E7020547B31BAB
:10295000770193DB3B403D67130707A633892B03C1
:10296000930B60559D8E9307800C3309790333498F
:10297000E902B387F602B3C727036351D00A85077C
:10298000094793067005B3C7E702371700402300D5
:10299000D704930680FA2300D704960701000100AC
:1029A0008356C702F6406644B697C207C183231612
:1029B000F702D6444649B649264A964A064BF25B88
:1029C000625CD25C425DB25D25618280FD17ADBB69
:1029D0002380B7042380A7040100010003C7370543
:1029E000518FA389E704D5BB2380D7042380C70474
:1029F0000100010003C7370513670702A389E70435
:102A000025BD2380D7042380C7040100010003C72C
:102A1000370513670702A389E70469B5FD178DB76A
:102A2000914763EEB702174702001307A71E8A05F6
:102A3000BA959C41BA978287B717004003A7470B06
:102A40001345F5FF698F23AAE70A03A7070B698FD0
:102A500023A8E70A03A7070A798D23A0A70A828083
:102A6000B717004083A6470B1347F5FFF98E23AA3B
:102A7000D70A83A6070B558D23A8A70A83A6070AA2
:102A8000758F23A0E70A8280B717004003A7470B82
:102A9000498F23AAE70A03A7070B1345F5FF45BF94
:102AA000B717004083A6470B1347F5FF758F23AA7E
:102AB000E70A03A7070A598D4DB7B717004003A7C8
:102AC000470B498FEDB7B717004003D58700420584
:102AD00041819377050491EB9377F5013755E80130
:102AE000130505803345F50282809377050C1307A3
:102AF00000046397E7009377F50137459C1CCDB739
:102B00002165130505D08280B7F700E08847CC47E0
:102B10008280814737370040A14663C4C7003285B1
:102B200082800345B740E38EA6FE3385F50003455A
:102B3000050085072304A740CDB7B7270040C8C7C5
:102B400009472380E70011472380E7008280411175
:102B500022C406C62A84853F2947B307E502B2404E
:102B60008D83B3D7870222449507B3D7E70237375F
:102B70000040C207C1832316F7404101828071657E
:102B800041111305052006C6D937B7370040130792
:102B900070F82381E7400D47A381E7401307000445
:102BA000A380E74005472387E740B2404101828088
:102BB0009387C1A39C43411106C691C38297938713
:102BC00001A49C4391C3829717070020035727CA8B
:102BD0009307C01263F7E70403D541809306B01250
:102BE00063E4A604938681A303A30600630703009E
:102BF000B2401305C012410102830507098F3385D6
:102C0000A740E5473305F50242074183098393074F
:102C1000F7FF3E953345E5021375F50FB2404101CC
:102C2000828013054006DDBF0145CDBF03A84500E6
:102C3000411126C206C622C4834718000348080073
:102C4000A944A207B3E70701C2070D68C1871308AB
:102C500028906396070385473284EF804029AA8431
:102C600019ED938741A39C4399CB03451400034777
:102C700004002205598D1335150005058297B240D1
:102C8000224426859244410182802D452DEFD84172
:102C9000411122C426C206C6834717000347070016
:102CA000B684A207D98F0D67930697A13284639CDF
:102CB000D702FD3D9707002083C747BB6376F50029
:102CC000970700202384A7BA85472390F40097072D
:102CD000002083C7A7B92300F4000145B240224475
:102CE000924441018280130787902945E398E7FECB
:102CF000CC4589472390F4000946228597E0FF1FC1
:102D0000E78040E1D9BF828083474500858BBDC7FE
:102D1000011122CC2A84035525009385C1B806CE23
:102D2000EF80A017058939C5035524000147814666
:102D30000546ED45EF70D0502AC60DCD97F7FF1F21
:102D40009387076783D7A70201462C002314F1005D
:102D500085472315F1009707002083C727B123007B
:102D6000F50003552400EF80307009C5ED452800BB
:102D7000EF70D064F24062440561828082804165D8
:102D800041119385C1B87D1506C6EF90305FB24002
:102D900097F6FF1F9386C6664146954517F5FF1FB8
:102DA0001305056141016F90905223AAA1A2828070
:102DB000411122C406C6854709446313F5028347BF
:102DC000060001442388F1A217070020034707AA41
:102DD0006378F70017050000130545F3EFC0E01610
:102DE0002285B24022444101828085476303F50277
:102DF00009C909476304E5020D476308E50209456F
:102E000082809707002083C767A62380F5000145CD
:102E10008280938701A383C70700C5BF97F7FF1F71
:102E200083D7A7592390F500DDB713878180035717
:102E300007002392E50017F7FF1F13076757835614
:102E4000A7020357A7032383F5002390D5002391FE
:102E5000E50075BF411106C6A13B9707002083C757
:102E6000E7A0637CF500970700202381A7A0170542
:102E700000001305A5E9EFC0400DB2400145410136
:102E8000828041677917630CE502411122C406C6AE
:102E900085472A84639AF50022852244B2409385AF
:102EA000C1B841016F90904D89476396F500854503
:102EB000EFC0200475D1B24022444101828082805B
:102EC000CC41411106C6328503C6150083C50500F5
:102ED00022064D8E42068D654186138875A2630CCD
:102EE000060F6348C804138845A26306060B634AAD
:102EF000C800938535A26309B606239006002946CB
:102F000079A0138855A26308060B938565A2E31682
:102F1000B6FEC1451D4663ECE5064546198E63F3D2
:102F2000C7003E862390C600974502009385C5D012
:102F300089A8138895A26300060F634E060B1388B9
:102F4000A5A2630A060F938505A5E318B6FA99456D
:102F50001D4663EEE502198E63F3C7003E8623909B
:102F6000C6009385018131A89D451D4663E1E502B8
:102F70002146198E63F3C7003E862390C6009385D1
:102F800041A4BA9597E0FF1FE780C0B80146B24060
:102F9000328541018280AD451D46E3EAE5FE3146BA
:102FA000198E63F3C7003E862390C6009745020042
:102FB000938545CCF9B7B1451D46E3EAE5FC3546B6
:102FC000198E63F3C7003E862390C6009745020022
:102FD000938545CB7DB7C1451D46E3EAE5FA4546F5
:102FE000198E63F3C7003E862390C6009745020002
:102FF0009385C5C579B7C1451D46E3EAE5F8454661
:10300000198E63F3C7003E862390C60097450200E1
:10301000938545C8BDB7C1451D46E3EAE5F645467B
:10302000198E63F3C7003E862390C60097450200C1
:10303000938505C3B9B7B5451D46E3EAE5F43946BE
:10304000198E63F3C7003E862390C60097450200A1
:10305000938585BD3DB797F6FF1F9386264E414663
:10306000CD4517F5FF1F1305653A6F9050268280F6
:10307000938701A69C4303C741A583C6F18101E75D
:1030800081473E85828003D607006316A60003C6EB
:103090006700E308D6FE7D171377F70FA107C5B7C2
:1030A000B2862E86AA8517450200130565C36F20D8
:1030B000A27E0111930500030D4506CEEF40F015E9
:1030C000930500051145EF4050159305C0030545D4
:1030D000EF40B01485471306F100854513055030C5
:1030E000A307F100EFD0714CF24005618280854763
:1030F000631AF5001166130686A9894503C551A513
:103100006F20A06389476317F500894503C551A562
:103110006F209003828085476398F50019E223872A
:10312000B1A42382C1A6828009476399E50019E60C
:103130002387F1A403D5C1A46F00A07B828093876D
:1031400081A59C43011122CC06CE2E8481CB9C47C5
:1031500091C78297F2406244056182806C0013053A
:103160007040EFC08126324681452285EFC041681C
:10317000D5B701119397050126CA06CE22CC4AC8BD
:103180004EC652C4C187AE8463D7070803C551A594
:10319000EF2020002A8439C9034705009307000D5A
:1031A0006313F704834725004547638BE7046547AE
:1031B000639BE70217450200130505AFEF20C26DC0
:1031C000130954009309B400174A0200130A0AAF06
:1031D0008345090052850509EF20026CE39A29FF17
:1031E0002945EF20626F2285EF1090732165258DB0
:1031F000F2406244D2444249B249224A0561828087
:10320000034665008345750017450200130585AB2D
:10321000EF208268C9BF93F7150085C317F6FF1F1B
:103220001306463397F5FF1F9385053203C551A555
:10323000EFD0310613C5140065BF93F72500014593
:10324000C5DB09391166130686A9894503C551A551
:10325000EF20A04E13C5240061BF797126D24ECE57
:1032600006D622D44AD052CC9147AA84AE896314A0
:10327000F50483D7A5001306E100854513055030FA
:103280002396F1A423070100238701A4EFD0F13195
:10329000938781A59C4391C7DC4781C7CE8526854E
:1032A0008297B250225423A891A402599254F24911
:1032B000624A45618280138701A51843E31AF7FC2F
:1032C000854503D5C1A4753E854503D5C1A44125D7
:1032D000C16703DAC1A4F917631BFA020544930519
:1032E000E10013055041238701A4A38F81802307A8
:1032F0000100EFC0810D8347E100B1E303C741A6A0
:103300009147E317F7F87533238201A651B79387E6
:1033100001A603A9070003C441A569D003552900EC
:1033200011C99305E100EF80A01C09C54C455285E9
:10333000EF90D0047D141374F40F2109F9BF938723
:10334000C1A59C4383C74700898BCDDB9305000A49
:103350000D45EF40806C9305000A1145EF40E06B8E
:1033600081450545EF40606B1306E1008545130577
:10337000503023078100EFD0512349B701111705C1
:103380000000130545DF06CE22CCEF209003138406
:1033900051A585471306F10085452300A4001305B8
:1033A0004041A307F100EFC0216C7D55EF708031E3
:1033B0007D55EF9080794531D932192317050000EA
:1033C000130525D3DD3217050000130585CA392BF7
:1033D000034504008545EF202024F2406244056146
:1033E000828023ACB1A423AEA1A4828023A0B1A685
:1033F000238AA1A48280938701A59C43797106D674
:1034000022D426D24AD04ECE52CC1147639BE70439
:1034100083C7E1A4414481CF938701A68043B2844E
:10342000B68983C741A503C7F18199EB554422852D
:10343000B250225492540259F249624A4561828044
:1034400083464400639AA600834654006396B60000
:10345000834664006380E606FD1793F7F70F2104A7
:10346000E9B709474144E384E7FC2C0013055041C8
:1034700023040100EFB07175834781008DCB930564
:1034800000020D45EF406059930500031145EF40E0
:10349000C05895450545EF40405885473000854563
:1034A000130550302304F100EFD0311049B711312A
:1034B0004144B5BF0355240093056100EF804003EC
:1034C00035D54C4503D5C1A4EF70301D058939DDD4
:1034D0001399040113590901014781464A86ED45B4
:1034E00003D5C1A4035A0400EF7080552AC64D4489
:1034F0001DDD2686CE85231441012315210197D099
:10350000FF1FE780206101462C0003D5C1A4EF8096
:10351000A0752A84E30D05F0ED452800EF70006AE0
:1035200039B7C841011122CC06CE328403461500BA
:10353000034505002206498E19CB0D681308B8A46F
:103540002D4563090607F2406244056182800D65DE
:103550001308D5A463000603130825A2630C060113
:1035600075781308E85C32984208135808018548BA
:1035700063EE080303D5A50036C632C4D53CB24677
:1035800015C1938781A59C4322468345550003A31B
:103590000700A2876244F24003454500368785460E
:1035A0000561028323900600014571BF1308B5A48D
:1035B0006317060303D641821D45E376C7F8198ECB
:1035C00063D3C7003E86CC452390C60042064182A5
:1035D000BA95228597D0FF1FE780C053F1B79307B4
:1035E000A5A46318F60091472390F6001146CC4538
:1035F000CDB7930785906317F60089472390F600AF
:103600000946F5B79307E5A4631AF600DC45239055
:10361000160183C707002300F40079B713057590DE
:10362000E314A6F8D9BF011122CC06CE26CA4AC897
:103630002317D1002D4429EBDC412E89B28403C429
:10364000170083C7070022045D8C8D679386D7A47B
:103650006306D400938627A3631FD4020355A900F1
:10366000013C19E101440DA0938781A59C4383454A
:1036700055000345450003A807002286A6871307C7
:10368000E100814602982A842285F2406244D244B5
:103690004249056182809386C7A46314D40283578C
:1036A000E10005473544E391E7FE034506001304B6
:1036B0000008E3EBA7FC938781A59C43DC4382973A
:1036C00055B793862790631AD4028356E100854745
:1036D000EF70F0012A844DF9938701A68356A90063
:1036E0009C4303C741A53DDF03D627006302D604F0
:1036F0007D171377F70FA107FDB79387E7A4E313AF
:10370000F4F68357E10005473544E39FE7F60345A8
:10371000060013040008E3E9A7F6DC452380A700B0
:10372000938781A59C433335A0000905DC4341BF45
:10373000138781A5184303C5470083C5570083C776
:1037400014000328070003C70400A2078946D98F85
:10375000C207C18705476383E7008D460D66A687CC
:103760001307E10013062690029839BF4165411105
:103770009385C1B97D1506C622C426C24AC097F4F6
:10378000FF1F9384E4DDEF90603F97F6FF1F938661
:1037900026EF4146C9452685EF906033CC4C2A89F7
:1037A0000945EFF08FE49387C18283D70700138424
:1037B000C1BA138781822312F40083D7A40C035764
:1037C00007009385C1BB2310F40083D7A40D2316F3
:1037D000E40003D7A4102311F4000D45854723030B
:1037E000F4002314E4002307F40023150400EFF091
:1037F000CFDFA2850D45DD3EB24022444A8592448A
:103800000249410182808D679387D7A40145631FD8
:10381000F6008D472945639BF5008547354563973D
:10382000F6008347070001452383F1A682808D6758
:103830009387D7A4631EF6008D47639BF50083C76B
:1038400061A62300F70085472390F600014582809A
:1038500023900600E5BF0145828025E303A84500CB
:10386000AE888347180003480800A207B3E70701A2
:103870000D68930EF8A4639AD70391473548639F68
:10388000F60203A5C8004111B285114606C697D0BD
:10389000FF1FE7802028938741A79C430545829717
:1038A000B24001484285410182809308289029480E
:1038B0006396170185476F7080632D48428582802B
:1038C00041654111938541BC7D1506C6EF90002BE3
:1038D000B24097F6FF1F938666E14146994517F57A
:1038E000FF1F1305A5DA41016F90601E23AAA1A650
:1038F00082800111938541BC22CC06CE2A84EF70D0
:10390000C059058929C1014781460546ED452285F3
:10391000EF7000132AC605C997F7FF1F938707D7D3
:1039200083D7A70501462C002314F10085472315F2
:10393000F100230005002285EF80003309C5ED4525
:103940002800EF70A027F240624405618280416741
:103950007917630CE502411122C406C685472A8403
:10396000639AF50022852244B240938541BC41010F
:103970006F90C02089476396F5008545EFB060578A
:1039800075D1B240224441018280828011456FE0AE
:103990009FBB011122CC06CE3714004026CA4AC86C
:1039A0004EC652C483447405034AB4058349840552
:1039B00003499405EFE03FB58347A40593F4F40F62
:1039C000137AFA0F93E71700230DF40493F9F90F14
:1039D0001379F90FB717004003C7A705058B6DFFD3
:1039E00003D5C705A38D4705238C3705A38C270571
:1039F000A38B9704F2406244D2444249B249224A1E
:103A00000561828041119397050122C406C6C187D2
:103A10002E8463DD0700EF10C07719C1EF104070EE
:103A20002165218DB2402244410182809397250176
:103A300063D00702EF701113913F37F602001306AF
:103A400006E0896503C50183EF10304F0965D1BFDA
:103A500093F745000145F9D713060064914503C566
:103A60000183EF10904D134544006DBF1D71494611
:103A7000973502009385052C17450200130585B77D
:103A800086CE97D0FF1FE780E01101E917350200CD
:103A90001305852BEF10927401A0B7F600E079575B
:103AA00098CAFD57DCCA0567B7E700E023A0E71016
:103AB0001306F00290C223A0E718010001001306CC
:103AC000C0038145480897D0FF1FE780200897F77B
:103AD000FF1F9387A7673ECA896793870780231CC8
:103AE000F100ED472312F1029547A301F10285474A
:103AF0002303F102B5472304F1028567938727D09A
:103B00002315F10297F7FFFF938747003EDAB7F5D9
:103B1000070097070000938707E83EDE8146970776
:103B200000009387E7E67000E1051945BEC097D015
:103B3000FF1FE78080C758088147994670003E966E
:103B40000346060085070507A30CC700E398D7FEC8
:103B5000D24791C70357810185676373F70001A0BE
:103B60004808EF20C009AA8501C9173502001305CE
:103B7000E51EEF10725201A0F640256182804111CE
:103B800017050000130545E806C622C4EF206003B0
:103B9000138401832300A4003128C12203450400BB
:103BA0002244B24037F60200130606E0896541015F
:103BB0006F10B038411106C6B717004013077005E3
:103BC0002380E704130780FA2380E70403C7F70282
:103BD0001377A70FA387E70203C7F702136727002E
:103BE000A387E7026533B240014541016F2060348D
:103BF00082808280011106CE231601002307010076
:103C000083C7018B930610066395D70683C7218B64
:103C10009306C0061387018B639DD7028347470035
:103C20000D47938707FD93F7F70F636AF7002306A5
:103C3000F1000D466C0013051008EF104014130638
:103C400000049385018B1145EF10001FF2400561C0
:103C5000828093062007E394D7FE834747000D47F1
:103C6000938707FD93F7F70FE36BF7FCA306F100CB
:103C7000C9B713072006E394E7FC83C7218B93871A
:103C800007FD93F6F70F1547E36BD7FA0547B31710
:103C9000F7002307F10071BF411122C41384018F83
:103CA00022859305000206C6EF10003BA28513068D
:103CB000000213052008EF10800CA2852244B240B8
:103CC00013060002094541016F10001793F7F50331
:103CD00081EB99C501468145130540086F10200A04
:103CE000238E01A6828093F7150091CBB7E700E001
:103CF0003707400023A0E71013C515008280939773
:103D00003501014563D30702411122C41306003275
:103D10002E8403C54186856506C6EF101022056511
:103D2000218DB240224441018280828082804111F3
:103D3000130600029385018F094506C6EF10C00FD8
:103D4000B240130600049385018B114541016F10A9
:103D5000A00E82808280828082804111170500003F
:103D60001305A5F806C6EF10D0652382A1863D6530
:103D7000130505A6EFE07FDC3727004083472700C7
:103D800017350200130585FF93E717002301F7009D
:103D9000B7E700E0416723A0E71051472388E740D9
:103DA000EF00D0451306E002973502009385050A1F
:103DB000138541BDEF00B04DEF009047138541845E
:103DC000EF0030491385C184EF00B048130620028C
:103DD000973502009385850A138541BFEF00304B6C
:103DE000EF00104513854185EF00B0461385C1856E
:103DF000EF003046138541C1EF00905AEF00504369
:103E0000138541C3EF00D059EF00904213854183E1
:103E1000EF0030441385C183EF00B043EF0010473B
:103E2000EF00704675DDB24041018280B7E700E0E7
:103E30003707400023A0E71059472388E70417C736
:103E4000FF1F1307E75113671700B8D382808280E2
:103E50003D897D15954763EAA70E173702001307C2
:103E600027040A053A951C41011106CEBA978287AC
:103E70002C0013054030EFC011602C000545EF50B9
:103E8000D0461735020013052506EF10323511A86C
:103E900003C725008D47173502001305E505E30626
:103EA000F7FEF2400561828003C725009547E31ABB
:103EB000F7FE83D7A5000D6613060620914503C5BE
:103EC000A187239CF186EF105007173502001305D8
:103ED000A50365BF03C725008D47E314F7FC17351D
:103EE00002001305250355B783C725001147173571
:103EF00002001305A503638EE70219476394E702E6
:103F000083C565001735020013050504EF10D218AC
:103F1000854730008545130550302304F100EFC07C
:103F2000D16841B71547E395E7FE17350200130541
:103F30006503EF10B22AE9BF83C5250017350200DB
:103F40001305C503EF105215A9BF82803A883E873A
:103F500089E6834608006FF01F8B85476395F6005E
:103F6000C2866FF0DF8C8947639FF600411113060C
:103F7000401F894503C5A18706C6EF10007CB240EB
:103F8000014541018280014582800111939705011D
:103F900022CC06CEC1872E8463DF070003C5A1872C
:103FA000EF10201F19C1EF10A0172165218DF240DD
:103FB00062440561828093F7150013C51500E5FB87
:103FC00093F7450099CF83C7A1871307401F814608
:103FD0002146A14503D58187EFC011251345440033
:103FE000F9B793F785009DC3014789460946814586
:103FF00003D58187EFD0410CAA8517350200130540
:10400000A5EBEF1072091345840055B793F725000F
:104010000145D1DFB70702009387072074001146DE
:1040200085453EC6EFF02FBD13060032894503C516
:10403000A187EF1080701345240095BF011117056B
:1040400000001305C5F406CE22CC26CAEF10703747
:104050009384A18705442380A4007000854513053F
:10406000503023068100EFC05154138681869D4550
:1040700013056030EFC0715317E6FF1F1306C668C3
:10408000E94513057030EFC0515217360200130690
:1040900026E4D5450145EF60C0548D477000914539
:1040A000130570402305F10023048100A30581005E
:1040B00002C6A3040100EFB0311B30008545130593
:1040C0000040EFB0711A13069100854513051040AA
:1040D000EFB091191306A100854513052040EFB0FC
:1040E000B1181306B100854513055040EFB0D11744
:1040F00099477000854505452306F100EFE05FCB49
:10410000EFF0CFE697E5FF1F9385055F13850187E5
:10411000EFF02FAD03C504008545EF10E04FF240EE
:104120006244D244056182804111938701A922C46F
:10413000804326C24AC006C6AA842E8919E4B2402A
:10414000224492440249410182801C4881C7CA85A9
:10415000268582970040DDB7011106CE83472500F2
:104160002304F1008347550003474500A207D98F78
:1041700093F7F77F2315F1008347350017350200C9
:10418000130505EB8D8BA304F100EF10E27083564D
:10419000A1000346910083458100173502001305F5
:1041A00025EAEF10626F173502001305A5EBEF103B
:1041B000A26E2800EF005031F24013351500056162
:1041C0008280138701911C475047AE970D8E23AC18
:1041D000F19023AEC190BE8501EA83C7419289CB9D
:1041E0002382019201468145130500086F00303992
:1041F00083D7619191CB8307070063D707000146FE
:10420000814501456F0050438280411117350200FE
:10421000130505E206C6EF1022689385019183D746
:10422000650003D7450083D6250003C6150083C566
:104230000500173502001305A5D9EF10E265B2405D
:1042400017350200130505E241016F10E2645D714C
:1042500003C7019186C6A2C4A6C2CAC04EDE52DC04
:1042600056DA5AD85ED662D466D26AD06ECE9377CA
:1042700007061306000293860191638FC73E13065B
:104280000004638CC7460144639A071A0D8B0546E8
:1042900083C711916303C72029C389456301B732DE
:1042A00003C7119199476315F73A930700601735D3
:1042B0000200130525E72399F190EF10E25D173511
:1042C0000200130525E7EF10627117350200130590
:1042D00065D9EF10625C014495A2254703D5219171
:1042E000E360F7FC17370200130747CA8A07BA973B
:1042F0009C433688BA9782879C46238007009C4659
:10430000A3800700894785A01375F50FEF00301AC9
:1043100023A0019289A3935585008D4793F6F50F4D
:104320001374F50F6394F5049307E00E6311F4081A
:10433000173502001305C5CFEF10025617350200DE
:104340001305C5D2EF10826917350200130585D118
:10435000EF108254938781A89C43B9D3984323AC30
:10436000E19083C7470023A0F192F5A13D47639EEA
:10437000E502173502001305A5CBEF10E251173502
:1043800002001305E5D0EF10626517350200130532
:1043900065CDEF106250938741A89C43E38207F0FC
:1043A0009843DC4323ACE1907DBFE3EBB7EE83277A
:1043B0008801014703C607001DE6173502001305F3
:1043C000A5D22EC6EF10424DB24522861735020007
:1043D000130545E3EF10424C17350200130585C85D
:1043E000EF10824B75BD03C517006315D50063043C
:1043F000E4440507B2977DBF9387D1A223ACF19027
:10440000854795B703A986019374F50F0144930975
:10441000F00F130AF00F914A154B894B834709009F
:1044200095EF2DC8A38691A2854781451D4523861A
:10443000F1A2DD39EFF0BF8F23A001922285B640B3
:10444000264496440649F259625AD25A425BB25BFC
:10445000225C925C025DF24D6161828083471900AB
:10446000638F57016380670363977701834959001E
:10447000639334010544834709003E9945B7034AD5
:104480003900D5BFE39934FFE3170AFE4A85E931C5
:104490002A84D5B723A0019221B503C6D1A2E30196
:1044A00006E0194683D4219103C94600638EC704F0
:1044B0006369F600E39607DE9C46238007009C466E
:1044C00081B529466387C7082D47E39BE7DC804E0B
:1044D00093F4F40F9309F00F130AF00F814A914BF4
:1044E000154C973C0200938CACB4173D0200130DA1
:1044F000ADBD973D0200938DEDB683470400A5E363
:10450000D6852145153129B5A18093072002E3996D
:10451000F4D8173502001305A5B1EF10E2371735AF
:1045200002001305A5B8EF10624B17350200130502
:1045300065B3EF106236938701A99C43E38207D6E7
:1045400003C7C701E31B27FFD84B9C4F23ACE19067
:1045500019BD9C462380070023A0E192EDAC834760
:1045600014006388770163808703834704003E94C7
:1045700069B783492400034A3400E31839FFE396FE
:1045800044FFA28ADDB7E31239FF63874403034681
:1045900034006685034B24000D8A32C6EF10C22F0B
:1045A0003246DA856A85EF10222F6E85EF10C22E13
:1045B0005A85EF00607A55BF2285793E7DB783C565
:1045C000D1A2E38F05CC03C446006388C7049DCF06
:1045D0000D47E397E7CC83D72191E39D07EA173591
:1045E0000200130565B0EF10222BA28517350200DB
:1045F000130505B2EF10422A17350200130585A6F0
:10460000EF1082292285EF00B00A19B39C4623805F
:1046100007009C46A380070081B783D72191E39BC5
:1046200007E617350200130525ACEF10E226A28538
:1046300017350200130545ACEF10022617350200AE
:10464000130545A2EF1042252285EF00500A21A450
:1046500017350200130545A9EF1002241735020093
:104660001305C5AFEF108237173502001305859F7C
:10467000EF108222593E85B10D8B85476315F704F3
:10468000938701A99C4383C6460081EF173502003A
:10469000130585A5EF10422017350200130585ADDF
:1046A000D1B7D84319CF03C6C701631CD600138600
:1046B000019293858191138501910297635D05189D
:1046C000F1B79C43D9B78947E312F7FC938701A957
:1046D0009C4303D741912183D5DB944789CE03C600
:1046E000C701631AE60013860192938581911385B1
:1046F00001918296E1B79C43C5B7138481A81C4001
:10470000D5CF83C7570003C711916311F71083D723
:10471000419111476382E70415476388E70617351F
:1047200002001305659CEF102217173502001305D0
:10473000A5A8EF10A22A173502001305A592EF10C5
:10474000A215173502001305259AEF10E21417354C
:1047500002001305A5A939B7173502001305458DC9
:10476000EF10821317350200130545A2EF10022740
:10477000173502001305058FEF1002121C409847F1
:1047800083D7C70023ACE190F9BE173502001305AB
:10479000258AEF10621017350200130525A0EF10CF
:1047A000E223173502001305E58BEF10E20E1C40E3
:1047B000984B83D7470123ACE19075B61384C1A809
:1047C0001C40A9C783C7670003C711916310F70492
:1047D00003D741919D47E314F7F417350200130501
:1047E0002585EF10620B173502001305659EEF104B
:1047F000E21E173502001305E586EF10E2091C40A2
:10480000984383D7470023ACE190B1BE938701A9B9
:104810008043938401921389819193890191E302EA
:1048200004F25C4499E30040DDBF2686CA854E85CC
:10483000829775F90DA009476398E60003C6370013
:1048400003C727002206598E03258800BE8523A0B2
:10485000C192EF0012790544D5B6A1C51387019125
:104860001C475047AE970D8E23ACF19023AEC190FC
:1048700015E641119387C19206C623ACF190EFF083
:104880001F9D11E5B24013050008410115A5B24076
:1048900001468145130500084101D5A1BE850145AA
:1048A00061AB82800111014506CE1121239601A240
:1048B000B70740009387070828003EC4312128002D
:1048C00023040100112181450545EFF0FF85F240E9
:1048D000056182809387019141112146AA853E8519
:1048E00022C406C6EF00F26F03D6619113070010D1
:1048F0002A84637EC7028307050063CA070217255F
:1049000002001305657EEF003279172502001305BA
:10491000656AEF10A20C172502001305A574EF00BD
:10492000B2772244B24013050008410151A3938598
:10493000C19223ACB19023AEC19023A0C192238237
:10494000019211CA8307040063C707002244B240E2
:1049500001454101D5A1EFF09F8F61D51C4803D6D9
:10496000619163F3C7003E8623AEC19093070010A8
:1049700063F7C7021725020013050577EF00D27110
:104980001725020013050563EF1042052244B240CB
:10499000172502001305056D41016F00F26F0C44ED
:1049A00013050008E92E1C4803D7619163F8E7005E
:1049B00093F7F70381E785472382F192B2402244BF
:1049C000410182809377F50731473387E702938768
:1049D00041CBBA9703A3870063030300028382805D
:1049E0009377F50731473387E702938741C5BA9735
:1049F00003A38700630303000283828093870191EE
:104A0000130700F888CFA38F0710938741CB23802B
:104A1000E70017F7FFFF1307077B98C7938741C588
:104A2000170700001307A7E32380070098C78280B9
:104A300083C7F1A2230EF500138701A9144381EA6D
:104A400008C3232005008507A387F1A2828036874B
:104A5000F5B7834705005041139787016187635E6F
:104A6000070013F7F707B146B306D702138741CB08
:104A700036972300F70010C782803147B386E702DC
:104A8000138741C5F5B703C5C1A2828055A1170799
:104A900000001307870258C12324050023260500C0
:104AA000232805004CC910CD828001458280014534
:104AB000828001458280411122C406C626C24AC0B6
:104AC0002A8483471400294703454500FD1793F7BF
:104AD000F70F6360F70A17270200130767758A0745
:104AE000BA979C43B284BA978287834734000347BE
:104AF00024008041A207D98F13D6870093F5F70FC2
:104B00006D372300A40001A803A9050083452400F4
:104B1000793F2300A90085479CC00145B24022444B
:104B2000924402494101828080416137D9BF834765
:104B30003400034724009441A207D98F034706009D
:104B400093F5F70F13D68700EFF0EFA0F9B7834581
:104B5000340083472400A205DD8D13D6850093F52C
:104B6000F50FEFF00F9F55BF83452400EFF08F9EA8
:104B70006DB7172502001305E55AEF00F251834582
:104B80001400172502001305656DEF00F25017257C
:104B900002001305254DEF0032507D5541B782804C
:104BA000170700001307E70458C117070000130791
:104BB00047FF232405002326050018C98280828030
:104BC000930700F82380F500930740F8A380F500D1
:104BD000F9472381F500A147A38105002383F50050
:104BE000A382050023820500828082808280797101
:104BF00022D406D626D24AD04ECE834715001307BC
:104C000010022E84034945006380E7061307200243
:104C1000AA84638BE702130700026394E7068347C5
:104C20007500034665008C41A2075D8E2800EF00E9
:104C3000523B2C004A8561370145B25022549254B0
:104C40000259F249456182800344350083452500BD
:104C50004A8522044D8C93751400413F93551400EE
:104C600085894A856137C9BF2C004A85B289893F49
:104C700008401D462C00EF00D2369D4723A0F900C6
:104C800065BF172502001305E549EF00F24083C513
:104C90001400172502001305E55EEF00F23F17250B
:104CA00002001305253CEF00323F7D5579B709E935
:104CB000378700408347370093F70708A301F700C1
:104CC000238AA1F4014582808347050093F6870774
:104CD00095CE411122C42A84172502001305C54030
:104CE00006C6EF00723B834504001725020013053A
:104CF000E55BEF00723A172502001305A536EF00B9
:104D0000B239B24022447D55410182809396870199
:104D1000E18613F7F70783452500034615009387BF
:104D200041F563DF0600E1463307D702BA9705472E
:104D30002386E7002382B700A382C7000145828053
:104D4000E1463307D702BA9705472386E70C23824B
:104D5000B70CA382C70CDDB71377F507E14633071D
:104D6000D7026205938741F56185BA9763560500BE
:104D700023860700014582802386070CE5BF137751
:104D8000F50799E17D5545EAE147B307F7020111BF
:104D900026CA938441F506CE22CC4AC84EC6795520
:104DA000A69783C6C700B1C615443354870293063D
:104DB00000038CCBD0CB23AC07003304D402931672
:104DC00027003694B7860040938906029386260210
:104DD000A299369415E62380090003C7570085473A
:104DE0006304F7048347040093F7C70F2300F4001C
:104DF0000145F2406244D2444249B2490561828091
:104E000003C9470063732601328961453307A7024E
:104E10004A861379F90FBA948844EF00921C2380D4
:104E2000290103C7540065BF8347040093F7C70FE8
:104E300093E7170065BF82809376F50799E17D556A
:104E400025E26147B387E602138741F579553E971E
:104E50008347C70CB1C793F735007555B1E3954744
:104E6000B3D7F602130500032328B70C232AC70C77
:104E7000232C070C0347570CB387A7021395260072
:104E8000AA9737850040130525023E958547630A9A
:104E9000F7008347050093F7370F2300F50001451E
:104EA00082808347050093F7370F93E74700F5B7F4
:104EB0001377F5079547B357F702930600030A07E0
:104EC00062056185B387D702BA9737870040130719
:104ED0002702BA9703C70700634805001367C70096
:104EE0002380E7000145828013673700D5BF137721
:104EF000F5079547B357F702930600030A076205C3
:104F00006185B387D702BA97378700401307270216
:104F1000BA9703C707006348050013773707238054
:104F2000E700014582801377C70B13672700C5BFD1
:104F3000411106C6938741F5938641E1138541F1FE
:104F400094D3A8CB938641E9138541D994DFA8D7A0
:104F5000138741D1938541DD138641E5938641ED69
:104F6000138541D598C723A4E70C23A0B70E23AC23
:104F7000C70E23A8D71023A4A712B7870040238009
:104F800007001305C0FC2386A7004207A386A700DD
:104F90004183C2052398E700C1814206239AB700E6
:104FA0004182C206239CC700C182239ED700A94626
:104FB0002381D70269472383E7022385E7022387FA
:104FC000E7022389D702A3810700130790022380F9
:104FD000E700B716004003D7A6011367070C239D0F
:104FE000E6007D572383E700130710F8A380E7004E
:104FF0001D472381E700EFE07FE3B2400145410117
:10500000828041111305800406C697B0FF1FE78018
:10501000C00B371700408327870A8D4513050020F2
:1050200093E707202324F70AEFD09F9FEFD03FB5E7
:10503000172502001305055CEF00521AEFE01FA3CD
:10504000EFE0FFB3EFC08107EFE04FB3EFE01FFFEA
:1050500097B0FF1FE780A068834705005147FD1701
:1050600093F7F70F636CF7021727020013078725E2
:105070008A07BA979C43BA978287B147A300050075
:105080002301F5008280834715000D47636CF7000C
:10509000094763F7E70605476382E702FD572300E8
:1050A000F50082801147E39BE7FE23010500A30181
:1050B000050023020500A302050082803717004087
:1050C0008357A7030357870386073D83BA97A32017
:1050D000F50082808347150009476383E70215477F
:1050E000E39EE7FA8280230205008280A301050087
:1050F00023010500A300050082808947A300F50075
:10510000828023AC05FE1C4191E7010001000CC127
:105110008280BA8703A787FF6DFF23ACB7FE82802A
:105120001DC18346E5FF1307F00F9147639EE6001C
:10513000411106C697D0FF1FE780800BB240814720
:105140003E854101828095473E85828001E9014587
:1051500082800145B240224441018280956541111F
:10516000938505D022C4C98D2A842105C205420534
:10517000C181418106C697D0FF1FE78040FA71D9EF
:10518000FD5723200500231285002303F500210588
:10519000D1B7170700201307A7831C43411122C46E
:1051A00026C24AC006C601440149BA8491E7A165F6
:1051B000EF0080791DC401A803C7E7FF631AA702A7
:1051C0000DCCA16591299840832784FF6319E402DF
:1051D00017F7FF1F232EF77EFD57232C04FE230F06
:1051E000F4FE2285B2402244924402494101828069
:1051F00011E03E8983A787FF55BF3E84E5BF232C7E
:10520000F9FED9BFB1CD411122C406C62A8497F751
:10521000FF1F83C7377C2E856375F400894763E8D9
:105220008700FD3D0D45B24022444101828083A7A5
:1052300085FF99E703C7E5FF9307F00F6305F700C4
:10524000C5351545CDB7238F85FE17F5FF1F13050F
:105250002578453D22852244B240A16541016DAECD
:105260001545828097F7FF1F23A40776828097F762
:10527000FF1F9387677B9C4399E33E85828003D71A
:1052800027006316B70003C70700E308A7FEDC4743
:10529000E5B7C9C1797122D406D626D24AD04ECEFE
:1052A00001444147B3D78540858BA5C312053147DB
:1052B00022953305E50297F7FF1F9387E77A03A945
:1052C00007008544B3948400C204C180BE892A9932
:1052D0000327090011C7032549002EC60297B245CE
:1052E00031473304E40283A709003E941C4489E754
:1052F0002320090023220900B2502254A58D02590F
:105300009254F2492E85456182800504E31CE4F83D
:105310008144DDB72E85828041111397050122C497
:1053200006C626C24AC041872E84635E07009535B3
:1053300011C1FD33A1673D8C2285B24022449244C5
:10534000024941018280EDD9AA8701474146B356FF
:10535000E440858A8DCE9207BA97B146B387D702CB
:1053600097F6FF1F9386467003A906008544B39401
:10537000E400C204C1803E99832709000325490047
:1053800082972320090023220900258C75B7050781
:10539000E31FC7FA8144D5BF97F7FF1F93870769BB
:1053A0009C53411122C406C61384C18799C78297B2
:1053B0001C403E9523AEA18639A097F7FF1F938727
:1053C000276B9C43EDF70840B74703009387D73F0F
:1053D0003305F502B7A72600938737ECB240224485
:1053E0003E9523AEA186410182800111680006CE60
:1053F00022CC26CAEFE0407DFD576300F50E324710
:1054000097F6FF1F9386866297F7FF1F83C7576340
:10541000B68463F9E70A17F4FF1F1304A45B184866
:105420003706C0A8630EC70297F7FF1F938747642C
:105430009C43829732471C486373F700BA8717F77B
:10544000FF1F0347F75F998F3E958387640163CE03
:105450000700B707C0A8636AF500B7074057A5A8BB
:105460008386660163D506061D8D17F4FF1F13049E
:10547000A4771C4C81CF97F7FF1F9387677D9443D8
:105480003707CDFF7D179C46F98F9CC619E137057C
:10549000C0A897F7FF1F93876759DC53829719E5D8
:1054A0001C4C8DC3EF60A101EF5081621C4C99CB65
:1054B00097F7FF1F9387C7799843B70633001C47B8
:1054C000D58F1CC7F2406244D24405618280E37DDF
:1054D000F5F8B307F7403E9549BF97F4FF1F938453
:1054E000644F9C483704C0A8E38E87FC97F7FF1FE2
:1054F000938707589C4382979C4817F7FF1F0347E1
:105500003754998F3E9597F7FF1F938727528387CC
:105510006701E3CC07F4E36A85F481B77DC93748B6
:10552000F6A6130808C889476366C80E797197F70D
:10553000FF1F9387675322D45AC803A807003E8BE6
:1055400006D626D24AD04ECE52CC56CA5EC662C4C9
:105550000144B148C147B30B1403137CF40F330368
:105560007801032303006311030AAE8AC165AA848C
:10557000938505F041453A8AB689328997D0FF1F55
:10558000E780E0B90DE997F7FF1F9387274A9C5BF7
:1055900099EF8147B250225492540259F249624A1B
:1055A000D24A424BB24B224C3E85456182808145B6
:1055B00011458297F9BF97F7FF1F9387E7469843F6
:1055C00021E397F7FF1F23A1A746230005008327A8
:1055D0000B000547331487002326050023242501EB
:1055E0002311850023224501DE9784C323A257019E
:1055F00023A44701E38F09F82380890159BF368727
:105600005447F5FE48C7D1B70504E316F4F4A147A3
:1056100051B789473E85828097F7FF1F83C7973B25
:105620006371F50217F7FF1F1307C73F93171500A4
:1056300008433E9583570500DD8D2310B5000145D5
:1056400082800D45828097F7FF1F83C7B738637349
:10565000F50217F7FF1F1307E73C931715000843E0
:1056600093C5F5FF3E9583570500FD8D2310B500CA
:10567000014582800D4582809307F00263ECA70A02
:10568000B146B306D50297F7FF1F9387E73D9843CE
:1056900089473697184345C3011122CC4EC60544AD
:1056A000935945003D893315A40013140501418029
:1056B00026CA4E85AE84A2854AC806CEEFF03FBB0F
:1056C0002A89814725C1A2854E85B53F97F7FF1FDF
:1056D0009387073A9C43829797F7FF1F83D7073238
:1056E000338797022A84130600648146B3B7970272
:1056F00013050732B335E500BE95EFF0115597F766
:10570000FF1F9387A73283876701229563C907002C
:10571000B707C0A86365F500B70740573E95232437
:10572000A9008147F2406244D2444249B2493E85D1
:105730000561828089473E85828097F7FF1F83C776
:1057400077296364F50001458280011197F7FF1FF7
:105750009387073226CA844306CE22CC4AC84EC657
:10576000CDC8AE8997F5FF1F83D54529B387C502FC
:105770002A8432898146B3B5C50213850732B3370F
:10578000F50013060064BE95EFF0314CB747F6A65E
:10579000938707C863EFA706829497F5FF1F83D509
:1057A000E525B3872503AA84130600648146B3B5B3
:1057B000250313850732B337F500BE95EFF0F148A6
:1057C00097F7FF1F9387872603876701AA943E896F
:1057D00063490700B707C0A863E5F400B70740575F
:1057E000BE94CE852285EFF09FA801C504C505456E
:1057F00015A0936504F0C205C181414597D0FF1FF4
:10580000E780E09119ED8327090381C7A28511453F
:1058100082970145F2406244D2444249B24905614F
:10582000828097F7FF1F938727209C439DE397F77C
:10583000FF1F23ABA71E85472326050004C52311A0
:10584000350123008500A300F5002322050045B79C
:10585000BA87D84775FFC8C7F9BF51C9797122D433
:1058600026D24AD04ECE52CC56CA5AC85EC662C460
:1058700006D6B689B28A2E8A2A899304000C41443E
:1058800017FBFF1F130B4B1E054C930B00038327C5
:105890000B00A6979C43A1E79375F400B315BC00D9
:1058A000C2055686C18113554400413D0DC9832769
:1058B0000B000145BE9423A0240123A2440163846C
:1058C000090023808900B250225492540259F249AF
:1058D000624AD24A424BB24B224C45618280050457
:1058E0001374F40FB104E31474FB2145E9BF0945B7
:1058F0008280411122C426C24AC006C62A842E894B
:10590000B284253DCA852285EFF07F9605CD97F5B7
:10591000FF1F83D5A50EB38795022A841306006462
:105920008146B3B5950213850732B337F500BE95AE
:10593000EFF0B13148C00145B240224492440249DF
:10594000410182802145CDBF411122C426C24AC0F7
:1059500006C62A892E84EFF09F91AA8419C12311CB
:105960000500A2854A85EFF01FCE97F7FF1F83C77A
:105970006706639B270197F7FF1F83D7670A5D8C34
:1059800097F7FF1F239E8708014591E01945B24014
:10599000224492440249410182809307F00263E865
:1059A000A7044111B14722C43304F50226C297F47B
:1059B000FF1F9384640B9C4006C6A29798438947B7
:1059C0000DC39377F5008545B395F500C205C181F8
:1059D00011819D3F9C40A29723A0070023A20700AE
:1059E0008147B240224492443E85410182808947EA
:1059F0003E858280411106C622C4EFF05F8711E523
:105A00000145B24022444101828097F7FF1F9387EE
:105A100027069C430045829797F7FF1F938707014E
:105A20008387670163D80702B747F6A63305A4400A
:105A30009387F7C7E3E6A7FC93070064B335F50245
:105A400017F6FF1F035686FB81463305F502EFF07C
:105A5000D11F45BFE37AA4FCB707C0A83E94E9B7BD
:105A6000411106C697F7FF1F23A2A7000295B24077
:105A700097F7FF1F23ACA7F60145410182809947A4
:105A800063E9B7008A0597F7FF1F9387A7F7BE95CD
:105A900088C1828041117146814517F5FF1F1305AA
:105AA00065F606C697F7FF1F23A007F897F7FF1FB5
:105AB00023AE07FA97F7FF1F23AC07FA97B0FF1F33
:105AC000E780C0081306C002814517F5FF1F1305C4
:105AD00065F097B0FF1FE7806007EFB0E16797F7C9
