:040000006F208039B4
:1000040000000000000000009000002076020020A4
:10001400A9BDF9F5940000200000000000000000D4
:10002400960000209800002000000000000000005E
:100034009A000020000000009C0000200000000046
:100044009E000020C4060020C8060020A400002052
:10005400A6000020A80000203E030020AC000020E1
:10006400AE000020B0000020B2000020B400002048
:1000740028030020F2020020BA000020BC00002067
:10008400BE000020C0000020C2000020C4000020E8
:1000940001A001A001A001A001A001A001A001A054
:1000A40001A001A001A001A001A001A001A001A044
:1000B40001A001A001A001A001A001A001A001A034
:1000C40001A001A001A0B71700409306700523808A
:1000D400D704130780FA2380E7040100010003C654
:1000E400B7041376F60DA385C7042380070413769B
:1000F40005024DC203C6A700118A1DE22380D7045E
:100104002380E7040100010003C7A7001367470029
:100114002385E7009307004B01000100FD17EDFF65
:10012400B7170040930670052380D704130780FA9D
:100134002380E704010001007D892394A7000100C6
:10014400010001000100238007042380D7042380D9
:10015400E704010001000100010037270040930675
:100164001005A303D78023800704B71700401307A3
:1001740070052380E704130780FA2380E704010055
:10018400010003C7B70413670708A385E7042380A6
:10019400070482801376050441C603C6A700418A7A
:1001A4001DE22380D7042380E7040100010003C774
:1001B400A700136707012385E7009307007D01006B
:1001C4000100FD17EDFFB71700409306700523806B
:1001D400D704130780FA2380E70401000100137693
:1001E400F501136606042394C70001000100010011
:1001F4000100238007042380D704130660042380AE
:10020400E7046318C5000100010037270040894650
:1002140089BF01000100372700409306200591B7EC
:100224002380D7042380E7040100010003D787005B
:100234001367070C2394E7000DBF41118146014663
:100244008145114506C68923B71700401307700579
:100254002380E704130780FA2380E70401000100E8
:1002640003C76704136717002383E7042380070485
:10027400B2404101828081460146814511452923CE
:10028400B7170040930670052380D704130780FA3C
:100294002380E704010001007D562396C7022380D2
:1002A400D7042380E7040100010003C76704136730
:1002B40017002383E7042380070401A0BD47330507
:1002C400F50201007D1575FD8280411122C426C20C
:1002D40006C6AA84014463179400B240224492449F
:1002E4004101828005041305803E4204C13F4180E0
:1002F400DDB7B717004003C72706218B05C703C71F
:1003040017061377F707A380E706138701C1239421
:10031400E70603C72706136787002381E706854797
:100324002384F1A873002030B7170040130700039B
:100334002388E702854723A8F1AA7300203001111E
:10034400A307010022CE26CC4ACA4EC837840040F7
:100354008347640093F7F70FA307F1008347F10085
:10036400898B638D072E834774001307000393F76B
:100374000703638EE7068344740083477400BD88D3
:1003840093F70703638A071C13070002639CE704BF
:10039400138901256399041083C7413D9D83F9C7DF
:1003A4008347240293C707042301F40283472402EA
:1003B40093F7C70F93E727002301F402832749012A
:1003C40083C5412563FCF5088D8F23A2F12683277D
:1003D4008901BE9523A4B12613050008976000E0A7
:1003E400E780C091B787004009472383E70037843B
:1003F400004083477400E207E18763D5072A930727
:1004040020FC2301F4029384012583A5840C214656
:100414001385413D97A002E0E780E0CE838744182E
:1004240063CA0700230004028347240293F7C70F1B
:100434002301F40237840040834724021385413D9D
:1004440093F7370F93E787002301F402975000E0F6
:10045400E780C07B89472303F400A9A4832589018D
:10046400BE9523A4B12623A20126BDB703C7513DDF
:100474009547631BF700834734000347090093F74C
:100484000708D98FA301F4008347240293F7C70F09
:1004940093E727002301F4028347240293F7370FDD
:1004A4002301F40281B791476398F400834724033E
:1004B40093C707042309F402154433D48402930731
:1004C40000033304F402939724003E94B78700405A
:1004D400938727023E948347040093F7C70F93E75B
:1004E40027002300F400E147B387F402CA97D84BEE
:1004F40003C64700944F6379E6048C4B118FB29680
:10050400B2958CCBD8CB94CF88476376E60297A07C
:1005140002E0E78040BFE147B384F4028547CA9410
:1005240003C75400630BF7008347040093F7C70F16
:100534002300F40045BD3A86D9BF8347040093F7EE
:10054400C70F93E71700EDB7B305D7008CCF23AAE5
:10055400070013E5040859B5B1E483472402834432
:1005640084001389012593C707082301F402832516
:10057400890C0325090D268697A002E0E780A0B820
:100584008325890D0145A69523A4B1328327490DFE
:10059400858F23A2F132975000E0E780E077E39360
:1005A40004E4DDBD8347740093F70704E38C07E29A
:1005B40091476398F4008347240393C707082309EA
:1005C400F4026144B3878402B7890040138401258F
:1005D40003C989004A863E948325840C0325040DAF
:1005E40097A002E0E78020B28327040D8325840DC1
:1005F4000347440CCA972328F40C8327440DCA9557
:10060400232CB40CB3872741232AF40C6363E90039
:1006140099E72685975000E0E7800070E1B395479D
:10062400B3D7F402130700038A0493892902B3871A
:10063400E7020347540CBE948547CE946309F70040
:1006440083C7040093F7370F2380F40061BB83C78B
:10065400040093F7370F93E74700FDB78347F10092
:10066400858B99CFA3010400975000E0E7800057E1
:100674008347240293F7370F2301F4028547E1BB34
:100684008347F100918B95C783475400918B91C7A1
:100694000145975000E0E780C0C3B7870040114789
:1006A4002383E7007244E2445249C249056173005E
:1006B40020308347F10093F7F70F71BB411106C651
:1006C400A52DFDBF73002030730020302303048068
:1006D40015472303E48001002302A480828083075A
:1006E4006480E3CE07FE2303048082808307648052
:1006F400E3CE07FE03454480828083076480E3CE13
:1007040007FE2302A4808280411126C44AC24EC03F
:1007140006C61377F50BAD47AA892E89954463065F
:10072400F70019456537653F8D444E854537FD59BA
:10073400FD1463983401B240A24412498249410134
:100744008280135509011375F50F453F2209CDB772
:10075400011126CC06CEB704080051371545BD3724
:10076400713769372AC6A53F32459377150089EB5F
:10077400136515001375F50FF240E244056182809C
:10078400FD14E9FC0145CDBF397126DC4ADA4ED8A7
:1007940052D656D45AD25ED006DE62CE66CCB7E7C5
:1007A40000E07D5783AA070022C603AA470023A0BE
:1007B400E71823A2E718B717004013077005238032
:1007C400E704130780FA2380E70483C74704930BE5
:1007D40075FFB684E20793FBFB0F8546AA892E8B2F
:1007E400328937240040E187015763FA76016308B0
:1007F400D5008946130700026313D5000157D98F2A
:1008040093F7F70FB71C00402382FC04114723031E
:10081400E4801305F00F5D3D094CD135636D7C1107
:10082400B7050700DA9537870700795563F2E504C1
:10083400B3879500636EF702370B0800A94733EBC3
:1008440065016399F90689E48144513D26850DA02B
:10085400DA850945553D05090345F9FFFD14050BE6
:10086400693D81C49377FB0FFDF7DD3569FD7D5547
:10087400B7170040130770052380E704130780FAB5
:100884002380E70403C74704418B2382E704F25023
:10089400B7E700E023A0571123A24711E2543244E2
:1008A4005259C259325AA25A125B825B724CE24CC0
:1008B40021618280A5476395F90685691309F00FC4
:1008C400B3069900B3742B01B6941349F9FFB374BA
:1008D4009900856B33796901416B9387F9FFB3F70D
:1008E400270199E363FC340193D94900C147E3E646
:1008F40037FF99BF0569C1697D19D9B71305800D03
:1009040063886901130500026384790113051008E3
:10091400CA85DD3B353D21DD4E99B3843441D9B7D9
:10092400DA852D45D533CA94E30099F205097D3B58
:10093400A30FA9FED5BF9387F9FF93F7F70F636160
:10094400FC0C83C71C0413073008631FF704370724
:100954000800636BEB04B3079B00B706100063F554
:10096400D704334BEB0089476393F9068980D54953
:10097400E38C04ECDA850945413B11090327C9FFDF
:1009840091472320E48003076480E34E07FE23039A
:100994003481FD17EDFBFD14110B81C49377FB0F1C
:1009A400E9FF7D3371F5E1B5B717004003C757047C
:1009B400B70708001377070219E3B78707007955CB
:1009C400E378FBEA33079B00E3FFE7F855B5854777
:1009D400E382F9F2DA852D45053B9389F4FFE3853B
:1009E40004E6293393F7390091EB83260480032727
:1009F400090093074900E39AE6E43E89CE84F1BFF7
:100A0400B5476396F9001305900BC93135BDB1475D
:100A14001305B00AE38BF9FE99476391F904B7050E
:100A24000800B365BB002D45C53181448D4BA149F8
:100A3400753963967401832704802320F9008504A3
:100A4400E39834FF8327048013172B0163550700B1
:100A54002312F900D5BB2322F900FDB39D47639906
:100A6400F90281451305B0044531BD442320090032
:100A740023220900FD599D3993F77400CA9703C7CF
:100A84000700FD14398D2380A700E39634FF6DBB66
:100A9400A1476392F9046D398144630D0B008D47BE
:100AA4009304C0036308FB009304000563048B01F3
:100AB400930440041375C507E30895D819453931E3
:100AC40039390545213126850D3909453D314931ED
:100AD400E31C05D669BB91476399F90013056006C9
:100AE400F536F53E130590090DB7E38F09D4F1549B
:100AF400A9BB19CD91CD09CE81473387F500834633
:100B040007003307F50085072300D700E317F6FE37
:100B1400828019C991C909CA910583A7C5FF110526
:100B24007D16232EF5FEC5BF828001C919C62A96FB
:100B34000505A30FB5FEE31DA6FE8280814733079A
:100B4400F5000307070019E33E8582808507C5BFCA
:100B540001112E8626CAAA84131506019305F004F2
:100B6400418122CC06CE32C6EF1040592A8401C5F9
:100B74003246A685BD3F2285F2406244D2440561D7
:100B84008280854715C18DC105C28147B306F50032
:100B94003387F50083C60600034707006398E60021
:100BA4008507E315F6FE85473E8582808147EDBFC4
:100BB4009307F6FFBE952A966313C5008280FD1540
:100BC40083C715000505A30FF5FEFDB7AA870145E8
:100BD40081CF09CE3E96850703C7F7FF6317B70099
:100BE400E39BC7FE0545828082800145828079713E
:100BF400974700009387071222D4804306D626D253
:100C04004AD04ECE52CC56CA5AC85EC662C45DCCD7
:100C140037C9C901814B174A0000130A2A149744A3
:100C240000009384640F1309F937974A0000938AEC
:100C34002A09B709C0A8370B40578357240095E306
:100C44005C44639D0B00174700002325F70C032C1D
:100C5400C4002285EF10A057628499A823A6FB0044
:100C6400FDB783270A008297838664011C4463DBF3
:100C740006063307F5406367E9089747000023A990
:100C840007048355240003450400976000E0E780CF
:100C9400A0CD5C405844A9CF1444B6978386640120
:100CA40063C5060063E33701DA971CC4A28B3A8458
:100CB40049F4974700009387A7009C4B0947637842
:100CC400F706F917174700002324F700B2502254FF
:100CD40092540259F249624AD24A424BB24B224CD4
:100CE40045618280E377F5F83387F9402A9761B745
:100CF40063970B009747000023AEE70089BF23A644
:100D0400EB00B1B7D85009CF63DF06003385A740A5
:100D140083A70A016376F5009747000023AAA7FA80
:100D2400A28B404471B7E3F3A7FECE97C5B79747AC
:100D3400000023AF07F859BF411122C41744000033
:100D4400130404FB1C4006C626C24AC091C78297FE
:100D54009747000023AE07F85C4091C382971C407C
:100D64006391071C9747000083C71717858B9DC79E
:100D740097470000A3820716174700000347F7159B
:100D8400954763FDE700EF0010379747000083C7DE
:100D9400D714F5178A07A2979C4382971749000036
:100DA400130949178347C900918B99C3EF10602831
:100DB4001C4491C3829797440000938464F598403F
:100DC400174600000346D6EF9747000083C747EF56
:100DD40093961700BA9683D60600D5CA97470000A3
:100DE40083C707EE63EFC70A97470000238A07EC1F
:100DF4001C40639807129747000083C7370E91CFB2
:100E04009747000083C7770D89EB97470000A387B6
:100E1400070C97B001E0E780A05497470000938740
:100E2400E7F39C43638F070EB707C0A8174700007A
:100E34002320F7EA6D3B974700009387E7EDDC53E7
:100E4400EDC3174700001307A7E7184B97470000A7
:100E540083C7D7ED6367F70C174700000347F7070D
:100E6400954763E0E70C8347C900918BDDEB904025
:100E74009746000083C6D6E463CBD70A2244B24027
:100E8400924402494101176300E06700038B850720
:100E940093F7F70F974600002384F6E2E3E6C7F2E0
:100EA40035BF86073E9783550700231007009747F1
:100EB4000000239D07E497470000938727E39C43A2
:100EC400174500000345C5DF13172500BA979C4357
:100ED40082979747000083D767E3174700000347CB
:100EE40027DE93C7F7FF7D8D9317170098403E9731
:100EF400835707005D8D2310A7009747000083C721
:100F040027DC91C7850717470000230BF7DA17473B
:100F140000000347E7DA9747000083C777DAE375F1
:100F2400F7ECB24022449244024941018280139773
:100F340017003297035707006DF7850735BFAD6774
:100F440037C70040BD072326F7200F10000097473E
:100F540000009387E7D6C84F83278726BD66BD0662
:100F640093C7F7FF99836A052326D7205D8D828076
:100F74004111B7170040985F3AC6945F3247E39C2B
:100F8400E6FE324541018280828003278511630099
:100F94000712411122C406C68347C5008345C50410
:100FA4002A8493F7C70F2306F50083469700035658
:100FB400C70013958601618563F1C508635A050668
:100FC4000345870093F6F607A304D700054693E686
:100FD40027006314C50093E617002306D4005C437E
:100FE40089075CC3A30AB400032504112E864C436D
:100FF400090501368327841103465401D44303D7DA
:10100400C700B296118FD4C32396E7008947A30D76
:10101400F400034744039747000083C707D163786C
:10102400F7048347C40093E707012306F40081A073
:1010340093E717002306F40075B79376F60F635D04
:10104400050203458700854513E627006314B500B0
:1010540013E617002306C400A30AD400A304070060
:101064008547A30DF400832784119C43DDF3B2402C
:10107400224401454101828093E717002306F400CE
:10108400A30AD400A3040700032504114C43090553
:101094008D348327841103465401D44303D7C700F6
:1010A400B296118FD4C32396E7008D475DBF0545E3
:1010B400828097470000938767E09C43411122C4D4
:1010C40006C6858B2A84C5EF4165130525F597501F
:1010D40001E0E780403C45C58347A5002315F500A2
:1010E40083270412BDE72320A4122322A4128547D8
:1010F4002310F4042320050083476401544123167C
:10110400F5000347D4002304E5000547A304E500E4
:1011140017470000130707DC184F138517021581C2
:101124001C437D151375F50F9CC25C43DCC21C4740
:101134009CC65C47DCC61C4B9CCA5C4BDCCA1C4F7F
:101144009CCE5C4FDCCE19CD9386060213070702B2
:10115400C1BF8327441288C3835704042322A412E3
:10116400850779B79747000083D747E48507174772
:101174000000231DF7E2B2402244410182808347EC
:10118400C40023090400054593C747002306F4005F
:10119400DDB78347850193F7E70FD5EF83479501C3
:1011A400DDEB034625018346C50009CA8345450393
:1011B40017470000034777B763E7E50013F7060115
:1011C40041CF014709C6C18A0357651C81C68356AE
:1011D400A51C369751C31307C712174500000355C2
:1011E400A5B0B335A70237460F00411113060624F4
:1011F400814622C426C206C67D543305A7029760E1
:1012040002E0E780E01B9747000083C777B2B3840E
:10121400A700974700009387E7D803A70709832708
:10122400070963F387003E84184375FB9747000062
:101234009387C7B29C43829781476364A400B30732
:10124400A440B2402244B3B7970093C71700924416
:101254003E854101828081473E858280797126D214
:1012640006D622D44AD04ECE52CC56CA5AC85EC6EE
:101274008347350303447513AA843E941374F40F0F
:101284009307400263F687001304B4FD1374F40F4C
:1012940003AA841383AAC413A38B841222865285BF
:1012A400D685976002E0E780200C058915E503CB1D
:1012B400D41201498149337B6403930B50024A865B
:1012C4005285D685976002E0E780000A058915C536
:1012D400639169031374F90F238B8412B25022545F
:1012E40092540259F249624AD24A424BB24B456186
:1012F40082808509E20993D989410509E31179FDC1
:10130400E1BF832785090356E503797193D6070165
:10131400BD8EC206C182358E135776409357564010
:10132400898B058B5D8F93573640918B5D8F9357D7
:101334001640A18B5D8F93171600C18B5D8F931799
:10134400360093F707025D8F931756009355860076
:1013540093F707041E065D8F1376F60F518F93D70C
:10136400554013D63540118A898BD18F13D67540D9
:10137400D18F13D61540218AD18F13961500418A37
:10138400D18F1396350013760602D18F139655002C
:10139400137606049E05D18F93F5F50FCD8FA20722
:1013A40045465D8F3307C70222D42A8426D252CC05
:1013B40056CA032A8413832AC4135AC806D63697F6
:1013C4004207418393577740135557400989858BCA
:1013D400C98F135537401189C98F13551740218977
:1013E400C98F131517004189C98F13153700137559
:1013F4000502C98F1315570093558700137505040B
:101404001E07C98F1377F70FD98F13D5354013D71C
:1014140055401189098B498F13D57540498F13D5D0
:1014240015402189498F139515004189498F1395DA
:10143400350013750502498F13955500137505047E
:101444009E05498F93F5F50F4D8F2207D98FB387EA
:10145400C7024AD04ECE5EC662C4B697C207C183E5
:1014640013D7774013D557400989058B498F13D576
:1014740037401189498F13D517402189498F139516
:1014840017004189498F1395370013750502498F59
:101494001395570093D58700137505049E07498F4C
:1014A40093F7F70FD98F13D5354013D755401189CA
:1014B400098B498F13D57540498F13D51540218960
:1014C400498F139515004189498F1395350013757C
:1014D4000502498F13955500137505049E05498F20
:1014E40093F5F50F4D8F2207D98FB387C7021306E3
:1014F40050025285D685B697BD8E93940601C1805D
:1015040033F6C402137BF60F976002E0E780C0E570
:1015140005890DED8347D41201498149B3849702AB
:10152400130C5002C1804A865285D685976002E02A
:10153400E78080E30589937BF90F11C56386340343
:10154400850993F9F90F0509E31F89FD230B64133A
:10155400B250225492540259F249624AD24A424B3E
:10156400B24B224C456182805E8BCDB70111974707
:101574000000938727A322CC03A4470B26CA06CED8
:101584002AC42EC6854419E40145F2406244D2447B
:10159400056182808347910003471400858B6304AF
:1015A400F7000044CDB719469305A10013052400A4
:1015B400EFF02FDDE31795FE0545C1BF011122CCE5
:1015C400174400001304C49218402AC62EC432C221
:1015D40006CE3C4B93F7F7F73CCB97B001E0E7809E
:1015E400E0D41840974600009386C68D3C4B93E7A1
:1015F40007083CCB9C423245A24523A00700034781
:1016040015000348250022074208429703480500B5
:101614004297034835006208429798D7034755001C
:101624000348650022074208429703484500429751
:101634000348750062084297D8D7034795000348CA
:10164400A5002207420842970348850042970348B1
:10165400B5006208429798DB0347D5000348E500CC
:101664002207420842970348C5000345F500429704
:1016740062052A97D8DB03C7150003C52500220796
:1016840042052A9703C505002A9703C5350062055C
:101694002A9798CF03C7550003C565002207420562
:1016A4002A9703C545002A9703C5750062052A9742
:1016B400D8CF03C7950003C5A500220742052A9782
:1016C40003C585002A9703C5B50062052A9798D3F8
:1016D40003C7D50003C5E500220742052A9703C5C1
:1016E400C50083C5F5002A97E2052E97D8D3D843C1
:1016F400759BD8C3D84313671700D8C3984313679F
:10170400170098C3124698425C43858BD1E71C4F5F
:1017140001452300F6009C429C4FA183A300F600E0
:101724009C429C4FC1832301F6009C429C4FE18361
:10173400A301F6009C42D84F2302E600D84F218330
:10174400A302E600D84F41832303E600D84F618308
:10175400A303E60098532304E60098532183A304CB
:10176400E600985341832305E60098536183A3055B
:10177400E600D8532306E600D8532183A306E600E7
:10178400D85341832307E600DC53E183A307F60023
:10179400F2406244056182800100B5B7173700004A
:1017A400130787721443411122C49C5E4AC006C6C3
:1017B400998326C2858B3A841739000013098970EE
:1017C400D1CB9C5E973400009384C47093F7F7F9EF
:1017D4009CDE173700000347477093070008631B1C
:1017E400F700832709009C4393F707041737000089
:1017F4002305F76E83C7040093F707049DC3973747
:1018040000009387A7559C4382979737000023AB2A
:10181400A76C83C7040093F7F70B17370000230B5B
:10182400F76A83C7440093F707048DE785471737A2
:101834000000A303F76A973700009387676B9C4304
:10184400096798C7130700FC973600002386E668EB
:10185400D844F8D31C40985F1183058B09CB985F5B
:101864003D9B98DF0547973600002387E666985F1F
:101874001D83058B11CB985F1377F7F798DF8547A6
:1018840017370000230AF76483270900D843058328
:10189400058B19C7D843759BD8C3D843799BD8C344
:1018A400B24022449244024941018280397106DEE9
:1018B40016DC1ADA1ED82AD62ED432D236D03ACE34
:1018C4003ECC42CA46C872C676C47AC27EC0F935D6
:1018D400F250E2525253C2533255A2551256825616
:1018E4007247E2475248C248324EA24E124F824FCC
:1018F400216173002030973700009387675F94431A
:10190400973700009387075D03C70700058B11CB4A
:10191400973700002382075C97370000A38E075A8D
:10192400828003C71700058B65F7F85271FF83C7E0
:101934005700DDB7173800001308085903270800BB
:101944001C5F9583858BD1E709C61C5BBD8323008F
:10195400F60085CA83270800985B460793576701FA
:101964006356070093E707C0C207C18303970600C5
:10197400C207C18709C7BA970947B3C7E7022390CB
:10198400F60085CD834715008DCB9736000083C6BE
:10199400C65493F606041387970089478DCA3A956F
:1019A40003470500854699471376F7066311D60267
:1019B40062076187B947634C0700832708009C5F6F
:1019C400ED838D8B17370000A30BF75081473E85BD
:1019D40082808547EDBF411122C406C6173400003A
:1019E40013040451184049E9AE877453FDFE3E8543
:1019F400B285973700002380074E97A001E0E78067
:101A0400E068973700009387274C9C43B706800013
:101A14009843558F98C3D857719BD8D797370000F0
:101A2400A38C074A97370000A386074A1C4009473E
:101A340098C3B7F700E003A707D16D9B23A8E7D0AD
:101A440003A707D15D9B23A8E7D07300501014406F
:101A5400173700001307074883472700858B89EB56
:101A640083473700858BD9C79737000023860746FD
:101A7400B2402244410182808D476310F5029737BA
:101A84000000938767449C43B70680009843558FB2
:101A940098C3D857719BD8D75DBF8547E319F5FA2A
:101AA400B567BD075CC70F1000001C4009670946F5
:101AB40098C7130700F897360000238FE6401737BE
:101AC4000000130767401443984231830D8B631958
:101AD400C7001307E043F8D33D673D07D8C785BF68
:101AE400984231830D8B01E713076019EDB7130793
:101AF400E01BD5B7FC52ADF3A5BF5D7152DC173ABC
:101B04000000130A6A3C03270A0086C6A2C4A6C2C0
:101B1400CAC04EDE1C439739000093892942173905
:101B240000001309E93C93F7F7E793E707081CC3A0
:101B340083A609003707CEFF7D179C461306800253
:101B44002A84F98F9CC683270900130700082800FC
:101B5400B8CBAE8493051008EFE03FFD97A001E0F9
:101B6400E780C07C97B001E0E780C08983270A0042
:101B74009376F41F370FFCFF23A40700984B4E887D
:101B8400CA881367F70398CBF84F130510F8D2856A
:101B9400137707E0558FF8CF9843F576FD16758FC8
:101BA40098C39843B7063300B70204001377F7E7E6
:101BB40098C398439303401F7D1F1377F7E7136778
:101BC400071098C303A70900930F800285491C4797
:101BD400D58F1CC7832709001307900D3400B8CB99
:101BE40011490147135337002693834703001376A3
:101BF4007700B3D7C740858BDDCF9C41832E080087
:101C0400239C07042390070603AECE02137EDEFF57
:101C140023A6CE0383AE0700137EF70793FE0EF8C8
:101C240033EECE0123A0C70103AE4702336E5E003C
:101C340023A2C70383AE0800014E23A27E0603DA63
:101C4400070663074E0303AE0703038A0600135E09
:101C5400FE00620E135E8E416358CA0103AE070391
:101C6400135EFE002380C60103DE0706137EFE0F0B
:101C740003AA4E0663060A0003DA8705E37F49FBDD
:101C840003AE4702337EEE0123A2C7038387060017
:101C9400635CF400034E03003396C9001346F6FF59
:101CA4003376C6012300C3003E8663D3A7002A8689
:101CB40013158601618505071377F70F8506E3136E
:101CC400F7F3B640264496440649F259625A6161D4
:101CD4008280973600009386A6219C42D84713162B
:101CE400170163550602984713161701635006023D
:101CF4007D57B8D717370000130787FC584F0507DF
:101D040017360000232CE6FC116798C798470D830B
:101D1400058B1DC3173700000347E71B1367170024
:101D2400173600002309E61A130700F817360000D7
:101D34002304E61A214798C79847058B09CF17371C
:101D44000000034737191367170017360000A30371
:101D5400E618054798C798470983058B09E798470C
:101D64000583058B31CF9847173600001306861676
:101D740017350000130545150983058B6303071008
:101D84001841184331830D8B75EBAC4B184E93F50A
:101D9400050203471700CDCD79EF13077006D8CF9E
:101DA4000347060013671700173600002304E612E2
:101DB400114798C718415C57F19B93E717005CD70C
:101DC4009C4298479316370163D606029736000063
:101DD40083C68624C18A173700001307A71CC5CE03
:101DE4000347470713670702973600002386E62256
:101DF400056798C798479316270163D106021737DA
:101E040000000347670D62076187635707000547B2
:101E1400973600002382E60C096798C79847931603
:101E2400070163D606029736000083C6F61E858A2C
:101E34001737000013070717ADCE0347570713677B
:101E4400270097360000A389E61C216798C7828083
:101E540029D785456315B7001307B00689B78945A7
:101E64006315B7001307F0061DBF8D456315B70052
:101E7400130730072DB71307500715B7130760076B
:101E840039BF034736001367170017360000A30451
:101E9400E604094739BF834647070946BD8A638874
:101EA400C600034747078D463D8BE313D7F411471C
:101EB40025BF83465707918AC9DA03475707136733
:101EC400870041B7397106DE16DC1ADA1ED82AD625
:101ED4002ED432D236D03ACE3ECC42CA46C872C68E
:101EE40076C47AC27EC0F533F250E2525253C253E2
:101EF4003255A255125682567247E2475248C2489A
:101F0400324EA24E124F824F216173002030173798
:101F14000000130727FE8346B7019737000083C7E5
:101F240037004C4BB697FD8B33D7F500973600003E
:101F3400A382F6FC97360000A384F6FE058B15EF0A
:101F440017370000034717FEB3F7E702814601473E
:101F54001305000233D6E500058A1378F70F19CA72
:101F64006397D70097370000A38607F98280850618
:101F740093F6F60F0507E31FA7FC8280973700004E
:101F84009387C7DD9C43011122CC4EC606CE26CAD8
:101F94004AC852C456C2829797370000938787F77E
:101FA400804781496305A406BE8497370000938760
:101FB400A7D6038767013E8963550706018D13542D
:101FC40055009737000083C787F49379F501636D53
:101FD400F402370AC0A8B70A4057153F9C44973605
:101FE400000083C6C6F2139756003E978307690123
:101FF400158C63C507006363470156979737000044
:1020040023AEE7F0E37BD4FC1604B3693401F24059
:1020140062444E85D2444249B249224A924A0561F9
:102024008280E37D85F8B707C0A833848740229572
:1020340079B797370000938767D29C43411122C434
:1020440006C626C28297973700009387A7EC80477D
:102054006309A406BE84973700009387E7CB838780
:10206400670163D80704018D1354550097370000A6
:1020740083C7E7E96367F404593D98449737000040
:1020840083C7E7E89396570036971D8C9736000070
:1020940023A6E6E8E372F4FE2244B24092441735E4
:1020A4000000034535E58145410117A301E06700C0
:1020B400837CE37A85FAB707C0A8338487402295E6
:1020C40065B7B240224492444101828097370000B0
:1020D4009387C7E69843B75702009387079F8326E1
:1020E40007091396560063580600832607091396BA
:1020F400660063440600FD17FDF3828071C5AA875C
:102104000145E9C58D07C207C183F19BC207C1839D
:1021140013074003636FF70217370000130707E83C
:102124000843173700001307E7E614436398A60231
:1021340017370000130747BE185B014541CB411117
:10214400C20706C60545DD8D0297B240014541012F
:10215400828017370000130727E4D9B703576500B7
:1021640035E303574500636FF704B306F740214690
:10217400637CD60203280500938687001D8FAA96E8
:10218400611717360000035606B42392E60023A015
:1021940006012393060014C12312F500130786FFDA
:1021A400973600002391E6B22313B500973500005B
:1021B40083D565B1B387F540173700002315F7B011
:1021C4002105828008419DB70145828082800DC12E
:1021D40097370000938787DC03A307009737000035
:1021E400938747DB83A8070081469A8763E3170137
:1021F400828003A80700636DF50A636BA80A13873E
:102204008700E367E5FE03D66700216705076317C8
:10221400E60003C741B50507238AE1B497350000FA
:10222400938505AA03D6470003D7650023930700C7
:10223400329742074183173500002316E5A8638AC5
:10224400670217350000130525D508416303F5021D
:1022540003D5660019ED83D7460023A006012107A4
:102264003E9621062392C60097370000239DE7A4DB
:10227400B6879843E30E17F7973600009386C6D1C6
:102284009442E307D7F683566700BDF283D647002E
:10229400035647001843A106B2962392D70098C369
:1022A40083D76500A10717370000231EF7A082809B
:1022B400BE86C28725BF011197370000938787CE5A
:1022C40022CC03A4C70B26CA4AC84EC606CEAA848B
:1022D40013092500854915C083C71400034734003A
:1022E400858B6304F700405CFDB7194693054400F1
:1022F4004A85EFE01F89E31835FF2285F2406244E6
:10230400D2444249B24905618280411197370000A5
:10231400938747C922C403A4C70B26C24AC006C672
:1023240093042500054901E82285B24022449244E1
:10233400024941018280A6851305A402974002E068
:10234400E78060F6E30225FF405CF1BF4111973757
:102354000000938727C522C403A4C70B26C24AC022
:1023640006C693042500054901E82285B2402244AB
:102374009244024941018280A6851305A401974035
:1023840002E0E78040F2E30225FF405CF1BF000079
:1023980097110020938101CC176100201301C1C55A
:1023A8001305400097E5FF1F938545C517060020D4
:1023B8001306C6FD63FAC5008322050023A0550055
:1023C80011059105E3EAC5FE17A502001305453B73
:1023D80097050020938585FB1386018C63FAC50059
:1023E8008322050023A0550011059105E3EAC5FEE7
:1023F800138501A497350020938545CC6377B500F4
:10240800232005001105E36DB5FEFD42739002BC63
:102418008D42739042809302800873A0023097E245
:10242800FF1F9382A2BD93E232007390523097420D
:1024380000009382E2F073901234730020303D4321
:102448002A876373C3029377F700BDEFADE59376F0
:1024580006FF3D8ABA960CC34CC30CC74CC741074C
:10246800E36BD7FE11E28280B306C3408A06970267
:10247800000096966780A6002307B700A306B7005A
:102488002306B700A305B7002305B700A304B700C8
:102498002304B700A303B7002303B700A302B700C0
:1024A8002302B700A301B7002301B700A300B700B8
:1024B8002300B700828093F5F50F93968500D58D9C
:1024C80093960501D58D61B7939627009702000072
:1024D80096968682E78086FA9680C1171D8F3E966B
:1024E800E374C3F8A5B7B7170040854603C8870546
:1024F800238CD70403C797051378F80F1367870051
:10250800A38CE704238DD704371700408347A7051A
:102518009305A705858BFDFB0565414737160040E8
:1025280005439308F5FF2380650083C60500858A67
:10253800EDFE8356C6057D17420793C6F6FFB3F630
:1025480016014183B69765F303479605A107918362
:10255800130505801377770F1D8DA30CE60442053C
:10256800230C060541858280B717004003C777050D
:102578001A0592054D8D1377E70F13653500A38B68
:10258800E7041375F50FA38CA7048280B7170040E2
:1025980003C777051377E70FA38BE704130700F842
:1025A800A38DE7043D47238CE70413075003A38C4E
:1025B800E70482800547B7170040238DE7043717E3
:1025C80000408347A705858BEDFF0355C7055205D6
:1025D800518182804111B7170040985F3AC6945FD5
:1025E8003247E39CE6FE3245410182801D71D2C428
:1025F8005EDE86CEA2CCA6CACAC8CEC6D6C2DAC00D
:1026080062DC66DA6AD86ED6AA8B6125B7170040F5
:10261800930670052380D704130780FA2A8A23803B
:10262800E7040100010003C6F70213668600A387CA
:10263800C70203C6F7021376760FA387C702238063
:10264800D7042380E7040100010003C6E7021376DC
:10265800C60F2387C70203C6E7021366160023873F
:10266800C7022380D7042380E7040100010013096F
:10267800803E33492503930A007D930480C103C734
:10268800370593095002130BA0041377870FA3890A
:10269800E70403C7370537140040116C13671700A8
:1026A800A389E704A167930D0404130D80FAE17C64
:1026B8007D1CB30A5903B344950233C7FA02916AE1
:1026C800B38434033AC6B309390333C7F402930415
:1026D8007005B3C7F9023AC88149330B69033ECA8A
:1026E800BD67938707A6B347FB02094B3ECC930708
:1026F80070052380FD002380AD01010001008347A0
:10270800340593E70702A309F40483570405B3E7E4
:1027180057012318F40483570405B3E79701C20748
:10272800C1832318F4048347340593F70702E5C3EC
:102738000347340593073405218B7DDB23809D00F7
:102748002380AD010100010003C707001377F70DCF
:102758002380E70003C70700136707022380E70009
:1027680083570405B3E757012318F4048357040576
:10277800B3E79701C207C1832318F40483473405DC
:1027880093F70702D5C383473405A18BEDFF99352D
:10279800AA873ECE8135F247E30DF5FE835704053F
:1027A800B3E757012318F40483473405A18BEDDF01
:1027B80003570405834724053377EC00B307FC026D
:1027C8003E97B2471D8FC24763D5E700D247634A99
:1027D800F706636A3B079386190093F9F60FE246FA
:1027E80093171700B3C7D7026355E02885072380DE
:1027F8009D002380AD01B3C76703010001000357A3
:10280800C402BA97C207C1832316F402CDB5238048
:102818009D002380AD01010001008347340593E743
:102828000702A309F40401B723809D002380AD01AA
:10283800010001008347340593E70702A309F40464
:1028480035BFE38A09F8B7170040130770052380DE
:10285800E704130780FA2380E7040100010003C797
:10286800370513F6FB0F930570051377870FA389B8
:10287800E70403C73705130580FA518FA389E704D6
:1028880083C63705138737059D8A6396761F930697
:1028980070052380D704930680FA2380D7040100AB
:1028A800010083460700130680FA93F6F60D23000D
:1028B800D7008346070093E606022300D70003D714
:1028C80007059166558F2398E70403D70705A16686
:1028D800558F2398E70493067005B717004003C780
:1028E8003705137707026304071AB717004083C632
:1028F800370513873705A18AFDDA9306700523800B
:10290800D704930680FA2380D70401000100834688
:102918000700130680FA93F6F60D2300D7008346C6
:10292800070093E606022300D70003D70705916640
:10293800558F2398E70403D70705A166558F239879
:10294800E70493067005B717004003C737051377E8
:102958000702630B07143717004083473705A18B1D
:10296800EDFF8D392A84BD31E30F85FE371700400E
:10297800835707059166D58F2318F704B7170040CA
:1029880003C7370593863705218B7DDB1307700551
:102998002380E704130780FA2380E704010001007D
:1029A80003C706001377F70D2380E60083D60705D3
:1029B80003C727059167FD17FD8EB387E7023747E1
:1029C8000F0013070724334AEA02BE9685679387E8
:1029D80007FAB397770113070008B3874703130A69
:1029E8000010B3C74703130A803EB3874703B3C732
:1029F800E7020547B31B770193DB3B403D671307AD
:102A080007A633892B03930B60559D8E9307800C83
:102A1800330979033349E902B387F602B3C72703B9
:102A28006351D00A8507094793067005B3C7E702C3
:102A3800371700402300D704930680FA2300D704F1
:102A48009607010001008356C702F6406644B69710
:102A5800C207C1832316F702D6444649B649264A17
:102A6800964A064BF25B625CD25C425DB25D2561C0
:102A78008280FD17ADBB2380B7042380A704010023
:102A8800010003C73705518FA389E704D5BB23800D
:102A9800D7042380C7040100010003C73705136763
:102AA8000702A389E70425BD2380D7042380C70430
:102AB8000100010003C7370513670702A389E7046C
:102AC80069B5FD178DB7914763EEB70217970200F6
:102AD8001307C7A58A05BA959C41BA978287B71785
:102AE800004003A7470B1345F5FF698F23AAE70AA0
:102AF80003A7070B698F23A8E70A03A7070A798D9D
:102B080023A0A70A8280B717004083A6470B134764
:102B1800F5FFF98E23AAD70A83A6070B558D23A89C
:102B2800A70A83A6070A758F23A0E70A8280B7172A
:102B3800004003A7470B498F23AAE70A03A7070BFF
:102B48001345F5FF45BFB717004083A6470B13474A
:102B5800F5FF758F23AAE70A03A7070A598D4DB712
:102B6800B717004003A7470B498FEDB7914763EEAE
:102B7800B702179702001307A79C8A05BA959C41CC
:102B8800BA978287B717004003A7470D1345F5FF8B
:102B9800698F23AAE70C03A7070D698F23A8E70C01
:102BA80003A7070C798D23A0A70C8280B7170040D4
:102BB80083A6470D1347F5FFF98E23AAD70C83A6E2
:102BC800070D558D23A8A70C83A6070C758F23A086
:102BD800E70C8280B717004003A7470D498F23AA47
:102BE800E70C03A7070D1345F5FF45BFB7170040CE
:102BF80083A6470D1347F5FF758F23AAE70C03A794
:102C0800070C598D4DB7B717004003A7470D498FDB
:102C1800EDB7B74700401147A381E7000947238074
:102C2800E700130700062380E70003C717001367B0
:102C38000701A380E70003C717001377E70FA380F6
:102C4800E7008280B747004003C707001377F70EF5
:102C58002380E7002382A7003747004083476700A7
:102C680093F70704E5DF8280B747004003C70700F2
:102C78001377F70E2380E7007D572382E700374755
:102C880000408347670093F70704E5DF03454700E3
:102C98008280B717004003D58700420541819377AA
:102CA800050491EB9377F5013755E8011305058085
:102CB8003345F50282809377050C13070004639768
:102CC800E7009377F50137459C1CCDB721651305BF
:102CD80005D08280B7F700E08847CC4782808147DB
:102CE80037370040A14663C4C70032858280034558
:102CF800B740E38EA6FE3385F5000345050085073A
:102D08002304A740CDB712059A054D8D1365C5005C
:102D18001375F50FB72700402380A7408280B72797
:102D2800004001E5A38007408280239CB740239E92
:102D3800C740154791E20547A380E74082804111CB
:102D480022C406C62A84B1372947B307E502B24030
:102D58008D83B3D7870222449507B3D7E702373765
:102D68000040C207C1832316F74041018280716584
:102D780041111305052006C6D937B7370040130798
:102D880070F82381E7400D47A381E740130700044B
:102D9800A380E74005472387E740B240410182808E
:102DA8009387C1A49C43411106C691C38297938718
:102DB80001A59C4391C38297170700200357A7A931
:102DC8009307C01263F7E70403D541809306B01256
:102DD80063E4A604938681A403A3060063070300A3
:102DE800B2401305C012410102830507098F3385DC
:102DF800A740E5473305F502420741830983930756
:102E0800F7FF3E953345E5021375F50FB2404101D2
:102E1800828013054006DDBF0145CDBF03A84500EC
:102E2800411126C206C622C4834718000348080079
:102E3800A944A207B3E70701C2070D68C1871308B1
:102E480028906396070385473284EF90803FAA84D1
:102E580019ED938741A49C4399CB0345140003477C
:102E680004002205598D1335150005058297B240D7
:102E7800224426859244410182802D452DEFD84178
:102E8800411122C426C206C683471700034707001C
:102E9800B684A207D98F0D67930697A13284639CE5
:102EA800D702FD3D9707002083C7C79A6376F500D0
:102EB800970700202380A79A85472390F400970757
:102EC800002083C727992300F4000145B24022441B
:102ED800924441018280130787902945E398E7FED1
:102EE800CC4589472390F4000946228597E0FF1FC7
:102EF800E780E0BFD9BF828083474500858BBDC787
:102F0800011122CC2A8403552500938581BC06CE65
:102F1800EF90E02D058939C5035524000147814606
:102F28000546ED45EF8010672AC60DCD97F7FF1FC0
:102F38009387C74583D7A70201462C002314F100C5
:102F480085472315F1009707002083C7A790230022
:102F5800F50003552400EFA0600609C5ED452800DB
:102F6800EF80107BF2406244056182808280416577
:102F78004111938581BC7D1506C6EFA07075B240DE
:102F880097F6FF1F938686454146954517F5FF1F1F
:102F98001305C53F41016FA0D06823A2A1A4828078
:102FA800411122C406C6854709446313F5028347C5
:102FB800060001442380F1A41707002003478789EE
:102FC8006378F70017050000130545F3EFD0202DAF
:102FD8002285B24022444101828085476303F5027D
:102FE80009C909476304E5020D476308E502094575
:102FF80082809707002083C7E7852380F500014575
:103008008280938701A483C70700C5BF97F7FF1F76
:1030180083D767382390F500DDB71387818003577E
:1030280007002392E50017F7FF1F1307273683567B
:10303800A7020357A7032383F5002390D500239104
:10304800E50075BF411106C6A13B9707002083C75D
:103058006780637CF50097F7FF1F238DA77E170510
:1030680000001305A5E9EFD08023B24001454101D6
:10307800828041677917630CE502411122C406C6B4
:1030880085472A84639AF50022852244B2409385B5
:1030980081BC41016FA0D06389476396F5008545DF
:1030A800EFD0601A75D1B2402244410182808280FB
:1030B800CC41411106C6328503C6150083C50500FB
:1030C80022064D8E42068D654186138875A2630CD3
:1030D800060F6348C804138845A26306060B634AB3
:1030E800C800938535A26309B606239006002946D1
:1030F80079A0138855A26308060B938565A2E31689
:10310800B6FEC1451D4663ECE5064546198E63F3D8
:10311800C7003E862390C6009785020093858544A4
:1031280089A8138895A26300060F634E060B1388BF
:10313800A5A2630A060F938505A5E318B6FA994573
:103148001D4663EEE502198E63F3C7003E862390A1
:10315800C6009385018131A89D451D4663E1E502BE
:103168002146198E63F3C7003E862390C6009385D7
:1031780041A5BA9597E0FF1FE78060970146B240E6
:10318800328541018280AD451D46E3EAE5FE3146C0
:10319800198E63F3C7003E862390C6009785020008
:1031A80093850540F9B7B1451D46E3EAE5FC354688
:1031B800198E63F3C7003E862390C60097850200E8
:1031C8009385053F7DB7C1451D46E3EAE5FA4546C7
:1031D800198E63F3C7003E862390C60097850200C8
:1031E8009385853979B7C1451D46E3EAE5F8454633
:1031F800198E63F3C7003E862390C60097850200A8
:103208009385053CBDB7C1451D46E3EAE5F645464D
:10321800198E63F3C7003E862390C6009785020087
:103228009385C536B9B7B5451D46E3EAE5F4394691
:10323800198E63F3C7003E862390C6009785020067
:10324800938545313DB797F6FF1F9386E62C414697
:10325800CD4517F5FF1F130525196FA0903C8280F7
:10326800938701A79C4303C741A683C6F18101E761
:1032780081473E85828003D607006316A60003C6F1
:103288006700E308D6FE7D171377F70FA107C5B7C8
:10329800B2862E86AA8517850200130525376F602A
:1032A80032710111930500030D4506CEEF50302C05
:1032B800930500051145EF50902B9305C003054574
:1032C800EF50F02A85471306F10085451305503065
:1032D800A307F100EFE0B162F24005618280854703
:1032E800631AF5001166130686A9894503C551A618
:1032F8006F30007989476317F500894503C551A6E2
:103308006F303019828085476398F50019E2238F62
:10331800B1A4238AC1A6828009476399E50019E60A
:10332800238FF1A403D5C1A56F00A07B828093876A
:1033380081A69C43011122CC06CE2E8481CB9C47CA
:1033480091C78297F2406244056182806C00130540
:103358007040EFD0C13C324681452285EFD0817E56
:10336800D5B701119397050126CA06CE22CC4AC8C3
:103378004EC652C4C187AE8463D7070803C551A699
:10338800EF30C0142A8439C9034705009307000D9C
:103398006313F704834725004547638BE7046547B4
:1033A800639BE702178502001305C522EF60526090
:1033B800130954009309B400178A0200130ACA2299
:1033C8008345090052850509EF60925EE39A29FF5B
:1033D8002945EF60F2612285EF3020082165258DAF
:1033E800F2406244D2444249B249224A056182808D
:1033F8000346650083457500178502001305451FC0
:10340800EF60125BC9BF93F7150085C317F6FF1F5E
:103418001306061297F5FF1F9385C51003C551A61D
:10342800EFE0711C13C5140065BF93F72500014533
:10343800C5DB09391166130686A9894503C551A656
:10344800EF30006413C5240061BF797126D24ECED7
:1034580006D622D44AD052CC9147AA84AE896314A6
:10346800F50483D7A5001306E10085451305503000
:10347800239EF1A423070100238F01A4EFE0314824
:10348800938781A69C4391C7DC4781C7CE85268553
:103498008297B250225423A091A602599254F2491D
:1034A800624A45618280138701A61843E31AF7FC34
:1034B800854503D5C1A5753E854503D5C1A54125DB
:1034C800C16703DAC1A5F917631BFA02054493051E
:1034D800E10013055041238F01A4A38F81802307A6
:1034E8000100EFD0C1238347E100B1E303C741A73F
:1034F8009147E317F7F87533238A01A651B79387E5
:1035080001A703A9070003C441A669D003552900F0
:1035180011C99305E100EF90E03209C54C45528589
:10352800EFA0101B7D141374F40F2109F9BF9387C2
:10353800C1A69C4383C74700898BCDDB9305000A4E
:103548000D45EF50D0029305000A1145EF503002A7
:1035580081450545EF50B0011306E1008545130587
:10356800503023078100EFE0913949B70111170561
:103578000000130545DF06CE22CCEF305019138426
:1035880051A685471306F10085452300A4001305BD
:103598004041A307F100EFD071027D55EF80C0478D
:1035A8007D55EFA0D00F4531D932192317050000FA
:1035B800130525D3DD3217050000130585CA392BFD
:1035C800034504008545EF306039F24062440561E7
:1035D800828023A4B1A623A6A1A6828023A8B1A68F
:1035E8002382A1A68280938701A69C43797106D67F
:1035F80022D426D24AD04ECE52CC1147639BE70440
:1036080083C7E1A5414481CF938701A78043B28452
:10361800B68983C741A603C7F18199EB5544228532
:10362800B250225492540259F249624A456182804A
:1036380083464400639AA600834654006396B60006
:10364800834664006380E606FD1793F7F70F2104AD
:10365800E9B709474144E384E7FC2C0013055041CE
:1036680023040100EFD0A10B834781008DCB930584
:1036780000020D45EF50A06F930500031145EF5070
:10368800006F95450545EF50806E854730008545AC
:10369800130550302304F100EFE0712649B71131CA
:1036A8004144B5BF0355240093056100EF9080198C
:1036B80035D54C4503D5C1A5EF807033058939DD73
:1036C8001399040113590901014781464A86ED45BA
:1036D80003D5C1A5035A0400EF80C06B2AC64D4428
:1036E8001DDD2686CE85231441012315210197D09F
:1036F800FF1FE780C03F01462C0003D5C1A5EF900E
:10370800F00B2A84E30D05F0ED452800EF8050000A
:1037180039B7C841011122CC06CE328403461500C0
:10372800034505002206498E19CB0D681308B8A475
:103738002D4563090607F2406244056182800D65E4
:103748001308D5A463000603130825A2630C060119
:1037580075781308E85C32984208135808018548C0
:1037680063EE080303D5A50036C632C4D53CB2467D
:1037780015C1938781A69C4322468345550003A320
:103788000700A2876244F240034545003687854614
:103798000561028323900600014571BF1308B5A493
:1037A8006317060303D641821D45E376C7F8198ED1
:1037B80063D3C7003E86CC452390C60042064182AB
:1037C800BA95228597D0FF1FE7806032F1B793073B
:1037D800A5A46318F60091472390F6001146CC453E
:1037E800CDB7930785906317F60089472390F600B5
:1037F8000946F5B79307E5A4631AF600DC4523905C
:10380800160183C707002300F40079B713057590E4
:10381800E314A6F8D9BF011122CC06CE26CA4AC89D
:103828002317D1002D4429EBDC412E89B28403C42F
:10383800170083C7070022045D8C8D679386D7A481
:103848006306D400938627A3631FD4020355A900F7
:10385800013C19E101440DA0938781A69C4383454F
:1038680055000345450003A807002286A6871307CD
:10387800E100814602982A842285F2406244D244BB
:103888004249056182809386C7A46314D402835792
:10389800E10005473544E391E7FE034506001304BC
:1038A8000008E3EBA7FC938781A69C43DC4382973F
:1038B80055B793862790631AD4028356E10085474B
:1038C800EF8030182A844DF9938701A78356A90001
:1038D8009C4303C741A63DDF03D627006302D604F5
:1038E8007D171377F70FA107FDB79387E7A4E313B5
:1038F800F4F68357E10005473544E39FE7F60345AF
:10390800060013040008E3E9A7F6DC452380A700B6
:10391800938781A69C433335A0000905DC4341BF4A
:10392800138781A6184303C5470083C5570083C77B
:1039380014000328070003C70400A2078946D98F8B
:10394800C207C18705476383E7008D460D66A687D2
:103958001307E10013062690029839BF416541110B
:10396800938581BD7D1506C622C426C24AC097F438
:10397800FF1F9384A4BCEFA0A05597F6FF1F938662
:10398800E6CD4146C9452685EFA0A049CC4C2A89F9
:103998000945EFF08FE49387C18283D7070013842A
:1039A80081BE138781822312F40083D7A40C0357A6
:1039B8000700938581BF2310F40083D7A40D231635
:1039C800E40003D7A4102311F4000D458547230311
:1039D800F4002314E4002307F40023150400EFF097
:1039E800CFDFA2850D45DD3EB24022444A85924490
:1039F8000249410182808D679387D7A40145631FDF
:103A0800F6008D472945639BF50085473545639743
:103A1800F600834707000145238BF1A682808D6756
:103A28009387D7A4631EF6008D47639BF50083C771
:103A380061A72300F70085472390F600014582809F
:103A480023900600E5BF0145828025E303A84500D1
:103A5800AE888347180003480800A207B3E70701A8
:103A68000D68930EF8A4639AD70391473548639F6E
:103A7800F60203A5C8004111B285114606C697D0C3
:103A8800FF1FE780C006938741A89C43054582979E
:103A9800B240014842854101828093082890294814
:103AA8006396170185476F80C0792D4842858280CB
:103AB80041654111938501C07D1506C6EFA04041BF
:103AC800B24097F6FF1F938626C04146994517F5E1
:103AD800FF1F130565B941016FA0A03423A2A1A857
:103AE80082800111938501C022CC06CE2A84EF8002
:103AF8000070058929C1014781460546ED452285A3
:103B0800EF8040292AC605C997F7FF1F9387C7B5D5
:103B180083D7A70501462C002314F10085472315F8
:103B2800F100230005002285EF90404909C5ED45C5
:103B38002800EF80E03DF2406244056182804167E1
:103B48007917630CE502411122C406C685472A8409
:103B5800639AF50022852244B240938501C0410151
:103B68006FA0003789476396F5008545EFC0A06DC3
:103B780075D1B2402244410182808280938741A955
:103B880083950700138701C1138641C28147835675
:103B980007000907AE96B697E31BE6FE2947B3D799
:103BA800E7021387C1A818439386870C63E9E600E8
:103BB800138701A9184323A6E1A823A8F1A88280A6
:103BC80041118945014522C426C206C6EFE0DF99A6
:103BD800B7170040238C0704138401C1938441C2A2
:103BE800EFE05F9D2310A4000904E31B94FE224428
:103BF800B2409244410159B741118545130500204F
:103C080006C622C4EFE09FF6854513050010EFE0D5
:103C1800FFF50564130504808D45EFE03FF5371780
:103C280000408327C70C1304048081455D8C23263C
:103C3800870C4145EFE03FE989450145EFE0DF9218
:103C4800EFE07F8A239AA1A8A53F2244B24003C58A
:103C5800C1841306000A894541016F207062828081
:103C68003D897D15954763EAA70E1787020013075C
:103C7800279F0A053A951C41011106CEBA978287FB
:103C88002C0013054030EFE041342C000545EF705F
:103C9800001B17850200130525A1EF60A26511A876
:103CA80003C725008D47178502001305E5A0E30625
:103CB800F7FEF2400561828003C725009547E31AA5
:103CC800F7FE83D7A5000D6613060620914503C5A8
:103CD80021842390F184EF20B05A17850200130540
:103CE800A59E65BF03C725008D47E314F7FC17851C
:103CF80002001305259E55B783C725001147178570
:103D080002001305A59E638EE70219476394E70234
:103D180083C56500178502001305059FEF604249BA
:103D2800854730008545130550302304F100EFE046
:103D3800013D41B71547E395E7FE178502001305D6
:103D4800659EEF60225BE9BF83C5250017850200E9
:103D58001305C59EEF60C245A9BF82803688BA8622
:103D68003E876315080083C6060071B18547631353
:103D7800F80075B10145828001119397050122CCA5
:103D880006CEC1872E8463DF070003C52184EF2098
:103D9800E07319C1EF20606C2165218DF240624407
:103DA8000561828093F7150013C51500E5FB93F7AD
:103DB800450099CF83C721841307401F81462146B8
:103DC800A14503D50184EFD0717B13454400F9B7B1
:103DD80093F785009DC3014789460946814503D568
:103DE8000184EFE0A162AA85178502001305C58842
:103DF800EF60023C1345840055B793F72500014551
:103E0800D1DF83C7F1AA83C6E1AAA207D58F93861B
:103E1800C1AA83C60600C207C1872307F100A18390
:103E280003C7D1AA2306D1008D8B7400114685459E
:103E3800A306E100A307F100EFF0EFFA1345240011
:103E4800B1BF011117050000130545F306CE22CCBA
:103E580026CAEF30C00B9384218405442380A40034
:103E6800700085451305503023068100EFE02129B5
:103E7800138601839D4513056030EFE0412817F64E
:103E8800FF1F13062686E14513057030EFE0212752
:103E9800177602001306C67FD5450145EF70B02995
:103EA8008D4770009145130570402305F1002304E8
:103EB8008100A305810002C6A3040100EFC01170B0
:103EC8003000854513050040EFC0516F130691007F
:103ED800854513051040EFC0716E1306A100854596
:103EE80013052040EFC0916D1306B10085451305F9
:103EF8005040EFC0B16C99477000854505452306D1
:103F0800F100EFF0EF89EFF07FA597E5FF1F9385AC
:103F1800657C13858183EFF0CFEB03C504008545ED
:103F2800EF20D023F2406244D24405618280978713
:103F380002009387A7848C43011106CE22CC26CA9F
:103F48004AC84EC6AA843764375FEF50F20393D746
:103F580014401304F49D1D8CAA89AA852285EF506C
:103F6800B202A285EF505202178902001309498153
:103F7800AA8503250900EF50322AA285EF50D20006
:103F8800CE852A84EF505200A285EF50E27FAA85A1
:103F980003250900EF505228A285EF50E27EA6853E
:103FA800EF50827EF2406244D2444249B2490561F0
:103FB8008280011122CC371400400327C40A26CA84
:103FC800856406CE2EC6458F2326E40AEFE09FC7F8
:103FD800B2452E85EFE01FC78327840AF240C58FBC
:103FE8002324F40A6244D24405618280411122C428
:103FF800371400400327C40A26C2856406C6458FC5
:104008002326E40A13650508EFE0DFC3EFE0DFC508
:104018008327840AB240C58F2324F40A2244924499
:1040280041018280371700408327C70A41118566FE
:1040380022C426C206C6D58F2E84B2842326F70A48
:1040480013650508EFE01FC0A294631F940037179B
:1040580000408327870AB24022448566D58F2324EF
:10406800F70A9244410182800504EFE0FFBFA30FE5
:10407800A4FEE1BF01112C0019461305B00306CEBA
:1040880055378347810083469100138701C3A207F0
:10409800D58F231CF7008347A1008346B100F24067
:1040A800A207D58F231DF7008347C1008346D1009F
:1040B800A207D58F231EF7000561828001112C000D
:1040C80019461305300406CEB13F83478100834665
:1040D8009100138701C3A207D58F231FF7008347D9
:1040E800A1008346B100F240A207D58F2310F70242
:1040F8008347C1008346D100A207D58F2311F70259
:1041080005618280011122CC26CA4AC84EC652C413
:1041180006CE93094006014481440149138A01C32C
:10412800713F8317EA011545FD193E9983170A0265
:10413800BE9483172A023E9497C0FF1FE780A018F9
:10414800E39009FE930740063344F402F240B24973
:10415800224A3349F902B3C4F402239C81C462445D
:10416800239A21C54249239B91C4D2440561828088
:10417800011122CC138401C30315840106CE26CA7B
:104188004AC84EC652C4977902009389E95CEF5039
:10419800324183A50900177902001309295C977435
:1041A80002009384E45BEF50225E83250900EF5000
:1041B800A25D8C402A8A0840EF50025DAA8552858C
:1041C800EF40127508C00315A401EF50723D83A596
:1041D8000900EF50625B83250900EF50E25A8C40DA
:1041E8002A8A4840EF50425AAA855285EF405272B7
:1041F80048C00315C401EF50B23A83A50900977966
:10420800020093892956EF50225883250900EF5060
:10421800A2578C402A8908449774020093848455D5
:10422800EF508256AA854A85EF40926E08C403155E
:10423800E4018317440217790200130929531D8DDD
:10424800EF501236EF50324203A6090083A6490008
:10425800EF40E2280326090083264900EF30124286
:104268009040D440EF309241EF50B24A8317640235
:1042780048C4031504021D8DEF509232EF50B23E30
:1042880003A6090083A64900EF406225032609001A
:1042980083264900EF30923E9040D440EF30123EE2
:1042A800EF5032478317840208C8031524021D8D76
:1042B800EF50122FEF50323B03A6090083A64900A6
:1042C800EF40E2210326090083264900EF30123B24
:1042D8009040D440EF30923AEF50B24348C8F24091
:1042E8006244D2444249B249224A056182805D71E2
:1042F8005AD85ED6032B4500832B05004EDE832952
:104308008500A2C4DA852A845E8586C6A6C2CAC08C
:1043180052DC56DA62D466D26AD06ECEEF50C2460C
:10432800CE85EF50624693050000EF5022406305AA
:10433800053ADE855E85EF5022452A8CDA855A8556
:10434800EF508244AA856285EF40925C2A8CCE8524
:104358004E85EF506243AA856285EF40725BC13E8D
:10436800977702009387873EAA85884397E4FF1FC3
:104378009384C43803A9C400EF502210AA8DAA85DB
:104388005E85EF50624003AA840083AA440083AC90
:1043980004002A8D08C0EE855A85EF50E23E2A8C2B
:1043A80048C0EE854E85EF50223EAA8B08C4CA85C8
:1043B8005685EF50623DAA89D2856685EF50C23C8A
:1043C800AA854E85EF504265AA85EF407254AA89A6
:1043D800D6856685EF50423B2A8BCA855285EF50B9
:1043E800A23AAA855A85EF40B252AA85EF405252A6
:1043F800AA8DE6856685EF5022392A8BD6855685A3
:10440800EF508238AA855A85EF5002612A8BD285EF
:104418005285EF506237AA855A85EF50E25F2A8BA2
:10442800CA854A85EF504236AA855A85EF40524ED2
:10443800AA852AC26285EF5022352A8BEE855E85D1
:10444800EF508234AA855A85EF50025D2A8BCE85BB
:104458005E85EF5062331247AA8B6A85BA85EF50A2
:10446800A232AA855E85EF50225BAA8BEE856A850B
:10447800EF5082312A8DCE856285EF50E230AA85D1
:104488006A85EF506259977902009389692C83A550
:104498000900AA8D5A85EF50222F138C81A98325F4
:1044A8000C00EF40F24683A509002320AC002AC681
:1044B8005E85EF50622D138CC1A983250C00EF4057
:1044C800324583A509002320AC002AC46E85EF502D
:1044D800A22B138C01AA83250C00EF40724393850D
:1044E800818403AD0500938541842320AC002AC252
:1044F80003AC05006A85DA85EF5002294C44EF4089
:10450800324132462A8BE2853285EF50E227AA856E
:104518005A85EF40F23F2A8B48C4DE856A85EF5002
:10452800A2260C48EF40D23EA246AA8BE2853685E9
:10453800EF508225AA855E85EF40923DAA8B08C878
:10454800EE856A85EF5042244C48EF40723C124792
:10455800E2852A8D3A85EF502223AA856A85EF40A5
:10456800323B2A8C48C837050080DA853345550127
:10457800EF5082212A84D2855E85EF50E220AA85F9
:104588002285EF5062492A84CA856285EF50C21F8E
:10459800AA852285EF50424883A50900EF50C21E24
:1045A800E685EF40F2362A84AA855A85EF50C21D67
:1045B800AA8CD2856285EF50221DAA856685EF40B8
:1045C8003235AA8CCA855E85EF50021CAA8566859D
:1045D800EF50824483A50900EF50021BD685EF40B7
:1045E8003233AA8AA2855E85EF50021AAA8CD68534
:1045F8006285EF506219AA856685EF50E241CA8547
:10460800AA8C5A85EF504218AA856685EF40523029
:1046180083A50900EF504217D285EF40722F2A8AEE
:10462800A2856285EF5042162A8CD6855E85EF50AA
:10463800A215AA856285EF40B22DAA8BD2855A852C
:10464800EF508214AA855E85EF50023D83A50900CC
:10465800EF508213CA85EF40B22BAA89A285228522
:10466800EF5082122A89D6855685EF50E211AA8525
:104678004A85EF40F2292A89D2855285EF50C21027
:10468800AA854A85EF40D2282A89CE854E85EF50E3
:10469800A20FAA854A85EF40B227EFF05F89977786
:1046A80002009387A70AAA858843EF40125D2A89EA
:1046B800AA852285EF50420D88C0CA855685EF50DD
:1046C800A20CC8C0CA855285EF50020C88C4CA859E
:1046D8004E85EF50620BC8C4B6402644964406493E
:1046E800F259625AD25A425BB25B225C925C025D1A
:1046F800F24D6161828097E7FF1F938727008C4303
:1047080039714AD803A947002E8506DE22DC26DA4D
:104718008047C4474ED652D456D25AD05ECE62CCC9
:1047280066CA6AC8EF40D21E2A8BCA854A85EF40FE
:10473800321EAA8BA2855A85EF500205AA89A68542
:104748005E85EF506204AA854E85EF50E22CEF504B
:104758008271977A0200938A6A01EF10D27E03A6CB
:104768000A0083A64A00177A0200130AAAFF93894F
:1047780041C2EF30D25603260A0083264A00177D2D
:104788000200130D2DFDEF30626FEF50827823A0E9
:10479800A900A2852285EF40B21783250D00AA8CB7
:1047A8004A85EF40727ECA85EF40127E2A8CA28528
:1047B8006685EF40727DAA856285EF50E225177CF9
:1047C8000200130CACF883250C00EF407214EF5074
:1047D80082692AC42EC66685A685EF40F27AAA8C1D
:1047E800CA855A85EF40527AAA856685EF405212EB
:1047F800EF5062672246B246EF20C20003A60A00C5
:1048080083A64A00EF30B24D03260A0083264A00E9
:10481800EF30C266EF50E26F83250D0023A2A90096
:104828002285EF407276A285EF4012762A89A68506
:104838002685EF40F20DA685EF401275AA854A85B8
:10484800EF50821D83250C00EF40920CEF50A261BF
:104858002AC42EC65E85A285EF4012732A84A685D7
:104868005A85EF407272AA852285EF40720AEF508E
:10487800825F2246B246EF10F27803A60A0083A6AA
:104888004A00EF30D24503260A0083264A00EF305B
:10489800E25EEF500268F250625423A4A900D25499
:1048A8004259B259225A925A025BF24B624CD24C8C
:1048B800424D21618280411106C6EFF0AFFBEFF057
:1048C800EFFFEFF0FF8A138501C3EFF05FA2B2405C
:1048D800410115B5411122C4371400408327840AC9
:1048E8001D6706C6D98F26C22324F40A8D451D6587
:1048F800EFE06F9D8327840A21678545D98F23249C
:10490800F40A2165EFE02F9C8144EFE08FB0494421
:1049180063958406930500081305B006EFF06FE968
:104928001305400697C0FF1FE780E09981451305EE
:10493800B006EFF00FE885451305B006EFF06FE716
:1049480085451305C006EFF0CFE685456945EFF0CC
:104958004FE69D456545EFF0CFE5E1456D45EFF044
:104968004FE5C1457145EFF0CFE42244B24092448F
:104978008D45754541016FF0CFE3094597C0FF1F8D
:10498800E780609413055007EFF04FE6AA8449B713
:10499800411106C69387C1AA2381A70021810D89E9
:1049A800A381A7009305000203C50188EF10107BBF
:1049B800B24003C52184894541016F10307A23A490
:1049C800A1AA13064006854503C5C1846F20400B84
:1049D800239201AA23A401AAB717004003A7070C32
:1049E800C175FD156D8F23A0E70C03A7070C017691
:1049F8007D16718F23A0E70C03A7070CB706F0FFFD
:104A0800FD163D9B23A0E70C03A7070C1377F7FDC2
:104A180023A0E70C03A7070A1377F7FD23A0E70AEB
:104A280003A7070C799B23A0E70C03A7070A1377B2
:104A3800F7FB23A0E70A03A7070C758F23A0E70C51
:104A480003A5070C3707C0FF7D17798D23A0A70C96
:104A580003A5070C759923A0A70C03A5470DE98D9D
:104A680023AAB70C83A5070D4165C98D23A8B70CE8
:104A780083A5470D170500001305C5F16D8E23AA00
:104A8800C70C03A6070DB70502004D8E23A8C70C57
:104A980003A6470D3D9A23AAC70C03A6070D136664
:104AA800060123A8C70C03A6470D1376F6FD23AA13
:104AB800C70C03A6070D1366060223A8C70C03A696
:104AC800470B1376F6FD23AAC70A03A6070B13663E
:104AD800060223A8C70A03A6470D799A23AAC70C7A
:104AE80003A6070D1366160023A8C70C03A6470BD9
:104AF8001376F6FB23AAC70A03A6070B1366060458
:104B080023A8C70A03A6470DF18E23AAD70C83A6AC
:104B1800070D37061000D18E23A8D70C83A6470DA2
:104B2800758F23AAE70C03A7070DB7064000558F1A
:104B380023A8E70C03A7470D759B23AAE70C03A737
:104B4800070D1367270023A8E70C95BDB71700408A
:104B580003A5470C83A7470C4181134515001397FC
:104B6800E70005896344070013652500B71700406F
:104B780083A7470CC18B99E313654500B71700401D
:104B880083A7470C93F7070299E313658500B717C6
:104B9800004083A7470A93F7070299E313650501C5
:104BA800B717004083A7470C858B99E31365050267
:104BB800B717004083A7470A93F7070499E31365DB
:104BC8000504B717004083A7470C1397B700634441
:104BD800070013650508B717004083A7470C13970C
:104BE80097006344070013650510B717004083A7B3
:104BF800470C898B99E31365052083D741AA638BFA
:104C0800A7002392A1AA938781AA03A3070063039D
:104C180003000283828011456FD05F9D41119396F6
:104C28002500AA852D4506C697C0FF1FE78080B5D9
:104C3800B240014541018280411126C2939425006A
:104C480022C44AC02A843289A686AA8501462545F7
:104C580006C697C0FF1FE780E0B2A6864A86A285EF
:104C6800294597C0FF1FE780E0B1B2402244924433
:104C78000249014541018280011122CC06CE371438
:104C8800004026CA4AC84EC652C483447405034A23
:104C9800B4058349840503499405EFD03F8F8347C2
:104CA800A40593F4F40F137AFA0F93E71700230D72
:104CB800F40493F9F90F1379F90FB717004003C7F4
:104CC800A705058B6DFF03D5C705A38D4705238C65
:104CD8003705A38C2705A38B9704F2406244D2447E
:104CE8004249B249224A05618280411193970501E0
:104CF80022C406C6C1872E8463DD0700EF10007D3D
:104D080019C1EF1080752165218DB24022444101FF
:104D180082809397250163D00702EF70F119E53D72
:104D280037F60200130606E0896503C5C184EF1053
:104D380030550965D1BF93F7150081CF013D1306A2
:104D48000002854503C5C184EF1090531345140034
:104D58006DBF93F7450081CFEFF0FFB54146914510
:104D680003C5C184EF10D0511345440079BF93F7B0
:104D7800050195C3014541240545B52C0945A52CD8
:104D88000D45952C4146C14503C5C184EF10504FD0
:104D9800134504019DBF93F7850089CFEF00E063B9
:104DA80013060006A14503C5C184EF10704D1345D5
:104DB8008400A1BF93F725000145E38807F4EFE0DD
:104DC8003FE00966130606F4894503C5C184EF1060
:104DD800304B1345240015BF1D71494697750200D5
:104DE8009385459A177502001305051786CE97C057
:104DF800FF1FE780C0D801E9177502001305C599A0
:104E0800EF50424F01A0B7F600E0795798CAFD5716
:104E1800DCCA0567B7E700E023A0E7101306F00235
:104E280090C223A0E718010001001306C0038145C2
:104E3800480897C0FF1FE78000CF97E7FF1F9387B9
:104E4800275F3ECA896793870780231CF100ED47D7
:104E58002312F1029547A301F10285472303F102CA
:104E6800B5472304F102A167938707E03ECE970771
:104E780000009387E7DABEC497070000938707DC32
:104E8800BEC68567938727D02315F10297E7FFFFF2
:104E9800938787E43EDAB7F5070097070000938702
:104EA800E7DD3EDE814697070000938707D770004D
:104EB800E1051945BEC097C0FF1FE780A08C5808C0
:104EC8008147994670003E96034606008507050708
:104ED800A30CC700E398D7FED24791C703578101B7
:104EE80085676373F70001A04808EF200006AA85CC
:104EF80001C9177502001305658BEF50622B01A0DD
:104F0800F64025618280411117050000130525DE52
:104F180006C622C4EF10B07F1384C1842300A40006
:104F2800B920EFF03F9BEFF0EF9DEFE0FFCCBD28FD
:104F38006520EFF0FFA9492EBD21034504001306A3
:104F480000649145EF10D033034504001306006454
:104F5800A145EF10F032034504002244B24037F671
:104F68000200130606E0896541016F107031411196
:104F780006C6B7170040130770052380E704130718
:104F880080FA2380E70403C7F7021377A70FA387E4
:104F9800E70203C7F70213672700A387E702EFF0CA
:104FA8009FC7B240014541016F20602D85663707D4
:104FB800A50A9387C1C5938656AA1306707B130763
:104FC800777B2392D7002391C70098C72398D700EF
:104FD8002397C700D8CB8280411181453D4506C63D
:104FE800EFD07FAEB24003C5C1841306000AC145A5
:104FF80041016F10F028411106C622C426C24AC0DA
:10500800854763F3A7089304E5FF8D4793F4F40FEE
:1050180063EFA7109777020093870772AA9703C9CF
:10502800070081452A840145EFD00FD4B717004007
:10503800238C2705EFD00FD89387C1C59306607BD3
:10504800C1E063E5A60419473307E4023E97035716
:10505800070063F8E60C05472386E1AA19473304DD
:10506800E402930500023E942310A40003C50188BE
:10507800EF10D00E2244B2409244024903C5218465
:10508800894541016F10900DAA8469B71947330704
:10509800E4028566938656AA3E970357070063F68F
:1050A800A60063E0E6087D5745BF130797844207CB
:1050B80041839306E02E63F6E606238601AA79BFAC
:1050C80063E1A60219473307E4023E970357070036
:1050D80063F9E6041387C1AABA947D572380E400D4
:1050E800B5BF19473307E4028566938656AA3E97EB
:1050F8000357070063F9A60063E5E6021387C1AA10
:10510800BA940547E1BF1307978442074183930682
:10511800E02E63F8E6001387C1AABA94238004003E
:1051280035BF19473304E402A2972390A700B24081
:105138002244924402494101828082808280011186
:1051480006CE02C42316010083C7018C93061006FD
:105158006395D70683C7218C9306C0061387018CF5
:10516800639DD702834747000D47938707FD93F751
:10517800F70F636AF7002304F10019462C001305A2
:105188001008EF007073130600049385018C114515
:10519800EF00307EF2400561828093062007E39499
:1051A800D7FE834747000D47938707FD93F7F70F0F
:1051B800E36BF7FCA304F100C9B713072006E394D7
:1051C800E7FC03C7218C930607FD13F6F60FA547E6
:1051D800E3EBC7FA8547130787FCB396D700B39765
:1051E800E7002306D100A306F10041BF411122C404
:1051F8001384019022859305000206C6EF106019FA
:10520800A2851306000213052008EF00F06AA285A4
:105218002244B24013060002094541016F0070752F
:1052280093F7F50381EB99C50146814513054008BD
:105238006F009068238A01AA828093F7150091CBAA
:10524800B7E700E03707400023A0E71013C51500B3
:105258008280411122C406C693F705022E8491CF9D
:1052680011469385C1AA13051008EF00F064134591
:105278000402B240224441018280939735010145DE
:10528800E3D907FE85651306003203C50188EF10D0
:10529800207F85653345B400E9BF8280411113063C
:1052A800000293850190094506C6EF00906CB24054
:1052B800130600049385018C114541016F00706B42
:1052C8008280828082808280411117050000130548
:1052D80005F706C6EF10B0432380A18817650200C2
:1052E8001305C54EEF0050241306E002976502002F
:1052F8009385C55A138541C7EF00302CEF0010265F
:1053080013850186EF00B02713858186EF003027CB
:1053180013062002976502009385455B138541C9F2
:10532800EF00B029EF00902313850187EF003025A7
:1053380013858187EF00B024138541CBEF007039C6
:10534800EF00D021138541CDEF00B038EF001021D8
:1053580013850185EF00B02213858185EF00302287
:10536800EF009025EF00F02475DDB2404101828006
:10537800B7E700E03707400023A0E7105947238824
:10538800E70417B7FF1F130747FB13671700B8D3C6
:105398008280938781D0138781F4E14694C3910773
:1053A800E39EE7FE8280411122C437140040832720
:1053B800840A06C68D4593E707402324F40A13059B
:1053C8000040EFD04FF08327C40AB24093E707406C
:1053D8002326F40A224441016DBF411106C603C7C2
:1053E80051AB8547631EF704A38A01AA938741CF6F
:1053F800138761D023810700A3800700238007005B
:105408008D07E399E7FE23AC01AA238E01AA513741
:1054180081450145EFD03F8FB240B72700401307C1
:10542800B004138601F5938581D023A6E740420690
:10543800C20581464182C181054541016FD03F8E39
:10544800938741889C438297E1B741119387C1AC08
:1054580022C4804326C24AC006C6AA842E8919E4FB
:10546800B240224492440249410182801C4881C7CB
:10547800CA85268582970040DDB7011106CE83478D
:1054880025002304F1008347550003474500A20780
:10549800D98F93F7F77F2315F100834735001765F8
:1054A80002001305254F8D8BA304F100EF405250E5
:1054B8008356A100034691008345810017650200C9
:1054C8001305454EEF40D24E176502001305C54F30
:1054D800EF40124E2800EF00D032F240133515008D
:1054E80005618280138701921C475047AE970D8E45
:1054F80023A4F19223A6C192BE8501EA83C74193F2
:1055080089CB238A019201468145130500086F0063
:10551800B03A83D7619291CB8307070063D707001E
:105528000146814501456F00D044828041111765CD
:1055380002001305254606C6EF409247938501925F
:1055480083D7650003D7450083D6250003C6150019
:1055580083C50500176502001305C53DEF40524598
:10556800B240176502001305254641016F405244B9
:105578005D7103C7019286C6A2C4A6C2CAC04EDE28
:1055880052DC56DA5AD85ED662D466D26AD06ECE6B
:105598009377070613060002938601926384C74037
:1055A800130600046381C7480144639B071A0D8BE7
:1055B800054683C711926305C72029C3894563053A
:1055C800B73203C7119299476319F73A93070060F6
:1055D800176502001305454B2391F192EF40523DA8
:1055E800176502001305454BEF40D25017650200BE
:1055F8001305853DEF40D23B01449DA2254703D5C5
:105608002192E360F7FC176702001307672E8A07E9
:10561800BA979C433688BA9782879C4623800700AE
:105628009C46A3800700894785A01375F50FEF00F6
:10563800B01B23A80192B1A3935585008D4793F61B
:10564800F50F1374F50F6394F5049307E00E6311D7
:10565800F408176502001305E533EF407235176546
:1056680002001305E536EF40F248176502001305FE
:10567800A535EF40F233938741AC9C43B9D39843A7
:1056880023A4E19283C7470023A8F192DDA93D47EF
:10569800639EE502176502001305C52FEF405231DE
:1056A8001765020013050535EF40D244176502005F
:1056B80013058531EF40D22F938701AC9C43E382D9
:1056C80007F09843DC4323A4E1927DBFE3EBB7EEF8
:1056D80083278801014703C607001DE617650200F6
:1056E8001305C5362EC6EF40B22CB2452286176583
:1056F800020013056547EF40B22B1765020013053A
:10570800A52CEF40F22A75BD03C517006315D50017
:105718006309E4440507B2977DBF9387D1A323A407
:10572800F192854795B703A986019374F50F014453
:105738009309F00F130AF00F914A154B894B8347D1
:1057480009009DEF3DC8A38E91A2854781451D455F
:10575800238EF1A2EFF07FCFEFF05FB423A8019280
:105768002285B640264496440649F259625AD25ACE
:10577800425BB25B225C925C025DF24D61618280A9
:1057880083471900638F5701638067036397770125
:1057980083495900639334010544834709003E99BE
:1057A80079BF034A3900D5BFE39934FFE3170AFEEE
:1057B8004A85EFF09FCC2A84CDB723A8019211B572
:1057C80003C6D1A3E30F06DE194683D4219203C989
:1057D8004600638FC7046369F600E39407DE9C46BE
:1057E800238007009C4635BD29466388C7082D4796
:1057F800E399E7DC804E93F4F40F9309F00F130A52
:10580800F00F814A914B154C976C0200938C8C18C1
:10581800176D0200130D8D21976D0200938DCD1A1F
:1058280083470400ADE3D6852145EFF01FC211B5CB
:10583800A18093072002E396F4D8176502001305A8
:105848006515EF40F216176502001305651CEF4059
:10585800722A1765020013052517EF407215938702
:10586800C1AC9C43E38F07D403C7C701E31B27FFE1
:10587800D84B9C4F23A4E19201BD9C46238007008E
:1058880023A8E192FDAC8347140063887701638005
:105898008703834704003E9461B783492400034A81
:1058A8003400E31839FFE39644FFA28ADDB7E31218
:1058B80039FF63874403034634006685034B24009D
:1058C8000D8A32C6EF40D20E3246DA856A85EF403D
:1058D800320E6E85EF40D20D5A85EF00807B55BFA2
:1058E8002285EFF09FB975B783C5D1A3E38B05CCAB
:1058F80003C446006388C7049DCF0D47E393E7CCF4
:1059080083D72192E39B07EA176502001305051464
:10591800EF40120AA285176502001305A515EF408E
:105928003209176502001305250AEF40720822851F
:10593800EF00B00BFDB99C46238007009C46A3806E
:1059480007003DBF83D72192E39907E61765020058
:105958001305C50FEF40D205A28517650200130590
:10596800E50FEF40F204176502001305E505EF4067
:1059780032042285EF00500B29A417650200130595
:10598800E50CEF40F2021765020013056513EF40BE
:1059980072161765020013052503EF407201EFF038
:1059A800FFB899B90D8B85476315F7049387C1AC88
:1059B8009C4383C6460081EF17650200130505095D
:1059C800EF40027F1765020013050511C9B7D843D8
:1059D80019CF03C6C701631CD600138601939385AC
:1059E8008192138501920297635D0518F1B79C4374
:1059F800D9B78947E312F7FC9387C1AC9C4303D717
:105A080041922183D5DB944789CE03C6C701631A27
:105A1800E6001386019393858192138501928296FD
:105A2800E1B79C43C5B7138441AC1C40D5CF83C7AD
:105A3800570003C711926311F71083D7419211479A
:105A48006382E70415476388E706176502001305B4
:105A5800E5FFEF40E275176502001305250CEF40DE
:105A6800720917650200130525F6EF406274176581
:105A780002001305A5FDEF40A27317650200130588
:105A8800250D31B7176502001305C5F0EF404272C6
:105A9800176502001305C505EF40D205176502001A
:105AA800130585F2EF40C2701C40984783D7C700A2
:105AB80023A4E192D1BE176502001305A5EDEF40BE
:105AC800226F176502001305A503EF40B2021765A0
:105AD8000200130565EFEF40A26D1C40984B83D779
